:020000024000BC
:100000006FD0F267000000000018011800280128D6
:100010000228032800290129022903290429052986
:10002000062907290829002A012A022A032A042A64
:10003000052AA62AA0E60600A833040042040020F0
:10004000BC040020CA0300209C03002032030020CF
:100050004A3504008A35040028370400A839040012
:100060008C3A040008320400BA3104008C020020EB
:1000700036020020463F0400D0070020203504004F
:100080004E3C04003C8306001E8506008A8506005F
:1000900090380600C8380600D4680500485C0500A2
:1000A0009A7D06007E3C0400D8400600E2EF040082
:1000B00072F00400CCF0040066470400A44704007A
:1000C000244604000AB2040026AD0400480A0020B9
:1000D0005EBE0400C4C1040046A00400E89F040002
:1000E000AAA3040092A00400C69F04003EA004003E
:1000F0007C9F04000CA1040064A1040014A104006E
:1001000018A10400AEA104006CA104009CA104008D
:100110005CA6040060A6040008A1040010A104006D
:10012000ACA104005EA604005AA20400BAA7040011
:1001300022CF040096CF0400D0CF040056B40400B0
:100140006CB40400A4B40400EE94040014970400FA
:10015000F0970400066504009C5F0400028B040015
:10016000186004004A860400D6C306002EBC0600B0
:100170001AC1060034D8060000D706005EDB060070
:100180001ADB060056DB0600A6DC06000AAB0600FA
:1001900036DC060090CE0600B6CE0600D6CE0600AF
:1001A00016DD060006D50600A4D4060086DD06008E
:1001B0008EAD060022AE060042AE0600F4AD06008B
:1001C00056600600AE4B0600044F0600EC4C0600DD
:1001D000C6560600F27D0600347D06003EAB0600E2
:1001E000C2400400D8380600B8400600B0410600FE
:1001F000FC730600887406000A76060030B8040016
:10020000945F06005A5706008A490600185A0600ED
:100210005E4B0600BA0900204439060084DB060064
:100220001EDB060052DB06004EDB060032390400FE
:100230009AB504008CDB060042620600A663060045
:100240001264060078C1060088DB0600D2DB0600D7
:10025000D45B0500D6DB06001C250020342E0020D0
:1002600058C10600F6C20600DADB06002EDC0600E6
:1002700032DC060090DB0600CADB0600CEDB06009F
:100280006373B60082801C419105110523AEF5FE13
:10029000C5BFB737002037370020938787EF130794
:1002A00047616373F700828023A007009107D5BFE1
:1002B000411122C4B747024006C603A4C72023A6A3
:1002C00007200F10000011C199E5B747024023A68F
:1002D0008720014545A093073500C207C183F19BE4
:1002E000C207C183130740036366F7023737002054
:1002F00003254719373700208326C7186391A602C4
:10030000373700200327072269D3C207DD8D054553
:10031000029765BF3737002003250719E1BF7A210F
:1003200031EF5A21636CF704B73600203306F740EB
:1003300021489386C6196375C8028328050003D82F
:100340006600138687001D8F2A9661175AA2232004
:1003500016012313060010C15EA1130788FFFAA23D
:100360006EA1EE222105B387F540FEA2B7470240F9
:1003700023A68720B2402244410182800841BDBFAC
:10038000B747024003A8C72023A607200F1000008C
:1003900001E523A607218280B737002003AE471965
:1003A000B737002003A3C7188146F28763FE6708AA
:1003B00083A80700636DF50863EBA808138787001F
:1003C0006364E508F223216705076319E600373601
:1003D0000020034746FA05072302E6FA37360020D5
:1003E0001305C619CE237A21239307001306C619D5
:1003F0002E97420741837AA16383C70337350020D4
:1004000003250519630DF500EA2211E9DE2223A078
:1004100016012107BE95A105CEA27AA2B687984300
:1004200063046702B736002083A60619630ED7005F
:10043000762399EAD6234E231843A106AE96D6A377
:1004400098C37E22A1077EA2B747024099B7BE8615
:10045000C687A9BFB7370020B736002083A7471942
:1004600003A6C6182A87B305B5406314F6003A857B
:1004700029A8938687009C43E369D7FEE377F7FEBC
:100480002E85E3E4D5FEE3F2F5FE828023AC05FE83
:100490001C4181E70CC18280BA8703A787FF6DFFEB
:1004A00023ACB7FE8280411126C24AC0B744024045
:1004B00006C622C403A9C42023A604200F100000EE
:1004C00009E923A62421B240224492440249410171
:1004D00082802A842105BD654205C18D4181C93BC9
:1004E00011C9FD572320050042A17CA123A6242188
:1004F0002105D1BF23A624210145F1B701114AC826
:100500004EC6B747024006CE22CC26CA83A9C720D2
:100510002A8923A607200F10000037350020032466
:1005200085198144014609E889ECA1654A8597301F
:1005300004E0E780A06E25A08347E4FF639D2703C6
:10054000A1C0A68513058519973004E0E78040EC2B
:1005500069DCA1654A85973004E0E7804026F240D7
:100560006244B747024023A6372126854249D24438
:10057000B2490561828091E02286032484FF65B739
:10058000A284E5BFB737002083A7871E99E33E8585
:100590008280BA236315B7009823E30AA7FEDC47DD
:1005A000F5B7B747024003A7C72023A607200F10BF
:1005B000000001C599C1814711E6B747024023A653
:1005C000E7208280B386F50003C80600B306F50075
:1005D000850723800601E317F6FEC5B737470240BB
:1005E0008327C720232607200F10000019C191C1BF
:1005F00011E6374702402326F7208280910503A7A2
:10060000C5FF11057D16232EE5FEDDB737470240F5
:100610008327C720232607200F10000001C53307BA
:10062000C50011E6374702402326F72082800505E2
:10063000A30FB5FEE31DE5FEF5B7B747024083A65D
:10064000C72023A607200F10000081473307F500BD
:100650000307070019E7374702402326D7203E85C6
:1006600082808507E5B7011126CA4AC8B74702400C
:1006700006CE22CC83A4C7202A892E8623A6072053
:100680000F100000131506019305F004418132C6D6
:1006900005312A8401C53246CA8521372285F240B8
:1006A0006244B747024023A697204249D2440561DD
:1006B0008280B747024003A7C72023A607200F1058
:1006C000000001C599C1814711EAB747024023A63E
:1006D000E720054582808507E309F6FE3308F5002B
:1006E000B386F500034808009422E306D8FEB74716
:1006F000024023A6E72001458280B747024003A7B6
:10070000C72023A607200F1000009307F6FFBE9511
:100710002A966317C500B747024023A6E7208280C8
:10072000FD159C310505A30FF5FEE5B737470240DF
:100730008327C720232607200F10000001C5330799
:10074000C50019E6374702402326F720014582807D
:1007500005058346F5FFE397B6FEE31BE5FE374745
:1007600002402326F72005458280797126D2B734CE
:10077000002022D403A4841E06D64AD04ECE52CCEA
:1007800056CA5AC85EC662C455C4373A00203739C3
:100790000020B7390020814BB73A002037CBC90180
:1007A000130ACA1E1309C919938949233E2099EFD8
:1007B0005C44639A0B0023A4F41E032CC40022851E
:1007C000C1366284A9A823A6FB00C5BF83A70A1E61
:1007D00082971C443307F5406376F50003A7490070
:1007E0001D8F2A979306FB3763EAE6062328090044
:1007F0002E200820973004E0E78060FC5C405844DD
:10080000B1C70C4403A64900AE97BE8663E4B700A7
:1008100063E4C700B386C74014C4A28B3A8459F47A
:10082000B73700209387C719984B854663FCE604C9
:100830007D1798CBB250225492540259F249624A21
:10084000D24A424BB24B224C4561828063950B00E9
:1008500023A4E41E9DB723A6EB0085B703278A02D5
:1008600019CB63EDA7003385A74083270901637483
:10087000F5002328A900A28B404455B703A74900DF
:10088000BA97D5B723A8070075B701114EC6B74769
:10089000024006CE22CC26CA4AC852C483A9C72029
:1008A00023A607200F1000003734002093074423AD
:1008B000C843DC2713044423B9CFB73700209387FC
:1008C000873B03D7470B21CB83A4070B6385A40485
:1008D000B73700201387C719184B138AC719630F3E
:1008E000A70E373900208327091E829763E5A40EDF
:1008F0008327091E898C829703270A0163F3E4008A
:100900002687B307A7003E85544063E4E70063E40D
:10091000D7003385D740B747024023A637215C4034
:10092000639DA702B73400209384C4199848B73751
:10093000002083A7071E6315A70A82975440B74774
:1009400036FE938707C8B6973387A7003A85636456
:10095000F7006364D7003305D740B734002093878E
:100960004451DC539384445199CBB737002083A67C
:1009700007593707CDFF7D179C46F98F9CC611E1BB
:1009800048408547DCC4B737002083A747218297BA
:1009900005E1DC5089CFDC4499CB974006E0E78045
:1009A00040BE973006E0E780801B23A60400753B1D
:1009B000DC5091CBB737002003A70759B7063300A7
:1009C0001C47D58F1CC7F2406244D2444249B24909
:1009D000224A056182805C40BE9419BF268525BFEE
:1009E000829794485840B387A6003E8563E4D700B9
:1009F000E3E5E7F63385E7408DB7B737002023AC52
:100A0000A7EE11C5B73700200547238EE7EE828099
:100A1000B737002003A787EF411122C406C613840D
:100A200087EF11C30297B737002083C7C7EF93F74B
:100A3000F70F99E323200400B24022444101828051
:100A4000011126CAB734002022CC4AC89387442318
:100A500006CE4EC652C456C2DC27373900209384D6
:100A600044231304891C95E3B7370020938747512B
:100A7000D833058B19CBF8339946639BE60AA382DA
:100A80000700EF10F05F5C4482971C4491C382978B
:100A900037340020B73900209307C41903A7491E33
:100AA0009033130AC4198347C41993961700BA9652
:100AB0009622C9CA8347C41963EEC708230E0418D7
:100AC00037340020930744519C37130444516391F9
:100AD0000710B737002083A7071EF5C3DC40232883
:100AE000FA006131B737002083A74721E9CB7C307A
:100AF00011476366F70CB737002093870756DC274A
:100B0000918BD5EFB737002083C7C7EF93F7F70F67
:100B1000DDE783461A0003A6491E63C7D70C62446B
:100B2000F240D2444249B249224A924A0561B1BBDD
:100B3000F8339D46E39BE6F4A3820700EF10505480
:100B40001C4899B7850793F7F70F230EF418E3ECC9
:100B5000C7F48DB786073E970E2323100700034581
:100B6000C419B737002083A7471C13172500B73ACD
:100B70000020BA979C43239E0A1C829783D7CA1DE4
:100B80000347C41993C7F7FF7D8D9317170003A779
:100B9000491E3E971E235D8D0AA38347C41981C752
:100BA0008507230EF4188327891C81C78297232485
:100BB000091C0347C41983471A00E371F7F0F24098
:100BC0006244D2444249B249224A924A0561828033
:100BD0007C3093F7F70FE39E07EEA30404009730F1
:100BE00006E0E7802046F5B51397170032971A23E1
:100BF00079F785071DB7374702408326C720F1776D
:100C0000FD17F58F2326F72001000100B7370020DC
:100C10009387C719C84F832787262326D7206A05BD
:100C200093C7F7FF99835D8D8280B737002083C714
:100C3000F71989CFB737002083C7072491CBB7377F
:100C4000002003A347246307030002830545828035
:100C5000094582801305F00F8280B737002003C654
:100C6000473BB737002003A747F781476315F600D6
:100C7000814636858280BA8613078702835587FDB1
:100C8000E389A5FE850793F7F70FCDB7B7370020A7
:100C900003C7573BB737002083A707F92A86050704
:100CA00081463E859E236388C700850693076500BD
:100CB000E3E9E6FE01458280B737002003A787F805
:100CC00019E3014615A81C4703D8A700636B05016B
:100CD00083584700B38608016355D5008146639465
:100CE00016011843F1BF3E86C10703D3A7FF631760
:100CF000A30099C123900501328582808506C20632
:100D0000C182F1BFB737002003C6473BB737002089
:100D100003A7473581476315F600814636858280F3
:100D2000BA861307C703835567FCE389A5FE8507C9
:100D300093F7F70FCDB7032785116DCB411122C46F
:100D400006C65C258345E5042A8493F7C70F5CA596
:100D50001437522713958601618563F7C5066351E1
:100D60000506082793F6F60714B7054693E627000D
:100D70006314C50093E6170054A45C4389075CC361
:100D80004CB8032504112E864C430905EFF07F81F2
:100D9000832784115038D443DA27B296118FD4C3F5
:100DA000DAA789473CBCB73700200347640383C7F1
:100DB000E71F6371F7045C2493E707015CA41DA897
:100DC00093E717005CA46DBF9376F60F6359050295
:100DD0000827854513E627006314B50013E61700BE
:100DE00050A454B8A304070085473CBC8327841152
:100DF0009C43D5FBB240224401454101828093E7E8
:100E000017005CA454B8A3040700032504114C4345
:100E10000905EFF00FF9832784115038D443DA27FE
:100E2000B296118FD4C3DAA78D47C1B7054582802A
:100E3000B737002083A7474E411122C406C6858BD1
:100E40002A84D5E34165130525F5977005E0E78011
:100E500080C851C93C253EA583270412ADE3232059
:100E6000A4122322A41285472311F4042320050091
:100E70007C2854415EA5583418A5054718B5373766
:100E80000020032787531385170215811C437D1506
:100E90001375F50F9CC25C43DCC21C479CC65C47C3
:100EA000DCC61C4B9CCA5C4BDCCA1C4F9CCE5C4F06
:100EB000DCCE19CD9386060213070702C1BF832734
:100EC000441288C3835724042322A412850769BFD0
:100ED000B73700209387873B9A2705079AA7B24028
:100EE0002244410182805C2423090400054593C704
:100EF00047005CA4EDB71C2D93F7E70FC5EB1C3D35
:100F0000D5E73029542509CA3737002083456503C2
:100F10000347F71F63E7E50013F7060149CB0147D5
:100F200009C6C18A0357251E81C68356651E36979A
:100F30003DCFB737002003D5C7231307C712374665
:100F40000F00B335A702411113060624814622C4BF
:100F500026C206C67D543305A70297D006E0E78077
:100F60000023B737002083C73720B384A700B737E3
:100F7000002003A747458327070963F387003E84C2
:100F8000184375FBB737002083A7071E8297814758
:100F90006364A400B307A440B2402244B3B79700EF
:100FA00093C7170092443E854101828081473E8568
:100FB0008280B737002003A7C7537C53FDFF828090
:100FC00001114EC6B73900209387893B22CC03A478
:100FD000470A26CAB7340020938744239E274AC86D
:100FE000035964080325040906CE3309F902B747FB
:100FF0000F001387F7239387072452C456C25AC0A1
:101000009389893B938444233A993359F902636D58
:101010002503373A002083270A1E3309254182978A
:101020006367A9023309A940634609028357040490
:10103000A30F040085072310F4048347041463946A
:1010400007102285CD2D11A2DC403E95D9B7DC409A
:101050003E99C9BF83270A1E829703278408636FBE
:10106000E508198D7E3C9A248E07B387E7021307A3
:10107000003293870719B3D7E70263E5A708B74A99
:101080000F00138BFA23938A0A24835704048507DD
:101090002310F4048347041499E32285692D2285E3
:1010A000976005E0E78020B4631D052483260409CA
:1010B0008327C408D840B6973E8563E4D70063E42D
:1010C000E7003385E7407C3C035964082328A408E3
:1010D00085077CBC9E243309F9025A993359590378
:1010E000636C25053309254183270A1E82976369AE
:1010F000A9043305A940E34A05F80DBFDC40998FE8
:101100003E958DB7A1452285976005E0E780E0A573
:10111000A305A402B737002003A307226303031E1D
:101120006244F240D2444249B249224A924A024BB6
:101130008945154505610283330927412A996DB711
:10114000DC403E997DB72285512D2285976005E0D0
:10115000E78060A96317051A8A2483576408B74695
:101160000F001386F623B387A7029386062403276E
:101170000409230B040283AA4400B297B3D7D70211
:10118000636BF718B307F7408326C4082324F408D9
:10119000014BB387E6003E8963E4D70063E457015F
:1011A000338957411E3023282409A1CB83560404D8
:1011B0005A3037460F0056B03387E640B387E70210
:1011C0003A301306062481468145BA97C207C18387
:1011D0003385A7023EB097D006E0E78040FB11CDF3
:1011E0004A95333925012E99AA8763142B0163642C
:1011F0005501B30755412328F40883270A1E829717
:101200002A8983270A1E8297E30D25FF83270A1E5A
:101210000329840882976365A9103305A9406302F6
:10122000051283DA84008357640837490F001307D7
:10123000F923B387570313090924BA97B3D72703B0
:101240003737002003473720BA9763ECA70EB33532
:101250002503035A2402568681463305250397D079
:1012600006E0E780C0F2330BAA0033055A03374685
:101270000F00130606248146814597D006E0E780DB
:1012800000F10DC1B337250356868146B305B90277
:101290003305A902BE9597D006E0E78040EF3305FD
:1012A000AA402AB03545973006E0E78040EA23A2FD
:1012B000890A383485476318F706930700FD7CA434
:1012C000B737002003A5C74FDC24B5C7EFF0EFF216
:1012D000B736002003A6C653B7370020938747517F
:1012E0001547F8B35846F977FD17F98F5CC60F100C
:1012F000000083A7C6538966060B94C723A267071D
:10130000D8C7F2406244D2444249B249224A924A82
:10131000024B05618280B3065701B387F640ADB535
:10132000DC403E99DDBD930710FC7CA4B73700205C
:1013300003A5474F51BF8145973004E0E78000A6E1
:1013400041BFDC2423A2090A85C3B737002003A5C7
:10135000C74E973004E0E78000DFB7E700E03707CB
:10136000000223A2E72071BF8347940285456244AF
:10137000F240D2444249B249224A924A024BB395C2
:10138000F500C205C18101450561172304E067002E
:101390000343011122CC4AC84EC606CE26CA52C407
:1013A00056C25AC0383585472A842E8983290509B3
:1013B0006315F71E83570508035BC503373A002002
:1013C00093064A2383DA8600130A4A2363FF6719C8
:1013D0001429639CE618032785116318071803274F
:1013E000450A6314071874351D476390E6182A3DB3
:1013F000330BFB409307204E3305650383244409D8
:1014000037460F001306062481463305F502B73729
:10141000002083C72720B3549502B3B5AA02BE9417
:10142000C204C180231394083385AA0297D006E032
:10143000E780E0D5AA9933B5A9002E954E8783277A
:101440004A0019E163E4F9003387F940B384540397
:10145000B7460F009387F623938606242320E900DE
:10146000BE94B3D4D40293171B00A6976369F70EFA
:101470001D8F2320E900B739002083A7091E83248C
:101480000900829763EEA4103385A440635D050ACA
:1014900083A7091E373B0020130B4B23829703279A
:1014A00009006365E510198D7E3C03578B008E079C
:1014B000B387E7021307003293870719B3D7E70210
:1014C00063EBA70E374A0F00930AFA23130A0A2484
:1014D0008357040485072310F4048347041499E315
:1014E0002285912C2285975005E0E780C06F6DE141
:1014F000832604098327C40803274B00B6973E853B
:1015000063E4D70063E4E7003385E7407C3C835421
:1015100064082328A40885077CBC83578B00B38408
:10152000F402D694B3D444036363950CB30495409A
:1015300083A7091E23209900829763EEA40A3385AE
:10154000A440E34705F8B737002083C7372063E29C
:10155000A708B737002023AE874401459DA88326FE
:101560004A00B387F6403E9729B783576408374748
:101570000F00B38457039307F723A6979304072418
:10158000B3D4970263E79900B3849940232099006C
:10159000DDB583274A00BE99C5BF23A03501E1BD53
:1015A000B737002083A78723BE94F9BD83274B005C
:1015B000998F3E95D5BDA1452285975005E0E780DE
:1015C000C05AA305A402B737002083A7072281EFE2
:1015D0007D55F2406244D2444249B249224A924A7D
:1015E000024B05618280894515458297D5B7B304C2
:1015F0009740AA9435BF83274B00BE9489B721CD6D
:1016000001116C0022CC06CE2A84613339C1FD570A
:101610006307F502B73600209386C61EFC3A94563F
:10162000324791C285836360F702B307F7403EC635
:10163000B24503459402972004E0E780202EF24053
:10164000624405618280B736002083A686233697E0
:10165000E9BFBD32EDB78280B737002079711387BB
:10166000873B4AD00329C70906D622D426D24ECEBC
:1016700052CC56CA094763000906B7340020938A42
:10168000873B93874451FC339546938444510D47DF
:101690006383F604DC442A8A99CB973006E0E7801E
:1016A00040EE972006E0E780804B23A60400FD591A
:1016B0006C004A85F93915E937150020130505D561
:1016C000EFF0AFB3A147DCA0B737002083A7C75323
:1016D0000947F8D30D47B250225492540259F249A7
:1016E000624AD24A3A854561828063743501324448
:1016F000AA8903290900E31D09FAFD571307F00F12
:10170000E38BF9FC914763F187029307B4FF232031
:10171000FA0023A8FA0A0147DDFFB737002083A7A4
:1017200087232320FA0045BFB737002083A78723EC
:10173000ED17A297E9BF797126D206D622D44AD0F6
:101740004ECE52CC56CA5AC85EC683475503034490
:101750007513AA843E941374F40F9307400263F642
:1017600087001304B4FD1374F40F03AA841383AA2F
:10177000C413A38B841222865285D68597D006E0A7
:10178000E780609B058915E503CBD41201498149A7
:10179000337B6403930B50024A865285D68597D0DB
:1017A00006E0E7804099058915C5639169031374C4
:1017B000F90F238B8412B250225492540259F249E9
:1017C000624AD24A424BB24B456182808509E209A6
:1017D00093D989410509E31179FDE1BF8327850983
:1017E00003560504797193D60701BD8EC206C182E6
:1017F000358E1357764093575640898B058B5D8FF6
:1018000093573640918B5D8F93571640A18B5D8F18
:1018100093171600C18B5D8F9317360093F707025D
:101820005D8F931756009355860093F707041E06A5
:101830005D8F1376F60F518F93D7554013D63540F1
:10184000118A898BD18F13D67540D18F13D615404D
:10185000218AD18F13961500418AD18F13963500B6
:1018600013760602D18F13965500137606049E0553
:10187000D18F93F5F50FCD8FA20745465D8F3307C6
:10188000C70222D42A8426D252CC56CA032A8413F1
:10189000832AC4135AC806D6369742074183935702
:1018A0007740135557400989858BC98F13553740A9
:1018B0001189C98F135517402189C98F1315170036
:1018C0004189C98F1315370013750502C98F131588
:1018D000570093558700137505041E07C98F1377AA
:1018E000F70FD98F13D5354013D755401189098B80
:1018F000498F13D57540498F13D515402189498FDC
:10190000139515004189498F13953500137505020C
:10191000498F13955500137505049E05498F93F55E
:10192000F50F4D8F2207D98FB387C7024AD04ECE0D
:101930005EC662C4B697C207C18313D7774013D57A
:1019400057400989058B498F13D537401189498F35
:1019500013D517402189498F139517004189498F65
:101960001395370013750502498F1395570093D5CA
:101970008700137505049E07498F93F7F70FD98FDA
:1019800013D5354013D755401189098B498F13D58D
:101990007540498F13D515402189498F139515003E
:1019A0004189498F1395350013750502498F1395A9
:1019B0005500137505049E05498F93F5F50F4D8F5E
:1019C0002207D98FB387C702130650025285D685E6
:1019D000B697BD8E93940601C18033F6C402137B83
:1019E000F60F97C006E0E780007505890DED834787
:1019F000D41201498149B3849702130C5002C1806B
:101A00004A865285D68597C006E0E780C072058970
:101A1000937BF90F11C563863403850993F9F90F98
:101A20000509E31F89FD230B6413B250225492541D
:101A30000259F249624AD24A424BB24B224C4561AA
:101A400082805E8BCDB78327C508035685087971E0
:101A500093D60701BD8EC206C182358E13577640DC
:101A600093575640898B058B5D8F93573640918BEA
:101A70005D8F93571640A18B5D8F93171600C18B16
:101A80005D8F9317360093F707025D8F931756000B
:101A90009355860093F707041E065D8F1376F60FA5
:101AA000518F93D7554013D63540118A898BD18FEA
:101AB00013D67540D18F13D61540218AD18F139636
:101AC0001500418AD18F1396350013760602D18F07
:101AD00013965500137606049E05D18F93F5F50FE6
:101AE000CD8FA20745465D8F3307C70222D42A84D3
:101AF00026D252CC56CA032A040A832A440A5AC858
:101B000006D636974207418393577740135557407F
:101B10000989858BC98F135537401189C98F135592
:101B200017402189C98F131517004189C98F1315D3
:101B3000370013750502C98F131557009355870099
:101B4000137505041E07C98F1377F70FD98F13D5A7
:101B5000354013D755401189098B498F13D57540EE
:101B6000498F13D515402189498F13951500418957
:101B7000498F1395350013750502498F139555004C
:101B8000137505049E05498F93F5F50F4D8F2207B8
:101B9000D98FB387C7024AD04ECE5EC662C4B6970D
:101BA000C207C18313D7774013D557400989058BE6
:101BB000498F13D537401189498F13D51740218993
:101BC000498F139517004189498F13953700137575
:101BD0000502498F1395570093D5870013750504A7
:101BE0009E07498F93F7F70FD98F13D5354013D739
:101BF00055401189098B498F13D57540498F13D5ED
:101C000015402189498F139515004189498F1395F6
:101C1000350013750502498F13955500137505049A
:101C20009E05498F93F5F50F4D8F2207D98FB38706
:101C3000C702130650025285D685B697BD8E93947F
:101C40000601C18033F6C402137BF60F97C006E08D
:101C5000E780604E05890DED8347140801498149ED
:101C6000B3849702130C5002C1804A865285D685F0
:101C700097C006E0E780204C0589937BF90F11C5DA
:101C800063863403850993F9F90F0509E31F89FD7C
:101C9000230F6407B250225492540259F249624A07
:101CA000D24A424BB24B224C456182805E8BCDB70B
:101CB0008327450903568508797193D60701BD8EA0
:101CC000C206C182358E1357764093575640898B92
:101CD000058B5D8F93573640918B5D8F93571640E0
:101CE000A18B5D8F93171600C18B5D8F9317360004
:101CF00093F707025D8F931756009355860093F76D
:101D000007041E065D8F1376F60F518F93D755404B
:101D100013D63540118A898BD18F13D67540D18F58
:101D200013D61540218AD18F13961500418AD18F81
:101D30001396350013760602D18F1396550013764D
:101D400006049E05D18F93F5F50FCD8FA20745466A
:101D50005D8F3307C70222D42A8426D252CC56CABA
:101D6000032A040B832A440B5AC806D63697420727
:101D7000418393577740135557400989858BC98F05
:101D8000135537401189C98F135517402189C98FC1
:101D9000131517004189C98F1315370013750502F4
:101DA000C98F1315570093558700137505041E0737
:101DB000C98F1377F70FD98F13D5354013D75540F7
:101DC0001189098B498F13D57540498F13D515405B
:101DD0002189498F139515004189498F1395350045
:101DE00013750502498F13955500137505049E055B
:101DF000498F93F5F50F4D8F2207D98FB387C7020F
:101E00004AD04ECE5EC662C4B697C207C18313D70E
:101E1000774013D557400989058B498F13D5374033
:101E20001189498F13D517402189498F13951700C0
:101E30004189498F1395370013750502498F139512
:101E4000570093D58700137505049E07498F93F7B4
:101E5000F70FD98F13D5354013D755401189098B0A
:101E6000498F13D57540498F13D515402189498F66
:101E7000139515004189498F139535001375050297
:101E8000498F13955500137505049E05498F93F5E9
:101E9000F50F4D8F2207D98FB387C7021306500263
:101EA0005285D685B697BD8E93940601C18033F6D0
:101EB000C402137BF60F97C006E0E780C0270589B0
:101EC0000DED8347F40801498149B3849702130C4F
:101ED0005002C1804A865285D68597C006E0E780C9
:101EE00080250589937BF90F11C563863403850925
:101EF00093F9F90F0509E31F89FD230F6407B25019
:101F0000225492540259F249624AD24A424BB24B8D
:101F1000224C456182805E8BCDB74111B7370020DE
:101F200026C283A4074106C622C44AC08547C1C44D
:101F300003A4C40A854741C03C241307700A639375
:101F4000E70858301C34B736002013864623B38781
:101F5000E7021A265042B387E7021307003293873D
:101F60000719B3D7E70203A74409938446233E9792
:101F70003A896364F7006364C7003309C740B73721
:101F8000002083A7071E232025018297B307A940BD
:101F90006374A900D840BA9781E79307F00F21A88E
:101FA00058309306204E3307D702E3F8E7FE930735
:101FB00080FA3CA48147B2402244924402493E85C3
:101FC000410182801307800AE399E7FCB7370020BC
:101FD00083A7071E82972A893545972006E0E78068
:101FE0000017B7370020938747512D47F8B3583073
:101FF0001C34B736002093864623B387E7029A261F
:10200000D442B387E7021307003293870719B3D787
:10201000E70203A744093E973A866364F7006364C6
:10202000D7003306D740E31AC9F637D505001305A4
:10203000459BEFE09F9CB737002083A7C753094714
:10204000F8D7A1BF397122DC3734002093074451FF
:102050009C4F06DE26DA4AD84ED652D456D25AD0F3
:102060005ECE62CC66CA6AC86EC613970701635D0E
:10207000071EB737002083A4074183A9C40A83C77A
:10208000990003A7C9009207330CF70003452C0001
:10209000314705053305E50203574C003A954205E3
:1020A0004181EFE04FC0AA8B630B051C130DC500E7
:1020B0002324A50103462C00B145F97A3306B60264
:1020C0001304445123130C000149373A0020373BD5
:1020D0000020B73C0020930D9005FD1A6A96232638
:1020E000CC0003C679009307D0070325CA533306F3
:1020F000F60285671CC5B7073300060630D10326F4
:102100008B500C4293F5F5E70CC20C4293F5F5E7C2
:1021100093E505100CC203A80C5983258800DD8DBA
:102120002324B80083A509002328B5050CC68355D0
:102130006C000326CC002E962324CD0003461C0001
:10214000930550024A96A301CD0003C50408014639
:10215000A3000400972006E0E78000D70326CA53B7
:102160004846B37555014CC60F1000000326CA53EC
:10217000896503288B500CC6930500F84CA0832575
:102180000800B1818D89E1E1930560196CD248C6E0
:10219000A30204008545A30004000CC2D5259720A6
:1021A00006E0E780A0F21030058A5DCAEA85268540
:1021B00097C005E0E780C0A60DED03465D004DC267
:1021C00083556C0003554C00B29563DBA508AC2821
:1021D000A848918D8905AA9503258D00EFE06FBC75
:1021E00023020D0083455D0003566C002E962313D9
:1021F000CC008325CA53310DB0517DFE03462C001F
:1022000005091379F90FE36EC9EC98245E85A38163
:10221000EB0083470C00A3820B002383CB002382B7
:10222000FB006254F250D2544259B259225A925A87
:10223000025BF24B624CD24C424DB24D21611713FE
:1022400005E0670003E1832508000948B1818D8915
:10225000639505019305E04315BF9305E01B3DB76A
:102260007D562302CD0071B7B737002083A7C7532F
:10227000FC5791C7B73700200547238EE7EEF25091
:102280006254D2544259B259225A925A025BF24BCA
:10229000624CD24C424DB24D216182800111B73760
:1022A000002022CC03A4474826CA4AC84EC606CE00
:1022B000AA8413092500854905C09C303830858BD8
:1022C0006304F700405CCDBF1946930544004A857E
:1022D000EFE02FBEE31835FF2285F2406244D2447E
:1022E0004249B249056182804111B737002022C4BA
:1022F00003A4474826C24AC006C6930425000549E0
:1023000001E82285B2402244924402494101828080
:10231000A6851305A40297C005E0E780A040E3026C
:1023200025FF405CF1BF4111B737002022C403A450
:10233000474826C24AC006C693042500054901E85D
:102340002285B24022449244024941018280A685FE
:102350001305A40197C005E0E780C03CE30225FF18
:10236000405CF1BF011122CC604126CA4AC84EC66A
:1023700052C406CEAA841D4A130965058549BC448A
:102380006364F400054591A0D8345C2063174705C9
:1023900003C784026304F7000040D5B7583083C7F1
:1023A0005405E31BF7FE1946CA8513056400EFE0E8
:1023B0004FB0E31335FF582483C79402E31EF7FCA4
:1023C0007A24BE34E31AF7FC0145F2406244D24459
:1023D0004249B249224A05618280E31FF7FA583028
:1023E00083C75405E31AF7FA1946CA851305640032
:1023F000EFE02FACE31235FBC1BF4111B73700202E
:1024000022C403A4874306C626C24AC079C88347AC
:10241000840B1307700A6393E70A0347140E83477C
:10242000A40BB736002013864623B387E7021A268B
:10243000938446235042B387E70213070032938701
:102440000719B3D7E7020327440A3E973A89636422
:10245000F7006364C7003309C740B737002083A77C
:10246000071E232025018297B307A9406374A900A2
:10247000D840BA978DC70347140E9306204E3307F2
:10248000D70263FEE700930780FA230CF40A0144A5
:102490002285B2402244924402494101828037356C
:1024A000060013054592EFE04FD5B737002083A70C
:1024B000C75309471304F00FF8D7D9BF1307800A91
:1024C0001304F00FE396E7FC373506001305459239
:1024D000EFE0AFD2B737002083A7C7530947F8D73B
:1024E00045BF054475B70111B737002022CC03A4BE
:1024F000C74726CA06CE2AC42EC6854419E401451C
:10250000F2406244D244056182809C841830858BFD
:102510006304F7000044DDB719469305A1001305D5
:102520002400EFE00F99E31795FE0545D1BFB736BC
:10253000002083A746501307001098C323A007006C
:102540001831034825002207420842970348050036
:102550004297034835006208429798D7583103489C
:102560006500220742084297034845004297034806
:10257000750062084297D8D718350348A50022078E
:10258000420842970348850042970348B500620815
:10259000429798DB58350348E500220742084297E6
:1025A0000348C5006835429762052A97D8DB983101
:1025B000A821220742052A9788212A97A831620577
:1025C0002A9798CFD831E821220742052A97C821B7
:1025D0002A97E83162052A97D8CF9835A82522078F
:1025E00042052A9788252A97A83562052A9798D305
:1025F000D835E825220742052A97C825EC352A97C1
:10260000E2052E97D8D3D843759BD8C3D843136718
:102610001700D8C398431367170098C303A7465001
:102620005C43858BBDE71C4F01451CA283A7465028
:102630009C4FA1831CB283A746509C4FC1833CA2F0
:1026400083A746509C4FE1833CB283A74650D84FA6
:1026500058A2D84F218358B2D84F418378A2D84F7F
:10266000618378B2985318A69853218318B698536B
:10267000418338A69853618338B6D85358A6D853A7
:10268000218358B6D853418378A6DC53E1837CB6C6
:102690008280010061B7B737002003A7C753160532
:1026A000136505083C4B93E707083CCBB737002080
:1026B00083A7475003A7450E88C398CB03A7850E71
:1026C0000145D8CB03A7C50B98CF03A7050CD8CFDE
:1026D00003A7450C98D303A7850CD8D303A7C50C33
:1026E00098D703A7050DD8D703A7450D98DB03A7F7
:1026F000850DD8DB03A7C50D98C703A7050ED8C75E
:1027000098431367070498C38280B737002003A754
:10271000C7531605136505083C4B93E707083CCBE8
:10272000B737002083A7475003A7C50E88C398CBAF
:1027300003A7050F0145D8CB03A7C50B98CF03A767
:10274000050CD8CF03A7450C98D303A7850CD8D385
:1027500003A7C50C98D703A7050DD8D703A7450D28
:1027600098DB03A7850DD8DB03A7C50D98C703A782
:10277000050ED8C798431367070498C3B7370020DE
:1027800093874751130700F8F8A38280B7360020DB
:1027900003A7865041114AC01C5F06C622C4998314
:1027A00026C2858B3689B5CF9307000637340020C3
:1027B0001CDF834744519304445193F7070489CFA6
:1027C000B737002083A7071E8297C8CC83474451A0
:1027D00093F7F70B230AF4508347445193F707020A
:1027E00085C383474451373700200327C75393F7E6
:1027F000F70D230AF450DC48A16614C786077CD77E
:10280000DC2093F7070491EF8547DCB0B737002051
:1028100083A7C753096798C7130700FCD8A0984837
:10282000F8D3032789501C5F9183858B89CBC147DF
:102830001CDFB7370020938747518546D4A31C5F20
:102840009D83858B91CB930700081CDFB737002051
:10285000938747510547D8A3B737002083A7475030
:10286000D8430583058B19C7D843759BD8C3D84374
:10287000799BD8C3B24022449244024941018280EC
:10288000B7370020B736002003A6C75393874651B9
:1028900003C74651058B19E79833058B01E778523A
:1028A00065FBD833A38207008280373800200327D6
:1028B00088501C5F9583858BBDE701C61C5BBD837B
:1028C0001CA29DC683278850985B460793576701D3
:1028D0006356070093E707C0C207C183039706004A
:1028E000C207C18709C7BA970947B3C7E7029EA2C3
:1028F00085C11C3191CF3E951C350547194593F68E
:10290000F7066393E602E207E187394563CE0700E5
:10291000832788503737002001459C5FED838D8BDE
:10292000A30FF750828005458280411122C406C65C
:102930003734002026C20327C4533DE5AE877453C5
:10294000FDFEB7340020938444513E85B285238137
:102950000400971006E0E780C042B737002083A745
:102960008750B70680009843558F98C3D857719BFE
:10297000D8D78327C453A3820400A3800400094747
:1029800098C38326C453B737002093874751B82391
:10299000058B11E7B833058B19E3F8526DFBB24094
:1029A00022449244410182808D47631FF500B7376E
:1029B000002083A78750B70680009843558F98C39F
:1029C000D857719BD8D775BF8547E31CF5FA544794
:1029D000F977FD17F58F5CC70F1000008327C453EC
:1029E0000967130600F898C73737002013074751C7
:1029F00050A33737002003268750184231830D8BB0
:102A000011E713076019F8D3D4C7A5BF18420946C8
:102A100031830D8B6315C7001307E043EDB7130730
:102A2000E01BD5B75D7152DC373A002003278A508E
:102A300086C6A2C4A6C2CAC04EDE1C43B739002057
:102A40003739002093F7F7E793E707081CC383A6FD
:102A500009593707CEFF7D179C46130680022A844A
:102A6000F98F9CC68327C9532800AE8423A8070486
:102A700093051008EFD09FB93545971006E0E78021
:102A8000006D83278A509376F41F3706330023A402
:102A90000700984B370FFCFF4E881367F70398CB5E
:102AA000F84FCA88130510F8137707E0558FF8CF51
:102AB0009843F576FD16758F98C337370020832627
:102AC000C95313074751A3020700A3000700054796
:102AD00098C29843D285B70204001377F7E798C3EA
:102AE00098439303802511491377F7E7136707107D
:102AF00098C303A709597D1F85491C47930F80027E
:102B0000D18F1CC793079005BCCA014734001353EB
:102B1000370026938347030013767700B3D7C74067
:102B2000858BE1C383A78550832E0859239C070416
:102B30002390070603AECE02137EDEFF23A6CE034C
:102B400083AE0700137EF70793FE0EF833EECE0137
:102B500023A0C70103AE4702336E5E0023A2C70362
:102B600083AEC853014E23A27E0603DA070663072D
:102B70004E0303AE0703038A0600135EFE00620ED7
:102B8000135E8E416358CA0103AE0703135EFE0055
:102B90002380C60103DE0706137EFE0F03AA4E063E
:102BA00063060A0003DA8705E37F49FB03AE4702A9
:102BB000337EEE0123A2C70383870600635CF40023
:102BC000034E03003396C9001346F6FF3376C60161
:102BD0002300C3003E8663D3A7002A86131586010F
:102BE000618505071377F70F8506E312F7F3B64003
:102BF000264496440649F259625A61618280B73789
:102C0000002083A7C753D8479316170163D2060243
:102C100098479316170163DD06007D57B8D73737FD
:102C200000201307C719544F850654CF116798C762
:102C300098470D83058B11CF373700201307475175
:102C4000342393E6160034A3930600F854A32147D7
:102C500098C79847058B19CB373700201307475182
:102C6000143393E6160014B3054798C798470983B1
:102C7000058B09E798470583058B31CB3737002053
:102C800013064751A30206009447B735002083A5D9
:102C900085508982858AE5C69441B1828D8AE9EEA4
:102CA000A84B54521376050294324DC2F9E29306B2
:102CB000D005D4CF8346475193E61600230AD75058
:102CC000114798C7D855719B13671700D8D59847F7
:102CD0009316370163D40602373700209306873BEB
:102CE00003C6C6071307873B418A45C203C7C60709
:102CF00013670702238EE606056798C79847931661
:102D0000270163DF0600373700201307475154239C
:102D1000E206E18663D40600854654A3096798C796
:102D200098479316070163D206023737002013072E
:102D3000873B8346D707858AADCA8346D70793E684
:102D40002600A30ED706216798C78280ADD205461C
:102D50006395C60093061006A9BF09466395C60091
:102D600093065006B9B70D466395C60093069006C4
:102D700089B79306B00635BF9306C0061DBF38322B
:102D80001367170038B209472DBF8346C7070946A6
:102D9000BD8A6388C6008346C7070D46BD8AE39D8A
:102DA000C6F49146230ED70681BF8346D707918A82
:102DB000D9DA8346D70793E6860061B7B737002094
:102DC00083A7C753B736002013874651904710CFCB
:102DD00090470D82058A11CA30231366160030A36E
:102DE000130600F850A3214690C79047058A19C6DC
:102DF00010331366160010B3054690C7904709823A
:102E0000058A09E690470582058A31C6A3020700B4
:102E10009047B735002083A585500982058A59CA95
:102E2000904131820D8A41E6A84B5053137505023B
:102E3000103221C935EA1306D005D0CF03C646515A
:102E400013661600238AC650914694C7D455F19A4A
:102E500093E61600D4D5944713962601635B0600CB
:102E60005423E206E18663D40600854654A309672D
:102E700098C798479316070163D40600216798C73F
:102E8000828055DA05456315A6001306100675B74E
:102E900009456315A6001306500645B70D45631591
:102EA000A6001306900651BF1306B00679B71306A5
:102EB000C00661B7343393E6160034B3894671B760
:102EC00037370020B73600201386065413070756FD
:102ED0005C372C3E484AAE97FD8BB355F5001CB2CB
:102EE0005CB785898DE9183B814613080002B3F76A
:102EF000E7020147B355E50085899378F70F89C943
:102F00006395D700A30016018280850693F6F60F1D
:102F10000507E31107FF8280B737002093874751E9
:102F2000DC3393F7F70FD1EBB737002083A7071EE9
:102F3000411122C44AC006C626C2829737390020F2
:102F4000930709568047130909566302A40663686C
:102F50008504018DB734002093870454BC2F13548B
:102F60005500938404546364F40485676371F40426
:102F7000813FBC2C032789009396570036971D8C00
:102F80002324E900E376F4FE22448830B2409244E0
:102F9000024981454101171306E067004362B737D4
:102FA000002083A7872333848740229565B7B240EA
:102FB000224492440249410182808280B737002036
:102FC00083A7071E011122CC26CA52C406CE4AC8C6
:102FD0004EC68297B7340020938704568047014A33
:102FE0006300A4069384045663658506018D373714
:102FF000002093070754BC2F13545500137AF50192
:1030000013090754636BF402B739002093894923ED
:10301000453D8346A90103A8840083A54900139771
:1030200056004297158C3A86636407016364B700C3
:103030003306B74090C4E37DD4FC1604336A4401E0
:10304000F24062445285D2444249B249224A056163
:103050008280B737002083A7872333848740229557
:1030600079B7B737002003A7C753856793870777DA
:103070007CD3B737002083A7075983A60709139687
:1030800056006358060083A607091396660063443A
:1030900006007453FDF28280EFD09F97730000000A
:1030A00000000000970200009382820C038302005C
:1030B00023800200630F0300F32510342EC0970510
:1030C00000009385A5FD73901534EFF03FCF73009A
:1030D000203086DCEFF0BFB2E650828000000000B6
:1030E000B73700203737002083A747190327C718B1
:1030F00001456313F7008280F62399E2D6233695C3
:103100009C43C5BFB737002083A5C71E37370020B3
:103110009387C71E13860522232AC718DA239387AD
:1031200085FFB73600204111BA97056523A6F6182A
:1031300006C61D05935637006374E500930600200C
:103140003307D600373500202328E51823A0E522D1
:10315000E11656A2231306001CC3998FE1175EA344
:1031600023130700B53FB240B73700202391A71AB9
:1031700041018280B73700203737002083A74719E5
:103180008326C71801456393F6008280FA2309E776
:10319000DA236373E5003A859C43F5B7184183A7AA
:1031A00085FF6319B7001CC1FD5723AC05FE238FB3
:1031B000F5FE8280232CF6FEC5BF411122C426C233
:1031C0003744024006C68324C420232604200F105F
:1031D000000009E9232694201545B2402244924478
:1031E000410182800347E5FF9307F00F6306F70074
:1031F000232694201145D5B797D0FB1FE78080F197
:10320000014523269420D1BF411126C24AC0B744AC
:10321000024006C622C403A9C42023A604200F101E
:10322000000089E523A62421154515A0B737002005
:1032300083C7D7192A842E856375F400894763EE06
:103240008700A53FB747024023A627210D45B2407E
:103250002244924402494101828083A785FF99E775
:1032600003C7E5FF9307F00F6308F700B937B747C7
:10327000024023A627214DBF37350020238F85FE2E
:103280001305851997D0FB1FE78080F9A16522857A
:103290006D2C014523A624215DBFB737002023AC48
:1032A00007188280BDCD797122D406D626D24AD0A5
:1032B0004ECE01444147B3D78540858BB1CF12052F
:1032C000314722953305E502B737002003A9C7220D
:1032D0008544B3948400C204C180BE892A9903271F
:1032E000090011C7032549002EC60297B245314790
:1032F0003304E40283A7C9223E941C4489E72320B7
:10330000090023220900B2502254A58D025992547B
:10331000F2492E85456182800504E31EE4F881446C
:10332000DDB72E85828041111397050122C406C6A0
:1033300026C24AC041872E846351070297D0FB1FE3
:10334000E78000F511C1953DA1673D8C2285B24013
:1033500022449244024941018280EDD9AA87014763
:103360004146B356E440858A9DCA9207BA97B14652
:10337000B387D702B736002003A9C6228544B39489
:10338000E400C204C1803E99832709000325490057
:1033900082972320090023220900258C45BF0507B9
:1033A000E311C7FC8144D5BF411126C2B747024093
:1033B00006C622C483A4C72023A607200F1000003E
:1033C000B737002083A7072137340020130484EC8B
:1033D00091C782971C403E9508C031A0B7370020A6
:1033E00083A7071EFDF71C40374703001307D73F8D
:1033F000B387E70237A72600130737ECB240BA9726
:103400001CC0B747024023A697200840224492449C
:1034100041018280797126D2B747024006D622D474
:103420004AD04ECE52CC56CA5AC85EC662C483A495
:10343000C72023A607200F10000005E123A6972030
:103440000945B250225492540259F249624AD24A72
:10345000424BB24B224C45618280B737002083A794
:10346000071EBA8A368AB28B2E8BAA898297B73703
:10347000002003A7C7223E890144B146C147330C4F
:10348000D40233068701104259E2C165938505F0E5
:10349000414597D0FB1FE780E0BA19EDB737002010
:1034A00083A7072281C7814511458297B74702400C
:1034B00023A697202D4571B7B737002003A7871E95
:1034C00039E323A4A71E230005008327C92205474B
:1034D0003317870023260500232475013AA12322F0
:1034E0005501E29723A0370123A2670123A45701C6
:1034F00063040A0023008A00B747024023A69720EE
:10350000014581B73E875C47F5FF48C76DBF05049D
:10351000E317F4F6B747024023A69720214515B7D5
:10352000B737002083A70723411122C406C63734CA
:1035300000201304C41989C782975C483E9548C887
:103540004848B240224441018280B747024083A6E6
:10355000C72023A607200F1000003737002003479D
:10356000D7196370E50237360020131715000325BD
:10357000461E3A951A21D98D0EA123A6D7200145C2
:10358000828023A6D7200D458280B747024083A6BC
:10359000C72023A607200F1000003737002003475D
:1035A000D7196372E502373600201317150003257B
:1035B000461E93C5F5FF3A951A21F98D0EA123A653
:1035C000D7200145828023A6D7200D458280011196
:1035D0004AC83747024006CE22CC26CA4EC652C43D
:1035E0000329C720232607200F100000130705FF1B
:1035F0001377F70FFD4763E3E70AB146B306D50239
:10360000B737002003A7C72236971C43C1CB93547A
:10361000450005443D893315A4001314050141807C
:10362000AE892685A28597D0FB1FE780E0CE2A8A47
:1036300029C9A2852685913FB737002083A7071E99
:10364000B73400209384442382979E242A848146A1
:10365000B385370313060064B3B737031385053208
:10366000B335B500BE95EFA0520BB30785003E877A
:10367000D44063E4A70063E4D7003387D740232412
:10368000EA00B747024023A627210145F2406244E1
:10369000D2444249B249224A05618280B74702407A
:1036A00023A627210945DDB701114AC8B7470240C3
:1036B00006CE22CC26CA4EC603A9C72023A60720C1
:1036C0000F100000BD4763EBA70431473307E50245
:1036D000B737002083A7C722BA979C43A1C30544EC
:1036E0003314A40042044180AE840145A28597D0E2
:1036F000FB1FE78060C2AA8911C5A285014571350B
:1037000023A49900B747024023A627210145F24090
:103710006244D2444249B24905618280B7470240BF
:1037200023A627210945E5B7797126D252CCB744A3
:10373000024006D622D44AD04ECE56CA5AC85EC6D9
:1037400003AAC42023A604200F100000B7370020CE
:1037500083C7D7196378F500B737002083AB071EFE
:1037600063970B00B747024023A6472199A037393A
:10377000002013094923AE8A032B49008355890091
:10378000B74736FE938707C83E9BB387C5022A8496
:10379000B2898146B3B5C50213850732B337F50048
:1037A00013060064BE95EFA042776370AB0223A6B8
:1037B00044210145B250225492540259F249624ABE
:1037C000D24A424BB24B45618280829B835589002D
:1037D000AA8413060064B38735038146B3B5350365
:1037E00013850732B337F500BE95EFA00273B30718
:1037F0009500BE840327490063E4A70063E4E70063
:10380000B384E740D685228597D0FB1FE780C0B000
:1038100001C904C5B747024023A64721054559BF42
:10382000936504F0C205C181414597D0FB1FE78035
:10383000608111E9B737002083A7072285D7A285C9
:103840001145829705B7373700208327871E99EFE8
:103850002324A71E85472326050004C523115501EF
:1038600000A11CB12322050075B7BA87D84775FFA0
:10387000C8C7CDB779714ECEB747024006D622D41D
:1038800026D24AD052CC56CA5AC85EC662C466C254
:103890006AC083A9C72023A607200F10000025C1F6
:1038A00041443689B28A2E8AAA84B14C373B002023
:1038B000054D130C0003B30B94030327CB225E9733
:1038C0001C43B9EF9375F400B315BD001355444084
:1038D000C2055686C1811375F50FB93531C18327ED
:1038E000CB22DE9784C323A247016304090023008F
:1038F0008900B747024023A63721014521A023A60E
:1039000037210945B250225492540259F249624A71
:10391000D24A424BB24B224C924C024D45618280BE
:103920000504E31A84F9B747024023A6372121454D
:10393000D1BF011122CC26CA4AC84EC6B7470240A1
:1039400006CE03A9C7202A84AE89B28423A6072005
:103950000F100000D13B2285CE8597D0FB1FE7805A
:10396000A09B2A8405C5B737002083D5C72313063B
:1039700000648146B3879502B3B59502138507327B
:10398000B337F500BE95EFA0425948C01335140077
:10399000F2406244B747024023A62721D24442495D
:1039A000B2490E0505618280011122CC4AC84EC67B
:1039B000B747024006CE26CA83A9C7202A892E848B
:1039C00023A607200F10000097D0FB1FE780C094AC
:1039D000AA8419C123110500A2854A857D36B7370F
:1039E000002083C7C71963992701B737002003D781
:1039F000C71D598C239E871CB747024023A6372139
:103A0000014591E01945F2406244D2444249B2492D
:103A100005618280011126CA4AC8B744024006CE19
:103A200022CC4EC603A9C42023A604200F100000F8
:103A30009307F00263E6A704B1473304F502B739F0
:103A4000002083A7C922A2979C439DCB9377F500C2
:103A50008545B395F500C205C1811181B13783A7B2
:103A6000C9220145A29723A0070023A2070023A68D
:103A70002421F2406244D2444249B2490561828025
:103A8000B747024023A627210945E5B7411126C2C1
:103A900006C622C4B747024083A4C72023A6072036
:103AA0000F10000097D0FB1FE780008719E9014540
:103AB000B2402244B747024023A6972092444101D6
:103AC0008280B737002083A7071E00458297B7374B
:103AD0000020938747236367A402D843B74636FE86
:103AE000938606C83305A4403697E372E5FC1307B6
:103AF0000064B335E502922781463305E502EFA065
:103B0000C2417DB7D8433A94C9BF4111B7370020AD
:103B100006C623A8A7220295B240B737002023AAE1
:103B2000A71A014541018280914763E9B700B73781
:103B300000208A059387871CBE9588C18280B7378D
:103B4000002023A4071E37350020B737002041117D
:103B500023A807225146B737002081451305851C4D
:103B600006C623A0071E22C426C23734002097D0E1
:103B7000FB1FE780E0821305C4191306800281450C
:103B800097D0FB1FE780C081EFF0CFD7B737002079
:103B900083C717201304C419854513D527008D8BBF
:103BA0003E958D473305F5029947B7340020390516
:103BB0001375F50F28A03305F5021305052497C0EA
:103BC000FB1FE780204823A6A4222DCD3020994753
:103BD00081453306F6021306062497C0FB1FE780D3
:103BE000207C83A7C4223820B73400209387072481
:103BF0000A0723A2F41CBA97373700202322F71EA6
:103C0000EFF0AFE939291C3083A6441C3736040095
:103C10001397270036971306462A10C313871700F9
:103C20001377F70F0A073736040036971306663204
:103C300010C313873700890793F7F70F8A0718B067
:103C4000B69790C3B24022449244410182803737F4
:103C500000201307C7191C33342363FFD700B7367E
:103C6000002083A6461C1386170010B31397270065
:103C7000369708C33E8582809307F00FE5BF1C414D
:103C8000F1CF41777D8FB706002089476319D70CA4
:103C90005A2171C7411126C21946AA849305F00F13
:103CA000610506C622C497D0FB1FE78060810547E7
:103CB0008D47630FE5089C4491C7985C994749CBB1
:103CC000D85C59C73734002013060004814513051A
:103CD000C41E97C0FB1FE780A06C13060004A685D6
:103CE0001305C41E97C0FB1FE780E0649307C41E42
:103CF000DA2701E713070010DAA7F82719E30547C9
:103D0000F8A79A2B19E36D479AABF83719E31547D3
:103D1000F8B7B82B19E30547B8ABB83B19E3F83748
:103D2000B8BBD82B19E32547D8ABF82801E7130710
:103D3000C003F8ABDC5791C78297B73700202392B6
:103D4000A71AB73700207D57A38AE75ECD3B81478E
:103D5000B240224492443E854101828089473E859B
:103D6000828001114AC8373900208327492306CEB3
:103D700022CC26CA52C456C24EC68297130A006489
:103D8000B335450313094923835A89008146568672
:103D900033054503EFA06218B73700201387C71912
:103DA000004FAA840145630694029389C71933859D
:103DB0008440636E94000325490056868146B335DE
:103DC000AA023305AA02EFA04215018D269523AC65
:103DD0009900F2406244D2444249B249224A924A8E
:103DE00005618280011122CC2E84B7E506000A8588
:103DF00041469385053606CEEFA0424B18080604CF
:103E00003A94B7370020035504FF83D7E723F240E5
:103E10006244AA9737450F00130505243355F50270
:103E200005618280B737002083D7E72351471D45BE
:103E3000637CF702794719456378F702130720037B
:103E400015456373F7021307B0041145637EF7004D
:103E5000130740060D456379F7001307600909450C
:103E60006374F70013B5B70F8280011122CC06CE20
:103E70002A842EC6EFF04FD3B245F240818D33A590
:103E8000A502229562441375F50F05618280011128
:103E900022CC06CE2A842EC6EFF00FD1B245F240D6
:103EA000818D33A5A50222956244420541810561B9
:103EB0008280011122CC06CE2A842EC6EFF0CFCE0E
:103EC000B245F240818D33B5A50222956244056169
:103ED0008280B737002023A2A7248280B737002032
:103EE0001387C71E585739CF411122C426C24AC072
:103EF00006C61389C71E0297B73700201387C71954
:103F00001A272A849384C71905CBBA876373A7003D
:103F1000AA87C207C183BA866373E400A286C20679
:103F2000C182958F51476359F7008327090391C3D5
:103F30008297EF00E22782A4B240224492440249D1
:103F4000410182808280011122CC37340020930706
:103F5000C41E9C5B06CEAA851304C41E81C72AC654
:103F60008297B245C9C19C410545B5CBDC41A5CB83
:103F70009E25B5C7BE25A5C7DC2589CB5C3813F7C0
:103F800037008983BA970947634BF7043735002018
:103F900041461305452397C0FB1FE780C039B7375B
:103FA000002083A64723373700202320D71E7838E8
:103FB0000DE3938747238A279307805737460F00DF
:103FC0003305F5021306062481468145EF90F2740D
:103FD00068B837450400130525D6053E0145F24073
:103FE000624405618280B73700209387C71937176D
:103FF000002023AE070013076798B737002023AAD5
:10400000E7223787320093874723FD56130727A1FE
:10401000D4C398C723860700B747024023A4D726F6
:10402000BDBF011122CC373400209307C41E88473E
:1040300006CE26CA4AC801E90545F2406244D24488
:104040004249056182801304C41E1C5CF5D7585C8C
:1040500065D77000854582971844B247E30EF7FC98
:104060004A249305E004B734002097C0FB1FE78083
:1040700060FD1387C41908D39384C41955DD5224F5
:104080009305F00F014997C0FB1FE78060317C2446
:104090009050634DF900328597C0FB1FE780800781
:1040A000014523A0040223A2040241BF4E24084478
:1040B000585CB3872503898105093E9508C202979C
:1040C000F9B701114EC6B73900209387C91E9C4726
:1040D00026CA4AC852C406CE22CC56C25AC02A8A20
:1040E000AE8432896388071E9389C91E03A789039A
:1040F000630207121307F01F6360A7123734002012
:104100001307C419832A07021304C41963980A0801
:1041100003D5C9009565938515E097C0FB1FE7801F
:1041200060F208D02A867DC583D5C90083A789039C
:1041300003A589008981829783A78900832A0402C5
:104140005CD089476314FA08C1476395F40C83D5A2
:10415000C9009147938505FCB3C5F5028A05D6953C
:10416000B8219307A0056313F70A9E216390470BBC
:104170004A852686910597C0FB1FE780C01B1C500F
:104180005685639157130145F2406244D244424937
:10419000B249224A924A024B056182805850E3821A
:1041A000E7FA03D5C9009565938525E097C0FB1F05
:1041B000E78040E9AA8A39CD83D5C9002A8683A73A
:1041C000890303A5890089818297A5BF8D47631B59
:1041D000FA00C1476390F40483D5C900938545FD77
:1041E000F199B5BF91476318FA006395440383D5ED
:1041F000C900A115F5B793070010631DFA00A14788
:1042000063EA970083D5C900C115D9BF1C505685F4
:10421000639D570B29458DBF9D6A637A5509930AA3
:1042200005E01947B3CAEA0203D7C900373B0020AB
:10423000B38AEA02BE9A9307CB19DC53130BCB194E
:104240006395570103240B021DE003D5C9009305B4
:10425000E00497C0FB1FE780E0DE2A8445DD83D5BC
:10426000C90083A789032A8689815685829791454B
:104270001307A005898193972500A297B423639122
:10428000E6049623639C460385058A052686A29547
:104290004A8597C0FB1FE780000A83270B02E3844F
:1042A00087EE228597C0FB1FE780C0E6E9BD216746
:1042B0007917E361A7F6B30A5541BDB7AC335DBFCB
:1042C00083270B02E38887F4228597C0FB1FE780D2
:1042D00060E489B7B737002083A5C71B85DD914708
:1042E0009306A0058983139727002E973023E313A5
:1042F000D6F21223631C460185078A072686BE95DF
:104300004A8597C0FB1FE7800003B5BD3C33D9BF8A
:10431000B73700209387C71E984721C3D85F15CFB2
:104320008546631CD502411122C437340020130492
:10433000C419105006C611CECE2748508981029765
:10434000085097C0FB1FE780E0DC232004022322F3
:104350000402B2402244410182808280011122CCB9
:10436000373400209307C41E56C283AA870026CA8A
:104370004AC84EC606CE52C42A89AE84B2891304F6
:10438000C41E638D0A1A5C5C99EB2945F2406244B5
:10439000D2444249B249224A924A056182801C5C59
:1043A000EDD79307F01F63E1A70C373A002093077E
:1043B000CA199C53130ACA19A9C7084483274A0279
:1043C000639CA70489476313F906C147E39FF4FA86
:1043D0004A249147130505FC3345F5029317250040
:1043E00003250A022686CE853E959307A0053CA1AB
:1043F00023102501110597C0FB1FE780C0F301457D
:1044000071B74A249305E00497C0FB1FE78080C37F
:104410002320AA025DF195BF4E241C5C03260A02EC
:10442000898182971C442322FA0269BF8D47631B4E
:10443000F900C147E39BF4F44A24130545FD937743
:10444000C5FF79BF91476317F900E39024F54A242B
:104450002115F5B793070010E319F9F2A147E3E638
:1044600097F24A244115E1BF9D676375F5069307EE
:1044700005E01947B3C7E7025A24373A0020B3874B
:10448000E702BE9A9307CA199C53130ACA19B1CB03
:1044900083274A026392570703250A0291461308AD
:1044A000A0059305F00F93D72600139727002A97AE
:1044B00030236312060783580700303363992805B9
:1044C000B306D64063C4960485078A072686CE8540
:1044D0003E9515B721677917E369A7EAB307F54059
:1044E00061BF4A249305E00497C0FB1FE78080B5B5
:1044F0002320AA0251FD51BD4E241C5C03260A0252
:1045000089815685829723225A0379B70EA3931681
:104510000601C18249BF5224B38596009105130656
:1045200006FCE3F4C5E613863400719A1106B296D0
:10453000230107012310270134B379B7373A00204C
:104540009307CA199C53130ACA1995CF03250A0267
:1045500091461308A0059305F00F93D726001397F3
:1045600027002A973023631006058358070030334D
:1045700063972801B306D640E3D896F40EA39316AA
:104580000601C182D9BF68245E249305E004330587
:10459000F5024205418197C0FB1FE780A0AA2320B6
:1045A000AA024DF5DDB352246C24B385C5023386CF
:1045B00096001106E3EBC5DCBDB7014582809C2166
:1045C0001CA1BE211CB1BE21A1833CA1DC213CB1B8
:1045D00011458280B737002023A207F0B7370020AB
:1045E00023A007F082800DCD411126C206C622C449
:1045F000AA8401458DC12E84B7E506002285414677
:104600009385053797C0FB1FE780E0D29C200545C6
:104610005CA49C305CB4B24022449244410182804C
:1046200001458280011122CC26CA06CE0947AA8400
:1046300032846381E50441468147639BC500638FF3
:10464000E6006397B6000DA841478147638EE600F8
:10465000F2406244D2443E85056182808A8522858B
:10466000593741468A8519A88A85B53F41468A85CA
:10467000228531A0E39AB6FC2E86A285268597C0B6
:10468000FB1FE78040DCAA87E1B7B737002023A0F3
:10469000A7F08280B737002023A2A7F08280011103
:1046A00022CC622106CE26CA4AC84EC62DCC83290A
:1046B0008500AE842A8803C9090081471317890140
:1046C000618763550702B147054563F787045114B5
:1046D000420403552800418033878900A2864E8614
:1046E0008545EFB0F027B337A00085077D1413553B
:1046F0006900420405891379F90341809CA088B0C0
:1047000023812401C2A0014719C01387190098C44E
:1047100009476383E7000145F2406244D2444249BD
:10472000B249056182800545C5BFC167F917630AB3
:10473000F502D94763F7B702011122CC2EC606CE87
:104740002A84EF906021B2456368B50022856244F7
:10475000F24005616FA01015F24062440545056105
:10476000828005458280C167F9176314F5006F9058
:10477000A01E411106C6EFA0700111E15D45B240D7
:10478000410182809147639DF5001C211CA23C21C0
:104790001831A207D98F3EA23C3101455CA282802C
:1047A000114582804111814522C426C206C6AA84D1
:1047B000BD232A8409E9B737002083A707F081C702
:1047C000F945268582972285B240224492444101D0
:1047D000828039714ED656D25AD006DE22DC26DAD5
:1047E0004AD852D4AA8A2E8BB28951EB36C6A53F3D
:1047F0009145EF900025AA844D493DC5B246054A32
:10480000238034010544630A0B00B6851385140028
:10481000029B0505131405014180E20993D98941E2
:1048200063D30902C1455685EFA0B004654915E57B
:1048300033868400A2852685EFB0A0582A8911ED21
:1048400031044204418091472C085685FC8426CED1
:10485000E085EFA0601B2A8901C963070A0026854D
:1048600097C0FB1FE780008BF25062544A85D254F8
:104870004259B259225A925A025B21618280BA840B
:10488000014ABDBF011122CC26CA4AC84EC606CE77
:104890002A893284B689353FAA840DE1B7370020D2
:1048A00083A747F081CF05476317E40003C40900DD
:1048B00005041374F40FA2854A858297F24062447E
:1048C00026854249D244B24905618280AE86B74509
:1048D0000400014705469385E55B6DB79E211CA149
:1048E0009E21A1831CB1094582809E211CA19E218D
:1048F000A1831CB1BE213CA1BE21A1833CB11145C5
:1049000082809E211CA19E21A1831CB1BE213CA1BD
:10491000BE21A1833CB1DC315CA1FC215CB18A25C4
:1049200019054205418182809E211CA19E21A183FF
:104930001CB1094582809E211CA19E21A1831CB12E
:10494000BE213CA1BE21A1833CB111458280CA2178
:1049500006054205418182809E211CA19E21A183E2
:104960001CB1AA2109054205418182809E211CA11A
:104970009E21A1831CB1BE213CA1BE21A1833CB1DB
:10498000CA2111054205418182809C211CA1054557
:1049900082809E21411122C406C61CA19E212E8424
:1049A0001105A183A30EF5FEBE219505230FF5FE8B
:1049B00083D7D5FFA183A30FF5FE03C6F5FF97C0EC
:1049C000FB1FE78040974820B24022441105410177
:1049D000828089476399F5001C3118210145A2079F
:1049E000D98F1EA28280114582809A21D94763FD0A
:1049F000E702011122CC06CE2EC62A84EF80D075A4
:104A0000B2469E22636DF50022856244F240B7559E
:104A10000400014709469385C58D05615DBBF240E1
:104A2000624409450561828009458280914785C5B8
:104A30001421FD15C2058547C1816390F60213D785
:104A400025008D89914781E9914711C7050534A259
:104A50001AA248C281473E85828009479147E39C5C
:104A6000E6FEC94733D7F502B3F5F502E1BFAE86DE
:104A7000B7550400014711469385A58E99BB93F75E
:104A8000350089EB8981914781C50EA248C28147D3
:104A90003E8582809147EDBFD8218947631CF7028C
:104AA000011122CC2A84C84506CEAE86014709C929
:104AB0002EC69D4597B0FB1FE7800073B2462A873C
:104AC00022856244F240B75504001946938525902B
:104AD000056101B30945828099E1114582801C215D
:104AE00005473EA2E37BF7FEFD1593F5F50F33D79F
:104AF000F502B387E702E392F5FE050548C21AA264
:104B000001458280DC210947AE866385E700414785
:104B10006399E700B755040001472146938525991D
:104B20004DB9094582800EA291E1014548C2014577
:104B30008280AE86B7550400014729469385859249
:104B400049B90EA291E1014548C201458280AE8675
:104B5000B755040001473146938565939DB90EA270
:104B600091E1014548C201458280DA21854763FF12
:104B7000E702011122CC2A84884106CE1DC12EC62F
:104B8000854597B0FB1FE78020662A87228562440F
:104B9000B246F240B755040039469385E594056165
:104BA0000DB9F24062440945056182800945828061
:104BB000914785C518218D46914763F0E602FD15A2
:104BC000C205C181B3C6E5023308D7026397050168
:104BD000050516A23AA248C281473E858280DC21A3
:104BE0000947AE866385E70041476399E700B755FB
:104BF00004000147414693852599E1BE094582801D
:104C0000B335B000139525008280011122CC26CA4D
:104C100006CE98258547AA842E844946631FF7004F
:104C200099363E2049151306200963C8A700F240B3
:104C30006244D24409450561828018348547631473
:104C4000F70013660604484001C98D4532C697B087
:104C5000FB1FE78060593246A2866244F2402A87F1
:104C60002685D244B755040093858595056195B690
:104C70008D4763F8B7021C311821F115A207D98FAF
:104C80001EA23C313821C205A207C181D98F3EA2A4
:104C90004EA289C5110508C601458280232406005D
:104CA000E5BF11458280011122CC2A84884506CEB9
:104CB000AE8601C92EC6954597B0FB1FE780C0524E
:104CC000B2462A8722856244F240B755040059460D
:104CD0009385C5960561F5BCB335B00013952500E5
:104CE0008280AE86B7550400014761469385A5983A
:104CF000CDB48547114563F0D7021C320C22A207C0
:104D0000CD8F1EA39387E6FF3EA389476386F600F7
:104D1000090650C30145828023220700E5BF0147F1
:104D200081467946814575B49E211CA19E21A183AF
:104D30001CB109458280BC2105471CA18A216397CB
:104D4000E7000A050505420541818280C947330510
:104D5000F502CDBF8A210A05420541818280BE212C
:104D60001CA18A21BE213305F502050542054181BA
:104D700082808A2182808A2182808A218280BE214B
:104D80001CA18A21BE213305F5020505420541819A
:104D900082809E211CA19E21A1831CB1BE213CA129
:104DA000BE21A1833CB1CA21110542054181828007
:104DB0009E211CA19E21A1831CB1AA2109054205A7
:104DC00041818280894711456398F6001C32142284
:104DD0000145A207D58F1EA382809A21D947AE86AE
:104DE00063F9E700B755040001470D46938585D266
:104DF00051BC094582801145639DA6001C321422D6
:104E00000145A207D58F1EA33C323422A207D58FBD
:104E10003EA38280BC210547FD1793F7F70F63611E
:104E2000F7049E2195CF011122CC2A84C84106CED9
:104E30001DC12EC6894597B0FB1FE780E03A2A873F
:104E400022856244B246F240B75504001546938568
:104E500065D3056105BCF240624409450561828065
:104E6000094582809547114563F1D706411122C457
:104E700026C24AC006C61C32BA841822A20732844F
:104E8000D98F9EA03C32382293054400A207D98FC7
:104E9000BEA08947DCA0094613855400368997B027
:104EA000FB1FE78040499307A9FF9EA49947631B16
:104EB000F90023A60400B24022449244024901456D
:104EC000410182801904C0C4FDB782809E2195CF24
:104ED000011122CC2A84C84106CE1DC12EC68545AB
:104EE00097B0FB1FE78040302A8722856244B24694
:104EF000F240B75504001D46938545D5056159B26A
:104F0000F2406244094505618280094582809947E3
:104F1000639DF6028947411106C65CA31C32142228
:104F2000B285A207D58F1EA33C3234225023A2079C
:104F3000D58F130557003EA3910597B0FB1FE7805F
:104F4000803FB240014541018280D14711456394C1
:104F5000F600C147C9B782809E219DCF011122CCA6
:104F60002A84C84106CE05C52EC6894597B0FB1FC9
:104F7000E78080272A8722856244B246F240B755EF
:104F8000040025469385E5D505616FF0BF8FF2409B
:104F9000624409450561828009458280894711453F
:104FA0006398F6001C3214220145A207D58F1EA378
:104FB0008280011122CC2A84C84106CEAE860147E8
:104FC00009C92EC6854597B0FB1FE780E021B24690
:104FD0002A8722856244F240B75504002D46938506
:104FE00025D705616FF01F8A1145639DA6001C320D
:104FF00014220145A207D58F1EA33C323422A207FA
:10500000D58F3EA38280011122CC2A84C84106CECE
:10501000AE8601C92EC6854597B0FB1FE780C01C30
:10502000B2462A8722856244F240B75504003546CD
:10503000938565D705616FF0FF8493F716001145DE
:1050400081EB89476386F600858256A310C301452C
:105050008280011122CC2A84C84106CE05C52EC605
:10506000854597B0FB1FE78020182A872285624478
:10507000B246F240B75504003D469385A5D7056179
:105080006FF05F80F24062440945056182809E2195
:105090009DCF011122CC2A84C84106CE05C52EC65B
:1050A000894597B0FB1FE78020142A872285624438
:1050B000B246F240B755040045469385E5D70561F1
:1050C0006FF04FFCF240624409450561828009455A
:1050D0008280854763F6D70208A70CB71C320C22E2
:1050E000A207CD8F1EA39387E6FF3EA38947638661
:1050F000F600090650C30145828023220700E5BF60
:1051000011458280014781464D4681456FF08FF7FA
:105110008D47114563F4D7021C320C22A207CD8FB4
:105120001EA33C322C22A207CD8F3EA39387C6FF3D
:105130005EA36386A600110610C701458280232462
:105140000700E5BF011122CC2A84884506CEAE8631
:1051500001C92EC6954597B0FB1FE780E008B2460F
:105160002A8722856244F240B75504005D46938544
:1051700025D905616FF00FF1854711456395F6005C
:105180001C2201451CA3828001478146654681455A
:105190006FF04FEF011122CC2A84C84106CEAE86B3
:1051A000014709C92EC68D4597B0FB1FE780C00394
:1051B000B2462A8722856244F240B75504006D4604
:1051C000938505DB05616FF0CFE0011122CC2A84C5
:1051D000C84106CEAE86014709C92EC68D4597B097
:1051E000FB1FE7806000B2462A8722856244F240B6
:1051F000B75504007546938505DB05616FF06FDDDB
:10520000011106CE2EC6EF90905419C5B245F2405A
:105210002A2105616FE06013F240494505618280F3
:10522000B7370020A38807F2B7370020238807F29A
:10523000B737002023AC07F0B737002023AE07F0C4
:10524000B737002023A007F2B737002023A207F2C8
:10525000B737002023AA07F0B737002023A807F0AC
:10526000B737002023940726930640389387872674
:10527000B6B3F1761307400B938606B8BAA3D6B33C
:1052800011679D46130600059305000A1305007D6E
:10529000DAA3F6B341478546130810F8BAA7DAA790
:1052A000BAABDAABFAAB9AAF9AB723960703EEA381
:1052B0008EA7F2A792ABAAAF239E0700239F0700F9
:1052C00023900702B6B7239707021308F007239825
:1052D00007022392E7042393E704239FE704239024
:1052E000E7062391E7062392E706239907031307AE
:1052F000C01CD6BBF6BB239C0702239D0702239E3E
:105300000702239F0702239007042391D7042394C5
:105310000704239507042396D7042397C7042398EB
:10532000C7042399A704239A0704239B0704239CFB
:105330000704239DC704239EC7042393A706239431
:10534000070623950706239607062397B706239893
:10535000B70623990706239AE7065147239DE706D8
:105360007D57239B0706239C0706239ED706239F72
:10537000070623900708239107082392E7088280F5
:10538000011126CAAA84214522CC06CE2E8432C61B
:1053900036C43AC297B0FB1FE78020EA0DC5A2468B
:1053A00012473246930700FD1CA1994704B13CA166
:1053B00074A178B152A1AA8522856244F240D244F8
:1053C00005616FD07FE4F2406244D244056182807F
:1053D000B737002023ACA7F08280B737002023AE78
:1053E000A7F08280B737002023A0A7F28280B737CA
:1053F000002023A2A7F28280011122CC4AC806CE47
:1054000026CA2A890144B30489006368B400F240C3
:105410006244D2444249056182802EC6EFD0DFF853
:1054200093170501C183A183B2459CA09307140083
:1054300093F7F70F850463F8B700CA97090488A3A8
:105440001374F40FC9B73E84C9B7411122C437346D
:105450000020130484246A20C16706C6FD17630E6A
:10546000F500B737002003C6C73AB735002093854B
:1054700085F2EF90F00FFD577EA0B240224441012B
:10548000828009C925151375F50F1335850E13454F
:10549000150082800145828023900500C1C6797184
:1054A00022D426D24ECE52CC5AC806D64AD056CA9C
:1054B0005EC63684328AAE892A8B814463F2440701
:1054C000B30794009C23138914004209939A07019F
:1054D00093DA0A011359090163840A04CA976341E4
:1054E000FA04B307240183CB07005E85593F0DC939
:1054F0009387FAFF2390F90063906B03130519005B
:105500002295B250225492540259F249624AD24A28
:10551000424BB24B45618280D694C204C18079BFB0
:105520000145C5B701458280011122CC37340020E6
:1055300026CA4AC84EC69307842406CE2E89D0CBED
:105540008CCBC8C7AA8441469305F00F4A8597B013
:10555000FB1FE780E0F685491304842463193503B3
:105560000848C145513D41469305F00F268597B047
:10557000FB1FE780E0F405496315250348446244B6
:10558000F240D2444249B249C1450561B5B54146F0
:1055900081454A8597B0FB1FE78080F2E31535FD12
:1055A000C1B741468145268597B0FB1FE78040F192
:1055B000E30625FDF2406244D2444249B249056106
:1055C0008280411122C43734002026C24AC0AE84F2
:1055D0002A891306000281451305842406C697B064
:1055E000FB1FE780E0DB93078424A3812701B73703
:1055F00000202388973AEFD09057854719C18147FB
:1056000049452304F424B240224492440249410112
:105610008280814791C909C985476319F500DC314A
:1056200093E707FCDCB185473E8582808947631696
:10563000F500DC3193F7F703F5B70D478547E31520
:10564000E5FED8311377F70313670704D8B1E9BF34
:10565000814785C119CDD8319306000C8547137752
:10566000070C6308D700930600048D476303D70037
:1056700089473E858280411122C4005D06C626C24C
:105680001DC8AA84085009C597B0FB1FE78080A8F1
:10569000485009C597B0FB1FE780C0A7085409C54B
:1056A00097B0FB1FE78000A7228597B0FB1FE7801C
:1056B00060A623AC0402B24022449244410182809D
:1056C00019E9B737002083C7A72491C737350020D1
:1056D000130585F08280373500201305052682806A
:1056E000B737002003C5A7248280B737002003A561
:1056F00047258280B737002003A587258280B737EA
:10570000002083A7C72588438280B737002093876E
:105710008724D44B9842050798C2A8339307F00F0B
:105720006305F50091656FD05FE28280011122CCA4
:1057300006CE2E8432C6EF9030129147B2456310E8
:10574000F502B737002083A747F295C303A30700EC
:10575000630F030022856244F24005610283B7377C
:10576000002083A7C7F181C703A34700D5B7F24044
:105770006244054505618280011122CC2A844A21B8
:1057800006CE26CA4AC84EC697B0FB1FE780C03077
:105790002DC52A8904218349C500F13D4A85EF9032
:1057A000F0494A20EF90900637390020130909F399
:1057B00083470900B9C763969704B737002083C5AC
:1057C00017F32685353C19E1230009004A20EF90A4
:1057D000B0089147631CF500B737002093878724F2
:1057E0005620FA236394E6007D57FAA3F240624400
:1057F000D2444249B2490561828081499304F00F45
:1058000065B79307F00FE383F4FC7420522028203F
:105810004E87A685B5365DBF79715EC6AA8B2E858B
:1058200052CC56CA5AC806D622D426D24AD04ECE18
:10583000AE8A328B368A97B0FB1FE780E0257DC1A8
:10584000045D2A89E5C09C50614599C31305400356
:105850009C5481C751054205418163050A007105C9
:1058600042054181DC5081C75D054205418197B009
:10587000FB1FE780809C2A8455C56146814597B00F
:10588000FB1FE780E0B1B737002083C98729639405
:10589000090083490900930700FD1CA0A947A30044
:1058A00074013CA0230364018C502312540113059E
:1058B000840191C908C47146930A440397B0FB1F41
:1058C000E78060A756858C5491C948C45146930A15
:1058D000450197B0FB1FE78000A65685630C0A00C0
:1058E00008C87146D285930AC50197B0FB1FE780AF
:1058F00080A45685CC5099C548C85D4697B0FB1F1B
:10590000E78060A3A2854E85EFD01F902254B2504D
:105910009254F249624AD24A424BB24B4A850259EA
:10592000456191BBB250225492540259F249624AE5
:10593000D24A424BB24B4561828001114EC6AA89C0
:105940002E854AC806CE22CC26CA2E8997B0FB1FC8
:10595000E780801439C5B737002083C4872991E0D8
:105960000421194597B0FB1FE780208D2A8415C9B3
:105970008145194697B0FB1FE78080A2930700FD81
:105980001CA0B947A30034013CA023122401A28526
:105990006244F2404249B2492685D24405616FD043
:1059A000BF86F2406244D2444249B24905618280D6
:1059B00039715ECEAA8B2E8526DA4ED652D456D2B7
:1059C0005AD006DE22DC4AD8AE84328BB68A3A8AB6
:1059D000BE8942C697B0FB1FE780000C39C92A89EF
:1059E000414597B0FB1FE78040852A8439C1414675
:1059F000814597B0FB1FE780A09AB737002003C509
:105A0000872919E103450900930700FD1CA0BD4744
:105A10003CA0B247A300740146A023046401A30480
:105A2000540123054401A30534015CC4A285EFD0D1
:105A3000AFFDF2506254D2544259B259225A925A8E
:105A4000025BF24B21618280797126D2AA843945AA
:105A50004AD04ECE06D622D42EC6B289368997A019
:105A6000FB1FE780807D0DCDB2459307000D1EA181
:105A7000B1472A844EA13CA1CE851905194697B09D
:105A8000FB1FE780408B23062401A2852254B250DD
:105A90000259F24913F5F40F925445616FD0CFF6D5
:105AA000B250225492540259F24945618280411108
:105AB00026C2B734002093848424B83006C622C49A
:105AC0004AC09307F00F6308F7042A89394597A065
:105AD000FB1FE78080762A841DCD930700FDB73534
