:020000024000BC
:100000006FE0E20600000000001801180028012837
:100010000228032800290129022903290429052986
:10002000062907290829002A012A022A032A042A64
:10003000052AA62A90E80600343404004204002071
:10004000BC040020CA0300209C03002032030020CF
:10005000D635040016360400B4370400343A0400E0
:10006000183B040094320400463204008C02002045
:1000700036020020D23F0400D0070020AC35040037
:10008000DA3C04007A8406005C860600C886060016
:100090007A390600B2390600146A0500885D050049
:1000A000D87E06000A3D0400C24106007AF0040032
:1000B0000AF1040064F10400FA470400384804001F
:1000C000B8460400A2B20400BEAD0400480A0020F5
:1000D000F6BE04005CC20400DEA0040080A00400A0
:1000E00042A404002AA104005EA00400D6A00400DB
:1000F00014A00400A4A10400FCA10400ACA104000D
:10010000B0A1040046A2040004A2040034A204002A
:10011000F4A60400F8A60400A0A10400A8A104000D
:1001200044A20400F6A60400F2A2040052A80400AF
:10013000BACF04002ED0040068D00400EEB404004E
:1001400004B504003CB5040086950400AC97040097
:10015000889804009E650400346004009A8B0400B3
:10016000B0600400E2860400C2C5060012BE0600AC
:10017000FEC2060020DA0600ECD806004ADD0600C2
:1001800006DD060042DD060096DE0600EEAC060047
:1001900026DE06007CD00600A2D00600C2D00600F3
:1001A00006DF0600F2D6060090D6060076DF0600CF
:1001B00072AF060006B0060026B00600D8AF0600F3
:1001C00094610600984C0600EE4F0600D64D0600DE
:1001D000B0570600307F0600727E060022AD060092
:1001E00056410400C2390600A24106009A420600A8
:1001F0003A750600C675060048770600C8B80400C0
:100200007E60060044580600744A0600025B060041
:10021000484C0600BA0900202E3A060070DD0600A0
:100220000ADD06003EDD06003ADD0600BE390400A8
:1002300032B6040078DD060080630600E464060040
:100240005065060064C3060074DD0600BEDD0600CE
:10025000145D0500C2DD060068250020802E002008
:1002600044C30600E2C40600C6DD06001ADE06002E
:100270001EDE06007CDD0600B6DD0600BADD0600E7
:1002800022DE0600406106000000000000000000C1
:10029000000000000000000000000000000000005E
:1002A000000000000000000000000000000000004E
:1002B000000000000000000000000000000000003E
:1002C0006373B60082801C419105110523AEF5FED3
:1002D000C5BFB737002037370020938787F413074F
:1002E00047666373F700828023A007009107D5BF9C
:1002F000411122C4B747024006C603A4C72023A663
:1003000007200F10000011C199E5B747024023A64E
:100310008720014545A093073500C207C183F19BA3
:10032000C207C183130740036366F7023737002013
:100330000325471E373700208326C71D6391A60279
:10034000373700200327072769D3C207DD8D05450E
:10035000029765BF373700200325071EE1BF7A21CA
:1003600031EF5A21636CF704B73600203306F740AB
:1003700021489386C61E6375C8028328050003D8EA
:100380006600138687001D8F2A9661175AA22320C4
:1003900016012313060010C15EA1130788FFFAA2FD
:1003A0006EA1EE222105B387F540FEA2B7470240B9
:1003B00023A68720B2402244410182800841BDBF6C
:1003C000B747024003A8C72023A607200F1000004C
:1003D00001E523A607218280B737002003AE471E20
:1003E000B737002003A3C71D8146F28763FE670865
:1003F00083A80700636DF50863EBA80813878700DF
:100400006364E508F223216705076319E6003736C0
:100410000020034746FF0507230AE6FE3736002083
:100420001305C61ECE237A21239307001306C61E8A
:100430002E97420741837AA16383C7033735002093
:100440000325051E630DF500EA2211E9DE2223A033
:1004500016012107BE95A105CEA27AA2B6879843C0
:1004600063046702B736002083A6061E630ED7001A
:10047000762399EAD6234E231843A106AE96D6A337
:1004800098C37E22A1077EA2B747024099B7BE86D5
:10049000C687A9BFB7370020B736002083A7471EFD
:1004A00003A6C61D2A87B305B5406314F6003A8536
:1004B00029A8938687009C43E369D7FEE377F7FE7C
:1004C0002E85E3E4D5FEE3F2F5FE828023AC05FE43
:1004D0001C4181E70CC18280BA8703A787FF6DFFAB
:1004E00023ACB7FE8280411126C24AC0B744024005
:1004F00006C622C403A9C42023A604200F100000AE
:1005000009E923A62421B240224492440249410130
:1005100082802A842105BD654205C18D4181C93B88
:1005200011C9FD572320050042A17CA123A6242147
:100530002105D1BF23A624210145F1B701114AC8E5
:100540004EC6B747024006CE22CC26CA83A9C72092
:100550002A8923A607200F10000037350020032426
:10056000851E8144014609E889ECA1654A859730DA
:1005700004E0E780607725A08347E4FF639D2703BD
:10058000A1C0A6851305851E973004E0E78000F51D
:1005900069DCA1654A85973004E0E780002FF240CE
:1005A0006244B747024023A6372126854249D244F8
:1005B000B2490561828091E02286032484FF65B7F9
:1005C000A284E5BFB737002083A7872399E33E8540
:1005D0008280BA236315B7009823E30AA7FEDC479D
:1005E000F5B7B747024003A7C72023A607200F107F
:1005F000000001C599C1814711E6B747024023A613
:10060000E7208280B386F50003C80600B306F50034
:10061000850723800601E317F6FEC5B7374702407A
:100620008327C720232607200F10000019C191C17E
:1006300011E6374702402326F7208280910503A761
:10064000C5FF11057D16232EE5FEDDB737470240B5
:100650008327C720232607200F10000001C533077A
:10066000C50011E6374702402326F72082800505A2
:10067000A30FB5FEE31DE5FEF5B7B747024083A61D
:10068000C72023A607200F10000081473307F5007D
:100690000307070019E7374702402326D7203E8586
:1006A00082808507E5B7011126CA4AC8B7470240CC
:1006B00006CE22CC83A4C7202A892E8623A6072013
:1006C0000F100000131506019305F004418132C696
:1006D00005312A8401C53246CA8521372285F24078
:1006E0006244B747024023A697204249D24405619D
:1006F0008280B747024003A7C72023A607200F1018
:10070000000001C599C1814711EAB747024023A6FD
:10071000E720054582808507E309F6FE3308F500EA
:10072000B386F500034808009422E306D8FEB747D5
:10073000024023A6E72001458280B747024003A775
:10074000C72023A607200F1000009307F6FFBE95D1
:100750002A966317C500B747024023A6E720828088
:10076000FD159C310505A30FF5FEE5B7374702409F
:100770008327C720232607200F10000001C5330759
:10078000C50019E6374702402326F720014582803D
:1007900005058346F5FFE397B6FEE31BE5FE374705
:1007A00002402326F72005458280797126D2B7348E
:1007B000002022D403A4842306D64AD04ECE52CCA5
:1007C00056CA5AC85EC662C455C4373A0020373983
:1007D0000020B7390020814BB73A002037CBC90140
:1007E000130ACA231309C91E938949283E2099EF89
:1007F0005C44639A0B0023ACF422032CC4002285D2
:10080000C1366284A9A823A6FB00C5BF83A70A231B
:1008100082971C443307F5406376F50003A749002F
:100820001D8F2A979306FB3763EAE6062328090003
:100830002E200820973004E0E78020055C405844D3
:10084000B1C70C4403A64900AE97BE8663E4B70067
:1008500063E4C700B386C74014C4A28B3A8459F43A
:10086000B73700209387C71E984B854663FCE60484
:100870007D1798CBB250225492540259F249624AE1
:10088000D24A424BB24B224C4561828063950B00A9
:1008900023ACE4229DB723A6EB0085B703278A0289
:1008A00019CB63EDA7003385A74083270901637443
:1008B000F5002328A900A28B404455B703A749009F
:1008C000BA97D5B723A8070075B701114EC6B74729
:1008D000024006CE22CC26CA4AC852C483A9C720E9
:1008E00023A607200F100000373400209307442868
:1008F000C843DC2713044428B9CFB73700209387B7
:10090000874003D7470B21CB83A4070B6385A4043F
:10091000B73700201387C71E184B138AC71E630FF3
:10092000A70E3739002083270923829763E5A40E99
:1009300083270923898C829703270A0163F3E40044
:100940002687B307A7003E85544063E4E70063E4CD
:10095000D7003385D740B747024023A637215C40F4
:10096000639DA702B73400209384C41E9848B7370C
:10097000002083A707236315A70A82975440B7472F
:1009800036FE938707C8B6973387A7003A85636416
:10099000F7006364D7003305D740B734002093874E
:1009A0004456DC539384445699CBB737002083A632
:1009B000075E3707CDFF7D179C46F98F9CC611E176
:1009C00048408547DCC4B737002083A74726829775
:1009D00005E1DC5089CFDC4499CB974006E0E78005
:1009E000E0CC973006E0E780202A23A60400753B80
:1009F000DC5091CBB737002003A7075EB706330062
:100A00001C47D58F1CC7F2406244D2444249B249C8
:100A1000224A056182805C40BE9419BF268525BFAD
:100A2000829794485840B387A6003E8563E4D70078
:100A3000E3E5E7F63385E7408DB7B737002023A419
:100A4000A7F411C5B737002005472386E7F4828055
:100A5000B737002003A787F4411122C406C61384C8
:100A600087F411C30297B737002083C7C7F493F701
:100A7000F70F99E323200400B24022444101828011
:100A8000011126CAB734002022CC4AC893874428D3
:100A900006CE4EC652C456C2DC2737390020938496
:100AA00044281304892195E3B737002093874756DC
:100AB000D833058B19CBF8339946639BE60AA3829A
:100AC0000700EF10B0645C4482971C4491C3829786
:100AD00037340020B73900209307C41E03A74923E9
:100AE0009033130AC41E8347C41E93961700BA9608
:100AF0009622C9CA8347C41E63EEC7082306041E94
:100B000037340020930744569C37130444566391AE
:100B10000710B737002083A70723F5C3DC4023283D
:100B2000FA006131B737002083A74726E9CB7C3034
:100B300011476366F70CB73700209387075BDC2704
:100B4000918BD5EFB737002083C7C7F493F7F70F22
:100B5000DDE783461A0003A6492363C7D70C624426
:100B6000F240D2444249B249224A924A0561B1BB9D
:100B7000F8339D46E39BE6F4A3820700EF1010597B
:100B80001C4899B7850793F7F70F2306F41EE3EC8B
:100B9000C7F48DB786073E970E2323100700034541
:100BA000C41EB737002083A7472113172500B73A83
:100BB0000020BA979C4323960A22829783D7CA22A1
:100BC0000347C41E93C7F7FF7D8D9317170003A734
:100BD00049233E971E235D8D0AA38347C41E81C708
:100BE00085072306F41E8327892181C78297232C3A
:100BF00009200347C41E83471A00E371F7F0F2404F
:100C00006244D2444249B249224A924A05618280F2
:100C10007C3093F7F70FE39E07EEA30404009730B0
:100C200006E0E780C054F5B51397170032971A23F2
:100C300079F785071DB7374702408326C720F1772C
:100C4000FD17F58F2326F72001000100B73700209C
:100C50009387C71EC84F832787262326D7206A0578
:100C600093C7F7FF99835D8D8280B737002083C7D4
:100C7000F71E89CFB737002083C7072991CBB73735
:100C8000002003A3472963070300028305458280F0
:100C9000094582801305F00F8280B737002003C614
:100CA0004740B737002003A747FC81476315F6008C
:100CB000814636858280BA8613078702835587FD71
:100CC000E389A5FE850793F7F70FCDB7B737002067
:100CD00003C75740B737002083A707FE2A860507BA
:100CE00081463E859E236388C7008506930765007D
:100CF000E3E9E6FE01458280B737002003A787FDC0
:100D000019E3014615A81C4703D8A700636B05012A
:100D100083584700B38608016355D5008146639424
:100D200016011843F1BF3E86C10703D3A7FF63171F
:100D3000A30099C123900501328582808506C206F1
:100D4000C182F1BFB737002003C64740B737002044
:100D500003A7473A81476315F600814636858280AE
:100D6000BA861307C703835567FCE389A5FE850789
:100D700093F7F70FCDB7032785116DCB411122C42F
:100D800006C65C258345E5042A8493F7C70F5CA556
:100D90001437522713958601618563F7C5066351A1
:100DA0000506082793F6F60714B7054693E62700CD
:100DB0006314C50093E6170054A45C4389075CC321
:100DC0004CB8032504112E864C430905EFF07F81B2
:100DD000832784115038D443DA27B296118FD4C3B5
:100DE000DAA789473CBCB73700200347640383C7B1
:100DF000E7246371F7045C2493E707015CA41DA852
:100E000093E717005CA46DBF9376F60F6359050254
:100E10000827854513E627006314B50013E617007D
:100E200050A454B8A304070085473CBC8327841111
:100E30009C43D5FBB240224401454101828093E7A7
:100E400017005CA454B8A3040700032504114C4305
:100E50000905EFF00FF9832784115038D443DA27BE
:100E6000B296118FD4C3DAA78D47C1B705458280EA
:100E7000B737002083A74753411122C406C6858B8C
:100E80002A84D5E34165130525F5977005E0E780D1
:100E900080DC51C93C253EA583270412ADE3232005
:100EA000A4122322A41285472311F4042320050051
:100EB0007C2854415EA5583418A5054718B5373726
:100EC0000020032787581385170215811C437D15C1
:100ED0001375F50F9CC25C43DCC21C479CC65C4783
:100EE000DCC61C4B9CCA5C4BDCCA1C4F9CCE5C4FC6
:100EF000DCCE19CD9386060213070702C1BF8327F4
:100F0000441288C3835724042322A412850769BF8F
:100F1000B7370020938787409A2705079AA7B240E2
:100F20002244410182805C2423090400054593C7C3
:100F300047005CA4EDB71C2D93F7E70FC5EB1C3DF4
:100F4000D5E73029542509CA373700208345650382
:100F50000347F72463E7E50013F7060149CB014790
:100F600009C6C18A0357251E81C68356651E36975A
:100F70003DCFB737002003D5C7281307C712374620
:100F80000F00B335A702411113060624814622C47F
:100F900026C206C67D543305A70297D006E0E78037
:100FA0000042B737002083C73725B384A700B7377F
:100FB000002003A7474A8327070963F387003E847D
:100FC000184375FBB737002083A707238297814713
:100FD0006364A400B307A440B2402244B3B79700AF
:100FE00093C7170092443E854101828081473E8528
:100FF0008280B737002003A7C7587C53FDFF82804B
:1010000001114EC6B73900209387894022CC03A432
:10101000470A26CAB7340020938744289E274AC827
:10102000035964080325040906CE3309F902B747BA
:101030000F001387F7239387072452C456C25AC060
:1010400093898940938444283A993359F902636D0E
:101050002503373A002083270A2333092541829745
:101060006367A9023309A940634609028357040450
:10107000A30F040085072310F4048347041463942A
:1010800007102285CD2D11A2DC403E95D9B7DC405A
:101090003E99C9BF83270A23829703278408636F79
:1010A000E508198D7E3C9A248E07B387E702130763
:1010B000003293870719B3D7E70263E5A708B74A59
:1010C0000F00138BFA23938A0A248357040485079D
:1010D0002310F4048347041499E32285692D2285A3
:1010E000976005E0E78020C8631D05248326040976
:1010F0008327C408D840B6973E8563E4D70063E4ED
:10110000E7003385E7407C3C035964082328A408A2
:1011100085077CBC9E243309F9025A993359590337
:10112000636C25053309254183270A238297636968
:10113000A9043305A940E34A05F80DBFDC40998FA7
:101140003E958DB7A1452285976005E0E780E0B91F
:10115000A305A402B737002003A307276303031ED8
:101160006244F240D2444249B249224A924A024B76
:101170008945154505610283330927412A996DB7D1
:10118000DC403E997DB72285512D2285976005E090
:10119000E78060BD6317051A8A2483576408B74641
:1011A0000F001386F623B387A7029386062403272E
:1011B0000409230B040283AA4400B297B3D7D702D1
:1011C000636BF718B307F7408326C4082324F40899
:1011D000014BB387E6003E8963E4D70063E457011F
:1011E000338957411E3023282409A1CB8356040498
:1011F0005A3037460F0056B03387E640B387E702D0
:101200003A301306062481468145BA97C207C18346
:101210003385A7023EB097D006E0E780401A11CD93
:101220004A95333925012E99AA8763142B016364EB
:101230005501B30755412328F40883270A238297D1
:101240002A8983270A238297E30D25FF83270A2310
:101250000329840882976365A9103305A9406302B6
:10126000051283DA84008357640837490F00130797
:10127000F923B387570313090924BA97B3D7270370
:101280003737002003473725BA9763ECA70EB335ED
:101290002503035A2402568681463305250397D039
:1012A00006E0E780C011330BAA0033055A03374626
:1012B0000F00130606248146814597D006E0E7809B
:1012C00000100DC1B337250356868146B305B90218
:1012D0003305A902BE9597D006E0E780400E33059E
:1012E000AA402AB03545973006E0E780E0F823A20F
:1012F000890A383485476318F706930700FD7CA4F4
:10130000B737002003A5C754DC24B5C7EFF0EFF2D0
:10131000B736002003A6C658B73700209387475634
:101320001547F8B35846F977FD17F98F5CC60F10CB
:10133000000083A7C6588966060B94C723A26707D7
:10134000D8C7F2406244D2444249B249224A924A42
:10135000024B05618280B3065701B387F640ADB5F5
:10136000DC403E99DDBD930710FC7CA4B73700201C
:1013700003A5475451BF8145973004E0E780C0AED4
:1013800041BFDC2423A2090A85C3B737002003A587
:10139000C753973004E0E780C0E7B7E700E03707BE
:1013A000000223A2E72071BF83479402854562446F
:1013B000F240D2444249B249224A924A024BB39582
:1013C000F500C205C18101450561172304E06700EE
:1013D000C34B011122CC4AC84EC606CE26CA52C4FF
:1013E00056C25AC0383585472A842E898329050973
:1013F0006315F71E83570508035BC503373A0020C2
:1014000093064A2883DA8600130A4A2863FF67197D
:101410001429639CE618032785116318071803270E
:10142000450A6314071874351D476390E6182A3D72
:10143000330BFB409307204E330565038324440997
:1014400037460F001306062481463305F502B737E9
:10145000002083C72725B3549502B3B5AA02BE94D2
:10146000C204C180231394083385AA0297D006E0F2
:10147000E780E0F4AA9933B5A9002E954E8783271B
:101480004A0019E163E4F9003387F940B384540357
:10149000B7460F009387F623938606242320E9009E
:1014A000BE94B3D4D40293171B00A6976369F70EBA
:1014B0001D8F2320E900B739002083A70923832447
:1014C0000900829763EEA4103385A440635D050A8A
:1014D00083A70923373B0020130B4B288297032750
:1014E00009006365E510198D7E3C03578B008E075C
:1014F000B387E7021307003293870719B3D7E702D0
:1015000063EBA70E374A0F00930AFA23130A0A2443
:101510008357040485072310F4048347041499E3D4
:101520002285912C2285976005E0E780C0836DE1DC
:10153000832604098327C40803274B00B6973E85FA
:1015400063E4D70063E4E7003385E7407C3C8354E1
:1015500064082328A40885077CBC83578B00B384C8
:10156000F402D694B3D444036363950CB30495405A
:1015700083A7092323209900829763EEA40A338569
:10158000A440E34705F8B737002083C7372563E257
:10159000A708B737002023A6874A01459DA88326C0
:1015A0004A00B387F6403E9729B783576408374708
:1015B0000F00B38457039307F723A69793040724D8
:1015C000B3D4970263E79900B3849940232099002C
:1015D000DDB583274A00BE99C5BF23A03501E1BD13
:1015E000B737002083A78728BE94F9BD83274B0017
:1015F000998F3E95D5BDA1452285975005E0E7809E
:10160000C06EA305A402B737002083A7072781EF88
:101610007D55F2406244D2444249B249224A924A3C
:10162000024B05618280894515458297D5B7B30481
:101630009740AA9435BF83274B00BE9489B721CD2C
:1016400001116C0022CC06CE2A84613339C1FD57CA
:101650006307F502B73600209386C623FC3A9456FA
:10166000324791C285836360F702B307F7403EC6F5
:10167000B24503459402972004E0E780E036F2404B
:10168000624405618280B736002083A6862836979B
:10169000E9BFBD32EDB78280B7370020797113877B
:1016A00087404AD00329C70906D622D426D24ECE77
:1016B00052CC56CA094763000906B7340020938A02
:1016C000874093874456FC339546938444560D4790
:1016D0006383F604DC442A8A99CB973006E0E780DE
:1016E000E0FC972006E0E780205A23A60400FD597D
:1016F0006C004A85F93915E937150020130505D521
:10170000EFF0AFB3A147DCA0B737002083A7C758DD
:101710000947F8D30D47B250225492540259F24966
:10172000624AD24A3A854561828063743501324407
:10173000AA8903290900E31D09FAFD571307F00FD1
:10174000E38BF9FC914763F187029307B4FF2320F1
:10175000FA0023A8FA0A0147DDFFB737002083A764
:1017600087282320FA0045BFB737002083A78728A2
:10177000ED17A297E9BF797126D206D622D44AD0B6
:101780004ECE52CC56CA5AC85EC683475503034450
:101790007513AA843E941374F40F9307400263F602
:1017A00087001304B4FD1374F40F03AA841383AAEF
:1017B000C413A38B841222865285D68597D006E067
:1017C000E78060BA058915E503CBD4120149814948
:1017D000337B6403930B50024A865285D68597D09B
:1017E00006E0E78040B8058915C563916903137465
:1017F000F90F238B8412B250225492540259F249A9
:10180000624AD24A424BB24B456182808509E20965
:1018100093D989410509E31179FDE1BF8327850942
:1018200003560504797193D60701BD8EC206C182A5
:10183000358E1357764093575640898B058B5D8FB5
:1018400093573640918B5D8F93571640A18B5D8FD8
:1018500093171600C18B5D8F9317360093F707021D
:101860005D8F931756009355860093F707041E0665
:101870005D8F1376F60F518F93D7554013D63540B1
:10188000118A898BD18F13D67540D18F13D615400D
:10189000218AD18F13961500418AD18F1396350076
:1018A00013760602D18F13965500137606049E0513
:1018B000D18F93F5F50FCD8FA20745465D8F330786
:1018C000C70222D42A8426D252CC56CA032A8413B1
:1018D000832AC4135AC806D63697420741839357C2
:1018E0007740135557400989858BC98F1355374069
:1018F0001189C98F135517402189C98F13151700F6
:101900004189C98F1315370013750502C98F131547
:10191000570093558700137505041E07C98F137769
:10192000F70FD98F13D5354013D755401189098B3F
:10193000498F13D57540498F13D515402189498F9B
:10194000139515004189498F1395350013750502CC
:10195000498F13955500137505049E05498F93F51E
:10196000F50F4D8F2207D98FB387C7024AD04ECECD
:101970005EC662C4B697C207C18313D7774013D53A
:1019800057400989058B498F13D537401189498FF5
:1019900013D517402189498F139517004189498F25
:1019A0001395370013750502498F1395570093D58A
:1019B0008700137505049E07498F93F7F70FD98F9A
:1019C00013D5354013D755401189098B498F13D54D
:1019D0007540498F13D515402189498F13951500FE
:1019E0004189498F1395350013750502498F139569
:1019F0005500137505049E05498F93F5F50F4D8F1E
:101A00002207D98FB387C702130650025285D685A5
:101A1000B697BD8E93940601C18033F6C402137B42
:101A2000F60F97D006E0E780009405890DED834717
:101A3000D41201498149B3849702130C5002C1802A
:101A40004A865285D68597D006E0E780C091058901
:101A5000937BF90F11C563863403850993F9F90F58
:101A60000509E31F89FD230B6413B25022549254DD
:101A70000259F249624AD24A424BB24B224C45616A
:101A800082805E8BCDB78327C508035685087971A0
:101A900093D60701BD8EC206C182358E135776409C
:101AA00093575640898B058B5D8F93573640918BAA
:101AB0005D8F93571640A18B5D8F93171600C18BD6
:101AC0005D8F9317360093F707025D8F93175600CB
:101AD0009355860093F707041E065D8F1376F60F65
:101AE000518F93D7554013D63540118A898BD18FAA
:101AF00013D67540D18F13D61540218AD18F1396F6
:101B00001500418AD18F1396350013760602D18FC6
:101B100013965500137606049E05D18F93F5F50FA5
:101B2000CD8FA20745465D8F3307C70222D42A8492
:101B300026D252CC56CA032A040A832A440A5AC817
:101B400006D636974207418393577740135557403F
:101B50000989858BC98F135537401189C98F135552
:101B600017402189C98F131517004189C98F131593
:101B7000370013750502C98F131557009355870059
:101B8000137505041E07C98F1377F70FD98F13D567
:101B9000354013D755401189098B498F13D57540AE
:101BA000498F13D515402189498F13951500418917
:101BB000498F1395350013750502498F139555000C
:101BC000137505049E05498F93F5F50F4D8F220778
:101BD000D98FB387C7024AD04ECE5EC662C4B697CD
:101BE000C207C18313D7774013D557400989058BA6
:101BF000498F13D537401189498F13D51740218953
:101C0000498F139517004189498F13953700137534
:101C10000502498F1395570093D587001375050466
:101C20009E07498F93F7F70FD98F13D5354013D7F8
:101C300055401189098B498F13D57540498F13D5AC
:101C400015402189498F139515004189498F1395B6
:101C5000350013750502498F13955500137505045A
:101C60009E05498F93F5F50F4D8F2207D98FB387C6
:101C7000C702130650025285D685B697BD8E93943F
:101C80000601C18033F6C402137BF60F97C006E04D
:101C9000E780606D05890DED83471408014981498E
:101CA000B3849702130C5002C1804A865285D685B0
:101CB00097C006E0E780206B0589937BF90F11C57B
:101CC00063863403850993F9F90F0509E31F89FD3C
:101CD000230F6407B250225492540259F249624AC7
:101CE000D24A424BB24B224C456182805E8BCDB7CB
:101CF0008327450903568508797193D60701BD8E60
:101D0000C206C182358E1357764093575640898B51
:101D1000058B5D8F93573640918B5D8F935716409F
:101D2000A18B5D8F93171600C18B5D8F93173600C3
:101D300093F707025D8F931756009355860093F72C
:101D400007041E065D8F1376F60F518F93D755400B
:101D500013D63540118A898BD18F13D67540D18F18
:101D600013D61540218AD18F13961500418AD18F41
:101D70001396350013760602D18F1396550013760D
:101D800006049E05D18F93F5F50FCD8FA20745462A
:101D90005D8F3307C70222D42A8426D252CC56CA7A
:101DA000032A040B832A440B5AC806D636974207E7
:101DB000418393577740135557400989858BC98FC5
:101DC000135537401189C98F135517402189C98F81
:101DD000131517004189C98F1315370013750502B4
:101DE000C98F1315570093558700137505041E07F7
:101DF000C98F1377F70FD98F13D5354013D75540B7
:101E00001189098B498F13D57540498F13D515401A
:101E10002189498F139515004189498F1395350004
:101E200013750502498F13955500137505049E051A
:101E3000498F93F5F50F4D8F2207D98FB387C702CE
:101E40004AD04ECE5EC662C4B697C207C18313D7CE
:101E5000774013D557400989058B498F13D53740F3
:101E60001189498F13D517402189498F1395170080
:101E70004189498F1395370013750502498F1395D2
:101E8000570093D58700137505049E07498F93F774
:101E9000F70FD98F13D5354013D755401189098BCA
:101EA000498F13D57540498F13D515402189498F26
:101EB000139515004189498F139535001375050257
:101EC000498F13955500137505049E05498F93F5A9
:101ED000F50F4D8F2207D98FB387C7021306500223
:101EE0005285D685B697BD8E93940601C18033F690
:101EF000C402137BF60F97C006E0E780C046058951
:101F00000DED8347F40801498149B3849702130C0E
:101F10005002C1804A865285D68597C006E0E78088
:101F200080440589937BF90F11C5638634038509C5
:101F300093F9F90F0509E31F89FD230F6407B250D8
:101F4000225492540259F249624AD24A424BB24B4D
:101F5000224C456182805E8BCDB74111B73700209E
:101F600026C283A4074606C622C44AC08547C1C408
:101F700003A4C40A854741C03C241307700A639335
:101F8000E70858301C34B736002013864628B3873C
:101F9000E7021A265042B387E702130700329387FD
:101FA0000719B3D7E70203A74409938446283E974D
:101FB0003A896364F7006364C7003309C740B737E1
:101FC000002083A70723232025018297B307A94078
:101FD0006374A900D840BA9781E79307F00F21A84E
:101FE00058309306204E3307D702E3F8E7FE9307F5
:101FF00080FA3CA48147B2402244924402493E8583
:10200000410182801307800AE399E7FCB73700207B
:1020100083A7072382972A893545972006E0E78022
:10202000A025B7370020938747562D47F8B358307F
:102030001C34B736002093864628B387E7029A26D9
:10204000D442B387E7021307003293870719B3D747
:10205000E70203A744093E973A866364F700636486
:10206000D7003306D740E31AC9F637D50500130564
:10207000C5AFEFE09F9CB737002083A7C75809473B
:10208000F8D7A1BF397122DC3734002093074456BA
:102090009C4F06DE26DA4AD84ED652D456D25AD0B3
:1020A0005ECE62CC66CA6AC86EC613970701635DCE
:1020B000071EB737002083A4074683A9C40A83C735
:1020C000990003A7C9009207330CF70003452C00C1
:1020D000314705053305E50203574C003A954205A3
:1020E0004181EFE04FC0AA8B630B051C130DC500A7
:1020F0002324A50103462C00B145F97A3306B60224
:102100001304445623130C000149373A0020373B8F
:102110000020B73C0020930D9005FD1A6A962326F7
:10212000CC0003C679009307D0070325CA583306AD
:10213000F60285671CC5B7073300060630D10326B3
:102140008B550C4293F5F5E70CC20C4293F5F5E77D
:1021500093E505100CC203A80C5E83258800DD8D75
:102160002324B80083A509002328B5050CC6835590
:102170006C000326CC002E962324CD0003461C00C1
:10218000930550024A96A301CD0003C504080146F9
:10219000A3000400972006E0E780A0E50326CA58C4
:1021A0004846B37555014CC60F1000000326CA58A7
:1021B000896503288B550CC6930500F84CA0832530
:1021C0000800B1818D89E1E1930560196CD248C6A0
:1021D000A30204008545A30004000CC2052F97202C
:1021E00006E0E78040011030058A5DCAEA85268551
:1021F00097C005E0E78040BB0DED03465D004DC292
:1022000083556C0003554C00B29563DBA508AC28E0
:10221000A848918D8905AA9503258D00EFE06FBC34
:1022200023020D0083455D0003566C002E96231398
:10223000CC008325CA58310DB0517DFE03462C00D9
:1022400005091379F90FE36EC9EC98245E85A38123
:10225000EB0083470C00A3820B002383CB00238277
:10226000FB006254F250D2544259B259225A925A47
:10227000025BF24B624CD24C424DB24D21611713BE
:1022800005E0670083EB832508000948B1818D894B
:10229000639505019305E04315BF9305E01B3DB72A
:1022A0007D562302CD0071B7B737002083A7C758EA
:1022B000FC5791C7B737002005472386E7F4F25053
:1022C0006254D2544259B259225A925A025BF24B8A
:1022D000624CD24C424DB24D21618280797122D440
:1022E00006D6BC312E8423160100DC87DC211008C1
:1022F00002C05C87DC318A8502C2DC8602C402C867
:1023000002CA02CC02CE552C0347F1011C20014524
:10231000631EF7000347E1011C3001456318F70015
:102320000345D1013C201D8D13351500B2502254B8
:10233000456182800111B737002022CC03A4474DAC
:1023400026CA4AC84EC606CEAA8413092500854966
:1023500005C09C303830858B6304F700405CCDBFEE
:102360001946930544004A85EFE0AFB8E31835FFFE
:102370002285F2406244D2444249B24905618280DA
:102380004111B737002022C403A4474D26C24AC0DA
:1023900006C693042500054901E82285B24022447F
:1023A0009244024941018280A6851305A4023D376B
:1023B000E30525FF405CCDB74111B737002022C4AB
:1023C00003A4474D26C24AC006C69304250005490A
:1023D00001E82285B24022449244024941018280B0
:1023E000A6851305A401DD3DE30525FF405CCDB7BF
:1023F000011122CC604126CA4AC84EC652C406CE3C
:10240000AA841D4A130965058549BC446364F40028
:10241000054591A0D8345C206317470503C78402A3
:102420006304F7000040D5B7583083C75405E31B59
:10243000F7FE1946CA8513056400EFE08FABE3137E
:1024400035FF582483C79402E31EF7FC7A24BE3478
:10245000E31AF7FC0145F2406244D2444249B249D2
:10246000224A05618280E31FF7FA583083C754057A
:10247000E31AF7FA1946CA8513056400EFE06FA75F
:10248000E31235FBC1BF4111B737002022C403A4BA
:10249000874806C626C24AC079C88347840B1307FB
:1024A000700A6393E70A0347140E8347A40BB736F9
:1024B000002013864628B387E7021A26938446280D
:1024C0005042B387E7021307003293870719B3D747
:1024D000E7020327440A3E973A896364F70063647E
:1024E000C7003309C740B737002083A7072323203D
:1024F00025018297B307A9406374A900D840BA9711
:102500008DC70347140E9306204E3307D70263FE90
:10251000E700930780FA230CF40A01442285B240B5
:102520002244924402494101828037350600130556
:10253000E5A0EFE08FD0B737002083A7C758094741
:102540001304F00FF8D7D9BF1307800A1304F00F54
:10255000E396E7FC373506001305E5A0EFE0EFCD85
:10256000B737002083A7C7580947F8D745BF0544A8
:1025700075B70111B737002022CC03A4C74C26CA77
:1025800006CE2AC42EC6854419E40145F2406244B1
:10259000D244056182809C841830858B6304F700E7
:1025A0000044DDB719469305A10013052400EFE0B0
:1025B0004F94E31795FE0545D1BFB736002083A79A
:1025C00046551307001098C323A00700183103488D
:1025D0002500220742084297034805004297034816
:1025E00035006208429798D75831034865002207A2
:1025F0004208429703484500429703487500620825
:102600004297D8D718350348A500220742084297B9
:102610000348850042970348B5006208429798DB5B
:1026200058350348E5002207420842970348C50091
:102630006835429762052A97D8DB9831A82122078E
:1026400042052A9788212A97A83162052A9798CFB0
:10265000D831E821220742052A97C8212A97E83174
:1026600062052A97D8CF9835A825220742052A97D0
:1026700088252A97A83562052A9798D3D835E82562
:10268000220742052A97C825EC352A97E2052E979E
:10269000D8D3D843759BD8C3D84313671700D8C382
:1026A00098431367170098C303A746555C43858B6F
:1026B000BDE71C4F01451CA283A746559C4FA18333
:1026C0001CB283A746559C4FC1833CA283A74655A5
:1026D0009C4FE1833CB283A74655D84F58A2D84FB0
:1026E000218358B2D84F418378A2D84F618378B202
:1026F000985318A69853218318B69853418338A647
:102700009853618338B6D85358A6D853218358B606
:10271000D853418378A6DC53E1837CB682800100E4
:1027200061B7B737002003A7C7581605136505081A
:102730003C4B93E707083CCBB737002083A74755AE
:1027400003A7450E88C398CB03A7850E0145D8CBB8
:1027500003A7C50B98CF03A7050CD8CF03A7450C3B
:1027600098D303A7850CD8D303A7C50C98D703A784
:10277000050DD8D703A7450D98DB03A7850DD8DB3A
:1027800003A7C50D98C703A7050ED8C798431367BD
:10279000070498C38280B737002003A7C7581605DF
:1027A000136505083C4B93E707083CCBB73700207F
:1027B00083A7475503A7C50E88C398CB03A7050F6A
:1027C0000145D8CB03A7C50B98CF03A7050CD8CFDD
:1027D00003A7450C98D303A7850CD8D303A7C50C32
:1027E00098D703A7050DD8D703A7450D98DB03A7F6
:1027F000850DD8DB03A7C50D98C703A7050ED8C75D
:1028000098431367070498C3B73700209387475648
:10281000130700F8F8A38280B736002003A7865577
:1028200041114AC01C5F06C622C4998326C2858B0B
:102830003689B5CF93070006373400201CDF834765
:1028400044569304445693F7070489CFB7370020C2
:1028500083A707238297C8CC8347445693F7F70B87
:102860002302F4568347445693F7070285C38347F0
:102870004456373700200327C75893F7F70D230234
:10288000F456DC48A16614C786077CD7DC2093F792
:10289000070491EF8547DCB0B737002083A7C758FE
:1028A000096798C7130700FCD8A09848F8D30327F6
:1028B00089551C5F9183858B89CBC1471CDFB73756
:1028C0000020938747568546D4A31C5F9D83858B44
:1028D00091CB930700081CDFB7370020938747563A
:1028E0000547D8A3B737002083A74755D8430583AA
:1028F000058B19C7D843759BD8C3D843799BD8C3D8
:10290000B24022449244024941018280B7370020FC
:10291000B736002003A6C7589387465603C74656C6
:10292000058B19E79833058B01E7785265FBD8339F
:10293000A3820700828037380020032788551C5F58
:102940009583858BBDE701C61C5BBD831CA29DC61C
:1029500083278855985B460793576701635607009E
:1029600093E707C0C207C18303970600C207C18768
:1029700009C7BA970947B3C7E7029EA285C11C31B0
:1029800091CF3E951C350547194593F6F70663939D
:10299000E602E207E187394563CE070083278855C1
:1029A0003737002001459C5FED838D8BA307F756D9
:1029B000828005458280411122C406C6373400203A
:1029C00026C20327C4583DE5AE877453FDFEB734D5
:1029D0000020938444563E85B285238104009710DD
:1029E00006E0E780A04CB737002083A78755B706DD
:1029F00080009843558F98C3D857719BD8D78327A9
:102A0000C458A3820400A3800400094798C3832606
:102A1000C458B737002093874756B823058B11E772
:102A2000B833058B19E3F8526DFBB240224492444F
:102A3000410182808D47631FF500B737002083A7CF
:102A40008755B70680009843558F98C3D857719B18
:102A5000D8D775BF8547E31CF5FA5447F977FD17BA
:102A6000F58F5CC70F1000008327C4580967130651
:102A700000F898C7373700201307475650A3373759
:102A8000002003268755184231830D8B11E7130769
:102A90006019F8D3D4C7A5BF1842094631830D8BFE
:102AA0006315C7001307E043EDB71307E01BD5B765
:102AB0005D7152DC373A002003278A5586C6A2C4CE
:102AC000A6C2CAC04EDE1C43B739002037390020E9
:102AD00093F7F7E793E707081CC383A6095E370758
:102AE000CEFF7D179C46130680022A84F98F9CC670
:102AF0008327C9582800AE8423A80704930510082B
:102B0000EFD0DFB43545971006E0E780E076832705
:102B10008A559376F41F3706330023A40700984B99
:102B2000370FFCFF4E881367F70398CBF84FCA881E
:102B3000130510F8137707E0558FF8CF9843F57613
:102B4000FD16758F98C3373700208326C9581307A1
:102B50004756A3020700A3000700054798C2984301
:102B6000D285B70204001377F7E798C3984393031D
:102B7000802511491377F7E71367071098C303A758
:102B8000095E7D1F85491C47930F8002D18F1CC7AA
:102B900093079005BCCA01473400135337002693AE
:102BA0008347030013767700B3D7C740858BE1C313
:102BB00083A78555832E085E239C07042390070670
:102BC00003AECE02137EDEFF23A6CE0383AE070044
:102BD000137EF70793FE0EF833EECE0123A0C70154
:102BE00003AE4702336E5E0023A2C70383AEC8580C
:102BF000014E23A27E0603DA070663074E0303AEE7
:102C00000703038A0600135EFE00620E135E8E4108
:102C10006358CA0103AE0703135EFE002380C6019A
:102C200003DE0706137EFE0F03AA4E0663060A00A4
:102C300003DA8705E37F49FB03AE4702337EEE01EB
:102C400023A2C70383870600635CF400034E0300DE
:102C50003396C9001346F6FF3376C6012300C3003E
:102C60003E8663D3A7002A86131586016185050772
:102C70001377F70F8506E312F7F3B6402644964420
:102C80000649F259625A61618280B737002083A7F2
:102C9000C758D8479316170163D206029847931670
:102CA000170163DD06007D57B8D7373700201307BB
:102CB000C71E544F850654CF116798C798470D8398
:102CC000058B11CF3737002013074756342393E67F
:102CD000160034A3930600F854A3214798C79847D9
:102CE000058B19CB3737002013074756143393E66B
:102CF000160014B3054798C798470983058B09E761
:102D000098470583058B31CB37370020130647568C
:102D1000A30206009447B735002083A58555898214
:102D2000858AE5C69441B1828D8AE9EEA84B54525A
:102D30001376050294324DC2F9E29306D005D4CF42
:102D40008346475693E616002302D756114798C785
:102D5000D855719B13671700D8D59847931637013C
:102D600063D40602373700209306874003C6C607A0
:102D700013078740418A45C203C7C6071367070286
:102D8000238EE606056798C798479316270163DFE9
:102D9000060037370020130747565423E206E18622
:102DA00063D40600854654A3096798C798479316CD
:102DB000070163D206023737002013078740834696
:102DC000D707858AADCA8346D70793E62600A30EA8
:102DD000D706216798C78280ADD205466395C600A5
:102DE00093061006A9BF09466395C60093065006D0
:102DF000B9B70D466395C6009306900689B793064A
:102E0000B00635BF9306C0061DBF383213671700E2
:102E100038B209472DBF8346C7070946BD8A638874
:102E2000C6008346C7070D46BD8AE39DC6F491469A
:102E3000230ED70681BF8346D707918AD9DA834606
:102E4000D70793E6860061B7B737002083A7C75836
:102E5000B736002013874656904710CF90470D8213
:102E6000058A11CA30231366160030A3130600F832
:102E700050A3214690C79047058A19C610331366A0
:102E8000160010B3054690C790470982058A09E6E7
:102E900090470582058A31C6A30207009047B735DF
:102EA000002083A585550982058A59CA904131823F
:102EB0000D8A41E6A84B505313750502103221C903
:102EC00035EA1306D005D0CF03C646561366160062
:102ED0002382C656914694C7D455F19A93E61600BC
:102EE000D4D5944713962601635B06005423E2066B
:102EF000E18663D40600854654A3096798C79847BE
:102F00009316070163D40600216798C7828055DABB
:102F100005456315A6001306100675B70945631528
:102F2000A6001306500645B70D456315A600130607
:102F3000900651BF1306B00679B71306C00661B7F5
:102F4000343393E6160034B3894671B7373700201F
:102F5000B7360020138606591307075B5C372C3EF3
:102F6000484AAE97FD8BB355F5001CB25CB7858916
:102F70008DE9183B814613080002B3F7E7020147C9
:102F8000B355E50085899378F70F89C96395D70014
:102F9000A30016018280850693F6F60F0507E3115C
:102FA00007FF8280B737002093874756DC3393F7BB
:102FB000F70FD1EBB737002083A70723411122C4B5
:102FC0004AC006C626C28297373900209307095B9C
:102FD00080471309095B6302A40663688504018DB9
:102FE000B734002093870459BC2F135455009384A1
:102FF00004596364F40485676371F404813FBC2C55
:10300000032789009396570036971D8C2324E900E7
:10301000E376F4FE22448830B2409244024981456E
:103020004101171306E06700236CB737002083A720
:10303000872833848740229565B7B2402244924462
:103040000249410182808280B737002083A707238D
:10305000011122CC26CA52C406CE4AC84EC6829757
:10306000B73400209387045B8047014A6300A406BD
:103070009384045B63658506018D373700209307D1
:103080000759BC2F13545500137AF501130907593A
:10309000636BF402B739002093894928453D834684
:1030A000A90103A8840083A54900139756004297FD
:1030B000158C3A86636407016364B7003306B74032
:1030C00090C4E37DD4FC1604336A4401F2406244A8
:1030D0005285D2444249B249224A05618280B737BB
:1030E000002083A7872833848740229579B7B73794
:1030F000002003A7C7588567938707777CD3B73726
:10310000002083A7075E83A607091396560063581D
:10311000060083A6070913966600634406007453ED
:10312000FDF28280EFD0DF9273000000000000000B
:10313000970200009382C20C0383020023800200E6
:10314000630F0300F32510342EC09705000093850C
:10315000A5FD73901534EFF03FCF7300203086DC6F
:0C316000EFF0BFB2E650828000000000DB
:10316C00B73700203737002083A7471E0327C71D1A
:10317C0001456313F7008280F62399E2D623369536
:10318C009C43C5BFB737002083A5C7233737002022
:10319C009387C723138605222322C71EDA2393871E
:1031AC0085FFB73600204111BA97056523AEF61C92
:1031BC0006C61D05935637006374E5009306002080
:1031CC003307D600373500202320E51E23A0E52247
:1031DC00E11656A2231306001CC3998FE1175EA3B8
:1031EC0023130700B53FB240B73700202399A71E21
:1031FC0041018280B73700203737002083A7471E54
:10320C008326C71D01456393F6008280FA2309E7E4
:10321C00DA236373E5003A859C43F5B7184183A71D
:10322C0085FF6319B7001CC1FD5723AC05FE238F26
:10323C00F5FE8280232CF6FEC5BF411122C426C2A6
:10324C003744024006C68324C420232604200F10D2
:10325C00000009E9232694201545B24022449244EB
:10326C00410182800347E5FF9307F00F6306F700E7
:10327C00232694201145D5B797D0FB1FE780C0E8D3
:10328C00014523269420D1BF411126C24AC0B74420
:10329C00024006C622C403A9C42023A604200F1092
:1032AC00000089E523A62421154515A0B737002079
:1032BC0083C7D71E2A842E856375F400894763EE75
:1032CC008700A53FB747024023A627210D45B240F2
:1032DC002244924402494101828083A785FF99E7E9
:1032EC0003C7E5FF9307F00F6308F700B937B7473B
:1032FC00024023A627214DBF37350020238F85FEA2
:10330C001305851E97D0FB1FE780C0F0A1652285B1
:10331C006D2C014523A624215DBFB737002023A4C3
:10332C00071E8280BDCD797122D406D626D24AD012
:10333C004ECE01444147B3D78540858BB1CF1205A2
:10334C00314722953305E502B737002003A9C7277B
:10335C008544B3948400C204C180BE892A99032792
:10336C00090011C7032549002EC60297B245314703
:10337C003304E40283A7C9273E941C4489E7232025
:10338C00090023220900B2502254A58D02599254EF
:10339C00F2492E85456182800504E31EE4F88144E0
:1033AC00DDB72E85828041111397050122C406C614
:1033BC0026C24AC041872E846351070297D0FB1F57
:1033CC00E78040EC11C1953DA1673D8C2285B24050
:1033DC0022449244024941018280EDD9AA870147D7
:1033EC004146B356E440858A9DCA9207BA97B146C6
:1033FC00B387D702B736002003A9C6278544B394F8
:10340C00E400C204C1803E998327090003254900CA
:10341C0082972320090023220900258C45BF05072C
:10342C00E311C7FC8144D5BF411126C2B747024006
:10343C0006C622C483A4C72023A607200F100000B1
:10344C00B737002083A7072637340020130484F1F4
:10345C0091C782971C403E9508C031A0B737002019
:10346C0083A70723FDF71C40374703001307D73FFB
:10347C00B387E70237A72600130737ECB240BA9799
:10348C001CC0B747024023A6972008402244924410
:10349C0041018280797126D2B747024006D622D4E8
:1034AC004AD04ECE52CC56CA5AC85EC662C483A409
:1034BC00C72023A607200F10000005E123A69720A4
:1034CC000945B250225492540259F249624AD24AE6
:1034DC00424BB24B224C45618280B737002083A708
:1034EC000723BA8A368AB28B2E8BAA898297B73772
:1034FC00002003A7C7273E890144B146C147330CBE
:10350C00D40233068701104259E2C165938505F058
:10351C00414597D0FB1FE78020B219EDB73700204B
:10352C0083A7072781C7814511458297B74702407A
:10353C0023A697202D4571B7B737002003A7872303
:10354C0039E323ACA722230005008327C9270547AD
:10355C003317870023260500232475013AA1232263
:10356C005501E29723A0370123A2670123A4570139
:10357C0063040A0023008A00B747024023A6972061
:10358C00014581B73E875C47F5FF48C76DBF050411
:10359C00E317F4F6B747024023A69720214515B749
:1035AC00B737002083A70728411122C406C6373439
:1035BC0000201304C41E89C782975C483E9548C8F6
:1035CC004848B240224441018280B747024083A65A
:1035DC00C72023A607200F10000037370020034711
:1035EC00D71E6370E502373600201317150003252C
:1035FC0046233A951A21D98D0EA123A6D720014531
:10360C00828023A6D7200D458280B747024083A62F
:10361C00C72023A607200F100000373700200347D0
:10362C00D71E6372E50237360020131715000325E9
:10363C00462393C5F5FF3A951A21F98D0EA123A6C1
:10364C00D7200145828023A6D7200D458280011109
:10365C004AC83747024006CE22CC26CA4EC652C4B0
:10366C000329C720232607200F100000130705FF8E
:10367C001377F70FFD4763E3E70AB146B306D502AC
:10368C00B737002003A7C72736971C43C1CB9354E9
:10369C00450005443D893315A400131405014180F0
:1036AC00AE892685A28597D0FB1FE78020C62A8A83
:1036BC0029C9A2852685913FB737002083A7072308
:1036CC00B73400209384442882979E242A84814610
:1036DC00B385370313060064B3B73703138505327C
:1036EC00B335B500BE95EFA09221B30785003E8798
:1036FC00D44063E4A70063E4D7003387D740232486
:10370C00EA00B747024023A627210145F240624454
:10371C00D2444249B249224A05618280B7470240ED
:10372C0023A627210945DDB701114AC8B747024036
:10373C0006CE22CC26CA4EC603A9C72023A6072034
:10374C000F100000BD4763EBA70431473307E502B8
:10375C00B737002083A7C727BA979C43A1C305445A
:10376C003314A40042044180AE840145A28597D055
:10377C00FB1FE780A0B9AA8911C5A2850145713547
:10378C0023A49900B747024023A627210145F24004
:10379C006244D2444249B24905618280B747024033
:1037AC0023A627210945E5B7797126D252CCB74417
:1037BC00024006D622D44AD04ECE56CA5AC85EC64D
:1037CC0003AAC42023A604200F100000B737002042
:1037DC0083C7D71E6378F500B737002083AB072368
:1037EC0063970B00B747024023A6472199A03739AE
:1037FC00002013094928AE8A032B49008355890000
:10380C00B74736FE938707C83E9BB387C5022A8409
:10381C00B2898146B3B5C50213850732B337F500BB
:10382C0013060064BE95EFA0920D6370AB0223A645
:10383C0044210145B250225492540259F249624A31
:10384C00D24A424BB24B45618280829B83558900A0
:10385C00AA8413060064B38735038146B3B53503D8
:10386C0013850732B337F500BE95EFA05209B307A5
:10387C009500BE840327490063E4A70063E4E700D6
:10388C00B384E740D685228597D0FB1FE78000A83C
:10389C0001C904C5B747024023A64721054559BFB6
:1038AC00936504F0C205C181414597C0FB1FE780B9
:1038BC00A07811E9B737002083A7072785D7A28501
:1038CC001145829705B7373700208327872399EF57
:1038DC00232CA72285472326050004C52311550157
:1038EC0000A11CB12322050075B7BA87D84775FF14
:1038FC00C8C7CDB779714ECEB747024006D622D491
:10390C0026D24AD052CC56CA5AC85EC662C466C2C7
:10391C006AC083A9C72023A607200F10000025C169
:10392C0041443689B28A2E8AAA84B14C373B002096
:10393C00054D130C0003B30B94030327CB275E97A1
:10394C001C43B9EF9375F400B315BD0013554440F7
:10395C00C2055686C1811375F50FB93531C1832760
:10396C00CB27DE9784C323A24701630409002300FD
:10397C008900B747024023A63721014521A023A681
:10398C0037210945B250225492540259F249624AE5
:10399C00D24A424BB24B224C924C024D4561828032
:1039AC000504E31A84F9B747024023A637212145C1
:1039BC00D1BF011122CC26CA4AC84EC6B747024015
:1039CC0006CE03A9C7202A84AE89B28423A6072079
:1039DC000F100000D13B2285CE8597D0FB1FE780CE
:1039EC00E0922A8405C5B737002083D5C728130673
:1039FC0000648146B3879502B3B5950213850732EF
:103A0C00B337F500BE95EFA0826F48C01335140094
:103A1C00F2406244B747024023A62721D2444249D0
:103A2C00B2490E0505618280011122CC4AC84EC6EE
:103A3C00B747024006CE26CA83A9C7202A892E84FE
:103A4C0023A607200F10000097D0FB1FE780008CE7
:103A5C00AA8419C123110500A2854A857D36B73782
:103A6C00002083C7C71E63992701B737002003D7EF
:103A7C00C722598C23968722B747024023A63721A9
:103A8C00014591E01945F2406244D2444249B249A1
:103A9C0005618280011126CA4AC8B744024006CE8D
:103AAC0022CC4EC603A9C42023A604200F1000006C
:103ABC009307F00263E6A704B1473304F502B73964
:103ACC00002083A7C927A2979C439DCB9377F50031
:103ADC008545B395F500C205C1811181B13783A726
:103AEC00C9270145A29723A0070023A2070023A6FC
:103AFC002421F2406244D2444249B2490561828099
:103B0C00B747024023A627210945E5B7411126C234
:103B1C0006C622C4B747024083A4C72023A60720A9
:103B2C000F10000097C0FB1FE780407E19E901458C
:103B3C00B2402244B747024023A697209244410149
:103B4C008280B737002083A7072300458297B737B9
:103B5C000020938747286367A402D843B74636FEF4
:103B6C00938606C83305A4403697E372E5FC130729
:103B7C000064B335E502922781463305E502EFA0D8
:103B8C0002587DB7D8433A94C9BF4111B7370020CA
:103B9C0006C623A0A7280295B240B737002023A25F
:103BAC00A720014541018280914763E9B700B737EF
:103BBC0000208A0593878721BE9588C18280B737FC
:103BCC00002023AC072237350020B73700204111E5
:103BDC0023A007285146B7370020814513058521BE
:103BEC0006C623A8072222C426C23734002097C059
:103BFC00FB1FE780207A1305C41E13068002814543
:103C0C0097C0FB1FE7800079EFF0CFD7B7370020C4
:103C1C0083C717251304C41E854513D527008D8B28
:103C2C003E958D473305F5029947B7340020390589
:103C3C001375F50F28A03305F5021305052497C05D
:103C4C00FB1FE780603F23AEA4262DCD3020994783
:103C5C0081453306F6021306062497C0FB1FE78046
:103C6C00607383A7C4273820B734002093870724B8
:103C7C000A0723AAF420BA9737370020232AF72201
:103C8C00EFF0AFE91D211C3083A644213736040028
:103C9C001397270036971306063310C313871700A4
:103CAC001377F70F0A073736040036971306263BAF
:103CBC0010C313873700890793F7F70F8A0718B0DB
:103CCC00B69790C3B2402244924441018280373768
:103CDC0000201307C71E1C33342363FFD700B736ED
:103CEC00002083A646211386170010B313972700D4
:103CFC00369708C33E8582809307F00FE5BF1C41C1
:103D0C00F1CF41777D8FB706002089476319D70C17
:103D1C005A2171C7411126C21946AA849305F00F86
:103D2C00610506C622C497C0FB1FE780A078054733
:103D3C008D47630FE5089C4491C7985C994749CB24
:103D4C00D85C59C73734002013060004814513058D
:103D5C00C42397C0FB1FE780E06313060004A6850D
:103D6C001305C42397C0FB1FE780205C9307C42373
:103D7C00DA2701E713070010DAA7F82719E305473C
:103D8C00F8A79A2B19E36D479AABF83719E3154747
:103D9C00F8B7B82B19E30547B8ABB83B19E3F837BC
:103DAC00B8BBD82B19E32547D8ABF82801E7130784
:103DBC00C003F8ABDC5791C78297B7370020239A22
:103DCC00A71EB73700207D57A382E764CD3B814700
:103DDC00B240224492443E854101828089473E850F
:103DEC00828001114AC8373900208327492806CE22
:103DFC0022CC26CA52C456C24EC68297130A0064FD
:103E0C00B335450313094928835A890081465686E0
:103E1C0033054503EFA0A22EB73700201387C71E2A
:103E2C00004FAA840145630694029389C71E33850B
:103E3C008440636E94000325490056868146B33551
:103E4C00AA023305AA02EFA0822B018D269523AC82
:103E5C009900F2406244D2444249B249224A924A01
:103E6C0005618280011122CC2E84B7E506000A85FB
:103E7C0041469385055506CEEFA0826118080604CD
:103E8C003A94B7370020035504FF83D7E728F24054
:103E9C006244AA9737450F00130505243355F502E4
:103EAC0005618280B737002083D7E72851471D452D
:103EBC00637CF702794719456378F70213072003EF
:103ECC0015456373F7021307B0041145637EF700C1
:103EDC00130740060D456379F70013076009094580
:103EEC006374F70013B5B70F8280011122CC06CE94
:103EFC002A842EC6EFF04FD3B245F240818D33A504
:103F0C00A502229562441375F50F0561828001119B
:103F1C0022CC06CE2A842EC6EFF00FD1B245F24049
:103F2C00818D33A5A502229562444205418105612C
:103F3C008280011122CC06CE2A842EC6EFF0CFCE81
:103F4C00B245F240818D33B5A502229562440561DC
:103F5C008280B737002023AAA7288280B737002099
:103F6C001387C723585739CF411122C426C24AC0E0
:103F7C0006C61389C7230297B73700201387C71EBD
:103F8C001A272A849384C71E05CBBA876373A700AC
:103F9C00AA87C207C183BA866373E400A286C206ED
:103FAC00C182958F51476359F7008327090391C349
:103FBC008297EF00C22D82A4B2402244924402495F
:103FCC004101828082800111B737002022CC373426
:103FDC00002023AA07289307C4239C5B06CEAA853E
:103FEC001304C42381C72AC68297B245C9C19C4118
:103FFC000545B5CBDC41A5CB9E25B5C7BE25A5C7D0
:10400C00DC2589CB5C3813F737008983BA970947CD
:10401C00634BF7043735002041461305452897C0FC
:10402C00FB1FE7808030B737002083A6472837373F
:10403C0000202328D72278380DE3938747288A2736
:10404C009307805737460F003305F50213060624F5
:10405C0081468145EFA0A20A68B8374504001305D4
:10406C00E5DE25360145F240624405618280B737B2
:10407C0000209387C71E3717002023AE07001307B5
:10408C006798B737002023A2E72837873200938739
:10409C004728FD56130727A1D4C398C723860700CA
:1040AC00B747024023A4D726BDBF011122CC373419
:1040BC0000209307C423884706CE26CA4AC801E9C4
:1040CC000545F2406244D2444249056182801304A2
:1040DC00C4231C5CF5D7585C65D770008545829766
:1040EC001844B247E30EF7FC4A249305E004B734B6
:1040FC00002097C0FB1FE78020F41387C41E08D351
:10410C009384C41E55DD52249305F00F014997C0CA
:10411C00FB1FE78020287C249050634DF9003285EA
:10412C0097C0FB1FE78040FE014523A0040223A299
:10413C00040241BF4E240844585CB387250389818F
:10414C0005093E9508C20297F9B701114EC6B73959
:10415C0000209387C9239C4726CA4AC852C406CE5E
:10416C0022CC56C25AC02A8AAE8432896388071E72
:10417C009389C92303A78903630207121307F01F4E
:10418C006360A712373400201307C41E832A07026A
:10419C001304C41E63980A0803D5C900956593855A
:1041AC0015E097C0FB1FE78020E908D02A867DC563
:1041BC0083D5C90083A7890303A5890089818297C8
:1041CC0083A78900832A04025CD089476314FA0808
:1041DC00C1476395F40C83D5C9009147938505FCC1
:1041EC00B3C5F5028A05D695B8219307A0056313CC
:1041FC00F70A9E216390470B4A852686910597C046
:10420C00FB1FE78080121C505685639157130145A4
:10421C00F2406244D2444249B249224A924A024B89
:10422C00056182805850E382E7FA03D5C900956591
:10423C00938525E097C0FB1FE78000E0AA8A39CD63
:10424C0083D5C9002A8683A7890303A589008981A0
:10425C008297A5BF8D47631BFA00C1476390F40496
:10426C0083D5C900938545FDF199B5BF9147631876
:10427C00FA006395440383D5C900A115F5B79307DC
:10428C000010631DFA00A14763EA970083D5C900AB
:10429C00C115D9BF1C505685639D570B29458DBF41
:1042AC009D6A637A5509930A05E01947B3CAEA0275
:1042BC0003D7C900373B0020B38AEA02BE9A9307A2
:1042CC00CB1EDC53130BCB1E6395570103240B023F
:1042DC001DE003D5C9009305E00497C0FB1FE780E0
:1042EC00A0D52A8445DD83D5C90083A789032A86F6
:1042FC0089815685829791451307A00589819397EB
:10430C002500A297B4236391E6049623639C46038D
:10431C0085058A052686A2954A8597C0FB1FE780EE
:10432C00C00083270B02E38487EE228597C0FB1F16
:10433C00E78080DDE9BD21677917E361A7F6B30A51
:10434C005541BDB7AC335DBF83270B02E38887F4BF
:10435C00228597C0FB1FE78020DB89B7B737002089
:10436C0083A5C72085DD91479306A0058983139704
:10437C0027002E973023E313D6F21223631C460139
:10438C0085078A072686BE954A8597C0FB1FE7805E
:10439C00C0F9B5BD3C33D9BFB73700209387C723CD
:1043AC00984721C3D85F15CF8546631CD5024111B0
:1043BC0022C4373400201304C41E105006C611CE7C
:1043CC00CE27485089810297085097C0FB1FE78081
:1043DC00A0D32320040223220402B2402244410130
:1043EC0082808280011122CC373400209307C423B1
:1043FC0056C283AA870026CA4AC84EC606CE52C4E5
:10440C002A89AE84B2891304C423638D0A1A5C5CB6
:10441C0099EB2945F2406244D2444249B249224ABE
:10442C00924A056182801C5CEDD79307F01F63E113
:10443C00A70C373A00209307CA1E9C53130ACA1EB6
:10444C00A9C7084483274A02639CA70489476313BE
:10445C00F906C147E39FF4FA4A249147130505FC7A
:10446C003345F5029317250003250A022686CE85CF
:10447C003E959307A0053CA123102501110597C07B
:10448C00FB1FE78080EA014571B74A249305E004DD
:10449C0097C0FB1FE78040BA2320AA025DF195BFAD
:1044AC004E241C5C03260A02898182971C44232219
:1044BC00FA0269BF8D47631BF900C147E39BF4F413
:1044CC004A24130545FD9377C5FF79BF91476317C0
:1044DC00F900E39024F54A242115F5B79307001051
:1044EC00E319F9F2A147E3E697F24A244115E1BF3B
:1044FC009D676375F506930705E01947B3C7E70297
:10450C005A24373A0020B387E702BE9A9307CA1E93
:10451C009C53130ACA1EB1CB83274A0263925707D6
:10452C0003250A0291461308A0059305F00F93D7B3
:10453C002600139727002A97302363120607835807
:10454C000700303363992805B306D64063C496043C
:10455C0085078A072686CE853E9515B7216779177C
:10456C00E369A7EAB307F54061BF4A249305E00469
:10457C0097C0FB1FE78040AC2320AA0251FD51BD20
:10458C004E241C5C03260A028981568582972322BD
:10459C005A0379B70EA393160601C18249BF522460
:1045AC00B38596009105130606FCE3F4C5E6138665
:1045BC003400719A1106B2962301070123102701CA
:1045CC0034B379B7373A00209307CA1E9C53130AA9
:1045DC00CA1E95CF03250A0291461308A005930520
:1045EC00F00F93D72600139727002A9730236310D8
:1045FC00060583580700303363972801B306D6406D
:10460C00E3D896F40EA393160601C182D9BF682491
:10461C005E249305E0043305F5024205418197C001
:10462C00FB1FE78060A12320AA024DF5DDB35224C5
:10463C006C24B385C502338696001106E3EBC5DC0A
:10464C00BDB7014582809C211CA1BE211CB1BE219D
:10465C00A1833CA1DC213CB111458280B7370020FD
:10466C0023AA07F4B737002023A807F482800DCDC6
:10467C00411126C206C622C4AA8401458DC12E84CE
:10468C00B7E50600228541469385055697C0FB1F6A
:10469C00E780A0C99C2005455CA49C305CB4B2406A
:1046AC00224492444101828001458280011122CC36
:1046BC0026CA06CE0947AA8432846381E5044146A2
:1046CC008147639BC500638FE6006397B6000DA816
:1046DC0041478147638EE600F2406244D2443E85F6
:1046EC00056182808A852285593741468A8519A8B9
:1046FC008A85B53F41468A85228531A0E39AB6FC6E
:10470C002E86A285268597C0FB1FE78000D3AA873B
:10471C00E1B7B737002023A8A7F48280B737002071
:10472C0023AAA7F48280011122CC622106CE26CACC
:10473C004AC84EC62DCC83298500AE842A8803C96D
:10474C000900814713178901618763550702B14737
:10475C00054563F787045114420403552800418032
:10476C0033878900A2864E868545EFB05028B33733
:10477C00A00085077D14135569004204058913793F
:10478C00F90341809CA088B023812401C2A0014779
:10479C0019C01387190098C409476383E7000145C2
:1047AC00F2406244D2444249B249056182800545D7
:1047BC00C5BFC167F917630AF502D94763F7B7029A
:1047CC00011122CC2EC606CE2A84EF90A021B24530
:1047DC006368B50022856244F24005616FA05015F4
:1047EC00F240624405450561828005458280C167BF
:1047FC00F9176314F5006F90E01E411106C6EFA087
:10480C00B00111E15D45B240410182809147639D49
:10481C00F5001C211CA23C211831A207D98F3EA205
:10482C003C3101455CA28280114582804111814559
:10483C0022C426C206C6AA84BD232A8409E9B73736
:10484C00002083A707F581C7F94526858297228525
:10485C00B240224492444101828039714ED656D2E4
:10486C005AD006DE22DC26DA4AD852D4AA8A2E8BFB
:10487C00B28951EB36C6A53F9145EF904025AA84ED
:10488C004D493DC5B246054A238034010544630AAF
:10489C000B00B68513851400029B05051314050146
:1048AC004180E20993D9894163D30902C1455685F8
:1048BC00EFA0F004654915E533868400A2852685B2
:1048CC00EFB0E0582A8911ED310442044180914740
:1048DC002C085685FC8426CEE085EFA0A01B2A89E7
:1048EC0001C963070A00268597C0FB1FE780C081BA
:1048FC00F25062544A85D2544259B259225A925AB1
:10490C00025B21618280BA84014ABDBF011122CCB5
:10491C0026CA4AC84EC606CE2A893284B689353F85
:10492C00AA840DE1B737002083A747F581CF05474F
:10493C006317E40003C4090005041374F40FA28583
:10494C004A858297F240624426854249D244B24954
:10495C0005618280AE86B745040001470546938504
:10496C0025656DB79E211CA19E21A1831CB1094513
:10497C0082809E211CA19E21A1831CB1BE213CA141
:10498C00BE21A1833CB1114582809E211CA19E2198
:10499C00A1831CB1BE213CA1BE21A1833CB1DC3161
:1049AC005CA1FC215CB18A251905420541818280FC
:1049BC009E211CA19E21A1831CB1094582809E21B0
:1049CC001CA19E21A1831CB1BE213CA1BE21A183AF
:1049DC003CB111458280CA21060542054181828085
:1049EC009E211CA19E21A1831CB1AA21090542056F
:1049FC00418182809E211CA19E21A1831CB1BE21DC
:104A0C003CA1BE21A1833CB1CA21110542054181C3
:104A1C0082809C211CA1054582809E21411122C4CB
:104A2C0006C61CA19E212E841105A183A30EF5FEA2
:104A3C00BE219505230FF5FE83D7D5FFA183A30FC8
:104A4C00F5FE03C6F5FF97C0FB1FE780008E4820DC
:104A5C00B240224411054101828089476399F500D7
:104A6C001C3118210145A207D98F1EA28280114545
:104A7C0082809A21D94763FDE702011122CC06CE30
:104A8C002EC62A84EF801076B2469E22636DF50006
:104A9C0022856244F240B7550400014709469385CC
:104AAC00059705615DBBF240624409450561828052
:104ABC0009458280914785C51421FD15C20585479E
:104ACC00C1816390F60213D725008D89914781E946
:104ADC00914711C7050534A21AA248C281473E85E9
:104AEC00828009479147E39CE6FEC94733D7F5021C
:104AFC00B3F5F502E1BFAE86B75504000147114688
:104B0C009385E59799BB93F7350089EB898191479C
:104B1C0081C50EA248C281473E8582809147EDBF78
:104B2C00D8218947631CF702011122CC2A84C8457D
:104B3C0006CEAE86014709C92EC69D4597B0FB1F10
:104B4C00E780C069B2462A8722856244F240B75595
:104B5C000400194693856599056101B30945828066
:104B6C0099E1114582801C2105473EA2E37BF7FEAB
:104B7C00FD1593F5F50F33D7F502B387E702E392F2
:104B8C00F5FE050548C21AA201458280DC210947C1
:104B9C00AE866385E70041476399E700B75504008B
:104BAC0001472146938565A24DB9094582800EA225
:104BBC0091E1014548C201458280AE86B75504009B
:104BCC00014729469385C59B49B90EA291E1014540
:104BDC0048C201458280AE86B75504000147314674
:104BEC009385A59C9DB90EA291E1014548C2014552
:104BFC008280DA21854763FFE702011122CC2A84E7
:104C0C00884106CE1DC12EC6854597B0FB1FE78097
:104C1C00E05C2A8722856244B246F240B755040014
:104C2C0039469385259E05610DB9F24062440945CC
:104C3C000561828009458280914785C518218D4682
:104C4C00914763F0E602FD15C205C181B3C6E502CA
:104C5C003308D70263970501050516A23AA248C28C
:104C6C0081473E858280DC210947AE866385E7005B
:104C7C0041476399E700B7550400014741469385C6
:104C8C0065A2E1BE09458280B335B00013952500BD
:104C9C008280011122CC26CA06CE98258547AA848B
:104CAC002E844946631FF70099363E20491513069A
:104CBC00200963C8A700F2406244D244094505614B
:104CCC008280183485476314F70013660604484045
:104CDC0001C98D4532C697B0FB1FE7802050324684
:104CEC00A2866244F2402A872685D244B755040036
:104CFC009385C59E056195B68D4763F8B7021C3147
:104D0C001821F115A207D98F1EA23C313821C205FA
:104D1C00A207C181D98F3EA24EA289C5110508C632
:104D2C000145828023240600E5BF114582800111D4
:104D3C0022CC2A84884506CEAE8601C92EC695455E
:104D4C0097B0FB1FE7808049B2462A8722856244D0
:104D5C00F240B75504005946938505A00561F5BC92
:104D6C00B335B000139525008280AE86B75504008C
:104D7C00014761469385E5A1CDB48547114563F0A4
:104D8C00D7021C320C22A207CD8F1EA39387E6FFFD
:104D9C003EA389476386F600090650C3014582800D
:104DAC0023220700E5BF014781467946814575B44A
:104DBC009E211CA19E21A1831CB109458280BC218E
:104DCC0005471CA18A216397E7000A0505054205E2
:104DDC0041818280C9473305F502CDBF8A210A057E
:104DEC00420541818280BE211CA18A21BE2133054E
:104DFC00F50205054205418182808A2182808A2143
:104E0C0082808A218280BE211CA18A21BE21330589
:104E1C00F50205054205418182809E211CA19E213F
:104E2C00A1831CB1BE213CA1BE21A1833CB1CA21EE
:104E3C0011054205418182809E211CA19E21A183E6
:104E4C001CB1AA210905420541818280894711457F
:104E5C006398F6001C3214220145A207D58F1EA3BD
:104E6C0082809A21D947AE8663F9E700B7550400D2
:104E7C0001470D469385C5DB51BC09458280114520
:104E8C00639DA6001C3214220145A207D58F1EA3D8
:104E9C003C323422A207D58F3EA38280BC21054729
:104EAC00FD1793F7F70F6361F7049E2195CF01115E
:104EBC0022CC2A84C84106CE1DC12EC6894597B086
:104ECC00FB1FE780A0312A8722856244B246F2405C
:104EDC00B755040015469385A5DC056105BCF24069
:104EEC0062440945056182800945828095471145D8
:104EFC0063F1D706411122C426C24AC006C61C3231
:104F0C00BA841822A2073284D98F9EA03C32382250
:104F1C0093054400A207D98FBEA08947DCA009469F
:104F2C0013855400368997B0FB1FE7800040930728
:104F3C00A9FF9EA49947631BF90023A60400B24065
:104F4C002244924402490145410182801904C0C4A3
:104F5C00FDB782809E2195CF011122CC2A84C841B5
:104F6C0006CE1DC12EC6854597B0FB1FE7800027D6
:104F7C002A8722856244B246F240B75504001D468A
:104F8C00938585DE056159B2F2406244094505619D
:104F9C008280094582809947639DF60289474111B9
:104FAC0006C65CA31C321422B285A207D58F1EA3A1
:104FBC003C3234225023A207D58F130557003EA351
:104FCC00910597B0FB1FE7804036B2400145410187
:104FDC008280D14711456394F600C147C9B78280DE
:104FEC009E219DCF011122CC2A84C84106CE05C535
:104FFC002EC6894597B0FB1FE780401E2A87228565
:10500C006244B246F240B75504002546938525DF2D
:10501C0005616FF0BF8FF2406244094505618280E3
:10502C0009458280894711456398F6001C32142289
:10503C000145A207D58F1EA38280011122CC2A84A0
:10504C00C84106CEAE86014709C92EC6854597B024
:10505C00FB1FE780A018B2462A8722856244F240E3
:10506C00B75504002D46938565E005616FF01F8AE6
:10507C001145639DA6001C3214220145A207D58F51
:10508C001EA33C323422A207D58F3EA3828001118D
:10509C0022CC2A84C84106CEAE8601C92EC68545CF
:1050AC0097B0FB1FE7808013B2462A8722856244A3
:1050BC00F240B755040035469385A5E005616FF0C5
:1050CC00FF8493F71600114581EB89476386F60040
:1050DC00858256A310C301458280011122CC2A84FB
:1050EC00C84106CE05C52EC6854597B0FB1FE78087
:1050FC00E00E2A8722856244B246F240B75504007E
:10510C003D469385E5E005616FF05F80F2406244B7
:10511C000945056182809E219DCF011122CC2A84F4
:10512C00C84106CE05C52EC6894597B0FB1FE78042
:10513C00E00A2A8722856244B246F240B755040041
:10514C004546938525E105616FF04FFCF2406244C2
:10515C0009450561828009458280854763F6D7023F
:10516C0008A70CB71C320C22A207CD8F1EA3938765
:10517C00E6FF3EA389476386F600090650C3014546
:10518C00828023220700E5BF1145828001478146BA
:10519C004D4681456FF08FF78D47114563F4D7026B
:1051AC001C320C22A207CD8F1EA33C322C22A2074C
:1051BC00CD8F3EA39387C6FF5EA36386A600110620
:1051CC0010C70145828023240700E5BF011122CCC2
:1051DC002A84884506CEAE8601C92EC6954597B061
:1051EC00FB1FE780A0FFB2462A8722856244F2406B
:1051FC00B75504005D46938565E205616FF00FF1CC
:10520C00854711456395F6001C2201451CA382803D
:10521C0001478146654681456FF04FEF011122CC65
:10522C002A84C84106CEAE86014709C92EC68D45D3
:10523C0097B0FB1FE78080FAB2462A87228562442A
:10524C00F240B75504006D46938545E405616FF057
:10525C00CFE0011122CC2A84C84106CEAE8601478C
:10526C0009C92EC68D4597B0FB1FE78020F7B246C3
:10527C002A8722856244F240B7550400754693850F
:10528C0045E405616FF06FDD011106CE2EC6EF907F
:10529C00D05419C5B245F2402A2105616FE00015C2
:1052AC00F240494505618280B7370020A38007F89A
:1052BC00B7370020238007F8B737002023A407F660
:1052CC00B737002023A607F6B737002023A807F628
:1052DC00B737002023AA07F6B737002023A207F61A
:1052EC00B737002023A007F6B7370020239C072AE6
:1052FC00930640389387872BB6B3F1761307400B90
:10530C00938606B8BAA3D6B311679D46130600055B
:10531C009305000A1305007DDAA3F6B341478546D1
:10532C00130810F8BAA7DAA7BAABDAABFAAB9AAF94
:10533C009AB7EEA38EA7F2A792ABAAAF239E070053
:10534C00239F070023900702B6B7239607032397E2
:10535C0007029308F007239807022392E70423938C
:10536C00E704239FE7042390E7062391E7062392A3
:10537C00E706239917031307C01CD6BBF6BB239C67
:10538C000702239D0702239E0702239F07022390F7
:10539C0007042391D7042394070423950704239629
:1053AC00D7042397C7042398C7042399A704239AE7
:1053BC000704239B0704239C0704239DC704239EF7
:1053CC00C7042393A7062394070623950706239661
:1053DC0007062397B7062398B70623990706239A3F
:1053EC00E7065147239DE7067D57239B0706239C21
:1053FC000706239ED706239F0706239007082391B1
:10540C000708239207092393E7088280011126CA13
:10541C00AA84214522CC06CE2E8432C636C43AC28A
:10542C0097B0FB1FE780A0E00DC5A246124732469D
:10543C00930700FD1CA1994704B13CA174A178B15C
:10544C0052A1AA8522856244F240D24405616FD0F4
:10545C00BFE3F2406244D24405618280B73700203A
:10546C0023A4A7F68280B737002023A6A7F6828054
:10547C00B737002023A8A7F68280B737002023AACD
:10548C00A7F68280011122CC4AC806CE26CA2A89E8
:10549C000144B30489006368B400F2406244D2440E
:1054AC004249056182802EC6EFD01FF89317050183
:1054BC00C183A183B2459CA09307140093F7F70F07
:1054CC00850463F8B700CA97090488A31374F40F12
:1054DC00C9B73E84C9B7411122C437340020130424
:1054EC0084296A20C16706C6FD17630EF500B7371D
:1054FC00002003C6C73FB7350020938585F7EF9092
:10550C00F00FFD577EA0B24022444101828009C9B0
:10551C0025151375F50F1335850E1345150082806F
:10552C000145828023900500C1C6797122D426D210
:10553C004ECE52CC5AC806D64AD056CA5EC636840F
:10554C00328AAE892A8B814463F24407B3079400F4
:10555C009C23138914004209939A070193DA0A01D8
:10556C001359090163840A04CA976341FA04B30707
:10557C00240183CB07005E85593F0DC99387FAFF41
:10558C002390F90063906B03130519002295B25018
:10559C00225492540259F249624AD24A424BB24BBB
:1055AC0045618280D694C204C18079BF0145C5B7DC
:1055BC0001458280011122CC3734002026CA4AC80A
:1055CC004EC69307842906CE2E89D0CB8CCBC8C768
:1055DC00AA8441469305F00F4A8597B0FB1FE780DC
:1055EC0060ED854913048429631935030848C145C6
:1055FC00513D41469305F00F268597B0FB1FE78080
:10560C0060EB05496315250348446244F240D244DB
:10561C004249B249C1450561B5B5414681454A8506
:10562C0097B0FB1FE78000E9E31535FDC1B7414694
:10563C008145268597B0FB1FE780C0E7E30625FD73
:10564C00F2406244D2444249B24905618280411120
:10565C0022C43734002026C24AC0AE842A891306DD
:10566C00000281451305842906C697B0FB1FE7800D
:10567C0060D293078429A3812701B73700202380A8
:10568C009740EFD0F058854719C181474945230C05
:10569C00F428B2402244924402494101828081475D
:1056AC0091C909C985476319F500DC3193E707FCFB
:1056BC00DCB185473E85828089476316F500DC3175
:1056CC0093F7F703F5B70D478547E315E5FED8319A
:1056DC001377F70313670704D8B1E9BF814785C176
:1056EC0019CDD8319306000C85471377070C630846
:1056FC00D700930600048D476303D70089473E8586
:10570C008280411122C4005D06C626C21DC8AA842F
:10571C00085009C597B0FB1FE780009F485009C58A
:10572C0097B0FB1FE780409E085409C597B0FB1F3C
:10573C00E780809D228597B0FB1FE780E09C23AC1F
:10574C000402B240224492444101828019E9B737E5
:10575C00002083C7A72991C737350020130585F58D
:10576C008280373500201305052B8280B737002047
:10577C0003C5A7298280B737002003A5472A82805A
:10578C00B737002003A5872A8280B737002083A76C
:10579C00C72A88438280B737002093878729D44B48
:1057AC009842050798C2A8339307F00F6305F500DC
:1057BC0091656FD09FE18280011122CC06CE2E84A0
:1057CC0032C6EF9030129147B2456310F502B737ED
:1057DC00002083A747F795C303A30700630F0300BB
:1057EC0022856244F24005610283B737002083A70B
:1057FC00C7F681C703A34700D5B7F24062440545FD
:10580C0005618280011122CC2A844A2106CE26CA47
:10581C004AC84EC697B0FB1FE78040272DC52A8982
:10582C0004218349C500F13D4A85EF90F0494A2097
:10583C00EF90900637390020130909F883470900C7
:10584C00B9C763969704B737002083C517F8268528
:10585C00253C19E1230009004A20EF90B00891473C
:10586C00631CF500B7370020938787295620FA234D
:10587C006394E6007D57FAA3F2406244D244424955
:10588C00B2490561828081499304F00F65B7930793
:10589C00F00FE383F4FC7420522028204E87A68559
:1058AC00B5365DBF79715EC6AA8B2E8552CC56CAB1
:1058BC005AC806D622D426D24AD04ECEAE8A328BC5
:1058CC00368A97B0FB1FE780601C7DC1045D2A8976
:1058DC00E5C09C50614599C3130540039C5481C796
:1058EC0051054205418163050A007105420541815C
:1058FC00DC5081C75D054205418197B0FB1FE780F5
:10590C0000932A8455C56146814597B0FB1FE780FB
:10591C0060A8B737002083C9872E63940900834998
:10592C000900930700FD1CA0A947A30074013CA02B
:10593C00230364018C50231254011305840191C973
:10594C0008C47146930A440397B0FB1FE780E09D9F
:10595C0056858C5491C948C45146930A450197B059
:10596C00FB1FE780809C5685630C0A0008C87146B3
:10597C00D285930AC50197B0FB1FE780009B568523
:10598C00CC5099C548C85D4697B0FB1FE780E0999D
:10599C00A2854E85EFD05F8F2254B2509254F249BB
:1059AC00624AD24A424BB24B4A850259456191BB7D
:1059BC00B250225492540259F249624AD24A424B92
:1059CC00B24B4561828001114EC6AA892E854AC808
:1059DC0006CE22CC26CA2E8997B0FB1FE780000B7F
:1059EC0039C5B737002083C4872E91E004211945AF
:1059FC0097B0FB1FE780A0832A8415C981451946FF
:105A0C0097B0FB1FE7800099930700FD1CA0B947D6
:105A1C00A30034013CA023122401A2856244F2406D
:105A2C004249B2492685D24405616FD0FF85F240C8
:105A3C006244D2444249B2490561828039715ECEDA
:105A4C00AA8B2E8526DA4ED652D456D25AD006DEE2
:105A5C0022DC4AD8AE84328BB68A3A8ABE8942C6D8
:105A6C0097B0FB1FE780800239C92A89414597A06E
:105A7C00FB1FE780C07B2A8439C14146814597B022
:105A8C00FB1FE7802091B737002003C5872E19E153
:105A9C0003450900930700FD1CA0BD473CA0B2477D
:105AAC00A300740146A023046401A304540123053C
:105ABC004401A30534015CC4A285EFD0EFFCF25085
:105ACC006254D2544259B259225A925A025BF24B46
