:020000024000BC
:100000006FD052500000000000180118002801288D
:100010000228032800290129022903290429052986
:10002000062907290829002A012A022A032A042A64
:10003000052AA62A24E506005832040042040020BE
:10004000BC040020CA0300209C03002032030020CF
:10005000FA3304003A340400D83504005838040058
:100060003C390400B83004006A3004008C020020DF
:1000700036020020F63D0400D0070020D0330400F3
:10008000FE3A0400D6810600B883060024840600E8
:10009000323706006A37060076670500EA5A05001F
:1000A000347C06002E3B04007A3F060084EE0400F8
:1000B00014EF04006EEF04000E4604004C460400EA
:1000C000CC440400ACB00400C8AB0400480A0020D3
:1000D00000BD040066C00400EE9E0400909E040073
:1000E00052A204003A9F04006E9E0400E69E0400A3
:1000F000249E0400B49F04000CA00400BC9F0400D4
:10010000C09F040056A0040014A0040044A00400F2
:1001100004A5040008A50400B09F0400B89F0400D3
:1001200054A0040006A5040002A1040062A6040075
:10013000C4CD040038CE040072CE0400F8B204002E
:100140000EB3040046B3040096930400BC9504006B
:1001500098960400AE630400445E0400AA8904007B
:10016000C05E0400F28404005CC20600B4BA06005B
:10017000A0BF0600BAD6060086D50600E4D9060060
:10018000A0D90600DCD906002CDB060090A90600E9
:10019000BCDA060016CD06003CCD06005CCD06009C
:1001A0009CDB06008CD306002AD306000CDC06007C
:1001B00014AC0600A8AC0600C8AC06007AAC060079
:1001C000F85E0600504A0600A64D06008E4B06005B
:1001D000685506008C7C0600CE7B0600C4A906008C
:1001E0006A3F04007A3706005A3F06005240060074
:1001F0009E7206002A730600A4740600D2B604009C
:10020000365E0600FC5506002C480600BA5806006B
:10021000004A0600BA090020E63706000ADA06009E
:10022000A4D90600D8D90600D4D90600E2370400C4
:100230003CB4040012DA0600E460060048620600DE
:10024000B4620600FEBF06000EDA060058DA0600A9
:10025000765A05005CDA0600D2230020E42C002048
:10026000DEBF06007CC1060060DA0600B4DA0600D4
:10027000B8DA060016DA060050DA060054DA06008C
:100280006373B60082801C419105110523AEF5FE13
:10029000C5BFB737002037370020938787DA1307A9
:1002A000474C6373F700828023A007009107D5BFF6
:1002B000411122C4B747024006C603A4C72023A6A3
:1002C00007200F10000011C199E5B747024023A68F
:1002D0008720014545A093073500C207C183F19BE4
:1002E000C207C183130740036366F7023737002054
:1002F00003254704373700208326C7036391A602EE
:10030000373700200327070D69D3C207DD8D054568
:10031000029765BF3737002003250704E1BF7A2124
:1003200031EF5A21636CF704B73600203306F740EB
:1003300021489386C6046375C8028328050003D844
:100340006600138687001D8F2A9661175AA2232004
:1003500016012313060010C15EA1130788FFFAA23D
:100360006EA1EE222105B387F540FEA2B7470240F9
:1003700023A68720B2402244410182800841BDBFAC
:10038000B747024003A8C72023A607200F1000008C
:1003900001E523A607218280B737002003AE47047A
:1003A000B737002003A3C7038146F28763FE6708BF
:1003B00083A80700636DF50863EBA808138787001F
:1003C0006364E508F223216705076319E600373601
:1003D0000020034746E50507230AE6E437360020F8
:1003E0001305C604CE237A21239307001306C604FF
:1003F0002E97420741837AA16383C70337350020D4
:1004000003250504630DF500EA2211E9DE2223A08D
:1004100016012107BE95A105CEA27AA2B687984300
:1004200063046702B736002083A60604630ED70074
:10043000762399EAD6234E231843A106AE96D6A377
:1004400098C37E22A1077EA2B747024099B7BE8615
:10045000C687A9BFB7370020B736002083A7470457
:1004600003A6C6032A87B305B5406314F6003A8590
:1004700029A8938687009C43E369D7FEE377F7FEBC
:100480002E85E3E4D5FEE3F2F5FE828023AC05FE83
:100490001C4181E70CC18280BA8703A787FF6DFFEB
:1004A00023ACB7FE8280411126C24AC0B744024045
:1004B00006C622C403A9C42023A604200F100000EE
:1004C00009E923A62421B240224492440249410171
:1004D00082802A842105BD654205C18D4181C93BC9
:1004E00011C9FD572320050042A17CA123A6242188
:1004F0002105D1BF23A624210145F1B701114AC826
:100500004EC6B747024006CE22CC26CA83A9C720D2
:100510002A8923A607200F10000037350020032466
:1005200085048144014609E889ECA1654A85973034
:1005300004E0E780A05925A08347E4FF639D2703DB
:10054000A1C0A68513058504973004E0E78040D755
:1005500069DCA1654A85973004E0E7804011F240EC
:100560006244B747024023A6372126854249D24438
:10057000B2490561828091E02286032484FF65B739
:10058000A284E5BFB737002083A7870999E33E859A
:100590008280BA236315B7009823E30AA7FEDC47DD
:1005A000F5B7B747024003A7C72023A607200F10BF
:1005B000000001C599C1814711E6B747024023A653
:1005C000E7208280B386F50003C80600B306F50075
:1005D000850723800601E317F6FEC5B737470240BB
:1005E0008327C720232607200F10000019C191C1BF
:1005F00011E6374702402326F7208280910503A7A2
:10060000C5FF11057D16232EE5FEDDB737470240F5
:100610008327C720232607200F10000001C53307BA
:10062000C50011E6374702402326F72082800505E2
:10063000A30FB5FEE31DE5FEF5B7B747024083A65D
:10064000C72023A607200F10000081473307F500BD
:100650000307070019E7374702402326D7203E85C6
:1006600082808507E5B7011126CA4AC8B74702400C
:1006700006CE22CC83A4C7202A892E8623A6072053
:100680000F100000131506019305F004418132C6D6
:1006900005312A8401C53246CA8521372285F240B8
:1006A0006244B747024023A697204249D2440561DD
:1006B0008280B747024003A7C72023A607200F1058
:1006C000000001C599C1814711EAB747024023A63E
:1006D000E720054582808507E309F6FE3308F5002B
:1006E000B386F500034808009422E306D8FEB74716
:1006F000024023A6E72001458280B747024003A7B6
:10070000C72023A607200F1000009307F6FFBE9511
:100710002A966317C500B747024023A6E7208280C8
:10072000FD159C310505A30FF5FEE5B737470240DF
:100730008327C720232607200F10000001C5330799
:10074000C50019E6374702402326F720014582807D
:1007500005058346F5FFE397B6FEE31BE5FE374745
:1007600002402326F72005458280797126D2B734CE
:10077000002022D403A4840906D64AD04ECE52CCFF
:1007800056CA5AC85EC662C455C4373A00203739C3
:100790000020B7390020814BB73A002037CBC90180
:1007A000130ACA091309C9049389490E3E2099EF17
:1007B0005C44639A0B0023ACF408032CC40022852C
:1007C000C1366284A9A823A6FB00C5BF83A70A0976
:1007D00082971C443307F5406376F50003A7490070
:1007E0001D8F2A979306FB3763EAE6062328090044
:1007F0002E200820973004E0E78060E75C405844F2
:10080000B1C70C4403A64900AE97BE8663E4B700A7
:1008100063E4C700B386C74014C4A28B3A8459F47A
:10082000B73700209387C704984B854663FCE604DE
:100830007D1798CBB250225492540259F249624A21
:10084000D24A424BB24B224C4561828063950B00E9
:1008500023ACE4089DB723A6EB0085B703278A02E3
:1008600019CB63EDA7003385A74083270901637483
:10087000F5002328A900A28B404455B703A74900DF
:10088000BA97D5B723A8070075B701114EC6B74769
:10089000024006CE22CC26CA4AC852C483A9C72029
:1008A00023A607200F100000373400209307440EC2
:1008B000C843DC271304440EB9CFB7370020938711
:1008C000872603D7470B21CB83A4070B6385A4049A
:1008D000B73700201387C704184B138AC704630F68
:1008E000A70E3739002083270909829763E5A40EF4
:1008F00083270909898C829703270A0163F3E4009F
:100900002687B307A7003E85544063E4E70063E40D
:10091000D7003385D740B747024023A637215C4034
:10092000639DA702B73400209384C4049848B73766
:10093000002083A707096315A70A82975440B74789
:1009400036FE938707C8B6973387A7003A85636456
:10095000F7006364D7003305D740B734002093878E
:10096000443CDC539384443C99CBB737002083A6A6
:1009700007443707CDFF7D179C46F98F9CC611E1D0
:1009800048408547DCC4B737002083A7470C8297CF
:1009900005E1DC5089CFDC4499CB974006E0E78045
:1009A00060A8973006E0E780A00523A60400753B09
:1009B000DC5091CBB737002003A70744B7063300BC
:1009C0001C47D58F1CC7F2406244D2444249B24909
:1009D000224A056182805C40BE9419BF268525BFEE
:1009E000829794485840B387A6003E8563E4D700B9
:1009F000E3E5E7F63385E7408DB7B737002023A45A
:100A0000A7DA11C5B737002005472386E7DA8280C9
:100A1000B737002003A787DA411122C406C6138422
:100A200087DA11C30297B737002083C7C7DA93F775
:100A3000F70F99E323200400B24022444101828051
:100A4000011126CAB734002022CC4AC89387440E2D
:100A500006CE4EC652C456C2DC27373900209384D6
:100A6000440E1304890795E3B73700209387473C6A
:100A7000D833058B19CBF8339946639BE60AA382DA
:100A80000700EF10504B5C4482971C4491C382973F
:100A900037340020B73900209307C40403A749095D
:100AA0009033130AC4048347C40493961700BA967C
:100AB0009622C9CA8347C40463EEC7082306040408
:100AC000373400209307443C9C371304443C639123
:100AD0000710B737002083A70709F5C3DC40232898
:100AE000FA006131B737002083A7470CE9CB7C308F
:100AF00011476366F70CB737002093870741DC275F
:100B0000918BD5EFB737002083C7C7DA93F7F70F7C
:100B1000DDE783461A0003A6490963C7D70C624480
:100B2000F240D2444249B249224A924A0561B1BBDD
:100B3000F8339D46E39BE6F4A3820700EF10B03F35
:100B40001C4899B7850793F7F70F2306F404E3ECE5
:100B5000C7F48DB786073E970E2323100700034581
:100B6000C404B737002083A7470713172500B73AF7
:100B70000020BA979C4323960A08829783D7CA0815
:100B80000347C40493C7F7FF7D8D9317170003A78E
:100B900049093E971E235D8D0AA38347C40481C77C
:100BA00085072306F4048327890781C78297232CAE
:100BB00009060347C40483471A00E371F7F0F240C3
:100BC0006244D2444249B249224A924A0561828033
:100BD0007C3093F7F70FE39E07EEA30404009730F1
:100BE00006E0E7804030F5B51397170032971A23D7
:100BF00079F785071DB7374702408326C720F1776D
:100C0000FD17F58F2326F72001000100B7370020DC
:100C10009387C704C84F832787262326D7206A05D2
:100C200093C7F7FF99835D8D8280B737002083C714
:100C3000F70489CFB737002083C7070F91CBB737A9
:100C4000002003A3470F630703000283054582804A
:100C5000094582801305F00F8280B737002003C654
:100C60004726B737002003A747E281476315F60000
:100C7000814636858280BA8613078702835587FDB1
:100C8000E389A5FE850793F7F70FCDB7B7370020A7
:100C900003C75726B737002083A707E42A8605072E
:100CA00081463E859E236388C700850693076500BD
:100CB000E3E9E6FE01458280B737002003A787E31A
:100CC00019E3014615A81C4703D8A700636B05016B
:100CD00083584700B38608016355D5008146639465
:100CE00016011843F1BF3E86C10703D3A7FF631760
:100CF000A30099C123900501328582808506C20632
:100D0000C182F1BFB737002003C64726B73700209E
:100D100003A7472081476315F60081463685828008
:100D2000BA861307C703835567FCE389A5FE8507C9
:100D300093F7F70FCDB7032785116DCB411122C46F
:100D400006C65C258345E5042A8493F7C70F5CA596
:100D50001437522713958601618563F7C5066351E1
:100D60000506082793F6F60714B7054693E627000D
:100D70006314C50093E6170054A45C4389075CC361
:100D80004CB8032504112E864C430905EFF07F81F2
:100D9000832784115038D443DA27B296118FD4C3F5
:100DA000DAA789473CBCB73700200347640383C7F1
:100DB000E70A6371F7045C2493E707015CA41DA8AC
:100DC00093E717005CA46DBF9376F60F6359050295
:100DD0000827854513E627006314B50013E61700BE
:100DE00050A454B8A304070085473CBC8327841152
:100DF0009C43D5FBB240224401454101828093E7E8
:100E000017005CA454B8A3040700032504114C4345
:100E10000905EFF00FF9832784115038D443DA27FE
:100E2000B296118FD4C3DAA78D47C1B7054582802A
:100E3000B737002083A74739411122C406C6858BE6
:100E40002A84D5E34165130525F5977005E0E78011
:100E5000A0B251C93C253EA583270412ADE323204F
:100E6000A4122322A41285472311F4042320050091
:100E70007C2854415EA5583418A5054718B5373766
:100E800000200327873E1385170215811C437D151B
:100E90001375F50F9CC25C43DCC21C479CC65C47C3
:100EA000DCC61C4B9CCA5C4BDCCA1C4F9CCE5C4F06
:100EB000DCCE19CD9386060213070702C1BF832734
:100EC000441288C3835724042322A412850769BFD0
:100ED000B7370020938787269A2705079AA7B2403D
:100EE0002244410182805C2423090400054593C704
:100EF00047005CA4EDB71C2D93F7E70FC5EB1C3D35
:100F0000D5E73029542509CA3737002083456503C2
:100F10000347F70A63E7E50013F7060149CB0147EA
:100F200009C6C18A0357251E81C68356651E36979A
:100F30003DCFB737002003D5C70E1307C71237467A
:100F40000F00B335A702411113060624814622C4BF
:100F500026C206C67D543305A70297D006E0E78077
:100F6000600BB737002083C7370BB384A700B737B0
:100F7000002003A747308327070963F387003E84D7
:100F8000184375FBB737002083A70709829781476D
:100F90006364A400B307A440B2402244B3B79700EF
:100FA00093C7170092443E854101828081473E8568
:100FB0008280B737002003A7C73E7C53FDFF8280A5
:100FC000011126CAB73400209387842622CC03A4BB
:100FD000470A06CE4AC8835704044EC652C456C2B6
:100FE0005AC085072310F40483470414A30F040098
:100FF0009384842622856387071C612D2285976050
:1010000005E0E78060A86315051A3739002013064C
:10101000490E0A2683576408B7460F009385F623C6
:10102000B387A7029386062403270409230B04022F
:10103000032A46001309490EAE97B3D7D70263655A
:10104000F718B307F7408326C4082324F408814A1D
:10105000B387E600BE8963E4D70063E44701B38940
:1010600047411E3023283409A1CB835604045A304B
:1010700037460F0056B03387E640B387E7023A3071
:101080001306062481468145BA97C207C18333857A
:10109000A7023EB097D006E0E780C0F711CD4E958D
:1010A000B3393501AE99AA8763943A016364450167
:1010B000B30745412328F408373A002083270A095B
:1010C0008297AA8983270A098297E30D35FF832730
:1010D0000A0983298408829763EDA90E3385A94004
:1010E000630B0510B737002083C7370B6375F51006
:1010F000B7490F0093890924B3353503035B890091
:10110000035A240281465A863305350397D006E0F8
:10111000E78040F0B30AAA0033056A0337460F00A0
:10112000130606248146814597D006E0E78080EECD
:101130000DC1B33735035A868146B385B90233856D
:10114000A902BE9597D006E0E780C0EC3305AA401F
:101150002AB03545973006E0E78080E923A2840A6B
:1011600038348547631BF706930700FD7CA4B73727
:10117000002003A5C73A8347C900A5CBBD38B736C1
:10118000002003A6C63EB73700209387473C15478B
:10119000F8B35846F977FD17F98F5CC60F100000B9
:1011A00083A7C63E8966860A94C723A25707D8C775
:1011B000F2406244D2444249B249224A924A024B26
:1011C0000561828025211DBDB3064701B387F64026
:1011D0009DBD83274900BE9911B7930710FC7CA4DD
:1011E000B737002003A5473A79B78145973004E027
:1011F000E780C0A569B78347C90023A2040A85C355
:10120000B737002003A5C739973004E0E780A0DE98
:10121000B7E700E03707000223A2E72051BF83476A
:10122000940285456244F240D2444249B249224A7E
:10123000924A024BB395F500C205C1810145056193
:10124000172304E06700A342011122CC4AC84EC60E
:1012500006CE26CA52C456C25AC0383585472A849B
:101260002E89832905096315F71E83570508035B3B
:10127000C503373A002093064A0E83DA8600130A24
:101280004A0E63FF67191429639CE618032785112A
:10129000631807180327450A6314071874351D4798
:1012A0006390E6182A3D330BFB409307204E33052D
:1012B00065038324440937460F001306062481463C
:1012C0003305F502B737002083C7270BB3549502C7
:1012D000B3B5AA02BE94C204C18023139408338517
:1012E000AA0297D006E0E780E0D2AA9933B5A90018
:1012F0002E954E8783274A0019E163E4F90033876E
:10130000F940B3845403B7460F009387F6239386BE
:1013100006242320E900BE94B3D4D40293171B0003
:10132000A6976369F70E1D8F2320E900B7390020C7
:1013300083A7090983240900829763EEA4103385EB
:10134000A440635D050A83A70909373B0020130BFE
:101350004B0E8297032709006365E510198D7E3CCB
:1013600003578B008E07B387E7021307003293877A
:101370000719B3D7E70263EBA70E374A0F00930AAA
:10138000FA23130A0A248357040485072310F4045C
:101390008347041499E32285912C2285975005E018
:1013A000E780806E6DE1832604098327C408032744
:1013B0004B00B6973E8563E4D70063E4E7003385CE
:1013C000E7407C3C835464082328A40885077CBC40
:1013D00083578B00B384F402D694B3D4440363637D
:1013E000950CB304954083A709092320990082979F
:1013F00063EEA40A3385A440E34705F8B73700201D
:1014000083C7370B63E2A708B737002023A68730CE
:1014100001459DA883264A00B387F6403E9729B729
:101420008357640837470F00B38457039307F723A4
:10143000A69793040724B3D4970263E79900B38473
:10144000994023209900DDB583274A00BE99C5BF86
:1014500023A03501E1BDB737002083A7870EBE94D6
:10146000F9BD83274B00998F3E95D5BDA1452285B7
:10147000975005E0E7808059A305A402B737002004
:1014800083A7070D81EF7D55F2406244D244424963
:10149000B249224A924A024B05618280894515452C
:1014A0008297D5B7B3049740AA9435BF83274B00E2
:1014B000BE9489B721CD01116C0022CC06CE2A84BE
:1014C000613339C1FD576307F502B73600209386B3
:1014D000C609FC3A9456324791C285836360F7028D
:1014E000B307F7403EC6B24503459402972004E097
:1014F000E780C02DF240624405618280B73600204B
:1015000083A6860E3697E9BF653CEDB78280B73774
:1015100000207971138787264AD00329C70906D688
:1015200022D426D24ECE52CC56CA094763000906B1
:10153000B7340020938A87269387443CFC33954632
:101540009384443C0D476383F604DC442A8A99CB98
:10155000973006E0E78000ED972006E0E780404AFC
:1015600023A60400FD596C004A85F93915E93715A1
:101570000020130505D5EFF04FC8A147DCA0B73711
:10158000002083A7C73E0947F8D30D47B250225425
:1015900092540259F249624AD24A3A8545618280A0
:1015A000637435013244AA8903290900E31D09FA4D
:1015B000FD571307F00FE38BF9FC914763F18702A6
:1015C0009307B4FF2320FA0023A8FA0A0147DDFF9E
:1015D000B737002083A7870E2320FA0045BFB7370F
:1015E000002083A7870EED17A297E9BF797126D255
:1015F00006D622D44AD04ECE52CC56CA5AC85EC65F
:101600008347550303447513AA843E941374F40F5F
:101610009307400263F687001304B4FD1374F40FBC
:1016200003AA841383AAC413A38B8412228652852F
:10163000D68597D006E0E7806098058915E503CB4D
:10164000D41201498149337B6403930B50024A86CB
:101650005285D68597D006E0E7804096058915C566
:10166000639169031374F90F238B8412B2502254CF
:1016700092540259F249624AD24A424BB24B4561F6
:1016800082808509E20993D989410509E31179FD31
:10169000E1BF8327850903560504797193D60701B5
:1016A000BD8EC206C182358E135776409357564081
:1016B000898B058B5D8F93573640918B5D8F935748
:1016C0001640A18B5D8F93171600C18B5D8F93170A
:1016D000360093F707025D8F9317560093558600E7
:1016E00093F707041E065D8F1376F60F518F93D77D
:1016F000554013D63540118A898BD18F13D675404A
:10170000D18F13D61540218AD18F13961500418AA7
:10171000D18F1396350013760602D18F139655009C
:10172000137606049E05D18F93F5F50FCD8FA20792
:1017300045465D8F3307C70222D42A8426D252CC75
:1017400056CA032A8413832AC4135AC806D6369766
:101750004207418393577740135557400989858B3A
:10176000C98F135537401189C98F135517402189E7
:10177000C98F131517004189C98F131537001375C9
:101780000502C98F1315570093558700137505047B
:101790001E07C98F1377F70FD98F13D5354013D78D
:1017A00055401189098B498F13D57540498F13D541
:1017B00015402189498F139515004189498F13954B
:1017C000350013750502498F1395550013750504EF
:1017D0009E05498F93F5F50F4D8F2207D98FB3875B
:1017E000C7024AD04ECE5EC662C4B697C207C18356
:1017F00013D7774013D557400989058B498F13D5E7
:1018000037401189498F13D517402189498F139586
:1018100017004189498F1395370013750502498FC9
:101820001395570093D58700137505049E07498FBC
:1018300093F7F70FD98F13D5354013D7554011893A
:10184000098B498F13D57540498F13D515402189D0
:10185000498F139515004189498F139535001375EC
:101860000502498F13955500137505049E05498F90
:1018700093F5F50F4D8F2207D98FB387C702130653
:1018800050025285D685B697BD8E93940601C180CD
:1018900033F6C402137BF60F97C006E0E7800072B0
:1018A00005890DED8347D41201498149B38497021C
:1018B000130C5002C1804A865285D68597C006E037
:1018C000E780C06F0589937BF90F11C563863403E8
:1018D000850993F9F90F0509E31F89FD230B6413AB
:1018E000B250225492540259F249624AD24A424BAF
:1018F000B24B224C456182805E8BCDB78327C508F1
:1019000003568508797193D60701BD8EC206C18240
:10191000358E1357764093575640898B058B5D8FD4
:1019200093573640918B5D8F93571640A18B5D8FF7
:1019300093171600C18B5D8F9317360093F707023C
:101940005D8F931756009355860093F707041E0684
:101950005D8F1376F60F518F93D7554013D63540D0
:10196000118A898BD18F13D67540D18F13D615402C
:10197000218AD18F13961500418AD18F1396350095
:1019800013760602D18F13965500137606049E0532
:10199000D18F93F5F50FCD8FA20745465D8F3307A5
:1019A000C70222D42A8426D252CC56CA032A040A59
:1019B000832A440A5AC806D636974207418393576A
:1019C0007740135557400989858BC98F1355374088
:1019D0001189C98F135517402189C98F1315170015
:1019E0004189C98F1315370013750502C98F131567
:1019F000570093558700137505041E07C98F137789
:101A0000F70FD98F13D5354013D755401189098B5E
:101A1000498F13D57540498F13D515402189498FBA
:101A2000139515004189498F1395350013750502EB
:101A3000498F13955500137505049E05498F93F53D
:101A4000F50F4D8F2207D98FB387C7024AD04ECEEC
:101A50005EC662C4B697C207C18313D7774013D559
:101A600057400989058B498F13D537401189498F14
:101A700013D517402189498F139517004189498F44
:101A80001395370013750502498F1395570093D5A9
:101A90008700137505049E07498F93F7F70FD98FB9
:101AA00013D5354013D755401189098B498F13D56C
:101AB0007540498F13D515402189498F139515001D
:101AC0004189498F1395350013750502498F139588
:101AD0005500137505049E05498F93F5F50F4D8F3D
:101AE0002207D98FB387C702130650025285D685C5
:101AF000B697BD8E93940601C18033F6C402137B62
:101B0000F60F97C006E0E780604B05890DED83472F
:101B1000140801498149B3849702130C5002C18013
:101B20004A865285D68597C006E0E7802049058918
:101B3000937BF90F11C563863403850993F9F90F77
:101B40000509E31F89FD230F6407B2502254925404
:101B50000259F249624AD24A424BB24B224C456189
:101B600082805E8BCDB7832745090356850879713E
:101B700093D60701BD8EC206C182358E13577640BB
:101B800093575640898B058B5D8F93573640918BC9
:101B90005D8F93571640A18B5D8F93171600C18BF5
:101BA0005D8F9317360093F707025D8F93175600EA
:101BB0009355860093F707041E065D8F1376F60F84
:101BC000518F93D7554013D63540118A898BD18FC9
:101BD00013D67540D18F13D61540218AD18F139615
:101BE0001500418AD18F1396350013760602D18FE6
:101BF00013965500137606049E05D18F93F5F50FC5
:101C0000CD8FA20745465D8F3307C70222D42A84B1
:101C100026D252CC56CA032A040B832A440B5AC834
:101C200006D636974207418393577740135557405E
:101C30000989858BC98F135537401189C98F135571
:101C400017402189C98F131517004189C98F1315B2
:101C5000370013750502C98F131557009355870078
:101C6000137505041E07C98F1377F70FD98F13D586
:101C7000354013D755401189098B498F13D57540CD
:101C8000498F13D515402189498F13951500418936
:101C9000498F1395350013750502498F139555002B
:101CA000137505049E05498F93F5F50F4D8F220797
:101CB000D98FB387C7024AD04ECE5EC662C4B697EC
:101CC000C207C18313D7774013D557400989058BC5
:101CD000498F13D537401189498F13D51740218972
:101CE000498F139517004189498F13953700137554
:101CF0000502498F1395570093D587001375050486
:101D00009E07498F93F7F70FD98F13D5354013D717
:101D100055401189098B498F13D57540498F13D5CB
:101D200015402189498F139515004189498F1395D5
:101D3000350013750502498F139555001375050479
:101D40009E05498F93F5F50F4D8F2207D98FB387E5
:101D5000C702130650025285D685B697BD8E93945E
:101D60000601C18033F6C402137BF60F97C006E06C
:101D7000E780C02405890DED8347F40801498149B6
:101D8000B3849702130C5002C1804A865285D685CF
:101D900097C006E0E78080220589937BF90F11C583
:101DA00063863403850993F9F90F0509E31F89FD5B
:101DB000230F6407B250225492540259F249624AE6
:101DC000D24A424BB24B224C456182805E8BCDB7EA
:101DD0004111B737002026C283A4072C06C622C4AF
:101DE0004AC08547C1C403A4C40A854741C03C24F6
:101DF0001307700A6393E70858301C34B736002085
:101E00001386460EB387E7021A265042B387E702CD
:101E10001307003293870719B3D7E70203A74409D2
:101E20009384460E3E973A896364F7006364C70063
:101E30003309C740B737002083A7070923202501AE
:101E40008297B307A9406374A900D840BA9781E785
:101E50009307F00F21A858309306204E3307D7027E
:101E6000E3F8E7FE930780FA3CA48147B24022449E
:101E7000924402493E85410182801307800AE3991A
:101E8000E7FCB737002083A7070982972A893545E1
:101E9000972006E0E780C015B73700209387473CBE
:101EA0002D47F8B358301C34B73600209386460EC1
:101EB000B387E7029A26D442B387E70213070032BA
:101EC00093870719B3D7E70203A744093E973A86D9
:101ED0006364F7006364D7003306D740E31AC9F69A
:101EE00037D5050013056585EFE03FB1B737002012
:101EF00083A7C73E0947F8D7A1BF397122DC373421
:101F000000209307443C9C4F06DE26DA4AD84ED682
:101F100052D456D25AD05ECE62CC66CA6AC86EC659
:101F200013970701635D071EB737002083A4072CB2
:101F300083A9C40A83C7990003A7C9009207330C79
:101F4000F70003452C00314705053305E50203572B
:101F50004C003A9542054181EFE0EFD4AA8B630B28
:101F6000051C130DC5002324A50103462C00B14513
:101F7000F97A3306B6021304443C23130C000149DA
:101F8000373A0020373B0020B73C0020930D9005E6
:101F9000FD1A6A962326CC0003C679009307D00762
:101FA0000325CA3E3306F60285671CC5B707330012
:101FB000060630D103268B3B0C4293F5F5E70CC2A5
:101FC0000C4293F5F5E793E505100CC203A80C4409
:101FD00083258800DD8D2324B80083A509002328EC
:101FE000B5050CC683556C000326CC002E96232421
:101FF000CD0003461C00930550024A96A301CD0074
:1020000003C504080146A3000400972006E0E7800A
:10201000C0D50326CA3E4846B37555014CC60F10BD
:1020200000000326CA3E896503288B3B0CC6930536
:1020300000F84CA083250800B1818D89E1E193056A
:1020400060196CD248C6A30204008545A3000400B1
:102050000CC2D525972006E0E78060F11030058A94
:102060005DCAEA85268597C005E0E78080A50DED6D
:1020700003465D004DC283556C0003554C00B2957C
:1020800063DBA508AC28A848918D8905AA9503258E
:102090008D00EFE00FD123020D0083455D00035654
:1020A0006C002E962313CC008325CA3E310DB0510F
:1020B0007DFE03462C0005091379F90FE36EC9EC88
:1020C00098245E85A381EB0083470C00A3820B005C
:1020D0002383CB002382FB006254F250D254425936
:1020E000B259225A925A025BF24B624CD24C424D88
:1020F000B24D2161171305E06700C3DF8325080097
:102100000948B1818D89639505019305E04315BFA9
:102110009305E01B3DB77D562302CD0071B7B7375D
:10212000002083A7C73EFC5791C7B737002005475B
:102130002386E7DAF2506254D2544259B259225AF5
:10214000925A025BF24B624CD24C424DB24D21612D
:1021500082800111B737002022CC03A4473326CA5E
:102160004AC84EC606CEAA8413092500854905C073
:102170009C303830858B6304F700405CCDBF194636
:10218000930544004A85EFE0CFD2E31835FF22855E
:10219000F2406244D2444249B24905618280411111
:1021A000B737002022C403A4473326C24AC006C65C
:1021B00093042500054901E82285B2402244924457
:1021C000024941018280A6851305A40297C005E05B
:1021D000E780603FE30225FF405CF1BF4111B73764
:1021E000002022C403A4473326C24AC006C6930473
:1021F0002500054901E82285B24022449244024963
:1022000041018280A6851305A40197C005E0E780FF
:10221000803BE30225FF405CF1BF011122CC60410D
:1022200026CA4AC84EC652C406CEAA841D4A1309FD
:1022300065058549BC446364F400054591A0D83424
:102240005C206317470503C784026304F70000405E
:10225000D5B7583083C75405E31BF7FE1946CA8526
:1022600013056400EFE0EFC4E31335FF582483C780
:102270009402E31EF7FC7A24BE34E31AF7FC01450E
:10228000F2406244D2444249B249224A0561828006
:10229000E31FF7FA583083C75405E31AF7FA1946D3
:1022A000CA8513056400EFE0CFC0E31235FBC1BF60
:1022B0004111B737002022C403A4872E06C626C2C8
:1022C0004AC079C88347840B1307700A6393E70AEF
:1022D0000347140E8347A40BB73600201386460E1F
:1022E000B387E7021A269384460E5042B387E7026B
:1022F0001307003293870719B3D7E7020327440A6D
:102300003E973A896364F7006364C7003309C740A6
:10231000B737002083A70709232025018297B30739
:10232000A9406374A900D840BA978DC70347140E1B
:102330009306204E3307D70263FEE700930780FA27
:10234000230CF40A01442285B240224492440249FB
:1023500041018280372506001305657CEFE0EFE937
:10236000B737002083A7C73E09471304F00FF8D7FB
:10237000D9BF1307800A1304F00FE396E7FC372553
:1023800006001305657CEFE04FE7B737002083A711
:10239000C73E0947F8D745BF054475B70111B737A0
:1023A000002022CC03A4C73226CA06CE2AC42EC6D9
:1023B000854419E40145F2406244D24405618280BB
:1023C0009C841830858B6304F7000044DDB7194600
:1023D0009305A10013052400EFE0AFADE31795FED0
:1023E0000545D1BFB736002083A7463B1307001031
:1023F00098C323A00700183103482500220742088C
:102400004297034805004297034835006208429707
:1024100098D758310348650022074208429703487D
:10242000450042970348750062084297D8D718358F
:102430000348A500220742084297034885004297B7
:102440000348B5006208429798DB58350348E50019
:102450002207420842970348C50068354297620543
:102460002A97D8DB9831A821220742052A9788218C
:102470002A97A83162052A9798CFD831E8212207F8
:1024800042052A97C8212A97E83162052A97D8CFB2
:102490009835A825220742052A9788252A97A83526
:1024A00062052A9798D3D835E825220742052A974E
:1024B000C825EC352A97E2052E97D8D3D843759BCB
:1024C000D8C3D84313671700D8C3984313671700BE
:1024D00098C303A7463B5C43858BBDE71C4F014572
:1024E0001CA283A7463B9C4FA1831CB283A7463BFB
:1024F0009C4FC1833CA283A7463B9C4FE1833CB2E7
:1025000083A7463BD84F58A2D84F218358B2D84F03
:10251000418378A2D84F618378B2985318A6985314
:10252000218318B69853418338A69853618338B6EF
:10253000D85358A6D853218358B6D853418378A688
:10254000DC53E1837CB68280010061B7B73700209D
:1025500003A7C73E1605136505083C4B93E707081C
:102560003CCBB737002083A7473B03A7450E88C362
:1025700098CB03A7850E0145D8CB03A7C50B98CFF1
:1025800003A7050CD8CF03A7450C98D303A7850C48
:10259000D8D303A7C50C98D703A7050DD8D703A791
:1025A000450D98DB03A7850DD8DB03A7C50D98C79C
:1025B00003A7050ED8C798431367070498C3828002
:1025C000B737002003A7C73E1605136505083C4B27
:1025D00093E707083CCBB737002083A7473B03A707
:1025E000C50E88C398CB03A7050F0145D8CB03A719
:1025F000C50B98CF03A7050CD8CF03A7450C98D3DC
:1026000003A7850CD8D303A7C50C98D703A7050D3E
:10261000D8D703A7450D98DB03A7850DD8DB03A703
:10262000C50D98C703A7050ED8C7984313670704BD
:1026300098C3B73700209387473C130700F8F8A3E7
:102640008280B736002003A7863B41114AC01C5F39
:1026500006C622C4998326C2858B3689B5CF9307D7
:102660000006373400201CDF8347443C9304443C7D
:1026700093F7070489CFB737002083A7070982970C
:10268000C8CC8347443C93F7F70B2302F43C8347C1
:10269000443C93F7070285C38347443C3737002007
:1026A0000327C73E93F7F70D2302F43CDC48A166ED
:1026B00014C786077CD7DC2093F7070491EF854782
:1026C000DCB0B737002083A7C73E096798C7130758
:1026D00000FCD8A09848F8D30327893B1C5F91835E
:1026E000858B89CBC1471CDFB73700209387473CD8
:1026F0008546D4A31C5F9D83858B91CB93070008EF
:102700001CDFB73700209387473C0547D8A3B7376E
:10271000002083A7473BD8430583058B19C7D843BF
:10272000759BD8C3D843799BD8C3B2402244924406
:10273000024941018280B7370020B736002003A646
:10274000C73E9387463C03C7463C058B19E7983341
:10275000058B01E7785265FBD833A382070082809E
:10276000373800200327883B1C5F9583858BBDE7A6
:1027700001C61C5BBD831CA29DC68327883B985B5A
:102780004607935767016356070093E707C0C207E0
:10279000C18303970600C207C18709C7BA970947D3
:1027A000B3C7E7029EA285C11C3191CF3E951C356F
:1027B0000547194593F6F7066393E602E207E187BA
:1027C000394563CE07008327883B37370020014512
:1027D0009C5FED838D8BA307F73C8280054582804B
:1027E000411122C406C63734002026C20327C43E46
:1027F0003DE5AE877453FDFEB73400209384443C1E
:102800003E85B28523810400971006E0E780804171
:10281000B737002083A7873BB70680009843558FC2
:1028200098C3D857719BD8D78327C43EA38204008E
:10283000A3800400094798C38326C43EB73700200D
:102840009387473CB823058B11E7B833058B19E311
:10285000F8526DFBB24022449244410182808D4780
:10286000631FF500B737002083A7873BB7068000BA
:102870009843558F98C3D857719BD8D775BF854754
:10288000E31CF5FA5447F977FD17F58F5CC70F1075
:1028900000008327C43E0967130600F898C737373E
:1028A00000201307473C50A3373700200326873BFF
:1028B000184231830D8B11E713076019F8D3D4C781
:1028C000A5BF1842094631830D8B6315C700130756
:1028D000E043EDB71307E01BD5B75D7152DC373A23
:1028E000002003278A3B86C6A2C4A6C2CAC04EDE09
:1028F0001C43B73900203739002093F7F7E793E7F7
:1029000007081CC383A609443707CEFF7D179C46E2
:10291000130680022A84F98F9CC68327C93E2800AB
:10292000AE8423A8070493051008EFD03FCE3545A9
:10293000971006E0E780C06B83278A3B9376F41FED
:102940003706330023A40700984B370FFCFF4E884F
:102950001367F70398CBF84FCA88130510F813775D
:1029600007E0558FF8CF9843F576FD16758F98C31D
:10297000373700208326C93E1307473CA3020700D0
:10298000A3000700054798C29843D285B702040008
:102990001377F7E798C3984393038025114913777A
:1029A000F7E71367071098C303A709447D1F8549FC
:1029B0001C47930F8002D18F1CC793079005BCCA98
:1029C00001473400135337002693834703001376DF
:1029D0007700B3D7C740858BE1C383A7853B832EA0
:1029E0000844239C07042390070603AECE02137EFF
:1029F000DEFF23A6CE0383AE0700137EF70793FE08
:102A00000EF833EECE0123A0C70103AE4702336EAA
:102A10005E0023A2C70383AEC83E014E23A27E06FA
:102A200003DA070663074E0303AE0703038A0600B3
:102A3000135EFE00620E135E8E416358CA0103AE40
:102A40000703135EFE002380C60103DE0706137E24
:102A5000FE0F03AA4E0663060A0003DA8705E37F2A
:102A600049FB03AE4702337EEE0123A2C7038387EF
:102A70000600635CF400034E03003396C90013465E
:102A8000F6FF3376C6012300C3003E8663D3A7005A
:102A90002A8613158601618505071377F70F8506CA
:102AA000E312F7F3B640264496440649F259625AB7
:102AB00061618280B737002083A7C73ED84793164D
:102AC000170163D2060298479316170163DD0600CB
:102AD0007D57B8D7373700201307C704544F8506F2
:102AE00054CF116798C798470D83058B11CF37379F
:102AF00000201307473C342393E6160034A39306C3
:102B000000F854A3214798C79847058B19CB37374E
:102B100000201307473C143393E6160014B305470F
:102B200098C798470983058B09E798470583058B64
:102B300031CB373700201306473CA30206009447E9
:102B4000B735002083A5853B8982858AE5C69441F7
:102B5000B1828D8AE9EEA84B545213760502943265
:102B60004DC2F9E29306D005D4CF8346473C93E6A5
:102B700016002302D73C114798C7D855719B13679D
:102B80001700D8D598479316370163D40602373714
:102B900000209306872603C6C60713078726418AA7
:102BA00045C203C7C60713670702238EE6060567FB
:102BB00098C798479316270163DF06003737002030
:102BC0001307473C5423E206E18663D4060085469A
:102BD00054A3096798C798479316070163D2060262
:102BE00037370020130787268346D707858AADCA63
:102BF0008346D70793E62600A30ED706216798C71A
:102C00008280ADD205466395C60093061006A9BF23
:102C100009466395C60093065006B9B70D466395FD
:102C2000C6009306900689B79306B00635BF930693
:102C3000C0061DBF38321367170038B209472DBFD1
:102C40008346C7070946BD8A6388C6008346C7070F
:102C50000D46BD8AE39DC6F49146230ED70681BF7B
:102C60008346D707918AD9DA8346D70793E6860049
:102C700061B7B737002083A7C73EB7360020138758
:102C8000463C904710CF90470D82058A11CA3023E9
:102C90001366160030A3130600F850A3214690C710
:102CA0009047058A19C610331366160010B30546FF
:102CB00090C790470982058A09E690470582058AF0
:102CC00031C6A30207009047B735002083A5853B96
:102CD0000982058A59CA904131820D8A41E6A84B82
:102CE000505313750502103221C935EA1306D00579
:102CF000D0CF03C6463C136616002382C63C9146DD
:102D000094C7D455F19A93E61600D4D594471396F8
:102D10002601635B06005423E206E18663D40600C5
:102D2000854654A3096798C798479316070163D44B
:102D30000600216798C7828055DA05456315A6000D
:102D40001306100675B709456315A600130650064D
:102D500045B70D456315A6001306900651BF13062F
:102D6000B00679B71306C00661B7343393E6160090
:102D700034B3894671B737370020B7360020138641
:102D8000063F130707415C372C3E484AAE97FD8B40
:102D9000B355F5001CB25CB785898DE9183B8146B7
:102DA00013080002B3F7E7020147B355E500858930
:102DB0009378F70F89C96395D700A3001601828025
:102DC000850693F6F60F0507E31107FF8280B737F4
:102DD00000209387473CDC3393F7F70FD9E7B737E9
:102DE000002083A70709411122C44AC006C626C293
:102DF0008297373900209307094180471309094119
:102E0000630FA40463658504018DB73400209387A4
:102E1000043FBC2F135455009384043F6361F404B2
:102E2000993FBC2C032789009396570036971D8C39
:102E30002324E900E376F4FE22448830B240924431
:102E4000024981454101171306E067006361B73706
:102E5000002083A7870E3384874022957DB7B24038
:102E6000224492440249410182808280B737002087
:102E700083A70709011122CC26CA52C406CE4AC82C
:102E80004EC68297B7340020938704418047014A99
:102E90006300A4069384044163658506018D37377A
:102EA00000209307073FBC2F13545500137AF501F8
:102EB0001309073F636BF402B73900209389490E69
:102EC0005D3D8346A90103A8840083A549001397AB
:102ED00056004297158C3A86636407016364B70015
:102EE0003306B74090C4E37DD4FC1604336A440132
:102EF000F24062445285D2444249B249224A0561B5
:102F00008280B737002083A7870E338487402295BD
:102F100079B7B737002003A7C73E85679387077740
:102F20007CD3B737002083A7074483A607091396ED
:102F300056006358060083A607091396660063448B
:102F400006007453FDF28280EFD09FAC7300000046
:102F500000000000970200009382820C03830200AD
:102F600023800200630F0300F32510342EC0970561
:102F700000009385A5FD73901534EFF09FCF73008B
:102F8000203086DCEFF01FB3E650828000000000A6
:102F9000B73700203737002083A747040327C7032C
:102FA00001456313F7008280F62399E2D623369514
:102FB0009C43C5BFB737002083A5C709373700201A
:102FC0009387C709138605222322C704DA23938730
:102FD00085FFB73600204111BA97056523AEF6028A
:102FE00006C61D05935637006374E500930600205E
:102FF0003307D600373500202320E50423A0E5223F
:10300000E11656A2231306001CC3998FE1175EA395
:1030100023130700B53FB240B73700202399A70418
:1030200041018280B73700203737002083A747044B
:103030008326C70301456393F6008280FA2309E7DC
:10304000DA236373E5003A859C43F5B7184183A7FB
:1030500085FF6319B7001CC1FD5723AC05FE238F04
:10306000F5FE8280232CF6FEC5BF411122C426C284
:103070003744024006C68324C420232604200F10B0
:10308000000009E9232694201545B24022449244C9
:10309000410182800347E5FF9307F00F6306F700C5
:1030A000232694201145D5B797D0FB1FE7808006D3
:1030B000014523269420D1BF411126C24AC0B744FE
:1030C000024006C622C403A9C42023A604200F1070
:1030D000000089E523A62421154515A0B737002057
:1030E00083C7D7042A842E856375F400894763EE6D
:1030F0008700A53FB747024023A627210D45B240D0
:103100002244924402494101828083A785FF99E7C6
:1031100003C7E5FF9307F00F6308F700B937B74718
:10312000024023A627214DBF37350020238F85FE7F
:103130001305850497D0FB1FE780800EA1652285CB
:103140006D2C014523A624215DBFB737002023A4A1
:1031500007048280BDCD797122D406D626D24AD00A
:103160004ECE01444147B3D78540858BB1CF120580
:10317000314722953305E502B737002003A9C70D73
:103180008544B3948400C204C180BE892A99032770
:10319000090011C7032549002EC60297B2453147E1
:1031A0003304E40283A7C90D3E941C4489E723201D
:1031B000090023220900B2502254A58D02599254CD
:1031C000F2492E85456182800504E31EE4F88144BE
:1031D000DDB72E85828041111397050122C406C6F2
:1031E00026C24AC041872E846351070297D0FB1F35
:1031F000E780000A11C1953DA1673D8C2285B24050
:1032000022449244024941018280EDD9AA870147B4
:103210004146B356E440858A9DCA9207BA97B146A3
:10322000B387D702B736002003A9C60D8544B394EF
:10323000E400C204C1803E998327090003254900A8
:1032400082972320090023220900258C45BF05070A
:10325000E311C7FC8144D5BF411126C2B7470240E4
:1032600006C622C483A4C72023A607200F1000008F
:10327000B737002083A7070C37340020130484D706
:1032800091C782971C403E9508C031A0B7370020F7
:1032900083A70709FDF71C40374703001307D73FF3
:1032A000B387E70237A72600130737ECB240BA9777
:1032B0001CC0B747024023A69720084022449244EE
:1032C00041018280797126D2B747024006D622D4C6
:1032D0004AD04ECE52CC56CA5AC85EC662C483A4E7
:1032E000C72023A607200F10000005E123A6972082
:1032F0000945B250225492540259F249624AD24AC4
:10330000424BB24B224C45618280B737002083A7E5
:103310000709BA8A368AB28B2E8BAA898297B73769
:10332000002003A7C70D3E890144B146C147330CB5
:10333000D40233068701104259E2C165938505F036
:10334000414597D0FB1FE780E0CF19EDB73700204C
:1033500083A7070D81C7814511458297B747024072
:1033600023A697202D4571B7B737002003A78709FB
:1033700039E323ACA708230005008327C90D0547BF
:103380003317870023260500232475013AA1232241
:103390005501E29723A0370123A2670123A4570117
:1033A00063040A0023008A00B747024023A697203F
:1033B000014581B73E875C47F5FF48C76DBF0504EF
:1033C000E317F4F6B747024023A69720214515B727
:1033D000B737002083A7070E411122C406C6373431
:1033E00000201304C40489C782975C483E9548C8EE
:1033F0004848B240224441018280B747024083A638
:10340000C72023A607200F100000373700200347EE
:10341000D7046370E5023736002013171500032523
:1034200046093A951A21D98D0EA123A6D720014528
:10343000828023A6D7200D458280B747024083A60D
:10344000C72023A607200F100000373700200347AE
:10345000D7046372E50237360020131715000325E1
:10346000460993C5F5FF3A951A21F98D0EA123A6B9
:10347000D7200145828023A6D7200D4582800111E7
:103480004AC83747024006CE22CC26CA4EC652C48E
:103490000329C720232607200F100000130705FF6C
:1034A0001377F70FFD4763E3E70AB146B306D5028A
:1034B000B737002003A7C70D36971C43C1CB9354E1
:1034C000450005443D893315A400131405014180CE
:1034D000AE892685A28597D0FB1FE780E0E32A8A84
:1034E00029C9A2852685913FB737002083A7070900
:1034F000B73400209384440E82979E242A84814608
:10350000B385370313060064B3B737031385053259
:10351000B335B500BE95EFA0B208B30785003E876E
:10352000D44063E4A70063E4D7003387D740232463
:10353000EA00B747024023A627210145F240624432
:10354000D2444249B249224A05618280B7470240CB
:1035500023A627210945DDB701114AC8B747024014
:1035600006CE22CC26CA4EC603A9C72023A6072012
:103570000F100000BD4763EBA70431473307E50296
:10358000B737002083A7C70DBA979C43A1C3054452
:103590003314A40042044180AE840145A28597D033
:1035A000FB1FE78060D7AA8911C5A2850145713547
:1035B00023A49900B747024023A627210145F240E2
:1035C0006244D2444249B24905618280B747024011
:1035D00023A627210945E5B7797126D252CCB744F5
:1035E000024006D622D44AD04ECE56CA5AC85EC62B
:1035F00003AAC42023A604200F100000B737002020
:1036000083C7D7046378F500B737002083AB070979
:1036100063970B00B747024023A6472199A037398B
:1036200000201309490EAE8A032B490083558900F7
:10363000B74736FE938707C83E9BB387C5022A84E7
:10364000B2898146B3B5C50213850732B337F50099
:1036500013060064BE95EFA0A2746370AB0223A6AC
:1036600044210145B250225492540259F249624A0F
:10367000D24A424BB24B45618280829B835589007E
:10368000AA8413060064B38735038146B3B53503B6
:1036900013850732B337F500BE95EFA06270B3070C
:1036A0009500BE840327490063E4A70063E4E700B4
:1036B000B384E740D685228597D0FB1FE780C0C53D
:1036C00001C904C5B747024023A64721054559BF94
:1036D000936504F0C205C181414597D0FB1FE78087
:1036E000609611E9B737002083A7070D85D7A2851B
:1036F0001145829705B7373700208327870999EF4F
:10370000232CA70885472326050004C5231155014E
:1037100000A11CB12322050075B7BA87D84775FFF1
:10372000C8C7CDB779714ECEB747024006D622D46E
:1037300026D24AD052CC56CA5AC85EC662C466C2A5
:103740006AC083A9C72023A607200F10000025C147
:1037500041443689B28A2E8AAA84B14C373B002074
:10376000054D130C0003B30B94030327CB0D5E9799
:103770001C43B9EF9375F400B315BD0013554440D5
:10378000C2055686C1811375F50FB93531C183273E
:10379000CB0DDE9784C323A24701630409002300F5
:1037A0008900B747024023A63721014521A023A65F
:1037B00037210945B250225492540259F249624AC3
:1037C000D24A424BB24B224C924C024D4561828010
:1037D0000504E31A84F9B747024023A6372121459F
:1037E000D1BF011122CC26CA4AC84EC6B7470240F3
:1037F00006CE03A9C7202A84AE89B28423A6072057
:103800000F100000D13B2285CE8597D0FB1FE780AB
:10381000A0B02A8405C5B737002083D5C70E13068C
:1038200000648146B3879502B3B5950213850732CC
:10383000B337F500BE95EFA0A25648C0133514006B
:10384000F2406244B747024023A62721D2444249AE
:10385000B2490E0505618280011122CC4AC84EC6CC
:10386000B747024006CE26CA83A9C7202A892E84DC
:1038700023A607200F10000097D0FB1FE780C0A9E8
:10388000AA8419C123110500A2854A857D36B73760
:10389000002083C7C70463992701B737002003D7E7
:1038A000C708598C23968708B747024023A63721BB
:1038B000014591E01945F2406244D2444249B2497F
:1038C00005618280011126CA4AC8B744024006CE6B
:1038D00022CC4EC603A9C42023A604200F1000004A
:1038E0009307F00263E6A704B1473304F502B73942
:1038F000002083A7C90DA2979C439DCB9377F50029
:103900008545B395F500C205C1811181B13783A703
:10391000C90D0145A29723A0070023A2070023A6F3
:103920002421F2406244D2444249B2490561828076
:10393000B747024023A627210945E5B7411126C212
:1039400006C622C4B747024083A4C72023A6072087
:103950000F10000097D0FB1FE780009C19E901457C
:10396000B2402244B747024023A697209244410127
:103970008280B737002083A7070900458297B737B1
:1039800000209387470E6367A402D843B74636FEEC
:10399000938606C83305A4403697E372E5FC130707
:1039A0000064B335E502922781463305E502EFA0B6
:1039B000223F7DB7D8433A94C9BF4111B7370020A1
:1039C00006C623A0A70E0295B240B737002023A257
:1039D000A706014541018280914763E9B700B737E7
:1039E00000208A0593878707BE9588C18280B737F4
:1039F000002023AC070837350020B73700204111DD
:103A000023A0070E5146B7370020814513058507CF
:103A100006C623A8070822C426C23734002097D040
:103A2000FB1FE780E0971305C4041306800281455D
:103A300097D0FB1FE780C096EFF0CFD7B7370020B5
:103A400083C7170B1304C404854513D527008D8B3A
:103A50003E958D473305F5029947B7340020390567
:103A60001375F50F28A03305F5021305052497C03B
:103A7000FB1FE780205D23AEA40C2DCD302099479D
:103A800081453306F6021306062497D0FB1FE78014
:103A9000209183A7C40D3820B734002093870724D2
:103AA0000A0723AAF406BA9737370020232AF70813
:103AB000EFF0AFE919291C3083A64407373604001C
:103AC0001397270036971306461510C31387170060
:103AD0001377F70F0A073736040036971306661D6B
:103AE00010C313873700890793F7F70F8A0718B0B9
:103AF000B69790C3B2402244924441018280373746
:103B000000201307C7041C33342363FFD700B736E4
:103B1000002083A646071386170010B313972700CB
:103B2000369708C33E8582809307F00FE5BF1C419E
:103B3000F1CF41777D8FB706002089476319D70CF5
:103B40005A2171C7411126C21946AA849305F00F64
:103B5000610506C622C497D0FB1FE7806096054723
:103B60008D47630FE5089C4491C7985C994749CB02
:103B7000D85C59C73734002013060004814513056B
:103B8000C40997D0FB1FE780A08113060004A68517
:103B90001305C40997C0FB1FE780E0799307C409A8
:103BA000DA2701E713070010DAA7F82719E305471A
:103BB000F8A79A2B19E36D479AABF83719E3154725
:103BC000F8B7B82B19E30547B8ABB83B19E3F8379A
:103BD000B8BBD82B19E32547D8ABF82801E7130762
:103BE000C003F8ABDC5791C78297B7370020239A00
:103BF000A704B73700207D57A382E74ACD3B814712
:103C0000B240224492443E854101828089473E85EC
:103C1000828001114AC8373900208327490E06CE19
:103C200022CC26CA52C456C24EC68297130A0064DA
:103C3000B33545031309490E835A890081465686D8
:103C400033054503EFA0C215B73700201387C7041B
:103C5000004FAA840145630694029389C704338503
:103C60008440636E94000325490056868146B3352F
:103C7000AA023305AA02EFA0A212018D269523AC59
:103C80009900F2406244D2444249B249224A924ADF
:103C900005618280011122CC2E84B7E506000A85D9
:103CA00041469385451E06CEEFA0A248180806049B
:103CB0003A94B7370020035504FF83D7E70EF2404C
:103CC0006244AA9737450F00130505243355F502C2
:103CD00005618280B737002083D7E70E51471D4525
:103CE000637CF702794719456378F70213072003CD
:103CF00015456373F7021307B0041145637EF7009F
:103D0000130740060D456379F7001307600909455D
:103D10006374F70013B5B70F8280011122CC06CE71
:103D20002A842EC6EFF04FD3B245F240818D33A5E1
:103D3000A502229562441375F50F05618280011179
:103D400022CC06CE2A842EC6EFF00FD1B245F24027
:103D5000818D33A5A502229562444205418105610A
:103D60008280011122CC06CE2A842EC6EFF0CFCE5F
:103D7000B245F240818D33B5A502229562440561BA
:103D80008280B737002023AAA70E8280B737002091
:103D90001387C709585739CF411122C426C24AC0D8
:103DA00006C61389C7090297B73700201387C704CF
:103DB0001A272A849384C70405CBBA876373A700A4
:103DC000AA87C207C183BA866373E400A286C206CB
:103DD000C182958F51476359F7008327090391C327
:103DE0008297EF00022782A4B24022449244024903
:103DF000410182808280011122CC37340020930758
:103E0000C4099C5B06CE26CAAA851304C40981C7CF
:103E10002AC68297B245A5CD9C410545A5C7DC4180
:103E2000B5C39E25A5C3BE25B1CFB73400201385E9
:103E3000440E41469384440E97C0FB1FE780A04F79
:103E400023860400B737002083A6470E37370020AB
:103E50002328D70878380DE39387470E8A279307DE
:103E6000805737460F003305F502130606248146B6
:103E70008145EF90F27268B837450400130525C1FB
:103E80002D3E0145F2406244D24405618280B7373D
:103E900000209387C7043717002023AE07001307BD
:103EA0006798B737002023A2E70E37873200938741
:103EB000470EFD56130727A1D4C398C723860700D2
:103EC000B747024023A4D726B5BF011122CC37340F
:103ED00000209307C409884706CE26CA4AC801E9CC
:103EE0000545F2406244D244424905618280130490
:103EF000C4091C5CF5D7585C65D77000854582976E
:103F00001844B247E30EF7FC4A249305E004B734A3
:103F1000002097C0FB1FE780E0121387C40408D37A
:103F20009384C40455DD52249305F00F014997C0D2
:103F3000FB1FE780E0467C249050634DF9003285FA
:103F400097C0FB1FE780001D014523A0040223A2A8
:103F5000040241BF4E240844585CB387250389817D
:103F600005093E9508C20297F9B701114EC6B73947
:103F700000209387C9099C4726CA4AC852C406CE66
:103F800022CC56C25AC02A8AAE8432896388071E60
:103F90009389C90903A78903630207121307F01F56
:103FA0006360A712373400201307C404832A070272
:103FB0001304C40463980A0803D5C9009565938562
:103FC00015E097C0FB1FE780E00708D02A867DC573
:103FD00083D5C90083A7890303A5890089818297B6
:103FE00083A78900832A04025CD089476314FA08F6
:103FF000C1476395F40C83D5C9009147938505FCAF
:10400000B3C5F5028A05D695B8219307A0056313B9
:10401000F70A9E216390470B4A852686910597C033
:10402000FB1FE78040311C505685639157130145B3
:10403000F2406244D2444249B249224A924A024B77
:10404000056182805850E382E7FA03D5C90095657F
:10405000938525E097C0FB1FE780C0FEAA8A39CD73
:1040600083D5C9002A8683A7890303A5890089818E
:104070008297A5BF8D47631BFA00C1476390F40484
:1040800083D5C900938545FDF199B5BF9147631864
:10409000FA006395440383D5C900A115F5B79307CA
:1040A0000010631DFA00A14763EA970083D5C90099
:1040B000C115D9BF1C505685639D570B29458DBF2F
:1040C0009D6A637A5509930A05E01947B3CAEA0263
:1040D00003D7C900373B0020B38AEA02BE9A930790
:1040E000CB04DC53130BCB046395570103240B0261
:1040F0001DE003D5C9009305E00497C0FB1FE780CE
:1041000060F42A8445DD83D5C90083A789032A8604
:1041100089815685829791451307A00589819397D8
:104120002500A297B4236391E6049623639C46037B
:1041300085058A052686A2954A8597C0FB1FE780DC
:10414000801F83270B02E38487EE228597C0FB1F25
:10415000E78040FCE9BD21677917E361A7F6B30A60
:104160005541BDB7AC335DBF83270B02E38887F4AD
:10417000228597C0FB1FE780E0F989B7B737002099
:1041800083A5C70685DD91479306A005898313970C
:1041900027002E973023E313D6F21223631C460127
:1041A00085078A072686BE954A8597C0FB1FE7804C
:1041B0008018B5BD3C33D9BFB73700209387C709F6
:1041C000984721C3D85F15CF8546631CD50241119E
:1041D00022C4373400201304C404105006C611CE84
:1041E000CE27485089810297085097C0FB1FE7806F
:1041F00060F22320040223220402B240224441013F
:1042000082808280011122CC373400209307C409B8
:1042100056C283AA870026CA4AC84EC606CE52C4D2
:104220002A89AE84B2891304C409638D0A1A5C5CBE
:1042300099EB2945F2406244D2444249B249224AAC
:10424000924A056182801C5CEDD79307F01F63E101
:10425000A70C373A00209307CA049C53130ACA04D8
:10426000A9C7084483274A02639CA70489476313AC
:10427000F906C147E39FF4FA4A249147130505FC68
:104280003345F5029317250003250A022686CE85BD
:104290003E959307A0053CA123102501110597C069
:1042A000FB1FE7804009014571B74A249305E004EC
:1042B00097C0FB1FE78000D92320AA025DF195BFBC
:1042C0004E241C5C03260A02898182971C44232207
:1042D000FA0269BF8D47631BF900C147E39BF4F401
:1042E0004A24130545FD9377C5FF79BF91476317AE
:1042F000F900E39024F54A242115F5B7930700103F
:10430000E319F9F2A147E3E697F24A244115E1BF28
:104310009D676375F506930705E01947B3C7E70284
:104320005A24373A0020B387E702BE9A9307CA049B
:104330009C53130ACA04B1CB83274A0263925707DE
:1043400003250A0291461308A0059305F00F93D7A1
:104350002600139727002A973023631206078358F5
:104360000700303363992805B306D64063C496042A
:1043700085078A072686CE853E9515B7216779176A
:10438000E369A7EAB307F54061BF4A249305E00457
:1043900097C0FB1FE78000CB2320AA0251FD51BD2F
:1043A0004E241C5C03260A028981568582972322AB
:1043B0005A0379B70EA393160601C18249BF52244E
:1043C000B38596009105130606FCE3F4C5E6138653
:1043D0003400719A1106B2962301070123102701B8
:1043E00034B379B7373A00209307CA049C53130AB1
:1043F000CA0495CF03250A0291461308A005930528
:10440000F00F93D72600139727002A9730236310C5
:10441000060583580700303363972801B306D6405A
:10442000E3D896F40EA393160601C182D9BF68247F
:104430005E249305E0043305F5024205418197C0EF
:10444000FB1FE78020C02320AA024DF5DDB35224D4
:104450006C24B385C502338696001106E3EBC5DCF8
:10446000BDB7014582809C211CA1BE211CB1BE218B
:10447000A1833CA1DC213CB111458280B7370020EB
:1044800023AA07DAB737002023A807DA82800DCDE8
:10449000411126C206C622C4AA8401458DC12E84BC
:1044A000B7E50600228541469385451F97C0FB1F4F
:1044B000E78060E89C2005455CA49C305CB4B24079
:1044C000224492444101828001458280011122CC24
:1044D00026CA06CE0947AA8432846381E504414690
:1044E0008147639BC500638FE6006397B6000DA804
:1044F00041478147638EE600F2406244D2443E85E4
:10450000056182808A852285593741468A8519A8A6
:104510008A85B53F41468A85228531A0E39AB6FC5B
:104520002E86A285268597C0FB1FE780C0F1AA874B
:10453000E1B7B737002023A8A7DA8280B737002079
:1045400023AAA7DA8280011122CC622106CE26CAD4
:104550004AC84EC62DCC83298500AE842A8803C95B
:104560000900814713178901618763550702B14725
:10457000054563F787045114420403552800418020
:1045800033878900A2864E868545EFB09027B337E2
:10459000A00085077D14135569004204058913792D
:1045A000F90341809CA088B023812401C2A0014767
:1045B00019C01387190098C409476383E7000145B0
:1045C000F2406244D2444249B249056182800545C5
:1045D000C5BFC167F917630AF502D94763F7B70288
:1045E000011122CC2EC606CE2A84EF900021B245BE
:1045F0006368B50022856244F24005616FA0B01483
:10460000F240624405450561828005458280C167AC
:10461000F9176314F5006F90401E411106C6EFA014
:10462000100111E15D45B240410182809147639DD7
:10463000F5001C211CA23C211831A207D98F3EA2F3
:104640003C3101455CA28280114582804111814547
:1046500022C426C206C6AA84BD232A8409E9B73724
:10466000002083A707DB81C7F9452685829722852D
:10467000B240224492444101828039714ED656D2D2
:104680005AD006DE22DC26DA4AD852D4AA8A2E8BE9
:10469000B28951EB36C6A53F9145EF90A024AA847C
:1046A0004D493DC5B246054A238034010544630A9D
:1046B0000B00B68513851400029B05051314050134
:1046C0004180E20993D9894163D30902C1455685E6
:1046D000EFA05004654915E533868400A285268540
:1046E000EFB040582A8911ED3104420441809147CE
:1046F0002C085685FC8426CEE085EFA0001B2A8975
:1047000001C963070A00268597C0FB1FE78080A0C8
:10471000F25062544A85D2544259B259225A925A9E
:10472000025B21618280BA84014ABDBF011122CCA3
:1047300026CA4AC84EC606CE2A893284B689353F73
:10474000AA840DE1B737002083A747DB81CF054757
:104750006317E40003C4090005041374F40FA28571
:104760004A858297F240624426854249D244B24942
:1047700005618280AE86B7450400014705469385F2
:1047800065466DB79E211CA19E21A1831CB10945E0
:1047900082809E211CA19E21A1831CB1BE213CA12F
:1047A000BE21A1833CB1114582809E211CA19E2186
:1047B000A1831CB1BE213CA1BE21A1833CB1DC314F
:1047C0005CA1FC215CB18A251905420541818280EA
:1047D0009E211CA19E21A1831CB1094582809E219E
:1047E0001CA19E21A1831CB1BE213CA1BE21A1839D
:1047F0003CB111458280CA21060542054181828073
:104800009E211CA19E21A1831CB1AA21090542055C
:10481000418182809E211CA19E21A1831CB1BE21C9
:104820003CA1BE21A1833CB1CA21110542054181B1
:1048300082809C211CA1054582809E21411122C4B9
:1048400006C61CA19E212E841105A183A30EF5FE90
:10485000BE219505230FF5FE83D7D5FFA183A30FB6
:10486000F5FE03C6F5FF97C0FB1FE780C0AC4820EC
:10487000B240224411054101828089476399F500C5
:104880001C3118210145A207D98F1EA28280114533
:1048900082809A21D94763FDE702011122CC06CE1E
:1048A0002EC62A84EF807075B2469E22636DF50095
:1048B00022856244F240B7450400014709469385CA
:1048C000457805615DBBF24062440945056182801F
:1048D00009458280914785C51421FD15C20585478C
:1048E000C1816390F60213D725008D89914781E934
:1048F000914711C7050534A21AA248C281473E85D7
:10490000828009479147E39CE6FEC94733D7F50209
:10491000B3F5F502E1BFAE86B74504000147114685
:104920009385257999BB93F7350089EB8981914768
:1049300081C50EA248C281473E8582809147EDBF66
:10494000D8218947631CF702011122CC2A84C8456B
:1049500006CEAE86014709C92EC69D4597C0FB1FEE
:10496000E7808088B2462A8722856244F240B745B4
:10497000040019469385A57A056101B30945828033
:1049800099E1114582801C2105473EA2E37BF7FE99
:10499000FD1593F5F50F33D7F502B387E702E392E0
:1049A000F5FE050548C21AA201458280DC210947AF
:1049B000AE866385E70041476399E700B755040079
:1049C000014721469385A5834DB9094582800EA2F2
:1049D00091E1014548C201458280AE86B745040099
:1049E000014729469385057D49B90EA291E101450C
:1049F00048C201458280AE86B74504000147314672
:104A00009385E57D9DB90EA291E1014548C201451E
:104A10008280DA21854763FFE702011122CC2A84D4
:104A2000884106CE1DC12EC6854597B0FB1FE78085
:104A3000A07B2A8722856244B246F240B745040033
:104A400039469385657F05610DB9F2406244094599
:104A50000561828009458280914785C518218D4670
:104A6000914763F0E602FD15C205C181B3C6E502B8
:104A70003308D70263970501050516A23AA248C27A
:104A800081473E858280DC210947AE866385E70049
:104A900041476399E700B7550400014741469385B4
:104AA000A583E1BE09458280B335B000139525008A
:104AB0008280011122CC26CA06CE98258547AA8479
:104AC0002E844946631FF70099363E204915130688
:104AD000200963C8A700F2406244D2440945056139
:104AE0008280183485476314F70013660604484033
:104AF00001C98D4532C697B0FB1FE780E06E324694
:104B0000A2866244F2402A872685D244B755040023
:104B100093850580056195B68D4763F8B7021C3112
:104B20001821F115A207D98F1EA23C313821C205E8
:104B3000A207C181D98F3EA24EA289C5110508C620
:104B40000145828023240600E5BF114582800111C2
:104B500022CC2A84884506CEAE8601C92EC695454C
:104B600097B0FB1FE7804068B2462A8722856244DF
:104B7000F240B75504005946938545810561F5BC5F
:104B8000B335B000139525008280AE86B75504007A
:104B90000147614693852583CDB48547114563F070
:104BA000D7021C320C22A207CD8F1EA39387E6FFEB
:104BB0003EA389476386F600090650C301458280FB
:104BC00023220700E5BF014781467946814575B438
:104BD0009E211CA19E21A1831CB109458280BC217C
:104BE00005471CA18A216397E7000A0505054205D0
:104BF00041818280C9473305F502CDBF8A210A056C
:104C0000420541818280BE211CA18A21BE2133053B
:104C1000F50205054205418182808A2182808A2130
:104C200082808A218280BE211CA18A21BE21330577
:104C3000F50205054205418182809E211CA19E212D
:104C4000A1831CB1BE213CA1BE21A1833CB1CA21DC
:104C500011054205418182809E211CA19E21A183D4
:104C60001CB1AA210905420541818280894711456D
:104C70006398F6001C3214220145A207D58F1EA3AB
:104C800082809A21D947AE8663F9E700B7550400C0
:104C900001470D46938505BD51BC094582801145EC
:104CA000639DA6001C3214220145A207D58F1EA3C6
:104CB0003C323422A207D58F3EA38280BC21054717
:104CC000FD1793F7F70F6361F7049E2195CF01114C
:104CD00022CC2A84C84106CE1DC12EC6894597B074
:104CE000FB1FE78060502A8722856244B246F2406B
:104CF000B755040015469385E5BD056105BCF24036
:104D000062440945056182800945828095471145C5
:104D100063F1D706411122C426C24AC006C61C321E
:104D2000BA841822A2073284D98F9EA03C3238223E
:104D300093054400A207D98FBEA08947DCA009468D
:104D400013855400368997B0FB1FE780C05E930738
:104D5000A9FF9EA49947631BF90023A60400B24053
:104D60002244924402490145410182801904C0C491
:104D7000FDB782809E2195CF011122CC2A84C841A3
:104D800006CE1DC12EC6854597B0FB1FE780C045E6
:104D90002A8722856244B246F240B75504001D4678
:104DA0009385C5BF056159B2F2406244094505616A
:104DB0008280094582809947639DF60289474111A7
:104DC00006C65CA31C321422B285A207D58F1EA38F
:104DD0003C3234225023A207D58F130557003EA33F
:104DE000910597B0FB1FE7800055B2400145410196
:104DF0008280D14711456394F600C147C9B78280CC
:104E00009E219DCF011122CC2A84C84106CE05C522
:104E10002EC6894597B0FB1FE780003D2A87228573
:104E20006244B246F240B75504002546938565C0FA
:104E300005616FF0BF8FF2406244094505618280D1
:104E400009458280894711456398F6001C32142277
:104E50000145A207D58F1EA38280011122CC2A848E
:104E6000C84106CEAE86014709C92EC6854597B012
:104E7000FB1FE7806037B2462A8722856244F240F2
:104E8000B75504002D469385A5C105616FF01F8AB3
:104E90001145639DA6001C3214220145A207D58F3F
:104EA0001EA33C323422A207D58F3EA3828001117B
:104EB00022CC2A84C84106CEAE8601C92EC68545BD
:104EC00097B0FB1FE7804032B2462A8722856244B2
:104ED000F240B755040035469385E5C105616FF092
:104EE000FF8493F71600114581EB89476386F6002E
:104EF000858256A310C301458280011122CC2A84E9
:104F0000C84106CE05C52EC6854597B0FB1FE78074
:104F1000A02D2A8722856244B246F240B75504008C
:104F20003D46938525C205616FF05F80F240624483
:104F30000945056182809E219DCF011122CC2A84E2
:104F4000C84106CE05C52EC6894597B0FB1FE78030
:104F5000A0292A8722856244B246F240B755040050
:104F60004546938565C205616FF04FFCF24062448F
:104F700009450561828009458280854763F6D7022D
:104F800008A70CB71C320C22A207CD8F1EA3938753
:104F9000E6FF3EA389476386F600090650C3014534
:104FA000828023220700E5BF1145828001478146A8
:104FB0004D4681456FF08FF78D47114563F4D70259
:104FC0001C320C22A207CD8F1EA33C322C22A2073A
:104FD000CD8F3EA39387C6FF5EA36386A60011060E
:104FE00010C70145828023240700E5BF011122CCB0
:104FF0002A84884506CEAE8601C92EC6954597B04F
:10500000FB1FE780601EB2462A8722856244F24079
:10501000B75504005D469385A5C305616FF00FF198
:10502000854711456395F6001C2201451CA382802B
:1050300001478146654681456FF04FEF011122CC53
:105040002A84C84106CEAE86014709C92EC68D45C1
:1050500097B0FB1FE7804019B2462A872285624439
:10506000F240B75504006D46938585C505616FF024
:10507000CFE0011122CC2A84C84106CEAE8601477A
:1050800009C92EC68D4597B0FB1FE780E015B246D3
:105090002A8722856244F240B755040075469385FD
:1050A00085C505616FF06FDD011106CE2EC6EF904C
:1050B000305419C5B245F2402A2105616FE0001352
:1050C000F240494505618280B7370020A38007DEA2
:1050D000B7370020238007DEB737002023A407DC82
:1050E000B737002023A607DCB737002023A807DC4A
:1050F000B737002023AA07DCB737002023A207DC3C
:10510000B737002023A007DCB7370020239C071007
:105110009306403893878711B6B3F1761307400B97
:10512000938606B8BAA3D6B311679D461306000549
:105130009305000A1305007DDAA3F6B341478546BF
:10514000130810F8BAA7DAA7BAABDAABFAAB9AAF82
:105150009AB723960703EEA38EA7F2A792ABAAAF46
:10516000239E0700239F070023900702B6B72397CB
:1051700007021308F007239807022392E7042393FA
:10518000E704239FE7042390E7062391E706239291
:10519000E706239907031307C01CD6BBF6BB239C65
:1051A0000702239D0702239E0702239F07022390E5
:1051B00007042391D7042394070423950704239617
:1051C000D7042397C7042398C7042399A704239AD5
:1051D0000704239B0704239C0704239DC704239EE5
:1051E000C7042393A706239407062395070623964F
:1051F00007062397B7062398B70623990706239A2D
:10520000E7065147239DE7067D57239B0706239C0E
:105210000706239ED706239F07062390070823919E
:1052200007082392E7088280011126CAAA84214533
:1052300022CC06CE2E8432C636C43AC297B0FB1FAB
:10524000E780A0FF0DC5A24612473246930700FD36
:105250001CA1994704B13CA174A178B152A1AA85BF
:1052600022856244F240D24405616FD0FFE4F240EF
:105270006244D24405618280B737002023A4A7DCB2
:105280008280B737002023A6A7DC8280B7370020B2
:1052900023A8A7DC8280B737002023AAA7DC82805E
:1052A000011122CC4AC806CE26CA2A890144B30479
:1052B00089006368B400F2406244D2444249056107
:1052C00082802EC6EFD05FF993170501C183A183B9
:1052D000B2459CA09307140093F7F70F850463F879
:1052E000B700CA97090488A31374F40FC9B73E84A2
:1052F000C9B7411122C4373400201304840F6A2037
:10530000C16706C6FD17630EF500B737002003C658
:10531000C725B7350020938585DDEF90900FFD57A9
:105320007EA0B24022444101828009C9251513752F
:10533000F50F1335850E13451500828001458280D7
:1053400023900500C1C6797122D426D24ECE52CC0C
:105350005AC806D64AD056CA5EC63684328AAE8944
:105360002A8B814463F24407B30794009C2313897A
:1053700014004209939A070193DA0A0113590901AB
:1053800063840A04CA976341FA04B307240183CBF8
:1053900007005E85593F0DC99387FAFF2390F900F6
:1053A00063906B03130519002295B2502254925456
:1053B0000259F249624AD24A424BB24B456182805D
:1053C000D694C204C18079BF0145C5B7014582802A
:1053D000011122CC3734002026CA4AC84EC6930792
:1053E000840F06CE2E89D0CB8CCBC8C7AA84414669
:1053F0009305F00F4A8597B0FB1FE780600C854945
:105400001304840F631935030848C145513D4146D3
:105410009305F00F268597B0FB1FE780600A0549CA
:105420006315250348446244F240D2444249B249DC
:10543000C1450561B5B5414681454A8597B0FB1F19
:10544000E7800008E31535FDC1B741468145268553
:1054500097B0FB1FE780C006E30625FDF2406244DB
:10546000D2444249B24905618280411122C4373495
:10547000002026C24AC0AE842A8913060002814554
:105480001305840F06C697B0FB1FE78060F19307F2
:10549000840FA3812701B737002023809726EFD000
:1054A0003057854719C181474945230CF40EB24056
:1054B00022449244024941018280814791C909C92D
:1054C00085476319F500DC3193E707FCDCB18547BC
:1054D0003E85828089476316F500DC3193F7F70338
:1054E000F5B70D478547E315E5FED8311377F70388
:1054F00013670704D8B1E9BF814785C119CDD831F9
:105500009306000C85471377070C6308D7009306B2
:1055100000048D476303D70089473E85828041118F
:1055200022C4005D06C626C21DC8AA84085009C54B
:1055300097B0FB1FE78000BE485009C597B0FB1F1E
:10554000E78040BD085409C597B0FB1FE78080BCC9
:10555000228597B0FB1FE780E0BB23AC0402B2407A
:10556000224492444101828019E9B737002083C761
:10557000A70F91C737350020130585DB82803735AB
:105580000020130505118280B737002003C5A70F3F
:105590008280B737002003A547108280B7370020EC
:1055A00003A587108280B737002083A7C7108843E0
:1055B0008280B73700209387870FD44B9842050726
:1055C00098C2A8339307F00F6305F50091656FD07B
:1055D000DFE28280011122CC06CE2E8432C6EF900B
:1055E000D0119147B2456310F502B737002083A769
:1055F00047DD95C303A30700630F030022856244C0
:10560000F24005610283B737002083A7C7DC81C75A
:1056100003A34700D5B7F240624405450561828087
:10562000011122CC2A844A2106CE26CA4AC84EC677
:1056300097B0FB1FE78040462DC52A890421834986
:10564000C500F13D4A85EF9090494A20EF90300621
:1056500037390020130909DE83470900B9C763966B
:105660009704B737002083C517DE2685353C19E13E
:10567000230009004A20EF9050089147631CF50071
:10568000B73700209387870F5620FA236394E600EC
:105690007D57FAA3F2406244D2444249B2490561BF
:1056A000828081499304F00F65B79307F00FE3837D
:1056B000F4FC7420522028204E87A685B5365DBFA5
:1056C00079715EC6AA8B2E8552CC56CA5AC806D6A8
:1056D00022D426D24AD04ECEAE8A328B368A97B0AA
:1056E000FB1FE780603B7DC1045D2A89E5C09C50BB
:1056F000614599C3130540039C5481C75105420578
:10570000418163050A00710542054181DC5081C772
:105710005D054205418197B0FB1FE78000B22A84F6
:1057200055C56146814597B0FB1FE78060C7B73715
:10573000002083C9871463940900834909009307F3
:1057400000FD1CA0A947A30074013CA02303640131
:105750008C50231254011305840191C908C4714669
:10576000930A440397B0FB1FE780E0BC56858C5436
:1057700091C948C45146930A450197B0FB1FE78081
:1057800080BB5685630C0A0008C87146D285930A0F
:10579000C50197B0FB1FE78000BA5685CC5099C56C
:1057A00048C85D4697B0FB1FE780E0B8A2854E85EC
:1057B000EFD09F902254B2509254F249624AD24A9A
:1057C000424BB24B4A850259456191BBB2502254BB
:1057D00092540259F249624AD24A424BB24B456155
:1057E000828001114EC6AA892E854AC806CE22CCD7
:1057F00026CA2E8997B0FB1FE780002A39C5B73724
:10580000002083C4871491E00421194597B0FB1F41
:10581000E780A0A22A8415C98145194697B0FB1FCD
:10582000E78000B8930700FD1CA0B947A30034012E
:105830003CA023122401A2856244F2404249B249AD
:105840002685D24405616FD03F87F2406244D2443E
:105850004249B2490561828039715ECEAA8B2E859C
:1058600026DA4ED652D456D25AD006DE22DC4AD898
:10587000AE84328BB68A3A8ABE8942C697B0FB1F85
:10588000E780802139C92A89414597B0FB1FE7800D
:10589000C09A2A8439C14146814597B0FB1FE780F1
:1058A00020B0B737002003C5871419E1034509006C
:1058B000930700FD1CA0BD473CA0B247A3007401A4
:1058C00046A023046401A304540123054401A30555
:1058D00034015CC4A285EFD02FFEF2506254D25442
:1058E0004259B259225A925A025BF24B216182808C
:1058F000797126D2AA8439454AD04ECE06D622D412
:105900002EC6B289368997B0FB1FE78000930DCD74
:10591000B2459307000D1EA1B1472A844EA13CA1B8
:10592000CE851905194697B0FB1FE780C0A0230656
:105930002401A2852254B2500259F24913F5F40F02
:10594000925445616FD04FF7B2502254925402598D
:10595000F24945618280411126C2B7340020938408
:10596000840FB83006C622C44AC09307F00F6308FC
:10597000F7042A89394597B0FB1FE780008C2A84F9
:105980001DCD930700FDB73500201CA1A300250104
:1059900023010500938505110D05194697B0FB1FDE
:1059A000E78060999E24A285A8303EA49C305CA428
:1059B0002244B2409244024941016FD0EFEFB2401D
:1059C0002244924402494101828001115AC02A8B2B
:1059D000314526CA4EC652C456C206CE22CC4AC84B
:1059E000AE84B28A368ABA8997B0FB1FE780E0841A
:1059F0002DCD2A84268597B0FB1FE780E00909C5D5
:105A00005825A1476311F704B737002003C9B70F22
:105A1000930700FD1CA09D47A30064013CA046A085
:105A2000231354012314440123153401A285624435
:105A3000F240D244B249224A924A024B4A85424934
:105A400005616FD06FE7B737002003C91726E31150
:105A50000BFCB737002083A707EA9C47D5DBCE862F
:105A60005286D6852685829765B7F2406244D24435
:105A70004249B249224A924A024B05618280011191
:105A800022CC2A84214506CE2EC697A0FB1FE78094
:105A9000C07A15C5B245930700FD1CA1C5473CA1BE
:105AA000BC313CB1DE215EA1FC217CA1FC31AA8588
:105AB0007CB122856244F24005616FD0EFDFF24095
:105AC00062440561828041114AC02A89714526C21B
:105AD00006C622C4AE8497A0FB1FE78000763DC5B2
