:020000024000BC
:10E000006FF0C171000000000018011800280128FD
:10E0100002280328002901290229032904290529A6
:10E02000062907290829002A012A022A032A042A84
:10E03000052AA62ADCDE0600880905004204002025
:10E04000BC040020CA0300209C03002032030020EF
:10E050002A0B05006A0B0500080D0500880F050056
:10E060006C100500E80705009A0705008C020020E7
:10E070003602002026150500D0070020000B050001
:10E080002E120500E6970600C6990600309A060093
:10E090003A5C0600725C060072150600A80A0600CB
:10E0A000689206005E120500686206000CAE05006C
:10E0B0009CAE0500F6AE0500461D0500841D05005A
:10E0C000041C0500767005009A6B0500480A0020C4
:10E0D000AC7C050012800500C85E05006C5E050082
:10E0E0002A620500145F05004C5E0500C25E050053
:10E0F000025E05008C5F0500E45F0500945F05008B
:10E10000985F05002E600500EC5F05001C600500AF
:10E11000D6640500DA640500885F0500905F05009D
:10E120002C600500D8640500DA6005003266050041
:10E130006C8D0500E08D05001A8E0500C272050089
:10E14000D67205000A730500F45305001A5605003F
:10E15000F65605002E3A0500C4340500024B0500B2
:10E160004035050080460500C4C0060070B90600B1
:10E1700032BE060036D3060022D2060090D5060035
:10E1800080D5060088D50600CAD50600C8AB0600B3
:10E19000000000000000000000000000000000007F
:10E1A0003AD6060028D00600C6CF060000000000C0
:10E1B000000000000000000000000000000000005F
:10E1C000467B06006C6A0600C26D0600AA6B06005C
:10E1D00084750600C092060000000000FCAB06003B
:10E1E000A2160500825C0600486206004063060035
:10E1F000000000000000000000000000867605001E
:10E20000847A06000000000000000000000000000A
:10E210001C6A0600BA090020EE5C0600B6D50600AE
:10E22000000000000000000084D50600120F050069
:10E23000FA730500BED50600327D0600967E060004
:10E24000027F060070BE0600BAD50600C2D50600E1
:10E25000340A0600C6D50600341B00203C240020EA
:10E2600000000000000000000000000000000000AE
:10E27000000000000000000000000000000000009E
:10E280006373B60082801C419105110523AEF5FE33
:10E29000C5BFB727002037370020938707501307E3
:10E2A000C7BC6373F700828023A007009107D5BF26
:10E2B000411122C4B747024006C603A4C72023A6C3
:10E2C00007200F10000011C199E5B747024023A6AF
:10E2D0008720014545A093073500C207C183F19B04
:10E2E000C207C183130740036366F7023727002084
:10E2F0000325077837270020832687776391A602B6
:10E30000373700200327C78069D3C207DD8D054555
:10E31000029765BF372700200325C777E1BF7A2121
:10E3200031EF5A21636CF704B72600203306F7401B
:10E330002148938686786375C8028328050003D830
:10E340006600138687001D8F2A9661175AA2232024
:10E3500016012313060010C15EA1130788FFFAA25D
:10E360006EA1EE222105B387F540FEA2B747024019
:10E3700023A68720B2402244410182800841BDBFCC
:10E38000B747024003A8C72023A607200F100000AC
:10E3900001E523A607218280B727002003AE077876
:10E3A000B727002003A387778146F28763FE6708BB
:10E3B00083A80700636DF50863EBA808138787003F
:10E3C0006364E508F223216705076319E600372631
:10E3D00000200347065A05072300E65A3726002087
:10E3E00013058678CE237A212393070013068678B7
:10E3F0002E97420741837AA16383C7033725002004
:10E400000325C577630DF500EA2211E9DE2223A07A
:10E4100016012107BE95A105CEA27AA2B687984320
:10E4200063046702B726002083A6C677630ED70071
:10E43000762399EAD6234E231843A106AE96D6A397
:10E4400098C37E22A1077EA2B747024099B7BE8635
:10E45000C687A9BFB7270020B726002083A7077863
:10E4600003A686772A87B305B5406314F6003A857C
:10E4700029A8938687009C43E369D7FEE377F7FEDC
:10E480002E85E3E4D5FEE3F2F5FE828023AC05FEA3
:10E490001C4181E70CC18280BA8703A787FF6DFF0B
:10E4A00023ACB7FE8280411126C24AC0B744024065
:10E4B00006C622C403A9C42023A604200F1000000E
:10E4C00009E923A62421B240224492440249410191
:10E4D00082802A842105BD654205C18D4181C93BE9
:10E4E00011C9FD572320050042A17CA123A62421A8
:10E4F0002105D1BF23A624210145F1B701114AC846
:10E500004EC6B747024006CE22CC26CA83A9C720F2
:10E510002A8923A607200F10000037250020032496
:10E5200045788144014609E889ECA1654A85971040
:10E5300005E0E780A0CC25A08347E4FF639D270387
:10E54000A1C0A68513054578970005E0E780404AFD
:10E5500069DCA1654A85971005E0E7804084F240B8
:10E560006244B747024023A6372126854249D24458
:10E57000B2490561828091E02286032484FF65B759
:10E58000A284E5BFB727002083A7477D99E33E8596
:10E590008280BA236315B7009823E30AA7FEDC47FD
:10E5A000F5B7B747024003A7C72023A607200F10DF
:10E5B000000001C599C1814711E6B747024023A673
:10E5C000E7208280B386F50003C80600B306F50095
:10E5D000850723800601E317F6FEC5B737470240DB
:10E5E0008327C720232607200F10000019C191C1DF
:10E5F00011E6374702402326F7208280910503A7C2
:10E60000C5FF11057D16232EE5FEDDB73747024015
:10E610008327C720232607200F10000001C53307DA
:10E62000C50011E6374702402326F7208280050502
:10E63000A30FB5FEE31DE5FEF5B7B747024083A67D
:10E64000C72023A607200F10000081473307F500DD
:10E650000307070019E7374702402326D7203E85E6
:10E6600082808507E5B7011126CA4AC8B74702402C
:10E6700006CE22CC83A4C7202A892E8623A6072073
:10E680000F100000131506019305F004418132C6F6
:10E6900005312A8401C53246CA8521372285F240D8
:10E6A0006244B747024023A697204249D2440561FD
:10E6B0008280B747024003A7C72023A607200F1078
:10E6C000000001C599C1814711EAB747024023A65E
:10E6D000E720054582808507E309F6FE3308F5004B
:10E6E000B386F500034808009422E306D8FEB74736
:10E6F000024023A6E72001458280B747024003A7D6
:10E70000C72023A607200F1000009307F6FFBE9531
:10E710002A966317C500B747024023A6E7208280E8
:10E72000FD159C310505A30FF5FEE5B737470240FF
:10E730008327C720232607200F10000001C53307B9
:10E74000C50019E6374702402326F720014582809D
:10E7500005058346F5FFE397B6FEE31BE5FE374765
:10E7600002402326F72005458280797126D2B724FE
:10E77000002022D403A4447D06D64AD04ECE52CCEB
:10E7800056CA5AC85EC662C455C4372A0020372903
:10E790000020B7390020814BB72A002037CBC901B0
:10E7A000130A8A7D13098978938909823E2099EF9B
:10E7B0005C44639A0B0023AAF47C032CC4002285DA
:10E7C000C1366284A9A823A6FB00C5BF83A7CA7C63
:10E7D00082971C443307F5406376F50003A7490090
:10E7E0001D8F2A979306FB3763EAE6062328090064
:10E7F0002E200820970005E0E780605A5C405844CE
:10E80000B1C70C4403A64900AE97BE8663E4B700C7
:10E8100063E4C700B386C74014C4A28B3A8459F49A
:10E82000B727002093878778984B854663FCE604DA
:10E830007D1798CBB250225492540259F249624A41
:10E84000D24A424BB24B224C4561828063950B0009
:10E8500023AAE47C9DB723A6EB0085B703278A0291
:10E8600019CB63EDA7003385A740832709016374A3
:10E87000F5002328A900A28B404455B703A74900FF
:10E88000BA97D5B723A8070075B701114EC6B74789
:10E89000024006CE22CC26CA4AC852C483A9C72049
:10E8A00023A607200F1000003734002093070482AE
:10E8B000C843DC2713040482B9CFB73700209387FD
:10E8C000879803D7870A21CB83A4470A6385A404CA
:10E8D000B727002013878778184B138A8778630F30
:10E8E000A70E372900208327C97C829763E5A40EF1
:10E8F0008327C97C898C829703270A0163F3E4008C
:10E900002687B307A7003E85544063E4E70063E42D
:10E91000D7003385D740B747024023A637215C4054
:10E92000639DA702B7240020938484789848B72772
:10E93000002083A7C77C6315A70A82975440B74776
:10E9400036FE938707C8B6973387A7003A85636476
:10E95000F7006364D7003305D740B73400209387AE
:10E96000C4ACDC539384C4AC99CBB737002083A6E6
:10E9700087B43707CDFF7D179C46F98F9CC611E100
:10E9800048408547DCC4B737002083A707808297BB
:10E9900005E1DC5089CFDC4499CB976006E0E78045
:10E9A00040D7975006E0E780205623A60400753B29
:10E9B000DC5091CBB737002003A787B4B7063300EC
:10E9C0001C47D58F1CC7F2406244D2444249B24929
:10E9D000224A056182805C40BE9419BF268525BF0E
:10E9E000829794485840B387A6003E8563E4D700D9
:10E9F000E3E5E7F63385E7408DB7B727002023A08E
:10EA0000A75011C5B727002005472382E750828011
:10EA1000B727002003A70750411122C406C613845C
:10EA2000075011C30297B727002083C7475093F7B9
:10EA3000F70F99E323200400B24022444101828071
:10EA4000011126CAB734002022CC4AC89387048219
:10EA500006CE4EC652C456C2DC2737290020938406
:10EA600004821304497B95E3B73700209387C7AC32
:10EA7000D833058B19CBF8339946639BE60AA382FA
:10EA80000700EF1060415C4482971C4491C3829759
:10EA900037240020B72900209307847803A7097D35
:10EAA0009033130A84788347847893961700BA9634
:10EAB0009622C9CA8347847863EEC7082304047882
:10EAC000373400209307C4AC9C371304C4AC639163
:10EAD0000710B727002083A7C77CF5C3DC40232895
:10EAE000FA006131B737002083A70780E9CB7C307B
:10EAF00011476366F70CB7370020938787B1DC278F
:10EB0000918BD5EFB727002083C7475093F7F70FB6
:10EB1000DDE783461A0003A6097D63C7D70C62446C
:10EB2000F240D2444249B249224A924A0561B1BBFD
:10EB3000F8339D46E39BE6F4A3820700EF10C0354F
:10EB40001C4899B7850793F7F70F2304F478E3EC93
:10EB5000C7F48DB786073E970E23231007000345A1
:10EB60008478B727002083A7077B13172500B72ACF
:10EB70000020BA979C4323940A7C829783D78A7C8F
:10EB80000347847893C7F7FF7D8D9317170003A77A
:10EB9000097D3E971E235D8D0AA38347847881C734
:10EBA00085072304F4788327497B81C78297232A2A
:10EBB000097A0347847883471A00E371F7F0F2403B
:10EBC0006244D2444249B249224A924A0561828053
:10EBD0007C3093F7F70FE39E07EEA30404009750F1
:10EBE00006E0E7806062F5B51397170032971A23A5
:10EBF00079F785071DB7374702408326C720F1778D
:10EC0000FD17F58F2326F72001000100B72700200C
:10EC100093878778C84F832787262326D7206A05BE
:10EC200093C7F7FF99835D8D8280B727002083C744
:10EC3000B77889CFB737002083C7C78291CBB73762
:10EC4000002003A307836307030002830545828036
:10EC5000094582801305F00F8280B737002003C674
:10EC60000798B727002003A7075781476315F600C9
:10EC7000814636858280BA8613078702835587FDD1
:10EC8000E389A5FE850793F7F70FCDB7B7370020C7
:10EC900003C71798B727002083A7C7582A860507F8
:10ECA00081463E859E236388C700850693076500DD
:10ECB000E3E9E6FE01458280B727002003A7475815
:10ECC00019E3014615A81C4703D8A700636B05018B
:10ECD00083584700B38608016355D5008146639485
:10ECE00016011843F1BF3E86C10703D3A7FF631780
:10ECF000A30099C123900501328582808506C20652
:10ED0000C182F1BFB737002003C60798B73700208C
:10ED100003A7079281476315F600814636858280F6
:10ED2000BA861307C703835567FCE389A5FE8507E9
:10ED300093F7F70FCDB7032785116DCB411122C48F
:10ED400006C65C258345E5042A8493F7C70F5CA5B6
:10ED50001437522713958601618563F7C506635101
:10ED60000506082793F6F60714B7054693E627002D
:10ED70006314C50093E6170054A45C4389075CC381
:10ED80004CB8032504112E864C430905EFF07F8112
:10ED9000832784115038D443DA27B296118FD4C315
:10EDA000DAA789473CBCB72700200347640383C721
:10EDB000A77E6371F7045C2493E707015CA41DA898
:10EDC00093E717005CA46DBF9376F60F63590502B5
:10EDD0000827854513E627006314B50013E61700DE
:10EDE00050A454B8A304070085473CBC8327841172
:10EDF0009C43D5FBB240224401454101828093E708
:10EE000017005CA454B8A3040700032504114C4365
:10EE10000905EFF00FF9832784115038D443DA271E
:10EE2000B296118FD4C3DAA78D47C1B7054582804A
:10EE3000B737002083A7C7AA411122C406C6858B15
:10EE40002A84D5E34165130525F5971006E0E78090
:10EE5000603E51C93C253EA583270412ADE3232023
:10EE6000A4122322A41285472311F40423200500B1
:10EE70007C2854415EA5583418A5054718B5373786
:10EE80000020032707AF1385170215811C437D154A
:10EE90001375F50F9CC25C43DCC21C479CC65C47E3
:10EEA000DCC61C4B9CCA5C4BDCCA1C4F9CCE5C4F26
:10EEB000DCCE19CD9386060213070702C1BF832754
:10EEC000441288C3835724042322A412850769BFF0
:10EED000B7370020938787989A2705079AA7B240EB
:10EEE0002244410182805C2423090400054593C724
:10EEF00047005CA4EDB71C2D93F7E70FC5EB1C3D55
:10EF0000D5E73029542509CA3727002083456503F2
:10EF10000347B77E63E7E50013F7060149CB0147D6
:10EF200009C6C18A0357E51B81C68356251C36973F
:10EF30003DCFB737002003D587821307C712374666
:10EF40000F00B335A702411113060624814622C4DF
:10EF500026C206C67D543305A70297D006E0E78097
:10EF600020AAB727002083C7F77EB384A700B7374E
:10EF7000002003A787A18327070963F387003E8446
:10EF8000184375FBB727002083A7C77C829781476A
:10EF90006364A400B307A440B2402244B3B797000F
:10EFA00093C7170092443E854101828081473E8588
:10EFB0008280B737002003A747AF7C53FDFF8280D4
:10EFC00001114EC6B73900209387899822CC03A43B
:10EFD000870926CAB7340020938704829E274AC82F
:10EFE000035964080325040906CE3309F902B7471B
:10EFF0000F001387F7239387072452C456C25AC0C1
:10F0000093898998938404823A993359F902636DFC
:10F010002503372A00208327CA7C3309254182979C
:10F020006367A9023309A9406346090283570404B0
:10F03000A30F040085072310F4048347041463948A
:10F0400007102285CD2511A2DC403E95D9B7DC40C2
:10F050003E99C9BF8327CA7C829703278408636FC0
:10F06000E508198D7E3C9A248E07B387E7021307C3
:10F07000003293870719B3D7E70263E5A708B74AB9
:10F080000F00138BFA23938A0A24835704048507FD
:10F090002310F4048347041499E32285692522850B
:10F0A000970006E0E780007E631D0524832604099F
:10F0B0008327C408D840B6973E8563E4D70063E44D
:10F0C000E7003385E7407C3C035964082328A40803
:10F0D00085077CBC9E243309F9025A993359590398
:10F0E000636C2505330925418327CA7C82976369B0
:10F0F000A9043305A940E34A05F80DBFDC40998F08
:10F100003E958DB7A1452285970006E0E780C06F48
:10F11000A305A402B737002003A3C7806303031E1F
:10F120006244F240D2444249B249224A924A024BD6
:10F130008945154505610283330927412A996DB731
:10F14000DC403E997DB7228551252285970006E057
:10F15000E78040736317051A8A2483576408B7460B
:10F160000F001386F623B387A7029386062403278E
:10F170000409230B040283AA4400B297B3D7D70231
:10F18000636BF718B307F7408326C4082324F408F9
:10F19000014BB387E6003E8963E4D70063E457017F
:10F1A000338957411E3023282409A1CB83560404F8
:10F1B0005A3037460F0056B03387E640B387E70230
:10F1C0003A301306062481468145BA97C207C183A7
:10F1D0003385A7023EB097D006E0E780608211CD6C
:10F1E0004A95333925012E99AA8763142B0163644C
:10F1F0005501B30755412328F4088327CA7C829719
:10F200002A898327CA7C8297E30D25FF8327CA7C3E
:10F210000329840882976365A9103305A940630A0E
:10F22000051083DA84008357640837490F001307F9
:10F23000F923B387570313090924BA97B3D72703D0
:10F24000372700200347F77EBA9763E4A70EB3354C
:10F250002503035A2402568681463305250397C0A9
:10F2600006E0E780E079330BAA0033055A033746FE
:10F270000F00130606248146814597C006E0E7800B
:10F2800020780DC1B337250356868146B305B902F0
:10F290003305A902BE9597C006E0E7806076330586
:10F2A000AA402AB03545975006E0E780400323ACDA
:10F2B000890838348547631DF700930700FD7CA457
:10F2C000B737002003A587ABDC24B1CFEFF0EFF216
:10F2D000B736002003A646AFB73700209387C7ACE8
:10F2E0001547F8B35846F977FD17F98F5CC60F102C
:10F2F000000083A746AF8966060B94C723A2670761
:10F30000D8C7F2406244D2444249B249224A924AA2
:10F31000024B05618280B3065701B387F640ADB555
:10F32000DC403E99DDBD8145970005E0E7800005A2
:10F3300045B7DC2423AC090885C3B737002003A5F3
:10F3400047AB970005E0E780003EB7E700E03707EE
:10F35000000223A2E72075B78347940285456244E3
:10F36000F240D2444249B249224A924A024BB395F2
:10F37000F500C205C18101450561170305E067007D
:10F3800003A2011122CC4AC84EC606CE26CA52C4D8
:10F3900056C25AC0383585472A842E8983290509E3
:10F3A0006315F71E83570508035BC503373A002032
:10F3B00093060A8283DA8600130A0A8263FF6719BA
:10F3C0001429639CE618032785116318071803277F
:10F3D000450A6314071874351D476390E6182A3DE3
:10F3E000330BFB409307204E330565038324440908
:10F3F00037460F001306062481463305F502B7276A
:10F40000002083C7E77EB3549502B3B5AA02BE9429
:10F41000C204C180231394083385AA0297C006E072
:10F42000E780005EAA9933B5A9002E954E87832701
:10F430004A0019E163E4F9003387F940B3845403C7
:10F44000B7460F009387F623938606242320E9000E
:10F45000BE94B3D4D40293171B00A6976369F70E2A
:10F460001D8F2320E900B729002083A7C97C8324AE
:10F470000900829763EEA4103385A440635D050AFA
:10F4800083A7C97C373B0020130B0B82829703278D
:10F4900009006365E510198D7E3C03578B008E07CC
:10F4A000B387E7021307003293870719B3D7E70240
:10F4B00063EBA70E374A0F00930AFA23130A0A24B4
:10F4C0008357040485072310F4048347041499E345
:10F4D0002285912C2285970006E0E780A03A6DE115
:10F4E000832604098327C40803274B00B6973E856B
:10F4F00063E4D70063E4E7003385E7407C3C835452
:10F5000064082328A40885077CBC83578B00B38438
:10F51000F402D694B3D444036363950CB3049540CA
:10F5200083A7C97C23209900829763EEA40A3385C0
:10F53000A440E34705F8B727002083C7F77E63E2BE
:10F54000A708B737002023A087A201459DA88326DE
:10F550004A00B387F6403E9729B783576408374778
:10F560000F00B38457039307F723A6979304072448
:10F57000B3D4970263E79900B3849940232099009C
:10F58000DDB583274A00BE99C5BF23A03501E1BD83
:10F59000B737002083A74782BE94F9BD83274B006D
:10F5A000998F3E95D5BDA1452285970006E0E7805D
:10F5B000A025A305A402B737002083A7C78081EF49
:10F5C0007D55F2406244D2444249B249224A924AAD
:10F5D000024B05618280894515458297D5B7B304F2
:10F5E0009740AA9435BF83274B00BE9489B721CD9D
:10F5F00001116C0022CC06CE2A84613339C1FD573B
:10F600006307F502B72600209386867DFC3A945660
:10F61000324791C285836360F702B307F7403EC665
:10F62000B24503459402970005E0E780208DF24043
:10F63000624405618280B736002083A646823697F1
:10F64000E9BFBD3AEDB78280B737002079711387E3
:10F6500087984AD00329070906D622D426D24ECE4F
:10F6600052CC56CA094763000906B7340020938A72
:10F6700087989387C4ACFC3395469384C4AC0D47FC
:10F680006383F604DC442A8A99CB975006E0E7802E
:10F690004008975006E0E780208723A60400FD5924
:10F6A0006C004A85F93915E937150020130505D591
:10F6B000EFF0AFB4A147DCA0B737002083A747AF76
:10F6C0000947F8D30D47B250225492540259F249D7
:10F6D000624AD24A3A854561828063743501324478
:10F6E000AA8903290900E31D09FAFD571307F00F42
:10F6F000E38BF9FC914763F187029307B4FF232062
:10F70000FA0023A2FA0A0147DDFFB737002083A7DA
:10F7100047822320FA0045BFB737002083A74782DE
:10F72000ED17A297E9BF797126D206D622D44AD026
:10F730004ECE52CC56CA5AC85EC6834755030344C0
:10F740007513AA843E941374F40F9307400263F672
:10F7500087001304B4FD1374F40F03AA841383AA5F
:10F76000C413A38B841222865285D68597C006E0E7
:10F77000E7804026058915E503CBD412014981496C
:10F78000337B6403930B50024A865285D68597C01B
:10F7900006E0E7802024058915C563916903137489
:10F7A000F90F238B8412B250225492540259F24919
:10F7B000624AD24A424BB24B456182808509E209D6
:10F7C00093D989410509E31179FDE1BF83278509B3
:10F7D00003560504797193D60701BD8EC206C18216
:10F7E000358E1357764093575640898B058B5D8F26
:10F7F00093573640918B5D8F93571640A18B5D8F49
:10F8000093171600C18B5D8F9317360093F707028D
:10F810005D8F931756009355860093F707041E06D5
:10F820005D8F1376F60F518F93D7554013D6354021
:10F83000118A898BD18F13D67540D18F13D615407D
:10F84000218AD18F13961500418AD18F13963500E6
:10F8500013760602D18F13965500137606049E0583
:10F86000D18F93F5F50FCD8FA20745465D8F3307F6
:10F87000C70222D42A8426D252CC56CA032A841321
:10F88000832AC4135AC806D6369742074183935732
:10F890007740135557400989858BC98F13553740D9
:10F8A0001189C98F135517402189C98F1315170066
:10F8B0004189C98F1315370013750502C98F1315B8
:10F8C000570093558700137505041E07C98F1377DA
:10F8D000F70FD98F13D5354013D755401189098BB0
:10F8E000498F13D57540498F13D515402189498F0C
:10F8F000139515004189498F13953500137505023D
:10F90000498F13955500137505049E05498F93F58E
:10F91000F50F4D8F2207D98FB387C7024AD04ECE3D
:10F920005EC662C4B697C207C18313D7774013D5AA
:10F9300057400989058B498F13D537401189498F65
:10F9400013D517402189498F139517004189498F95
:10F950001395370013750502498F1395570093D5FA
:10F960008700137505049E07498F93F7F70FD98F0A
:10F9700013D5354013D755401189098B498F13D5BD
:10F980007540498F13D515402189498F139515006E
:10F990004189498F1395350013750502498F1395D9
:10F9A0005500137505049E05498F93F5F50F4D8F8E
:10F9B0002207D98FB387C702130650025285D68516
:10F9C000B697BD8E93940601C18033F6C402137BB3
:10F9D000F60F97C006E0E780E0FF05890DED83474D
:10F9E000D41201498149B3849702130C5002C1809B
:10F9F0004A865285D68597C006E0E780A0FD058936
:10FA0000937BF90F11C563863403850993F9F90FC8
:10FA10000509E31F89FD230B6413B250225492544D
:10FA20000259F249624AD24A424BB24B224C4561DA
:10FA300082805E8BCDB70111B737002022CC03A4A2
:10FA400087A426CA4AC84EC606CEAA841309250032
:10FA5000854905C09C303830858B6304F700405CD5
:10FA6000CDBF1946930544004A85EFE09FC4E318D3
:10FA700035FF2285F2406244D2444249B2490561D1
:10FA800082804111B737002022C403A487A426C274
:10FA90004AC006C693042500054901E82285B24004
:10FAA00022449244024941018280A6851305A402A2
:10FAB000973006E0E780E0E0E30225FF405CF1BF1D
:10FAC0004111B737002022C403A487A426C24AC02C
:10FAD00006C693042500054901E82285B240224468
:10FAE0009244024941018280A6851305A401973002
:10FAF00006E0E78000DDE30225FF405CF1BF011175
:10FB0000B737002022CC03A407A426CA06CE2AC4F5
:10FB10002EC6854419E40145F2406244D244056191
:10FB200082809C841830858B6304F7000044DDB725
:10FB300019469305A10013052400EFE09FB7E317D2
:10FB400095FE0545D1BFB736002083A7C6AB130786
:10FB5000001098C323A0070018310348250022078E
:10FB6000420842970348050042970348350062085F
:10FB7000429798D7583103486500220742084297B8
:10FB80000348450042970348750062084297D8D75A
:10FB900018350348A500220742084297034885000C
:10FBA00042970348B5006208429798DB58350348EE
:10FBB000E5002207420842970348C500683542978E
:10FBC00062052A97D8DB9831A821220742052A9797
:10FBD00088212A97A83162052A9798CFD831E82141
:10FBE000220742052A97C8212A97E83162052A97F9
:10FBF000D8CF9835A825220742052A9788252A9725
:10FC0000A83562052A9798D3D835E82522074205FA
:10FC10002A97C825EC352A97E2052E97D8D3D843E2
:10FC2000759BD8C3D84313671700D8C3984313678D
:10FC3000170098C303A7C6AB5C43858BBDE71C4F79
:10FC400001451CA283A7C6AB9C4FA1831CB283A70E
:10FC5000C6AB9C4FC1833CA283A7C6AB9C4FE1833C
:10FC60003CB283A7C6ABD84F58A2D84F218358B215
:10FC7000D84F418378A2D84F618378B2985318A6A1
:10FC80009853218318B69853418338A698536183BB
:10FC900038B6D85358A6D853218358B6D853418381
:10FCA00078A6DC53E1837CB68280010061B7B73768
:10FCB000002003A747AF1605136505083C4B93E7E3
:10FCC00007083CCBB737002083A7C7AB03A7450E77
:10FCD00088C398CB03A7850E0145D8CB03A7C50BD6
:10FCE00098CF03A7050CD8CF03A7450C98D303A73B
:10FCF000850CD8D303A7C50C98D703A7050DD8D773
:10FD000003A7450D98DB03A7850DD8DB03A7C50D19
:10FD100098C703A7050ED8C798431367070498C36D
:10FD20008280B737002003A747AF16051365050883
:10FD30003C4B93E707083CCBB737002083A7C7AB02
:10FD400003A7C50E88C398CB03A7050F0145D8CBE1
:10FD500003A7C50B98CF03A7050CD8CF03A7450C65
:10FD600098D303A7850CD8D303A7C50C98D703A7AE
:10FD7000050DD8D703A7450D98DB03A7850DD8DB64
:10FD800003A7C50D98C703A7050ED8C798431367E7
:10FD9000070498C3B73700209387C7AC130700F850
:10FDA000F8A38280B736002003A706AC41114AC0F1
:10FDB0001C5F06C622C4998326C2858B3689B5CFBF
:10FDC00093070006373400201CDF8347C4AC93043C
:10FDD000C4AC93F7070489CFB727002083A7C77C5B
:10FDE0008297C8CC8347C4AC93F7F70B2306F4ACD7
:10FDF0008347C4AC93F7070285C38347C4AC373746
:10FE00000020032747AF93F7F70D2306F4ACDC4837
:10FE1000A16614C786077CD7DC2093F7070491EF0F
:10FE20008547DCB0B737002083A747AF096798C77D
:10FE3000130700FCD8A09848F8D3032709AC1C5F2F
:10FE40009183858B89CBC1471CDFB737002093870F
:10FE5000C7AC8546D4A31C5F9D83858B91CB93074C
:10FE600000081CDFB73700209387C7AC0547D8A32D
:10FE7000B737002083A7C7ABD8430583058B19C7C5
:10FE8000D843759BD8C3D843799BD8C3B24022448A
:10FE90009244024941018280B7370020B7360020E2
:10FEA00003A647AF9387C6AC03C7C6AC058B19E75B
:10FEB0009833058B01E7785265FBD833A38207009E
:10FEC000828037380020032708AC1C5F9583858B20
:10FED000BDE701C61C5BBD831CA29DC6832708AC81
:10FEE000985B4607935767016356070093E707C07F
:10FEF000C207C18303970600C207C18709C7BA9723
:10FF00000947B3C7E7029EA285C11C3191CF3E9538
:10FF10001C350547194593F6F7066393E602E20799
:10FF2000E187394563CE0700832708AC37370020C7
:10FF300001459C5FED838D8BA30BF7AC828005455B
:10FF40008280411122C406C63734002026C203270E
:10FF500044AF3DE5AE877453FDFEB7340020938473
:10FF6000C4AC3E85B28523810400974006E0E7805B
:10FF7000C00DB737002083A707ACB70680009843B1
:10FF8000558F98C3D857719BD8D7832744AFA38286
:10FF90000400A3800400094798C3832644AFB73701
:10FFA00000209387C7ACB823058B11E7B833058BC6
:10FFB00019E3F8526DFBB240224492444101828021
:10FFC0008D47631FF500B737002083A707ACB7063E
:10FFD00080009843558F98C3D857719BD8D775BF69
:10FFE0008547E31CF5FA5447F977FD17F58F5CC791
:10FFF0000F100000032744AF8967130600F81CC7E1
:020000025000AC
:10000000B73700209387C7ACD0A3B737002083A7AA
:1000100007AC9C43B1838D8B91E7930760197CD328
:1000200054C7A5BF9307E01BDDBF5D7152DC373AB3
:10003000002003270AAC86C6A2C4A6C2CAC04EDEF0
:100040001C43B73900203739002093F7F7E793E7CF
:1000500007081CC383A689B43707CEFF7D179C46CB
:10006000130680022A84F98F9CC6832749AF280093
:10007000AE8423A8070493051008EFE02FD9354577
:10008000974006E0E780A02583270AAC9376F41F0B
:100090003706330023A40700984B370FFCFF4E8828
:1000A0001367F70398CBF84FCA88130510F8137736
:1000B00007E0558FF8CF9843F576FD16758F98C3F6
:1000C00037370020832649AF1307C7ACA3020700C8
:1000D000A3000700054798C29843D285B7020400E1
:1000E0001377F7E798C39843930380251149137753
:1000F000F7E71367071098C303A789B47D1F8549E5
:100100001C47930F8002D18F1CC793079005BCCA70
:1001100001473400135337002693834703001376B7
:100120007700B3D7C740858BE1C383A705AC832E87
:1001300088B4239C07042390070603AECE02137EE7
:10014000DEFF23A6CE0383AE0700137EF70793FEE0
:100150000EF833EECE0123A0C70103AE4702336E83
:100160005E0023A2C70383AE48AF014E23A27E06E2
:1001700003DA070663074E0303AE0703038A06008C
:10018000135EFE00620E135E8E416358CA0103AE19
:100190000703135EFE002380C60103DE0706137EFD
:1001A000FE0F03AA4E0663060A0003DA8705E37F03
:1001B00049FB03AE4702337EEE0123A2C7038387C8
:1001C0000600635CF400034E03003396C900134637
:1001D000F6FF3376C6012300C3003E8663D3A70033
:1001E0002A8613158601618505071377F70F8506A3
:1001F000E312F7F3B640264496440649F259625A90
:1002000061618280B737002083A747AFD847931634
:10021000170163D2060298479316170163DD0600A3
:100220007D57B8D73727002013078778544F8506A6
:1002300054CF116798C798470D83058B11CF373777
:1002400000201307C7AC342393E6160034A39306AB
:1002500000F854A3214798C79847058B19CB373727
:1002600000201307C7AC143393E6160014B30547F8
:1002700098C798470983058B09E798470583058B3D
:1002800031CB373700201306C7ACA30206009447D2
:10029000B735002083A505AC8982858AE5C69441DF
:1002A000B1828D8AE9EEA84B54521376050294323E
:1002B0004DC2F9E29306D005D4CF8346C7AC93E68E
:1002C00016002306D7AC114798C7D855719B136702
:1002D0001700D8D598479316370163D406023737ED
:1002E00000209306879803C6060713078798418A5C
:1002F00045C203C70607136707022388E60605679A
:1003000098C798479316270163DF06003737002008
:100310001307C7AC5423E206E18663D40600854682
:1003200054A3096798C798479316070163D206023A
:10033000373700201307879883461707858AADCA89
:100340008346170793E62600A308D706216798C7B8
:100350008280ADD205466395C60093061006A9BFFC
:1003600009466395C60093065006B9B70D466395D6
:10037000C6009306900689B79306B00635BF93066C
:10038000C0061DBF38321367170038B209472DBFAA
:10039000834607070946BD8A6388C6008346070768
:1003A0000D46BD8AE39DC6F491462308D70681BF5A
:1003B00083461707918AD9DA8346170793E68600A2
:1003C00061B7B737002083A747AFB7360020138740
:1003D000C6AC904710CF90470D82058A11CA3023D2
:1003E0001366160030A3130600F850A3214690C7E9
:1003F0009047058A19C610331366160010B30546D8
:1004000090C790470982058A09E690470582058AC8
:1004100031C6A30207009047B735002083A505AC7D
:100420000982058A59CA904131820D8A41E6A84B5A
:10043000505313750502103221C935EA1306D00551
:10044000D0CF03C6C6AC136616002386C6AC914651
:1004500094C7D455F19A93E61600D4D594471396D1
:100460002601635B06005423E206E18663D406009E
:10047000854654A3096798C798479316070163D424
:100480000600216798C7828055DA05456315A600E6
:100490001306100675B709456315A6001306500626
:1004A00045B70D456315A6001306900651BF130608
:1004B000B00679B71306C00661B7343393E6160069
:1004C00034B3894671B737370020B736002013861A
:1004D00086AF130787B15C372C3E484AAE97FD8B39
:1004E000B355F5001CB25CB785898DE9183B814690
:1004F00013080002B3F7E7020147B355E500858909
:100500009378F70F89C96395D700A30016018280FD
:10051000850693F6F60F0507E31107FF8280B737CC
:1005200000209387C7ACDC3393F7F70FD1EBB727E5
:10053000002083A7C77C411122C44AC006C626C238
:10054000829737390020930789B18047130989B111
:100550006302A40663688504018DB7340020938785
:1005600084AFBC2F13545500938484AF6364F404A8
:1005700085676371F404813FBC2C0327890093963F
:10058000570036971D8C2324E900E376F4FE2244BD
:100590008830B2409244024981454101174306E048
:1005A0006700E31AB737002083A747823384874068
:1005B000229565B7B24022449244024941018280AB
:1005C0008280B727002083A7C77C011122CC26CACE
:1005D00052C406CE4AC84EC68297B73400209387CD
:1005E00084B18047014A6300A406938484B16365A3
:1005F0008506018D37370020930787AFBC2F135432
:100600005500137AF501130987AF636BF402B7390C
:10061000002093890982453D8346A90103A88400EF
:1006200083A54900139756004297158C3A86636458
:1006300007016364B7003306B74090C4E37DD4FC80
:100640001604336A4401F24062445285D24442495E
:10065000B249224A05618280B737002083A74782CA
:1006600033848740229579B7B737002003A747AF77
:100670008567938707777CD3B737002083A787B434
:1006800083A60709139656006358060083A6070938
:1006900013966600634406007453FDF282800000E6
:1006A000EFE00FB7730000000000000097020000A9
:1006B0009382820C0383020023800200630F0300F5
:1006C000F32510342EC0970500009385A5FD739087
:1006D0001534EFF01FCF7300203086DCEFF09FB2AF
:0806E000E650828000000000DA
:1006E800B72700203727002083A7077803278777B5
:1006F80001456313F7008280F62399E2D6233695E5
:100708009C43C5BFB727002083A5877D37270020D6
:100718009387877D138605222320C778DA2393875A
:1007280085FFB72600204111BA97056523ACF676F8
:1007380006C61D05935637006374E500930600202E
:100748003307D60037250020232EE57623A0E5229F
:10075800E11656A2231306001CC3998FE1175EA366
:1007680023130700B53FB240B72700202397A77887
:1007780041018280184183A785FF6319B7001CC116
:10078800FD5723AC05FE238FF5FE8280232CF6FE51
:10079800C5BF411122C426C23744024006C683247D
:1007A800C420232604200F10000009E923269420E2
:1007B8001545B24022449244410182800347E5FF37
:1007C8009307F00F6306F700232694201145D5B749
:1007D8009700FB1FE7808093014523269420D1BF13
:1007E800411126C24AC0B744024006C622C403A922
:1007F800C42023A604200F10000089E523A6242185
:10080800154515A0B727002083C797782A842E8519
:100818006375F400894763EE8700A53FB747024038
:1008280023A627210D45B2402244924402494101A2
:10083800828083A785FF99E703C7E5FF9307F00F39
:100848006308F700B937B747024023A627214DBFF1
:1008580037250020238F85FE130545789700FB1F59
:10086800E780809BA16522856D2C014523A6242164
:100878005DBFB727002023A207788280BDCD79719C
:1008880022D406D626D24AD04ECE01444147B3D709
:100898008540858BB1CF1205314722953305E50296
:1008A800B737002003A987818544B3948400C20424
:1008B800C180BE892A990327090011C70325490069
:1008C8002EC60297B24531473304E40283A78981D3
:1008D8003E941C4489E72320090023220900B250D2
:1008E8002254A58D02599254F2492E854561828081
:1008F8000504E31EE4F88144DDB72E8582804111AA
:100908001397050122C406C626C24AC041872E8411
:10091800635107029700FB1FE780009711C1953DBF
:10092800A1673D8C2285B24022449244024941018C
:100938008280EDD9AA8701474146B356E440858AAB
:100948009DCA9207BA97B146B387D702B736002037
:1009580003A986818544B394E400C204C1803E990A
:1009680083270900032549008297232009002322B1
:100978000900258C45BF0507E311C7FC8144D5BF95
:10098800411126C2B747024006C622C483A4C72025
:1009980023A607200F100000B727002083A7C77FD2
:1009A800372400201304044D91C782971C403E95BC
:1009B80008C031A0B727002083A7C77CFDF71C40DB
:1009C800374703001307D73FB387E70237A7260047
:1009D800130737ECB240BA971CC0B747024023A6AA
:1009E800972008402244924441018280797126D29E
:1009F800B747024006D622D44AD04ECE52CC56CA69
:100A08005AC85EC662C483A4C72023A607200F1055
:100A1800000005E123A697200945B25022549254BC
:100A28000259F249624AD24A424BB24B224C4561C2
:100A38008280B727002083A7C77CBA8A368AB28B00
:100A48002E8BAA898297B737002003A787813E8912
:100A58000144B146C147330CD40233068701104222
:100A680059E2C165938505F0414597F0FA1FE78083
:100A7800E05C19EDB737002083A7C78081C781459F
:100A880011458297B747024023A697202D4571B795
:100A9800B727002003A7477D39E323AAA77C2300B3
:100AA800050083278981054733178700232605001A
:100AB800232475013AA123225501E29723A0370187
:100AC80023A2670123A4570163040A0023008A00B4
:100AD800B747024023A69720014581B73E875C4768
:100AE800F5FF48C76DBF0504E317F4F6B7470240A2
:100AF80023A69720214515B7B737002083A7C781BC
:100B0800411122C406C6372400201304847889C7FB
:100B180082975C483E9548C84848B2402244410103
:100B28008280B747024083A6C72023A607200F105C
:100B3800000037270020034797786370E5023726BF
:100B48000020131715000325067D3A951A21D98D23
:100B58000EA123A6D7200145828023A6D7200D45C4
:100B68008280B747024083A6C72023A607200F101C
:100B7800000037270020034797786372E50237267D
:100B88000020131715000325067D93C5F5FF3A9538
:100B98001A21F98D0EA123A6D7200145828023A60C
:100BA800D7200D45828001114AC83747024006CE3A
:100BB80022CC26CA4EC652C40329C72023260720A2
:100BC8000F100000130705FF1377F70FFD4763E3C6
:100BD800E70AB146B306D502B737002003A78781D5
:100BE80036971C43C1CB9354450005443D893315C2
:100BF800A400131405014180AE892685A28597F0CB
:100C0800FA1FE780E0702A8A29C9A2852685913FC4
:100C1800B727002083A7C77CB734002093840482B9
:100C280082979E242A848146B3853703130600647D
:100C3800B3B7370313850532B335B500BE95EFC09A
:100C48007134B30785003E87D44063E4A70063E4AA
:100C5800D7003387D7402324EA00B747024023A6AA
:100C680027210145F2406244D2444249B249224A0E
:100C780005618280B747024023A627210945DDB7D1
:100C880001114AC8B747024006CE22CC26CA4EC632
:100C980003A9C72023A607200F100000BD4763EB58
:100CA800A70431473307E502B737002083A78781B8
:100CB800BA979C43A1C305443314A400420441805D
:100CC800AE840145A28597F0FA1FE7806064AA897F
:100CD80011C5A2850145713523A49900B747024083
:100CE80023A627210145F2406244D2444249B24931
:100CF80005618280B747024023A627210945E5B749
:100D0800797126D252CCB744024006D622D44AD0B2
:100D18004ECE56CA5AC85EC603AAC42023A60420CB
:100D28000F100000B727002083C797786378F50075
:100D3800B727002083ABC77C63970B00B7470240F7
:100D480023A6472199A03739002013090982AE8AC2
:100D5800032B490083558900B74736FE938707C898
:100D68003E9BB387C5022A84B2898146B3B5C502C2
:100D780013850732B337F50013060064BE95EFC03C
:100D880071206370AB0223A644210145B25022545E
:100D980092540259F249624AD24A424BB24B4561D7
:100DA8008280829B83558900AA8413060064B387D6
:100DB80035038146B3B5350313850732B337F500DC
:100DC800BE95EFC0311CB3079500BE8403274900C8
:100DD80063E4A70063E4E700B384E740D68522858F
:100DE80097F0FA1FE780C05201C904C5B74702400F
:100DF80023A64721054559BF936504F0C205C18163
:100E0800414597F0FA1FE780602311E9B7370020C2
:100E180083A7C78085D7A2851145829705B737274D
:100E280000208327477D99EF232AA77C854723261F
:100E3800050004C52311550100A11CB1232205009A
:100E480075B7BA87D84775FFC8C7CDB779714ECE81
:100E5800B747024006D622D426D24AD052CC56CA28
:100E68005AC85EC662C466C26AC083A9C72023A6E0
:100E780007200F10000025C141443689B28A2E8A06
:100E8800AA84B14C373B0020054D130C0003B30B6B
:100E9800940303278B815E971C43B9EF9375F40085
:100EA800B315BD0013554440C2055686C18113755C
:100EB800F50FB93531C183278B81DE9784C323A20F
:100EC80047016304090023008900B747024023A6AD
:100ED8003721014521A023A637210945B2502254C4
:100EE80092540259F249624AD24A424BB24B224CBE
:100EF800924C024D456182800504E31A84F9B74794
:100F0800024023A637212145D1BF011122CC26CA90
:100F18004AC84EC6B747024006CE03A9C7202A844E
:100F2800AE89B28423A607200F100000D13B22858A
:100F3800CE8597F0FA1FE780A03D2A8405C5B7370C
:100F4800002083D58782130600648146B387950203
:100F5800B3B5950213850732B337F500BE95EFC0D8
:100F6800710248C013351400F2406244B74702408A
:100F780023A62721D2444249B2490E050561828041
:100F8800011122CC4AC84EC6B747024006CE26CA2F
:100F980083A9C7202A892E8423A607200F100000C2
:100FA80097F0FA1FE780C036AA8419C123110500FB
:100FB800A2854A857D36B727002083C7877863993D
:100FC8002701B727002003D7877C598C2394877C77
:100FD800B747024023A63721014591E01945F24061
:100FE8006244D2444249B24905618280011126CA4D
:100FF8004AC8B744024006CE22CC4EC603A9C42034
:1010080023A604200F1000009307F00263E6A7044C
:10101800B1473304F502B739002083A78981A29725
:101028009C439DCB9377F5008545B395F500C205A4
:10103800C1811181B13783A789810145A29723A076
:10104800070023A2070023A62421F2406244D244C9
:101058004249B24905618280B747024023A6272149
:101068000945E5B7411126C206C622C4B747024062
:1010780083A4C72023A607200F10000097F0FA1FAB
:10108800E780002919E90145B2402244B7470240E8
:1010980023A69720924441018280B727002083A786
:1010A800C77C00458297B73700209387078263671C
:1010B800A402D843B74636FE938606C83305A44033
:1010C8003697E372E5FC13070064B335E50292270F
:1010D80081463305E502EFC0E16A7DB7D8433A940B
:1010E800C9BF4111B737002006C623AEA7800295B5
:1010F800B240B727002023A0A77A0145410182808A
:10110800914763E9B700B72700208A059387477B93
:10111800BE9588C18280B727002023AA077C37257F
:101128000020B7370020411123AE07805146B7276A
:10113800002081451305457B06C623A6077C22C4EB
:1011480026C23724002097F0FA1FE780E024130511
:10115800847813068002814597F0FA1FE780C02340
:10116800EFF04FDAB727002083C7D77E13048478BF
:10117800854513D527008D8B3E958D473305F502A0
:101188009947B734002039051375F50F28A03305A2
:10119800F5021305052497F0FA1FE78020EA23AC2F
:1011A800A4802DCD3020994781453306F6021306D9
:1011B800062497F0FA1FE780201E83A78481382031
:1011C800B7240020938707240A0723A8F47ABA973C
:1011D800372700202328F77CEFF0AFE939291C30A6
:1011E80083A6047B37160500139727003697130646
:1011F800468810C3138717001377F70F0A073716A7
:10120800050036971306669010C3138737008907C1
:1012180093F7F70F8A0718B0B69790C3B2402244E5
:1012280092444101828037270020130787781C33B6
:10123800342363FFD700B726002083A6067B1386D6
:10124800170010B313972700369708C33E8582808E
:101258009307F00FE5BF1C41F1CF41777D8FB706AB
:10126800002089476319D70C5A2171C7411126C23A
:101278001946AA849305F00F610506C622C497F0A3
:10128800FA1FE780602305478D47630FE5089C44F4
:1012980091C7985C994749CBD85C59C73724002037
:1012A8001306000481451305847D97F0FA1FE78033
:1012B800A00E13060004A6851305847D97F0FA1F77
:1012C800E780E0069307847DDA2701E7130700101B
:1012D800DAA7F82719E30547F8A79A2B19E36D470A
:1012E8009AABF83719E31547F8B7B82B19E3054750
:1012F800B8ABB83B19E3F837B8BBD82B19E3254787
:10130800D8ABF82801E71307C003F8ABDC5791C73F
:101318008297B72700202398A778B73700207D57F2
:10132800A386E7BACD3B8147B240224492443E852A
:101338004101828089473E85828001114AC8373938
:1013480000208327098206CE22CC26CA52C456C260
:101358004EC68297130A0064B33545031309098200
:10136800835A89008146568633054503EFC081417B
:10137800B727002013878778004FAA8401456306A2
:1013880094029389877833858440636E940003259B
:10139800490056868146B335AA023305AA02EFC032
:1013A800613E018D269523AC9900F2406244D244F7
:1013B8004249B249224A924A05618280011122CCEF
:1013C8002E84B7E506000A854146938505BD06CEFD
:1013D800EFC06174180806043A94B7370020035523
:1013E80004FF83D7A782F2406244AA9737450F00CB
:1013F800130505243355F50205618280B7370020AF
:1014080083D7A78251471D45637CF7027947194561
:101418006378F7021307200315456373F702130770
:10142800B0041145637EF700130740060D45637944
:10143800F7001307600909456374F70013B5B70F80
:101448008280011122CC06CE2A842EC6EFF04FD31B
:10145800B245F240818D33A5A502229562441375E9
:10146800F50F05618280011122CC06CE2A842EC692
:10147800EFF00FD1B245F240818D33A5A502229538
:1014880062444205418105618280011122CC06CE69
:101498002A842EC6EFF0CFCEB245F240818D33B507
:1014A800A5022295624405618280B737002023A8EF
:1014B800A7828280B72700201387877D585739CFA6
:1014C800411122C426C24AC006C61389877D0297E5
:1014D800B7270020138787781A272A849384877868
:1014E80005CBBA876373A700AA87C207C183BA86E8
:1014F8006373E400A286C206C182958F514763597F
:10150800F7008327090391C38297EF40F16282A411
:10151800B2402244924402494101828082800111F2
:1015280022CC372400209307847D9C5B06CEAA85B5
:101538001304847D81C72AC68297B245C9C19C41DC
:101548000545B5CBDC41A5CB9E25B5C7BE25A5C7AE
:10155800DC2589CB5C3813F737008983BA970947AC
:10156800634BF7043735002041461305058297F091
:10157800FA1FE780C0DBB737002083A6078237272A
:1015880000202326D77C78380DE3938707828A27A3
:101598009307805737460F003305F50213060624D4
:1015A80081468145EFC0011E68B83715050013054F
:1015B8002534053E0145F240624405618280B72723
:1015C8000020938787783717002023AE070013077A
:1015D8006798B737002023A0E782378732009387C0
:1015E8000782FD56130727A1D4C398C7238607008F
:1015F800B747024023A4D726BDBF011122CC372408
:1016080000209307847D884706CE26CA4AC801E988
:101618000545F2406244D244424905618280130480
:10162800847D1C5CF5D7585C65D77000854582972A
:101638001844B247E30EF7FC4A249305E004B724A4
:10164800002097F0FA1FE780609F1387847808D3FB
:101658009384847855DD52249305F00F014997F05F
:10166800FA1FE78060D37C249050634DF9003285DF
:1016780097F0FA1FE78080A9014523A0040223A25E
:10168800040241BF4E240844585CB387250389816E
:1016980005093E9508C20297F9B701114EC6B72948
:1016A80000209387897D9C4726CA4AC852C406CE23
:1016B80022CC56C25AC02A8AAE8432896388071E51
:1016C8009389897D03A78903630207121307F01F13
:1016D8006360A7123724002013078478832A07023F
:1016E8001304847863980A0803D5C900956593851F
:1016F80015E097F0FA1FE780609408D02A867DC528
:1017080083D5C90083A7890303A5890089818297A6
:1017180083A78900832A04025CD089476314FA08E6
:10172800C1476395F40C83D5C9009147938505FC9F
:10173800B3C5F5028A05D695B8219307A0056313AA
:10174800F70A9E216390470B4A852686910597F0F4
:10175800FA1FE780C0BD1C50568563915713014599
:10176800F2406244D2444249B249224A924A024B68
:10177800056182805850E382E7FA03D5C900956570
:10178800938525E097F0FA1FE780408BAA8A39CD28
:1017980083D5C9002A8683A7890303A5890089817F
:1017A8008297A5BF8D47631BFA00C1476390F40475
:1017B80083D5C900938545FDF199B5BF9147631855
:1017C800FA006395440383D5C900A115F5B79307BB
:1017D8000010631DFA00A14763EA970083D5C9008A
:1017E800C115D9BF1C505685639D570B29458DBF20
:1017F8009D6A637A5509930A05E01947B3CAEA0254
:1018080003D7C900372B0020B38AEA02BE9A930790
:101818008B78DC53130B8B786395570103240B02E9
:101828001DE003D5C9009305E00497F0FA1FE7808F
:10183800E0802A8445DD83D5C90083A789032A86E9
:1018480089815685829791451307A00589819397C9
:101858002500A297B4236391E6049623639C46036C
:1018680085058A052686A2954A8597F0FA1FE7809E
:1018780000AC83270B02E38487EE228597F0FA1FDA
:10188800E780C088E9BD21677917E361A7F6B30A45
:101898005541BDB7AC335DBF83270B02E38887F49E
:1018A800228597F0FA1FE780608689B7B72700205E
:1018B80083A5877A85DD91479306A00589831397C9
:1018C80027002E973023E313D6F21223631C460118
:1018D80085078A072686BE954A8597F0FA1FE7800E
:1018E80000A5B5BD3C33D9BFB72700209387877DB6
:1018F800984721C3D85F15CF8546631CD50241118F
:1019080022C43724002013048478105006C611CE50
:10191800CE27485089810297085097E0FA1FE78040
:10192800E07E2320040223220402B2402244410123
:1019380082808280011122CC372400209307847D85
:1019480056C283AA870026CA4AC84EC606CE52C4C3
:101958002A89AE84B2891304847D638D0A1A5C5C7B
:1019680099EB2945F2406244D2444249B249224A9D
:10197800924A056182801C5CEDD79307F01F63E1F2
:10198800A70C372A002093078A789C53130A8A7871
:10199800A9C7084483274A02639CA704894763139D
:1019A800F906C147E39FF4FA4A249147130505FC59
:1019B8003345F5029317250003250A022686CE85AE
:1019C8003E959307A0053CA123102501110597F02A
:1019D800FA1FE780C095014571B74A249305E004D2
:1019E80097E0FA1FE78080652320AA025DF195BF82
:1019F8004E241C5C03260A02898182971C442322F8
:101A0800FA0269BF8D47631BF900C147E39BF4F4F1
:101A18004A24130545FD9377C5FF79BF914763179E
:101A2800F900E39024F54A242115F5B7930700102F
:101A3800E319F9F2A147E3E697F24A244115E1BF19
:101A48009D676375F506930705E01947B3C7E70275
:101A58005A24372A0020B387E702BE9A93078A7868
:101A68009C53130A8A78B1CB83274A02639257079B
:101A780003250A0291461308A0059305F00F93D792
:101A88002600139727002A973023631206078358E6
:101A98000700303363992805B306D64063C496041B
:101AA80085078A072686CE853E9515B7216779175B
:101AB800E369A7EAB307F54061BF4A249305E00448
:101AC80097E0FA1FE78080572320AA0251FD51BDF5
:101AD8004E241C5C03260A0289815685829723229C
:101AE8005A0379B70EA393160601C18249BF52243F
:101AF800B38596009105130606FCE3F4C5E6138644
:101B08003400719A1106B2962301070123102701A8
:101B180034B379B7372A002093078A789C53130A7D
:101B28008A7895CF03250A0291461308A0059305E4
:101B3800F00F93D72600139727002A9730236310B6
:101B4800060583580700303363972801B306D6404B
:101B5800E3D896F40EA393160601C182D9BF682470
:101B68005E249305E0043305F5024205418197E0C0
:101B7800FA1FE780A04C2320AA024DF5DDB35224BA
:101B88006C24B385C502338696001106E3EBC5DCE9
:101B9800BDB7014582809C211CA1BE211CB1BE217C
:101BA800A1833CA1DC213CB111458280B7270020EC
:101BB80023A60750B727002023A4075082800DCD05
:101BC800411126C206C622C4AA8401458DC12E84AD
:101BD800B7E5060022854146938505BE97E0FA1FC2
:101BE800E780E0749C2005455CA49C305CB4B2405E
:101BF800224492444101828001458280011122CC15
:101C080026CA06CE0947AA8432846381E504414680
:101C18008147639BC500638FE6006397B6000DA8F4
:101C280041478147638EE600F2406244D2443E85D4
:101C3800056182808A852285593741468A8519A897
:101C48008A85B53F41468A85228531A0E39AB6FC4C
:101C58002E86A285268597E0FA1FE780407EAA8710
:101C6800E1B7B727002023A4A7508280B727002018
:101C780023A6A7508280011122CC622106CE26CA53
:101C88004AC84EC62DCC83298500AE842A8803C94C
:101C98000900814713178901618763550702B14716
:101CA800054563F787045114420403552800418011
:101CB80033878900A2864E868545EFA0C020B337BA
:101CC800A00085077D14135569004204058913791E
:101CD800F90341809CA088B023812401C2A0014758
:101CE80019C01387190098C409476383E7000145A1
:101CF800F2406244D2444249B249056182800545B6
:101D0800C5BFC167F917630AF502D94763F7B70278
:101D1800011122CC2EC606CE2A84EF701028B245B7
:101D28006368B50022856244F24005616F90A0198E
:101D3800F240624405450561828005458280C1679D
:101D4800F9176314F5006F705025411106C6EF901E
:101D5800000611E15D45B240410182809147639DD3
:101D6800F5001C211CA23C211831A207D98F3EA2E4
:101D78003C3101455CA28280114582804111814538
:101D880022C426C206C6AA84BD232A8409E9B72725
:101D9800002083A7875081C7F94526858297228529
:101DA800B240224492444101828039714ED656D2C3
:101DB8005AD006DE22DC26DA4AD852D4AA8A2E8BDA
:101DC800B28951EB36C6A53F9145EF70B02BAA8476
:101DD8004D493DC5B246054A238034010544630A8E
:101DE8000B00B68513851400029B05051314050125
:101DF8004180E20993D9894163D30902C1455685D7
:101E0800EF904009654915E533868400A28526854B
:101E1800EF90505D2A8911ED3104420441809147C9
:101E28002C085685FC8426CEE085EF8010222A896E
:101E380001C963070A00268597E0FA1FE780002D8D
:101E4800F25062544A85D2544259B259225A925A8F
:101E5800025B21618280BA84014ABDBF011122CC94
:101E680026CA4AC84EC606CE2A893284B689353F64
:101E7800AA840DE1B727002083A7C75081CF054763
:101E88006317E40003C4090005041374F40FA28562
:101E98004A858297F240624426854249D244B24933
:101EA80005618280AE86B725050001470546938502
:101EB800E5B96DB79E211CA19E21A1831CB10945DE
:101EC80082809E211CA19E21A1831CB1BE213CA120
:101ED800BE21A1833CB1114582809E211CA19E2177
:101EE800A1831CB1BE213CA1BE21A1833CB1DC3140
:101EF8005CA1FC215CB18A251905420541818280DB
:101F08009E211CA19E21A1831CB1094582809E218E
:101F18001CA19E21A1831CB1BE213CA1BE21A1838D
:101F28003CB111458280CA21060542054181828063
:101F38009E211CA19E21A1831CB1AA21090542054D
:101F4800418182809E211CA19E21A1831CB1BE21BA
:101F58003CA1BE21A1833CB1CA21110542054181A2
:101F680082809C211CA1054582809E21411122C4AA
:101F780006C61CA19E212E841105A183A30EF5FE81
:101F8800BE219505230FF5FE83D7D5FFA183A30FA7
:101F9800F5FE03C6F5FF97E0FA1FE78040394820B1
:101FA800B240224411054101828089476399F500B6
:101FB8001C3118210145A207D98F1EA28280114524
:101FC80082809A21D94763FDE702011122CC06CE0F
:101FD8002EC62A84EF70607CB2469E22636DF5009F
:101FE80022856244F240B7250500014709469385DA
:101FF800C5EB05615DBBF24062440945056182801D
:1020080009458280914785C51421FD15C20585477C
:10201800C1816390F60213D725008D89914781E924
:10202800914711C7050534A21AA248C281473E85C7
:10203800828009479147E39CE6FEC94733D7F502FA
:10204800B3F5F502E1BFAE86B72505000147114695
:102058009385A5EC99BB93F7350089EB8981914766
:1020680081C50EA248C281473E8582809147EDBF57
:10207800D8218947631CF702011122CC2A84C8455C
:1020880006CEAE86014709C92EC69D4597E0FA1FC0
:10209800E7800015B2462A8722856244F240B725B8
:1020A80005001946938525EE056101B3094582802F
:1020B80099E1114582801C2105473EA2E37BF7FE8A
:1020C800FD1593F5F50F33D7F502B387E702E392D1
:1020D800F5FE050548C21AA201458280DC210947A0
:1020E800AE866385E70041476399E700B725050099
:1020F80001472146938525F74DB9094582800EA2EF
:1021080091E1014548C201458280AE86B7250500A8
:1021180001472946938585F049B90EA291E1014509
:1021280048C201458280AE86B72505000147314681
:10213800938565F19DB90EA291E1014548C201451B
:102148008280DA21854763FFE702011122CC2A84C5
:10215800884106CE1DC12EC6854597E0FA1FE78047
:1021680020082A8722856244B246F240B725050036
:1021780039469385E5F205610DB9F2406244094597
:102188000561828009458280914785C518218D4661
:10219800914763F0E602FD15C205C181B3C6E502A9
:1021A8003308D70263970501050516A23AA248C26B
:1021B80081473E858280DC210947AE866385E7003A
:1021C80041476399E700B7250500014741469385D4
:1021D80025F7E1BE09458280B335B0001395250087
:1021E8008280011122CC26CA06CE98258547AA846A
:1021F8002E844946631FF70099363E204915130679
:10220800200963C8A700F2406244D2440945056129
:102218008280183485476314F70013660604484023
:1022280001C98D4532C697E0FA1FE78060FB324648
:10223800A2866244F2402A872685D244B725050043
:10224800938585F3056195B68D4763F8B7021C3110
:102258001821F115A207D98F1EA23C313821C205D9
:10226800A207C181D98F3EA24EA289C5110508C611
:102278000145828023240600E5BF114582800111B3
:1022880022CC2A84884506CEAE8601C92EC695453D
:1022980097E0FA1FE780C0F4B2462A872285624495
:1022A800F240B725050059469385C5F40561F5BC8C
:1022B800B335B000139525008280AE86B72505009A
:1022C800014761469385A5F6CDB48547114563F06E
:1022D800D7021C320C22A207CD8F1EA39387E6FFDC
:1022E8003EA389476386F600090650C301458280EC
:1022F80023220700E5BF014781467946814575B429
:102308009E211CA19E21A1831CB109458280BC216C
:1023180005471CA18A216397E7000A0505054205C0
:1023280041818280C9473305F502CDBF8A210A055C
:10233800420541818280BE211CA18A21BE2133052C
:10234800F50205054205418182808A2182808A2121
:1023580082808A218280BE211CA18A21BE21330568
:10236800F50205054205418182809E211CA19E211E
:10237800A1831CB1BE213CA1BE21A1833CB1CA21CD
:1023880011054205418182809E211CA19E21A183C5
:102398001CB1AA210905420541818280894711455E
:1023A8006398F6001C3214220145A207D58F1EA39C
:1023B80082809A21D947AE8663F9E700B7250500E0
:1023C80001470D469385853051BC094582801145EA
:1023D800639DA6001C3214220145A207D58F1EA3B7
:1023E8003C323422A207D58F3EA38280BC21054708
:1023F800FD1793F7F70F6361F7049E2195CF01113D
:1024080022CC2A84C84106CE1DC12EC6894597E034
:10241800FA1FE780E0DC2A8722856244B246F24050
:10242800B7250500154693856531056105BCF24061
:1024380062440945056182800945828095471145B6
:1024480063F1D706411122C426C24AC006C61C320F
:10245800BA841822A2073284D98F9EA03C3238222F
:1024680093054400A207D98FBEA08947DCA009467E
:1024780013855400368997E0FA1FE78040EB9307ED
:10248800A9FF9EA49947631BF90023A60400B24044
:102498002244924402490145410182801904C0C482
:1024A800FDB782809E2195CF011122CC2A84C84194
:1024B80006CE1DC12EC6854597E0FA1FE78040D29B
:1024C8002A8722856244B246F240B72505001D4698
:1024D80093854533056159B2F24062440945056167
:1024E8008280094582809947639DF6028947411198
:1024F80006C65CA31C321422B285A207D58F1EA380
:102508003C3234225023A207D58F130557003EA32F
:10251800910597E0FA1FE78080E1B240014541014B
:102528008280D14711456394F600C147C9B78280BC
:102538009E219DCF011122CC2A84C84106CE05C513
:102548002EC6894597E0FA1FE78080C92A87228529
:102558006244B246F240B725050025469385E53327
:1025680005616FF0BF8FF2406244094505618280C2
:1025780009458280894711456398F6001C32142268
:102588000145A207D58F1EA38280011122CC2A847F
:10259800C84106CEAE86014709C92EC6854597E0D3
:1025A800FA1FE780E0C3B2462A8722856244F240D8
:1025B800B72505002D469385253505616FF01F8ADF
:1025C8001145639DA6001C3214220145A207D58F30
:1025D8001EA33C323422A207D58F3EA3828001116C
:1025E80022CC2A84C84106CEAE8601C92EC68545AE
:1025F80097E0FA1FE780C0BEB2462A872285624468
:10260800F240B725050035469385653505616FF0BD
:10261800FF8493F71600114581EB89476386F6001E
:10262800858256A310C301458280011122CC2A84D9
:10263800C84106CE05C52EC6854597E0FA1FE78036
:1026480020BA2A8722856244B246F240B72505009F
:102658003D469385A53505616FF05F80F240624481
:102668000945056182809E219DCF011122CC2A84D3
:10267800C84106CE05C52EC6894597E0FA1FE780F2
:1026880020B62A8722856244B246F240B725050063
:1026980045469385E53505616FF04FFCF24062448D
:1026A80009450561828009458280854763F6D7021E
:1026B80008A70CB71C320C22A207CD8F1EA3938744
:1026C800E6FF3EA389476386F600090650C3014525
:1026D800828023220700E5BF114582800147814699
:1026E8004D4681456FF08FF78D47114563F4D7024A
:1026F8001C320C22A207CD8F1EA33C322C22A2072B
:10270800CD8F3EA39387C6FF5EA36386A6001106FE
:1027180010C70145828023240700E5BF011122CCA0
:102728002A84884506CEAE8601C92EC6954597E00F
:10273800FA1FE780E0AAB2462A8722856244F2405F
:10274800B72505005D469385253705616FF00FF1C4
:10275800854711456395F6001C2201451CA382801C
:1027680001478146654681456FF04FEF011122CC44
:102778002A84C84106CEAE86014709C92EC68D45B2
:1027880097E0FA1FE780C0A5B2462A8722856244EF
:10279800F240B72505006D469385053905616FF050
:1027A800CFE0011122CC2A84C84106CEAE8601476B
:1027B80009C92EC68D4597E0FA1FE78060A2B24688
:1027C8002A8722856244F240B7250500754693851D
:1027D800053905616FF06FDD011106CE2EC6EF8059
:1027E800205919C5B245F2402A2105616FC0402D14
:1027F800F240494505618280B7270020A38C075223
:10280800B7270020238C0752B727002023A00752A0
:10281800B727002023A20752B727002023A4075276
:10282800B727002023A60752B727002023AE07505A
:10283800B727002023AC0750B7370020239A078416
:102848001306403893874785B2B371761307400B58
:10285800130606B8BAA3D2B311671D46930600053E
:102868009305000A1305007DDAA3F2B34147054634
:10287800130810F8BAA7DAA7BAABDAABFAAB9AAF73
:102888009AB723960703EEA38EA7F6A796ABAAAF2F
:10289800239E0700239F070023900702B2B72397C0
:1028A80007021308F007239807022392E7042393EB
:1028B800E704239FE7042390E7062391E706239282
:1028C800E706239907031307C01CD2BBF2BB239C5E
:1028D8000702239D0702239E0702239F07022390D6
:1028E80007042391C7042394070423950704239618
:1028F800C7042397D7042398D7042399A704239AB6
:102908000704239B0704239C0704239DD704239EC5
:10291800D7042393A706239407062395070623962F
:1029280007062397B7062398B70623990706239A1D
:10293800E7067D57239B070623900708239107087E
:102948002392E7088280011126CAAA84214522CC55
:1029580006CE2E8432C636C43AC297E0FA1FE78004
:10296800408D0DC5A24612473246930700FD1CA1B3
:10297800994704B13CA174A178B152A1AA852285D6
:102988006244F240D24405616FD09FE5F240624450
:10299800D24405618280B727002023A4A7528280F1
:1029A800B727002023A6A7528280011122CC4AC84B
:1029B80006CE26CA2A890144B30489006368B40094
:1029C800F2406244D2444249056182802EC6EFD06B
:1029D8003FFB93170501C183A183B2459CA09307D0
:1029E800140093F7F70F850463F8B700CA97090432
:1029F80088A31374F40FC9B73E84C9B7411122C420
:102A080037340020130444836A20C16706C6FD17C3
:102A1800630EF500B737002003C68797B725002057
:102A280093850553EF800018FD577EA0B2402244DD
:102A38004101828009C925151375F50F1335850ED7
:102A48001345150082800145828023900500C1C688
:102A5800797122D426D24ECE52CC5AC806D64AD044
:102A680056CA5EC63684328AAE892A8B814463F29E
:102A78004407B30794009C23138914004209939ACE
:102A8800070193DA0A011359090163840A04CA97F2
:102A98006341FA04B307240183CB07005E85593FDD
:102AA8000DC99387FAFF2390F90063906B03130510
:102AB80019002295B250225492540259F249624A9E
:102AC800D24A424BB24B45618280D694C204C1803F
:102AD80079BF0145C5B701458280011122CC373441
:102AE800002026CA4AC84EC69307448306CE2E89BC
:102AF800D0CB8CCBC8C7AA8441469305F00F4A8532
:102B080097E0FA1FE780409B8549130444836319C3
:102B180035030848C145513D41469305F00F2685C8
:102B280097E0FA1FE7804099054963152503484453
:102B38006244F240D2444249B249C1450561B5B543
:102B4800414681454A8597E0FA1FE780E096E315FC
:102B580035FDC1B741468145268597E0FA1FE780D4
:102B6800A095E30625FDF2406244D2444249B249A9
:102B780005618280411122C43734002026C24AC030
:102B8800AE842A891306000281451305448306C6CC
:102B980097E0FA1FE780408093074483A3812701C9
:102BA800B7370020238E9796EFB0D073854719C1A9
:102BB80081474945230AF482B2402244924402499B
:102BC80041018280814791C909C985476319F50088
:102BD800DC3193E707FCDCB185473E858280894775
:102BE8006316F500DC3193F7F703F5B70D47854712
:102BF800E315E5FED8311377F70313670704D8B157
:102C0800E9BF814785C119CDD8319306000C8547A6
:102C18001377070C6308D700930600048D476303F6
:102C2800D70089473E858280411122C4005D06C6CF
:102C380026C21DC8AA84085009C597D0FA1FE78084
:102C4800E04C485009C597D0FA1FE780204C08543B
:102C580009C597D0FA1FE780604B228597D0FA1FE5
:102C6800E780C04A23AC0402B240224492444101A6
:102C7800828019E9B737002083C7678391C7372552
:102C88000020130505518280373500201305C584BF
:102C98008280B737002003C567838280B73700205A
:102CA80003A507848280B737002003A54784828064
:102CB800B737002083A7878488438280B7370020EE
:102CC80093874783D44B9842050798C2A833930744
:102CD800F00F6305F50091656FD0BFE482800111A4
:102CE80022CC06CE2E8432C6EF8020199147B245F9
:102CF8006310F502B727002083A7C75295C303A323
:102D08000700630F030022856244F24005610283D5
:102D1800B727002083A7475281C703A34700D5B729
:102D2800F2406244054505618280011122CC2A8463
:102D38004A2106CE26CA4AC84EC697E0FA1FE7803F
:102D480020D52DC52A8904218349C500F13D4A852E
:102D5800EF80E0504A20EF80800D372900201309CA
:102D6800895383470900B9C763969704B72700209A
:102D780083C5975326858D3419E1230009004A201D
:102D8800EF80A00F9147631CF500B73700209387A9
:102D980047835620FA236394E6007D57FAA3F2404E
:102DA8006244D2444249B249056182808149930410
:102DB800F00F65B79307F00FE383F4FC74205220FB
:102DC80028204E87A68541365DBF79715EC6AA8BDD
:102DD8002E8552CC56CA5AC806D622D426D24AD0F4
:102DE8004ECEAE8A328B368A97E0FA1FE78040CA09
:102DF8007DC1045D2A89E5C09C50614599C31305CE
:102E080040039C5481C751054205418163050A006E
:102E1800710542054181DC5081C75D05420541814C
:102E280097D0FA1FE780E0402A8455C5614681455E
:102E380097D0FA1FE7804056B737002083C94788E4
:102E48006394090083490900930700FD1CA0A94762
:102E5800A30074013CA0230364018C502312540185
:102E68001305840191C908C47146930A440397D095
:102E7800FA1FE780C04B56858C5491C948C4514607
:102E8800930A450197D0FA1FE780604A5685630C7C
:102E98000A0008C87146D285930AC50197D0FA1F5F
:102EA800E780E0485685CC5099C548C85D4697D01C
:102EB800FA1FE780C047A2854E85EFD07F92225443
:102EC800B2509254F249624AD24A424BB24B4A85B6
:102ED8000259456191BBB250225492540259F249A9
:102EE800624AD24A424BB24B4561828001114EC6BA
:102EF800AA892E854AC806CE22CC26CA2E8997E0F2
:102F0800FA1FE780E0B839C5B737002083C447887F
:102F180091E00421194597D0FA1FE78080312A846F
:102F280015C98145194697D0FA1FE780E0469307EF
:102F380000FD1CA0B947A30034013CA023122401C2
:102F4800A2856244F2404249B2492685D2440561CD
:102F58006FD01F89F2406244D2444249B2490561A8
:102F6800828039715ECEAA8B2E8526DA4ED652D44F
:102F780056D25AD006DE22DC4AD8AE84328BB68AC4
:102F88003A8ABE8942C697E0FA1FE78060B039C91D
:102F98002A89414597D0FA1FE780A0292A8439C198
:102FA8004146814597D0FA1FE780003FB737002098
:102FB80003C5478819E103450900930700FD1CA0D4
:102FC800BD473CA0B247A300740146A02304640196
:102FD800A304540123054401A30534015CC4A2855C
:102FE800EFD01F80F2506254D2544259B259225A3B
:102FF800925A025BF24B21618280797126D2AA84AF
:1030080039454AD04ECE06D622D42EC6B289368944
:1030180097D0FA1FE780E0210DCDB2459307000D48
:103028001EA1B1472A844EA13CA1CE851905194697
:1030380097D0FA1FE780A02F23062401A2852254E7
:10304800B2500259F24913F5F40F925445616FD00A
:103058002FF9B250225492540259F24945618280A4
:10306800411126C2B734002093844483B83006C681
:1030780022C44AC09307F00F6308F7042A89394528
:1030880097D0FA1FE780E01A2A841DCD930700FD28
:10309800B73500201CA1A300250123010500938555
:1030A800C5840D05194697D0FA1FE78040289E244D
:1030B800A285A8303EA49C305CA42244B24092442D
:1030C800024941016FD0CFF1B240224492440249F3
:1030D8004101828001115AC02A8B314526CA4EC649
:1030E80052C456C206CE22CC4AC8AE84B28A368AA8
:1030F800BA8997D0FA1FE780C0132DCD2A84268578
:1031080097E0FA1FE780C09809C55825A1476311C1
:10311800F704B737002003C97783930700FD1CA085
:103128009D47A30064013CA046A023135401231427
:10313800440123153401A2856244F240D244B249C5
:10314800224A924A024B4A85424905616FD04FE9AB
:10315800B737002003C9D797E3110BFCB727002026
:1031680083A7075E9C47D5DBCE865286D685268503
:10317800829765B7F2406244D2444249B249224A32
:10318800924A024B05618280011122CC2A84214592
:1031980006CE2EC697D0FA1FE780A00915C5B245FE
:1031A800930700FD1CA1C5473CA1BC313CB1DE2101
:1031B8005EA1FC217CA1FC31AA857CB122856244F8
:1031C800F24005616FD0CFE1F24062440561828030
:1031D80001114AC82A89614526CA4EC606CE22CCA4
:1031E800AE89B28497D0FA1FE780A00425C193075F
:1031F80000FD1CA1BC302A84938584001CB195472E
:103208003CA1FC3011051946A30FF5FE97D0FA1F13
:10321800E780E011DE2023063401A2853EA4BE2CFF
:103228004A857EA4DE2C1EA8FE2C3EA883C7040275
:103238005CA883C714025CB8BE30F240D2447EA8B2
:1032480062444249B24905616FD08FD9F240624465
:10325800D2444249B24905618280411122C43734BF
:103268000020130444833C2006C626C285CBB7241D
:103278000020AA8519461385045197D0FA1FE780C4
:10328800000B282093850451EFF0DF932244B240CD
:1032980013850451924441016FB09005B240224415
:1032A8009244014541018280411126C2B734002071
:1032B8009387448306C622C44AC0B8339307F00FE5
:1032C800938444836301F7042A89294597D0FA1F18
:1032D800E78020F62A8405C9930700FD1CA1A147B1
:1032E800A30025013CA1BC20B725002093850551EA
:1032F8003CB11946110597D0FA1FE7804003A83062
:10330800A285EFD0EFCDB8208D476311F702B7271C
:10331800002083A7875299CB03A387006308030083
:103328002244B2409244024941010283B2402244FD
:103338009244024941018280797122D406D626D26C
:103348004AD04ECE52CC56CA09444DCD2A890A21BC
:10335800AE89514497D0FA1FE7808073AA845DC173
:103368003737002093078797DC238546BA8AFD17ED
:1033780093F7F70F494463F7F6085825A1476314F4
:10338800F700639109089C5C4544ADEF916593850E
:1033980045711305C00297D0FA1FE78020CA88DC60
:1033A8002A8A4D4425C11306C002814597D0FA1FC9
:1033B800E78080FE8357090093064A00368523116B
:1033C800FA0071469305490036C697D0FA1FE78080
:1033D80000F689472300FA00C824B24603560900BC
:1033E80083C58A97611513351500EF8070212A84EB
:1033F80063860900CE852685EF80401401C42685A2
:10340800EFF09F822285B250225492540259F24919
:10341800624AD24A45618280B737002083C7C7977E
:103428000547FD1793F7F70F6377F708894749C6EC
:10343800011122CC26CA4AC84EC652C406CEAA8951
:10344800368AB2842E8997D0FA1FE78060642A846E
:10345800D14731C5485509C597D0FA1FE78000CB39
:10346800F145268597D0FA1FE780A0F848D4CD47C4
:103478001DC5542421478147639DE600630B0A005C
:10348800382D122993062501AA854E85EF806011F3
:10349800AA875820630E09001367670058A0F240F6
:1034A8006244D2444249B249224A3E85056182803B
:1034B80013674700E5B7C9473E8582809307100424
:1034C80063EAA700B73700209387478506053E952E
:1034D8000A21828041657D158280011122CC2A84CF
:1034E8002E8526CA06CEAE8497D0FA1FE780405AAA
:1034F8000DCDB7470F009387F723094563E287028D
:1035080081450A85414697D0FA1FE780E0E8A685FD
:1035180060800A8541804081A3010100EF80E07A44
:10352800F2406244D244056182804945D5BFB7372D
:103538000020238DA79682806F80F006797152CC87
:103548002A8A328522D426D24AD04ECE56CA5AC8A2
:103558005EC606D662C4AE8BB28A368BBA843E8902
:10356800C289468497D0FA1FE78080520DC92A8CF9
:1035780063130A0213774B005C2115CF93E72701E9
:103588002302FC008DEC631C0902639A090205E81A
:10359800ED9B2302FC00832B8C0363910B08B25034
:1035A800225492540259F249624AD24A424BB24BCF
:1035B800224C45618280F59B93E70701D1B793E7D9
:1035C80047002302FC0001CC1C484146A285232465
:1035D800FC0213058C0197D0FA1FE78040D563934E
:1035E8000B02D5D80325CC0209C597D0FA1FE7806E
:1035F800E0B1F145268597D0FA1FE78080DF2326C2
:10360800AC0251BFE30909F80325CC0209C597D0DC
:10361800FA1FE780A0AFF1454A85F1BF9DC483A793
:103628000B0299EB916593853571714597D0FA1F17
:10363800E780C0A023A0AB0203A50B0219C5714601
:10364800A68597D0FA1FE78080CE6388090283A7F2
:103658004B0299EB9165938525715D4597D0FA1FCB
:10366800E780C09D23A2AB0203A54B0219C55D46A6
:10367800CE8597D0FA1FE78080CB1DC483A78B0225
:1036880099EB916593851571514597D0FA1FE7809D
:10369800E09A23A4AB0203A58B0219C55146A28563
:1036A80097D0FA1FE780A0C82254B2509254F2492A
:1036B800B24B224CCA865A860259424BD68552854D
:1036C800D24A624A45616FF04FF0011126CA52C4CE
:1036D80006CE22CC4AC84EC62A8AAE8497D0FA1F94
:1036E800E780003B35C1AA89394597D0FA1FE780A2
:1036F80040B42A8431C9B737002003C94788631406
:10370800090003C909009307000D1EA0AD473CA09E
:103718009385690013053400194697D0FA1FE7808E
:1037280000C193F71400858085885CA444B42315F0
:103738004401A2856244F240D244B249224A4A85F1
:10374800424905616FD0CF89F2406244D244424970
:10375800B249224A0561828001114EC652C456C23E
:1037680006CE22CC26CA4AC8AA8A2E8AB28997D0FF
:10377800FA1FE780E0312DCD2A891305C00297D0C2
:10378800FA1FE78000AB2A8425C5B737002083C419
:10379800478899E0834409009307000D1EA0E94774
:1037A8003CA09305690013053400194697D0FA1F09
:1037B800E780E0B7D285231554011305C4004146BC
:1037C80097D0FA1FE780A0B6CE851305C4014146FD
:1037D80097D0FA1FE780A0B5A2856244F24042491B
:1037E800B249224A924A2685D24405616FC05FFFDA
:1037F800F2406244D2444249B249224A924A05619F
:103808008280411122C437240020130484510840C7
:1038180006C619C597D0FA1FE780408F23200400F9
:10382800B240224441018280011106CE22CC26CA30
:103838004AC82EC697D0FA1FE780802531CDB245F9
:10384800B737002003C947880CD5AA846314090038
:1038580003490500414597D0FA1FE780809D2A84D7
:1038680005CD9307000D1EA1A5473CA1DC3093852B
:1038780064001105A30FF5FE194697D0FA1FE780DB
:1038880000AB9C54A285F2405CC46244D2444A8591
:10389800424905616FC0DFF4F2406244D2444249B4
:1038A800056182801D71A2CC86CE2A842EC697D04F
:1038B800FA1FE780E01D15C954251147AA87494515
:1038C8006391E6029C5FB24591C3EC2BB7D6050025
:1038D8002308B1009386C6C9100889452285EF7070
:1038E800103DF6406644256182805145DDBFB737FB
:1038F800002083C7C7970547FD1793F7F70F637A2B
:10390800F704894721CA411122C426C24AC006C603
:10391800B2842E8997D0FA1FE78080172A84D1476E
:1039280015C1630609005C2193E727005CA14146A5
:10393800A6851305840197D0FA1FE780409F9C480D
:103948001CD48147B2402244924402493E85410139
:103958008280C9473E858280797122D406D62A841E
:103968002EC697D0FA1FE780A01201CDB245228556
:10397800230EB1006C08EF701039B2502254456123
:1039880082805145DDBF6F702044C1671387E7FF10
:103998006395E502B727002083A7475291EB494575
:1039A80082804945B24022449244024941018280C2
:1039B80003A30700E30503FE0283411122C426C2C4
:1039C8004AC006C6FD172A892E84B284639AF50276
:1039D800B727002083A7475291CF9C4381CF829776
:1039E80011E9B7270020238C2753B7270020A38C81
:1039F80097524DBFA6854A85EFE01FDE45F5D5B73E
:103A08002E8597D0FA1FE780A00841DD1C210D45BF
:103A1800E39A27F922852244B2400249A6859244B6
:103A280041016FB0E0099307100463E1A706411153
:103A3800C16722C406C626C2FD172A8409456381C8
:103A4800F502C547AE846312F4022E85EFB0800EEE
:103A5800373500201305458506042A9406A001453C
:103A6800B24022449244410182809307A003631626
:103A7800F4002E85EFB08005E1BF9307B003E3198A
:103A8800F4FC13F5F50FEFB0A004D9B7094582800F
:103A9800011106CE2AC6EFE03FD6EF10401BEF908B
:103AA800E16FB737002093874783130700F0BAA365
:103AB80023820700B7370020324513878797FD56C2
:103AC80034A3F240238CA796954505616F50305674
