:020000024000BC
:10E000006FF0A15A00000000001801180028012834
:10E0100002280328002901290229032904290529A6
:10E02000062907290829002A012A022A032A042A84
:10E03000052AA62A6CDD06003808050042040020E7
:10E04000BC040020CA0300209C03002032030020EF
:10E05000DA0905001A0A0500B80B0500380E05009C
:10E060001C0F0500980605004A0605008C020020DA
:10E0700036020020D6130500D0070020B0090500A5
:10E08000DE1005008896060068980600D298060003
:10E09000DC5A0600145B0600141406004A09060048
:10E0A0000A9106000E1105000A610600AEAC0500DB
:10E0B0003EAD050098AD0500EE1B05002C1C0500CB
:10E0C000AC1A0500186F05003C6A0500480A0020DC
:10E0D0004E7B0500B47E0500705D0500145D0500F3
:10E0E000D2600500BC5D0500F45C05006A5D0500BA
:10E0F000AA5C0500345E05008C5E05003C5E0500F0
:10E10000405E0500D65E0500945E0500C45E050015
:10E110007E63050082630500305E0500385E050001
:10E12000D45E050080630500825F0500DA640500A7
:10E130000E8C0500828C0500BC8C05006471050006
:10E1400078710500AC7105009C520500C2540500B1
:10E150009E550500D63805006C330500AA49050018
:10E16000E83305002845050052BF0600FEB706004B
:10E17000C0BC0600C4D10600B0D006001ED4060004
:10E180000ED4060016D4060058D4060056AA06007F
:10E19000000000000000000000000000000000007F
:10E1A000C8D40600B6CE060054CE0600000000001B
:10E1B000000000000000000000000000000000005F
:10E1C000E87906000E690600646C06004C6A0600D9
:10E1D0002674060062910600000000008AAA06006C
:10E1E0004A150500245B0600EA600600E2610600AD
:10E1F000000000000000000000000000287505007D
:10E200002679060000000000000000000000000069
:10E21000BE680600BA090020905B060044D40600E0
:10E22000000000000000000012D40600C20D05002E
:10E230009C7205004CD40600D47B0600387D060095
:10E24000A47D0600FEBC060048D4060050D406009B
:10E25000D608060054D40600EA190020EC2200205B
:10E2600000000000000000000000000000000000AE
:10E27000000000000000000000000000000000009E
:10E280006373B60082801C419105110523AEF5FE33
:10E29000C5BFB7270020373700209387073B1307F8
:10E2A000C7A76373F700828023A007009107D5BF3B
:10E2B000411122C4B747024006C603A4C72023A6C3
:10E2C00007200F10000011C199E5B747024023A6AF
:10E2D0008720014545A093073500C207C183F19B04
:10E2E000C207C183130740036366F7023727002084
:10E2F0000325076337270020832687626391A602E0
:10E30000372700200327C76B69D3C207DD8D05457A
:10E31000029765BF372700200325C762E1BF7A2136
:10E3200031EF5A21636CF704B72600203306F7401B
:10E330002148938686636375C8028328050003D845
:10E340006600138687001D8F2A9661175AA2232024
:10E3500016012313060010C15EA1130788FFFAA25D
:10E360006EA1EE222105B387F540FEA2B747024019
:10E3700023A68720B2402244410182800841BDBFCC
:10E38000B747024003A8C72023A607200F100000AC
:10E3900001E523A607218280B727002003AE07638B
:10E3A000B727002003A387628146F28763FE6708D0
:10E3B00083A80700636DF50863EBA808138787003F
:10E3C0006364E508F223216705076319E600372631
:10E3D00000200347064505072308E64437260020AA
:10E3E00013058663CE237A212393070013068663E1
:10E3F0002E97420741837AA16383C7033725002004
:10E400000325C562630DF500EA2211E9DE2223A08F
:10E4100016012107BE95A105CEA27AA2B687984320
:10E4200063046702B726002083A6C662630ED70086
:10E43000762399EAD6234E231843A106AE96D6A397
:10E4400098C37E22A1077EA2B747024099B7BE8635
:10E45000C687A9BFB7270020B726002083A7076378
:10E4600003A686622A87B305B5406314F6003A8591
:10E4700029A8938687009C43E369D7FEE377F7FEDC
:10E480002E85E3E4D5FEE3F2F5FE828023AC05FEA3
:10E490001C4181E70CC18280BA8703A787FF6DFF0B
:10E4A00023ACB7FE8280411126C24AC0B744024065
:10E4B00006C622C403A9C42023A604200F1000000E
:10E4C00009E923A62421B240224492440249410191
:10E4D00082802A842105BD654205C18D4181C93BE9
:10E4E00011C9FD572320050042A17CA123A62421A8
:10E4F0002105D1BF23A624210145F1B701114AC846
:10E500004EC6B747024006CE22CC26CA83A9C720F2
:10E510002A8923A607200F10000037250020032496
:10E5200045638144014609E889ECA1654A85971055
:10E5300005E0E780A0B725A08347E4FF639D27039C
:10E54000A1C0A68513054563970005E0E780403527
:10E5500069DCA1654A85970005E0E780406FF240DD
:10E560006244B747024023A6372126854249D24458
:10E57000B2490561828091E02286032484FF65B759
:10E58000A284E5BFB727002083A7476899E33E85AB
:10E590008280BA236315B7009823E30AA7FEDC47FD
:10E5A000F5B7B747024003A7C72023A607200F10DF
:10E5B000000001C599C1814711E6B747024023A673
:10E5C000E7208280B386F50003C80600B306F50095
:10E5D000850723800601E317F6FEC5B737470240DB
:10E5E0008327C720232607200F10000019C191C1DF
:10E5F00011E6374702402326F7208280910503A7C2
:10E60000C5FF11057D16232EE5FEDDB73747024015
:10E610008327C720232607200F10000001C53307DA
:10E62000C50011E6374702402326F7208280050502
:10E63000A30FB5FEE31DE5FEF5B7B747024083A67D
:10E64000C72023A607200F10000081473307F500DD
:10E650000307070019E7374702402326D7203E85E6
:10E6600082808507E5B7011126CA4AC8B74702402C
:10E6700006CE22CC83A4C7202A892E8623A6072073
:10E680000F100000131506019305F004418132C6F6
:10E6900005312A8401C53246CA8521372285F240D8
:10E6A0006244B747024023A697204249D2440561FD
:10E6B0008280B747024003A7C72023A607200F1078
:10E6C000000001C599C1814711EAB747024023A65E
:10E6D000E720054582808507E309F6FE3308F5004B
:10E6E000B386F500034808009422E306D8FEB74736
:10E6F000024023A6E72001458280B747024003A7D6
:10E70000C72023A607200F1000009307F6FFBE9531
:10E710002A966317C500B747024023A6E7208280E8
:10E72000FD159C310505A30FF5FEE5B737470240FF
:10E730008327C720232607200F10000001C53307B9
:10E74000C50019E6374702402326F720014582809D
:10E7500005058346F5FFE397B6FEE31BE5FE374765
:10E7600002402326F72005458280797126D2B724FE
:10E77000002022D403A4446806D64AD04ECE52CC00
:10E7800056CA5AC85EC662C455C4372A0020372903
:10E790000020B7290020814BB72A002037CBC901C0
:10E7A000130A8A68130989639389096D3E2099EFDA
:10E7B0005C44639A0B0023A2F468032CC4002285F6
:10E7C000C1366284A9A823A6FB00C5BF83A7CA6778
:10E7D00082971C443307F5406376F50003A7490090
:10E7E0001D8F2A979306FB3763EAE6062328090064
:10E7F0002E200820970005E0E78060455C405844E3
:10E80000B1C70C4403A64900AE97BE8663E4B700C7
:10E8100063E4C700B386C74014C4A28B3A8459F49A
:10E82000B727002093878763984B854663FCE604EF
:10E830007D1798CBB250225492540259F249624A41
:10E84000D24A424BB24B224C4561828063950B0009
:10E8500023A2E4689DB723A6EB0085B703278A02AD
:10E8600019CB63EDA7003385A740832709016374A3
:10E87000F5002328A900A28B404455B703A74900FF
:10E88000BA97D5B723A8070075B701114EC6B74789
:10E89000024006CE22CC26CA4AC852C483A9C72049
:10E8A00023A607200F100000372400209307046DD3
:10E8B000C843DC271304046DB9CFB7370020938712
:10E8C000878303D7870A21CB83A4470A6385A404DF
:10E8D000B727002013878763184B138A8763630F5A
:10E8E000A70E372900208327C967829763E5A40E06
:10E8F0008327C967898C829703270A0163F3E400A1
:10E900002687B307A7003E85544063E4E70063E42D
:10E91000D7003385D740B747024023A637215C4054
:10E92000639DA702B7240020938484639848B72787
:10E93000002083A7C7676315A70A82975440B7478B
:10E9400036FE938707C8B6973387A7003A85636476
:10E95000F7006364D7003305D740B73400209387AE
:10E96000C497DC539384C49799CBB737002083A610
:10E97000879F3707CDFF7D179C46F98F9CC611E115
:10E9800048408547DCC4B727002083A7076B8297E0
:10E9900005E1DC5089CFDC4499CB976006E0E78045
:10E9A00060C1975006E0E780404023A60400753B15
:10E9B000DC5091CBB737002003A7879FB706330001
:10E9C0001C47D58F1CC7F2406244D2444249B24929
:10E9D000224A056182805C40BE9419BF268525BF0E
:10E9E000829794485840B387A6003E8563E4D700D9
:10E9F000E3E5E7F63385E7408DB7B727002023A886
:10EA0000A73A11C5B72700200547238AE73A828035
:10EA1000B727002003A7073B411122C406C6138471
:10EA2000073B11C30297B727002083C7473B93F7E3
:10EA3000F70F99E323200400B24022444101828071
:10EA4000011126CAB724002022CC4AC89387046D3E
:10EA500006CE4EC652C456C2DC2737290020938406
:10EA6000046D1304496695E3B73700209387C79771
:10EA7000D833058B19CBF8339946639BE60AA382FA
:10EA80000700EF10C02C5C4482971C4491C382970E
:10EA900037240020B72900209307846303A709685F
:10EAA0009033130A84638347846393961700BA965E
:10EAB0009622C9CA8347846363EEC708230C0462A5
:10EAC000373400209307C4979C371304C49763918D
:10EAD0000710B727002083A7C767F5C3DC402328AA
:10EAE000FA006131B727002083A7076BE9CB7C30A0
:10EAF00011476366F70CB73700209387879CDC27A4
:10EB0000918BD5EFB727002083C7473B93F7F70FCB
:10EB1000DDE783461A0003A6096863C7D70C624481
:10EB2000F240D2444249B249224A924A0561B1BBFD
:10EB3000F8339D46E39BE6F4A3820700EF10202103
:10EB40001C4899B7850793F7F70F230CF462E3ECA1
:10EB5000C7F48DB786073E970E23231007000345A1
:10EB60008463B727002083A7076613172500B72AF9
:10EB70000020BA979C43239C0A66829783D78A67B2
:10EB80000347846393C7F7FF7D8D9317170003A78F
:10EB900009683E971E235D8D0AA38347846381C75E
:10EBA0008507230CF4628327496681C78297232255
:10EBB00009660347846383471A00E371F7F0F24064
:10EBC0006244D2444249B249224A924A0561828053
:10EBD0007C3093F7F70FE39E07EEA30404009750F1
:10EBE00006E0E780804CF5B51397170032971A239B
:10EBF00079F785071DB7374702408326C720F1778D
:10EC0000FD17F58F2326F72001000100B72700200C
:10EC100093878763C84F832787262326D7206A05D3
:10EC200093C7F7FF99835D8D8280B727002083C744
:10EC3000B76389CFB727002083C7C76D91CBB727AC
:10EC4000002003A3076E630703000283054582804B
:10EC5000094582801305F00F8280B737002003C674
:10EC60000783B727002003A7074281476315F600F3
:10EC7000814636858280BA8613078702835587FDD1
:10EC8000E389A5FE850793F7F70FCDB7B7370020C7
:10EC900003C71783B727002083A7C7432A86050722
:10ECA00081463E859E236388C700850693076500DD
:10ECB000E3E9E6FE01458280B727002003A747432A
:10ECC00019E3014615A81C4703D8A700636B05018B
:10ECD00083584700B38608016355D5008146639485
:10ECE00016011843F1BF3E86C10703D3A7FF631780
:10ECF000A30099C123900501328582808506C20652
:10ED0000C182F1BFB737002003C60783B7270020B1
:10ED100003A7077D81476315F6008146368582800B
:10ED2000BA861307C703835567FCE389A5FE8507E9
:10ED300093F7F70FCDB7032785116DCB411122C48F
:10ED400006C65C258345E5042A8493F7C70F5CA5B6
:10ED50001437522713958601618563F7C506635101
:10ED60000506082793F6F60714B7054693E627002D
:10ED70006314C50093E6170054A45C4389075CC381
:10ED80004CB8032504112E864C430905EFF07F8112
:10ED9000832784115038D443DA27B296118FD4C315
:10EDA000DAA789473CBCB72700200347640383C721
:10EDB000A7696371F7045C2493E707015CA41DA8AD
:10EDC00093E717005CA46DBF9376F60F63590502B5
:10EDD0000827854513E627006314B50013E61700DE
:10EDE00050A454B8A304070085473CBC8327841172
:10EDF0009C43D5FBB240224401454101828093E708
:10EE000017005CA454B8A3040700032504114C4365
:10EE10000905EFF00FF9832784115038D443DA271E
:10EE2000B296118FD4C3DAA78D47C1B7054582804A
:10EE3000B737002083A7C795411122C406C6858B2A
:10EE40002A84D5E34165130525F5971006E0E78090
:10EE5000802851C93C253EA583270412ADE3232019
:10EE6000A4122322A41285472311F40423200500B1
:10EE70007C2854415EA5583418A5054718B5373786
:10EE800000200327079A1385170215811C437D155F
:10EE90001375F50F9CC25C43DCC21C479CC65C47E3
:10EEA000DCC61C4B9CCA5C4BDCCA1C4F9CCE5C4F26
:10EEB000DCCE19CD9386060213070702C1BF832754
:10EEC000441288C3835724042322A412850769BFF0
:10EED000B7370020938787839A2705079AA7B24000
:10EEE0002244410182805C2423090400054593C724
:10EEF00047005CA4EDB71C2D93F7E70FC5EB1C3D55
:10EF0000D5E73029542509CA3727002083456503F2
:10EF10000347B76963E7E50013F7060149CB0147EB
:10EF200009C6C18A0357E51B81C68356251C36973F
:10EF30003DCFB727002003D5876D1307C71237468B
:10EF40000F00B335A702411113060624814622C4DF
:10EF500026C206C67D543305A70297D006E0E78097
:10EF60000093B727002083C7F769B384A700B7379A
:10EF7000002003A7878C8327070963F387003E845B
:10EF8000184375FBB727002083A7C767829781477F
:10EF90006364A400B307A440B2402244B3B797000F
:10EFA00093C7170092443E854101828081473E8588
:10EFB0008280B737002003A7479A7C53FDFF8280E9
:10EFC000011126CAB73400209387848322CC03A47E
:10EFD000870906CE4AC8835704044EC652C456C297
:10EFE0005AC085072310F40483470414A30F0400B8
:10EFF0009384848322856387071C6125228597007B
:10F0000006E0E78040726315051A372900201306D1
:10F01000096D0A2683576408B7460F009385F623C7
:10F02000B387A7029386062403270409230B04024F
:10F03000032A46001309096DAE97B3D7D70263655B
:10F04000F718B307F7408326C4082324F408814A3D
:10F05000B387E600BE8963E4D70063E44701B38960
:10F0600047411E3023283409A1CB835604045A306B
:10F0700037460F0056B03387E640B387E7023A3091
:10F080001306062481468145BA97C207C18333859A
:10F09000A7023EB097C006E0E780607F11CD4E9595
:10F0A000B3393501AE99AA8763943A016364450187
:10F0B000B30745412328F408372A00208327CA676D
:10F0C0008297AA898327CA678297E30D35FF832732
:10F0D000CA6783298408829763EDA90E3385A94006
:10F0E00063030510B727002083C7F769637DF50E1A
:10F0F000B7490F0093890924B3353503035B8900B1
:10F10000035A240281465A863305350397C006E028
:10F11000E780E077B30AAA0033056A0337460F0099
:10F12000130606248146814597C006E0E7802076D5
:10F130000DC1B33735035A868146B385B90233858D
:10F14000A902BE9597C006E0E78060743305AA4027
:10F150002AB03545975006E0E780800223AC84084A
:10F1600038348547631DF700930700FD7CA4B7374B
:10F17000002003A587968347C900A5C3BD38B736CD
:10F18000002003A6469AB73700209387C7971547F4
:10F19000F8B35846F977FD17F98F5CC60F100000D9
:10F1A00083A7469A8966860A94C723A25707D8C7B9
:10F1B000F2406244D2444249B249224A924A024B46
:10F1C0000561828021291DBDB3064701B387F64042
:10F1D0009DBD83274900BE9911B78145970005E081
:10F1E000E780C00469BF8347C90023AC040885C316
:10F1F000B737002003A54796970005E0E780A03DBC
:10F20000B7E700E03707000223A2E72055B783479E
:10F21000940285456244F240D2444249B249224AAE
:10F22000924A024BB395F500C205C18101450561C3
:10F23000170305E06700A3A1011122CC4AC84EC6FE
:10F2400006CE26CA52C456C25AC0383585472A84CB
:10F250002E89832905096315F71E83570508035B6B
:10F26000C503372A002093060A6D83DA8600130A45
:10F270000A6D63FF67191429639CE618032785113B
:10F28000631807180327450A6314071874351D47C8
:10F290006390E6182A3D330BFB409307204E33055D
:10F2A00065038324440937460F001306062481466C
:10F2B0003305F502B727002083C7E769B3549502E9
:10F2C000B3B5AA02BE94C204C18023139408338547
:10F2D000AA0297C006E0E780805BAA9933B5A9002F
:10F2E0002E954E8783274A0019E163E4F90033879E
:10F2F000F940B3845403B7460F009387F6239386EF
:10F3000006242320E900BE94B3D4D40293171B0033
:10F31000A6976369F70E1D8F2320E900B729002007
:10F3200083A7C96783240900829763EEA4103385FD
:10F33000A440635D050A83A7C967372B0020130B20
:10F340000B6D8297032709006365E510198D7E3CDC
:10F3500003578B008E07B387E702130700329387AA
:10F360000719B3D7E70263EBA70E374A0F00930ADA
:10F37000FA23130A0A248357040485072310F4048C
:10F380008347041499E32285912C2285970006E097
:10F39000E78060396DE1832604098327C4080327C9
:10F3A0004B00B6973E8563E4D70063E4E7003385FE
:10F3B000E7407C3C835464082328A40885077CBC70
:10F3C00083578B00B384F402D694B3D444036363AD
:10F3D000950CB304954083A7C967232099008297B1
:10F3E00063EEA40A3385A440E34705F8B72700205D
:10F3F00083C7F76963E2A708B737002023A8878C83
:10F4000001459DA883264A00B387F6403E9729B759
:10F410008357640837470F00B38457039307F723D4
:10F42000A69793040724B3D4970263E79900B384A3
:10F43000994023209900DDB583274A00BE99C5BFB6
:10F4400023A03501E1BDB727002083A7476DBE94F7
:10F45000F9BD83274B00998F3E95D5BDA1452285E7
:10F46000970006E0E7806024A305A402B7270020E8
:10F4700083A7C76B81EF7D55F2406244D244424975
:10F48000B249224A924A024B05618280894515455C
:10F490008297D5B7B3049740AA9435BF83274B0012
:10F4A000BE9489B721CD01116C0022CC06CE2A84EE
:10F4B000613339C1FD576307F502B72600209386F3
:10F4C0008668FC3A9456324791C285836360F7029E
:10F4D000B307F7403EC6B24503459402970005E0E6
:10F4E000E780C08CF240624405618280B72600202C
:10F4F00083A6466D3697E9BFE134EDB78280B73712
:10F5000000207971138787834AD00329070906D61B
:10F5100022D426D24ECE52CC56CA094763000906E1
:10F52000B7340020938A87839387C497FC3395462A
:10F530009384C4970D476383F604DC442A8A99CBED
:10F54000975006E0E7800007975006E0E780E085E7
:10F5500023A60400FD596C004A85F93915E93715D1
:10F560000020130505D5EFF04FC9A147DCA0B73740
:10F57000002083A7479A0947F8D30D47B250225479
:10F5800092540259F249624AD24A3A8545618280D0
:10F59000637435013244AA8903290900E31D09FA7D
:10F5A000FD571307F00FE38BF9FC914763F18702D6
:10F5B0009307B4FF2320FA0023A2FA0A0147DDFFD4
:10F5C000B727002083A7476D2320FA0045BFB72740
:10F5D000002083A7476DED17A297E9BF797126D266
:10F5E00006D622D44AD04ECE52CC56CA5AC85EC68F
:10F5F0008347550303447513AA843E941374F40F90
:10F600009307400263F687001304B4FD1374F40FEC
:10F6100003AA841383AAC413A38B8412228652855F
:10F62000D68597C006E0E780C023058915E503CBA2
:10F63000D41201498149337B6403930B50024A86FB
:10F640005285D68597C006E0E780A021058915C5BB
:10F65000639169031374F90F238B8412B2502254FF
:10F6600092540259F249624AD24A424BB24B456126
:10F6700082808509E20993D989410509E31179FD61
:10F68000E1BF8327850903560504797193D60701E5
:10F69000BD8EC206C182358E1357764093575640B1
:10F6A000898B058B5D8F93573640918B5D8F935778
:10F6B0001640A18B5D8F93171600C18B5D8F93173A
:10F6C000360093F707025D8F931756009355860017
:10F6D00093F707041E065D8F1376F60F518F93D7AD
:10F6E000554013D63540118A898BD18F13D675407A
:10F6F000D18F13D61540218AD18F13961500418AD8
:10F70000D18F1396350013760602D18F13965500CC
:10F71000137606049E05D18F93F5F50FCD8FA207C2
:10F7200045465D8F3307C70222D42A8426D252CCA5
:10F7300056CA032A8413832AC4135AC806D6369796
:10F740004207418393577740135557400989858B6A
:10F75000C98F135537401189C98F13551740218917
:10F76000C98F131517004189C98F131537001375F9
:10F770000502C98F131557009355870013750504AB
:10F780001E07C98F1377F70FD98F13D5354013D7BD
:10F7900055401189098B498F13D57540498F13D571
:10F7A00015402189498F139515004189498F13957B
:10F7B000350013750502498F13955500137505041F
:10F7C0009E05498F93F5F50F4D8F2207D98FB3878B
:10F7D000C7024AD04ECE5EC662C4B697C207C18386
:10F7E00013D7774013D557400989058B498F13D517
:10F7F00037401189498F13D517402189498F1395B7
:10F8000017004189498F1395370013750502498FF9
:10F810001395570093D58700137505049E07498FEC
:10F8200093F7F70FD98F13D5354013D7554011896A
:10F83000098B498F13D57540498F13D51540218900
:10F84000498F139515004189498F1395350013751C
:10F850000502498F13955500137505049E05498FC0
:10F8600093F5F50F4D8F2207D98FB387C702130683
:10F8700050025285D685B697BD8E93940601C180FD
:10F8800033F6C402137BF60F97C006E0E78060FDF5
:10F8900005890DED8347D41201498149B38497024C
:10F8A000130C5002C1804A865285D68597C006E067
:10F8B000E78020FB0589937BF90F11C5638634032C
:10F8C000850993F9F90F0509E31F89FD230B6413DB
:10F8D000B250225492540259F249624AD24A424BDF
:10F8E000B24B224C456182805E8BCDB70111B73798
:10F8F000002022CC03A4878F26CA4AC84EC606CE53
:10F90000AA8413092500854905C09C303830858BB1
:10F910006304F700405CCDBF1946930544004A8557
:10F92000EFE03FD9E31835FF2285F2406244D2442C
:10F930004249B249056182804111B737002022C493
:10F9400003A4878F26C24AC006C693042500054932
:10F9500001E82285B240224492440249410182805A
:10F96000A6851305A402973006E0E780A0DFE30236
:10F9700025FF405CF1BF4111B737002022C403A42A
:10F98000878F26C24AC006C693042500054901E8B0
:10F990002285B24022449244024941018280A685D8
:10F9A0001305A401973006E0E780C0DBE30225FFE2
:10F9B000405CF1BF0111B737002022CC03A4078FB0
:10F9C00026CA06CE2AC42EC6854419E40145F24053
:10F9D0006244D244056182809C841830858B630424
:10F9E000F7000044DDB719469305A1001305240074
:10F9F000EFE03FCCE31795FE0545D1BFB7360020B9
:10FA000083A7C6961307001098C323A007001831D8
:10FA10000348250022074208429703480500429701
:10FA2000034835006208429798D75831034865006B
:10FA30002207420842970348450042970348750051
:10FA400062084297D8D718350348A5002207420814
:10FA500042970348850042970348B50062084297E1
:10FA600098DB58350348E5002207420842970348CF
:10FA7000C5006835429762052A97D8DB9831A821DE
:10FA8000220742052A9788212A97A83162052A97DA
:10FA900098CFD831E821220742052A97C8212A9712
:10FAA000E83162052A97D8CF9835A8252207420564
:10FAB0002A9788252A97A83562052A9798D3D8359A
:10FAC000E825220742052A97C825EC352A97E20542
:10FAD0002E97D8D3D843759BD8C3D8431367170044
:10FAE000D8C398431367170098C303A7C6965C430F
:10FAF000858BBDE71C4F01451CA283A7C6969C4F72
:10FB0000A1831CB283A7C6969C4FC1833CA283A746
:10FB1000C6969C4FE1833CB283A7C696D84F58A2A5
:10FB2000D84F218358B2D84F418378A2D84F6183F0
:10FB300078B2985318A69853218318B698534183E6
:10FB400038A69853618338B6D85358A6D853218322
:10FB500058B6D853418378A6DC53E1837CB68280C3
:10FB6000010061B7B737002003A7479A1605136550
:10FB700005083C4B93E707083CCBB737002083A729
:10FB8000C79603A7450E88C398CB03A7850E0145EA
:10FB9000D8CB03A7C50B98CF03A7050CD8CF03A7D5
:10FBA000450C98D303A7850CD8D303A7C50C98D7C9
:10FBB00003A7050DD8D703A7450D98DB03A7850D2F
:10FBC000D8DB03A7C50D98C703A7050ED8C7984370
:10FBD0001367070498C38280B737002003A7479AAA
:10FBE0001605136505083C4B93E707083CCBB73770
:10FBF000002083A7C79603A7C50E88C398CB03A789
:10FC0000050F0145D8CB03A7C50B98CF03A7050C5B
:10FC1000D8CF03A7450C98D303A7850CD8D303A747
:10FC2000C50C98D703A7050DD8D703A7450D98DBBA
:10FC300003A7850DD8DB03A7C50D98C703A7050E3D
:10FC4000D8C798431367070498C3B7370020938732
:10FC5000C797130700F8F8A38280B736002003A7E0
:10FC6000069741114AC01C5F06C622C4998326C26A
:10FC7000858B3689B5CF93070006373400201CDF0B
:10FC80008347C4979304C49793F7070489CFB72792
:10FC9000002083A7C7678297C8CC8347C49793F790
:10FCA000F70B230EF4968347C49793F7070285C397
:10FCB0008347C497373700200327479A93F7F70DF8
:10FCC000230EF496DC48A16614C786077CD7DC2097
:10FCD00093F7070491EF8547DCB0B737002083A77F
:10FCE000479A096798C7130700FCD8A09848F8D32B
:10FCF000032709971C5F9183858B89CBC1471CDF44
:10FD0000B73700209387C7978546D4A31C5F9D8390
:10FD1000858B91CB930700081CDFB73700209387B2
:10FD2000C7970547D8A3B737002083A7C796D843FE
:10FD30000583058B19C7D843759BD8C3D843799BD6
:10FD4000D8C3B24022449244024941018280B7376D
:10FD50000020B736002003A6479A9387C69703C7AB
:10FD6000C697058B19E79833058B01E7785265FB39
:10FD7000D833A382070082803738002003270897F2
:10FD80001C5F9583858BBDE701C61C5BBD831CA2F0
:10FD90009DC683270897985B46079357670163566C
:10FDA000070093E707C0C207C18303970600C20795
:10FDB000C18709C7BA970947B3C7E7029EA285C1A1
:10FDC0001C3191CF3E951C350547194593F6F70632
:10FDD0006393E602E207E187394563CE0700832794
:10FDE00008973737002001459C5FED838D8BA30377
:10FDF000F798828005458280411122C406C63734B7
:10FE0000002026C20327449A3DE5AE877453FDFEC9
:10FE1000B73400209384C4973E85B28523810400C3
:10FE2000974006E0E780800CB737002083A707974C
:10FE3000B70680009843558F98C3D857719BD8D781
:10FE40008327449AA3820400A3800400094798C32F
:10FE50008326449AB73700209387C797B823058B2A
:10FE600011E7B833058B19E3F8526DFBB240224419
:10FE70009244410182808D47631FF500B73700200F
:10FE800083A70797B70680009843558F98C3D85724
:10FE9000719BD8D775BF8547E31CF5FA5447F977AE
:10FEA000FD17F58F5CC70F1000000327449A896780
:10FEB000130600F81CC7B73700209387C797D0A355
:10FEC000B737002083A707979C43B1838D8B91E7B9
:10FED000930760197CD354C7A5BF9307E01BDDBF10
:10FEE0005D7152DC373A002003270A9786C6A2C408
:10FEF000A6C2CAC04EDE1C43B739002037390020E5
:10FF000093F7F7E793E707081CC383A6899F370792
:10FF1000CEFF7D179C46130680022A84F98F9CC66B
:10FF20008327499A2800AE8423A807049305100864
:10FF3000EFE0CFED3545974006E0E780602483276A
:10FF40000A979376F41F3706330023A40700984BD3
:10FF5000370FFCFF4E881367F70398CBF84FCA881A
:10FF6000130510F8137707E0558FF8CF9843F5760F
:10FF7000FD16758F98C3373700208326499A1307DB
:10FF8000C797A3020700A3000700054798C298433C
:10FF9000D285B70204001377F7E798C39843930319
:10FFA000802511491377F7E71367071098C303A754
:10FFB000899F7D1F85491C47930F8002D18F1CC7E5
:10FFC00093079005BCCA01473400135337002693AA
:10FFD0008347030013767700B3D7C740858BE1C30F
:10FFE00083A70597832E889F239C070423900706E9
:10FFF00003AECE02137EDEFF23A6CE0383AE070040
:020000025000AC
:10000000137EF70793FE0EF833EECE0123A0C7014F
:1000100003AE4702336E5E0023A2C70383AE489A45
:10002000014E23A27E0603DA070663074E0303AEE2
:100030000703038A0600135EFE00620E135E8E4104
:100040006358CA0103AE0703135EFE002380C60196
:1000500003DE0706137EFE0F03AA4E0663060A00A0
:1000600003DA8705E37F49FB03AE4702337EEE01E7
:1000700023A2C70383870600635CF400034E0300DA
:100080003396C9001346F6FF3376C6012300C3003A
:100090003E8663D3A7002A8613158601618505076E
:1000A0001377F70F8506E312F7F3B640264496441C
:1000B0000649F259625A61618280B737002083A7EE
:1000C000479AD8479316170163D2060298479316AA
:1000D000170163DD06007D57B8D7372700201307C7
:1000E0008763544F850654CF116798C798470D838F
:1000F000058B11CF373700201307C797342393E6BA
:10010000160034A3930600F854A3214798C79847D4
:10011000058B19CB373700201307C797143393E6A5
:10012000160014B3054798C798470983058B09E75C
:1001300098470583058B31CB373700201306C797C7
:10014000A30206009447B735002083A5059789824E
:10015000858AE5C69441B1828D8AE9EEA84B545256
:100160001376050294324DC2F9E29306D005D4CF3E
:100170008346C79793E61600230ED796114798C774
:10018000D855719B13671700D8D598479316370138
:1001900063D40602373700209306878303C6060719
:1001A00013078783418A45C203C7060713670702FF
:1001B0002388E606056798C798479316270163DFEB
:1001C0000600373700201307C7975423E206E1865D
:1001D00063D40600854654A3096798C798479316C9
:1001E000070163D20602373700201307878383464F
:1001F0001707858AADCA8346170793E62600A3082A
:10020000D706216798C78280ADD205466395C600A0
:1002100093061006A9BF09466395C60093065006CB
:10022000B9B70D466395C6009306900689B7930645
:10023000B00635BF9306C0061DBF383213671700DE
:1002400038B209472DBF834607070946BD8A638830
:10025000C600834607070D46BD8AE39DC6F4914656
:100260002308D70681BF83461707918AD9DA8346C8
:10027000170793E6860061B7B737002083A7479A30
:10028000B73600201387C697904710CF90470D824E
:10029000058A11CA30231366160030A3130600F82E
:1002A00050A3214690C79047058A19C6103313669C
:1002B000160010B3054690C790470982058A09E6E3
:1002C00090470582058A31C6A30207009047B735DB
:1002D000002083A505970982058A59CA9041318279
:1002E0000D8A41E6A84B505313750502103221C9FF
:1002F00035EA1306D005D0CF03C6C697136616009D
:10030000238EC696914694C7D455F19A93E616006B
:10031000D4D5944713962601635B06005423E20666
:10032000E18663D40600854654A3096798C79847B9
:100330009316070163D40600216798C7828055DAB7
:1003400005456315A6001306100675B70945631524
:10035000A6001306500645B70D456315A600130603
:10036000900651BF1306B00679B71306C00661B7F1
:10037000343393E6160034B3894671B7373700201B
:10038000B73600201386869A1307879C5C372C3E6D
:10039000484AAE97FD8BB355F5001CB25CB7858912
:1003A0008DE9183B814613080002B3F7E7020147C5
:1003B000B355E50085899378F70F89C96395D70010
:1003C000A30016018280850693F6F60F0507E31158
:1003D00007FF8280B73700209387C797DC3393F7F6
:1003E000F70FD9E7B727002083A7C767411122C4B9
:1003F0004AC006C626C28297373900209307899CD7
:1004000080471309899C630FA40463658504018DEB
:10041000B73400209387849ABC2F135455009384DB
:10042000849A6361F404993FBC2C03278900939656
:10043000570036971D8C2324E900E376F4FE22440E
:100440008830B2409244024981454101174306E099
:100450006700031AB727002083A7476D33848740BE
:1004600022957DB7B24022449244024941018280E4
:100470008280B727002083A7C767011122CC26CA34
:1004800052C406CE4AC84EC68297B734002093871E
:10049000849C8047014A6300A4069384849C63651E
:1004A0008506018D373700209307879ABC2F135498
:1004B0005500137AF5011309879A636BF402B72983
:1004C00000209389096D5D3D8346A90103A884003E
:1004D00083A54900139756004297158C3A866364AA
:1004E00007016364B7003306B74090C4E37DD4FCD2
:1004F0001604336A4401F24062445285D2444249B0
:10050000B249224A05618280B727002083A7476D40
:1005100033848740229579B7B737002003A7479ADD
:100520008567938707777CD3B737002083A7879F9A
:1005300083A60709139656006358060083A6070989
:1005400013966600634406007453FDF28280000037
:10055000EFE00FCC730000000000000097020000E5
:100560009382820C0383020023800200630F030046
:10057000F32510342EC0970500009385A5FD7390D8
:100580001534EFF07FCF7300203086DCEFF0FFB240
:08059000E6508280000000002B
:10059800B72700203727002083A707630327876230
:1005A80001456313F7008280F62399E2D623369536
:1005B8009C43C5BFB727002083A58768372700203D
:1005C80093878768138605222328C762DA239387CF
:1005D80085FFB72600204111BA97056523A4F66266
:1005E80006C61D05935637006374E5009306002080
:1005F8003307D600372500202326E56223A0E5220D
:10060800E11656A2231306001CC3998FE1175EA3B7
:1006180023130700B53FB240B7270020239FA762E6
:1006280041018280184183A785FF6319B7001CC167
:10063800FD5723AC05FE238FF5FE8280232CF6FEA2
:10064800C5BF411122C426C23744024006C68324CE
:10065800C420232604200F10000009E92326942033
:100668001545B24022449244410182800347E5FF88
:100678009307F00F6306F700232694201145D5B79A
:100688009700FB1FE78080A8014523269420D1BF4F
:10069800411126C24AC0B744024006C622C403A973
:1006A800C42023A604200F10000089E523A62421D6
:1006B800154515A0B727002083C797632A842E8580
:1006C8006375F400894763EE8700A53FB74702408A
:1006D80023A627210D45B2402244924402494101F4
:1006E800828083A785FF99E703C7E5FF9307F00F8B
:1006F8006308F700B937B747024023A627214DBF43
:1007080037250020238F85FE130545639700FB1FBF
:10071800E78080B0A16522856D2C014523A62421A0
:100728005DBFB727002023AA07628280BDCD7971FB
:1007380022D406D626D24AD04ECE01444147B3D75A
:100748008540858BB1CF1205314722953305E502E7
:10075800B727002003A9876C8544B3948400C2049A
:10076800C180BE892A990327090011C703254900BA
:100778002EC60297B24531473304E40283A7896C39
:100788003E941C4489E72320090023220900B25023
:100798002254A58D02599254F2492E8545618280D2
:1007A8000504E31EE4F88144DDB72E8582804111FB
:1007B8001397050122C406C626C24AC041872E8463
:1007C800635107029700FB1FE78000AC11C1953DFC
:1007D800A1673D8C2285B2402244924402494101DE
:1007E8008280EDD9AA8701474146B356E440858AFD
:1007F8009DCA9207BA97B146B387D702B726002099
:1008080003A9866C8544B394E400C204C1803E9970
:100818008327090003254900829723200900232202
:100828000900258C45BF0507E311C7FC8144D5BFE6
:10083800411126C2B747024006C622C483A4C72076
:1008480023A607200F100000B727002083A7C76A38
:10085800372400201304043891C782971C403E9522
:1008680008C031A0B727002083A7C767FDF71C4041
:10087800374703001307D73FB387E70237A7260098
:10088800130737ECB240BA971CC0B747024023A6FB
:10089800972008402244924441018280797126D2EF
:1008A800B747024006D622D44AD04ECE52CC56CABA
:1008B8005AC85EC662C483A4C72023A607200F10A7
:1008C800000005E123A697200945B250225492540E
:1008D8000259F249624AD24A424BB24B224C456114
:1008E8008280B727002083A7C767BA8A368AB28B67
:1008F8002E8BAA898297B727002003A7876C3E8989
:100908000144B146C147330CD40233068701104273
:1009180059E2C165938505F0414597F0FA1FE780D4
:10092800E07119EDB727002083A7C76B81C7814500
:1009380011458297B747024023A697202D4571B7E6
:10094800B727002003A7476839E323A2A768230035
:1009580005008327896C0547331787002326050080
:10096800232475013AA123225501E29723A03701D8
:1009780023A2670123A4570163040A0023008A0005
:10098800B747024023A69720014581B73E875C47B9
:10099800F5FF48C76DBF0504E317F4F6B7470240F3
:1009A80023A69720214515B7B727002083A7C76C32
:1009B800411122C406C6372400201304846389C762
:1009C80082975C483E9548C84848B2402244410155
:1009D8008280B747024083A6C72023A607200F10AE
:1009E800000037270020034797636370E502372626
:1009F800002013171500032506683A951A21D98D8A
:100A08000EA123A6D7200145828023A6D7200D4515
:100A18008280B747024083A6C72023A607200F106D
:100A2800000037270020034797636372E5023726E3
:100A38000020131715000325066893C5F5FF3A959E
:100A48001A21F98D0EA123A6D7200145828023A65D
:100A5800D7200D45828001114AC83747024006CE8B
:100A680022CC26CA4EC652C40329C72023260720F3
:100A78000F100000130705FF1377F70FFD4763E317
:100A8800E70AB146B306D502B727002003A7876C4B
:100A980036971C43C1CB9354450005443D89331513
:100AA800A400131405014180AE892685A28597000C
:100AB800FB1FE780E0852A8A29C9A2852685913F00
:100AC800B727002083A7C767B72400209384046D45
:100AD80082979E242A848146B385370313060064CF
:100AE800B3B7370313850532B335B500BE95EFC0EC
:100AF8005132B30785003E87D44063E4A70063E41E
:100B0800D7003387D7402324EA00B747024023A6FB
:100B180027210145F2406244D2444249B249224A5F
:100B280005618280B747024023A627210945DDB722
:100B380001114AC8B747024006CE22CC26CA4EC683
:100B480003A9C72023A607200F100000BD4763EBA9
:100B5800A70431473307E502B727002083A7876C2E
:100B6800BA979C43A1C305443314A40042044180AE
:100B7800AE840145A28597F0FA1FE7806079AA89BB
:100B880011C5A2850145713523A49900B7470240D4
:100B980023A627210145F2406244D2444249B24982
:100BA80005618280B747024023A627210945E5B79A
:100BB800797126D252CCB744024006D622D44AD004
:100BC8004ECE56CA5AC85EC603AAC42023A604201D
:100BD8000F100000B727002083C797636378F500DC
:100BE800B727002083ABC76763970B00B74702405E
:100BF80023A6472199A0372900201309096DAE8A39
:100C0800032B490083558900B74736FE938707C8E9
:100C18003E9BB387C5022A84B2898146B3B5C50213
:100C280013850732B337F50013060064BE95EFC08D
:100C3800511E6370AB0223A644210145B2502254D1
:100C480092540259F249624AD24A424BB24B456128
:100C58008280829B83558900AA8413060064B38727
:100C680035038146B3B5350313850732B337F5002D
:100C7800BE95EFC0111AB3079500BE84032749003B
:100C880063E4A70063E4E700B384E740D6852285E0
:100C980097F0FA1FE780C06701C904C5B74702404B
:100CA80023A64721054559BF936504F0C205C181B4
:100CB800414597F0FA1FE780603811E9B72700200F
:100CC80083A7C76B85D7A2851145829705B73727B4
:100CD80000208327476899EF2322A76885472326A2
:100CE800050004C52311550100A11CB123220500EC
:100CF80075B7BA87D84775FFC8C7CDB779714ECED3
:100D0800B747024006D622D426D24AD052CC56CA79
:100D18005AC85EC662C466C26AC083A9C72023A631
:100D280007200F10000025C141443689B28A2E8A57
:100D3800AA84B14C372B0020054D130C0003B30BCC
:100D4800940303278B6C5E971C43B9EF9375F400EB
:100D5800B315BD0013554440C2055686C1811375AD
:100D6800F50FB93531C183278B6CDE9784C323A275
:100D780047016304090023008900B747024023A6FE
:100D88003721014521A023A637210945B250225415
:100D980092540259F249624AD24A424BB24B224C0F
:100DA800924C024D456182800504E31A84F9B747E5
:100DB800024023A637212145D1BF011122CC26CAE2
:100DC8004AC84EC6B747024006CE03A9C7202A84A0
:100DD800AE89B28423A607200F100000D13B2285DC
:100DE800CE8597F0FA1FE780A0522A8405C5B72759
:100DF800002083D5876D130600648146B38795026A
:100E0800B3B5950213850732B337F500BE95EFC029
:100E1800510048C013351400F2406244B7470240FD
:100E280023A62721D2444249B2490E050561828092
:100E3800011122CC4AC84EC6B747024006CE26CA80
:100E480083A9C7202A892E8423A607200F10000013
:100E580097F0FA1FE780C04BAA8419C12311050037
:100E6800A2854A857D36B727002083C787636399A3
:100E78002701B727002003D78767598C239C8766EB
:100E8800B747024023A63721014591E01945F240B2
:100E98006244D2444249B24905618280011126CA9E
:100EA8004AC8B744024006CE22CC4EC603A9C42085
:100EB80023A604200F1000009307F00263E6A7049E
:100EC800B1473304F502B729002083A7896CA2979C
:100ED8009C439DCB9377F5008545B395F500C205F6
:100EE800C1811181B13783A7896C0145A29723A0DD
:100EF800070023A2070023A62421F2406244D2441B
:100F08004249B24905618280B747024023A627219A
:100F18000945E5B7411126C206C622C4B7470240B3
:100F280083A4C72023A607200F10000097F0FA1FFC
:100F3800E780003E19E90145B2402244B747024024
:100F480023A69720924441018280B727002083A7D7
:100F5800C76700458297B72700209387076D6367A7
:100F6800A402D843B74636FE938606C83305A44084
:100F78003697E372E5FC13070064B335E502922760
:100F880081463305E502EFC0C1687DB7D8433A947E
:100F9800C9BF4111B727002006C623A6A76C029532
:100FA800B240B727002023A8A764014541018280E9
:100FB800914763E9B700B72700208A0593874766FA
:100FC800BE9588C18280B727002023A207683725ED
:100FD8000020B7270020411123A6076C5146B727E8
:100FE800002081451305456606C623AE076622C460
:100FF80026C23724002097F0FA1FE780E03913054E
:10100800846313068002814597F0FA1FE780C03891
:10101800EFF04FDAB727002083C7D769130484633A
:10102800854513D527008D8B3E958D473305F502F1
:101038009947B724002039051375F50F28A0330503
:10104800F5021305052497F0FA1FE78020FF23A473
:10105800A46C2DCD3020994781453306F60213063E
:10106800062497F0FA1FE780203383A7846C382082
:10107800B7240020938707240A0723A0F466BA97A9
:10108800372700202320F768EFF0AFE919291C3033
:1010980083A60466370605001397270036971306BC
:1010A800467310C3138717001377F70F0A0737061D
:1010B800050036971306667B10C313873700890728
:1010C80093F7F70F8A0718B0B69790C3B240224437
:1010D80092444101828037270020130787631C331D
:1010E800342363FFD700B726002083A6066613863D
:1010F800170010B313972700369708C33E858280E0
:101108009307F00FE5BF1C41F1CF41777D8FB706FC
:10111800002089476319D70C5A2171C7411126C28B
:101128001946AA849305F00F610506C622C497F0F4
:10113800FA1FE780603805478D47630FE5089C4430
:1011480091C7985C994749CBD85C59C73724002088
:101158001306000481451305846897F0FA1FE78099
:10116800A02313060004A6851305846897F0FA1FC8
:10117800E780E01B93078468DA2701E7130700106C
:10118800DAA7F82719E30547F8A79A2B19E36D475B
:101198009AABF83719E31547F8B7B82B19E30547A1
:1011A800B8ABB83B19E3F837B8BBD82B19E32547D8
:1011B800D8ABF82801E71307C003F8ABDC5791C791
:1011C8008297B72700202390A764B73700207D5760
:1011D800A38EE7A4CD3B8147B240224492443E858A
:1011E8004101828089473E85828001114AC837299A
:1011F80000208327096D06CE22CC26CA52C456C2C7
:101208004EC68297130A0064B33545031309096D66
:10121800835A89008146568633054503EFC0613FEE
:10122800B727002013878763004FAA840145630608
:1012380094029389876333858440636E9400032501
:10124800490056868146B335AA023305AA02EFC083
:10125800413C018D269523AC9900F2406244D2446A
:101268004249B249224A924A05618280011122CC40
:101278002E84B7E506000A854146938505A606CE65
:10128800EFC04172180806043A94B72700200355A6
:1012980004FF83D7A76DF2406244AA9737450F0031
:1012A800130505243355F50205618280B727002010
:1012B80083D7A76D51471D45637CF70279471945C8
:1012C8006378F7021307200315456373F7021307C2
:1012D800B0041145637EF700130740060D45637996
:1012E800F7001307600909456374F70013B5B70FD2
:1012F8008280011122CC06CE2A842EC6EFF04FD36D
:10130800B245F240818D33A5A5022295624413753A
:10131800F50F05618280011122CC06CE2A842EC6E3
:10132800EFF00FD1B245F240818D33A5A502229589
:1013380062444205418105618280011122CC06CEBA
:101348002A842EC6EFF0CFCEB245F240818D33B558
:10135800A5022295624405618280B727002023A058
:10136800A76E8280B727002013878768585739CF20
:10137800411122C426C24AC006C61389876802974B
:10138800B7270020138787631A272A8493848763E3
:1013980005CBBA876373A700AA87C207C183BA8639
:1013A8006373E400A286C206C182958F51476359D0
:1013B800F7008327090391C38297EF40116282A443
:1013C800B240224492440249410182808280011144
:1013D80022CC37240020930784689C5B06CE26CA5B
:1013E800AA851304846881C72AC68297B245A5CD09
:1013F8009C410545A5C7DC41B5C39E25A5C3BE25AF
:10140800B1CFB72400201385046D41469384046D41
:1014180097F0FA1FE780A0F123860400B727002081
:1014280083A6076D37270020232ED76678380DE36B
:101438009387076D8A279307805737460F00330530
:10144800F5021306062481468145EFC0811C68B861
:10145800371505001305251F2D3E0145F24062444E
:10146800D24405618280B7270020938787633717A6
:10147800002023AE070013076798B727002023A88A
:10148800E76C378732009387076DFD56130727A14E
:10149800D4C398C723860700B747024023A4D7269A
:1014A800B5BF011122CC37240020930784688847F0
:1014B80006CE26CA4AC801E90545F2406244D2442C
:1014C800424905618280130484681C5CF5D7585C26
:1014D80065D77000854582971844B247E30EF7FC3C
:1014E8004A249305E004B724002097F0FA1FE78008
:1014F800E0B41387846308D39384846355DD52244E
:101508009305F00F014997F0FA1FE780E0E87C2483
:101518009050634DF900328597F0FA1FE78000BFBD
:10152800014523A0040223A2040241BF4E2408441B
:10153800585CB3872503898105093E9508C202973F
:10154800F9B701114EC6B7290020938789689C47CF
:1015580026CA4AC852C406CE22CC56C25AC02A8AC3
:10156800AE8432896388071E9389896803A7890333
:10157800630207121307F01F6360A71237240020C5
:1015880013078463832A07021304846363980A0891
:1015980003D5C9009565938515E097F0FA1FE78094
:1015A800E0A908D02A867DC583D5C90083A7890309
:1015B80003A589008981829783A78900832A040269
:1015C8005CD089476314FA08C1476395F40C83D546
:1015D800C9009147938505FCB3C5F5028A05D695E0
:1015E800B8219307A0056313F70A9E216390470B60
:1015F8004A852686910597F0FA1FE78040D31C504C
:101608005685639157130145F2406244D2444249DA
:10161800B249224A924A024B056182805850E382BD
:10162800E7FA03D5C9009565938525E097F0FA1F79
:10163800E780C0A0AA8A39CD83D5C9002A8683A7A6
:10164800890303A5890089818297A5BF8D47631BFC
:10165800FA00C1476390F40483D5C900938545FD1A
:10166800F199B5BF91476318FA006395440383D590
:10167800C900A115F5B793070010631DFA00A1472B
:1016880063EA970083D5C900C115D9BF1C50568598
:10169800639D570B29458DBF9D6A637A5509930A47
:1016A80005E01947B3CAEA0203D7C900372B00205F
:1016B800B38AEA02BE9A93078B63DC53130B8B63DE
:1016C8006395570103240B021DE003D5C900930558
:1016D800E00497F0FA1FE78060962A8445DD83D5F9
:1016E800C90083A789032A868981568582979145EF
:1016F8001307A005898193972500A297B4236391C6
:10170800E6049623639C460385058A052686A295EA
:101718004A8597F0FA1FE78080C183270B02E3848C
:1017280087EE228597F0FA1FE780409EE9BD216782
:101738007917E361A7F6B30A5541BDB7AC335DBF6E
:1017480083270B02E38887F4228597F0FA1FE78046
:10175800E09B89B7B727002083A5876585DD91477A
:101768009306A0058983139727002E973023E31348
:10177800D6F21223631C460185078A072686BE9582
:101788004A8597F0FA1FE78080BAB5BD3C33D9BFC8
:10179800B727002093878768984721C3D85F15CF5C
:1017A8008546631CD502411122C437240020130446
:1017B8008463105006C611CECE27485089810297FF
:1017C800085097F0FA1FE780609423200402232230
:1017D8000402B2402244410182808280011122CC5D
:1017E800372400209307846856C283AA870026CA34
:1017F8004AC84EC606CE52C42A89AE84B28913049A
:101808008468638D0A1A5C5C99EB2945F24062444E
:10181800D2444249B249224A924A056182801C5CFC
:10182800EDD79307F01F63E1A70C372A0020930731
:101838008A639C53130A8A63A9C7084483274A0208
:10184800639CA70489476313F906C147E39FF4FA29
:101858004A249147130505FC3345F50293172500E3
:1018680003250A022686CE853E959307A0053CA14E
:1018780023102501110597F0FA1FE78040AB0145B9
:1018880071B74A249305E00497E0FA1FE780007BCC
:101898002320AA025DF195BF4E241C5C03260A0290
:1018A800898182971C442322FA0269BF8D47631BF2
:1018B800F900C147E39BF4F44A24130545FD9377E7
:1018C800C5FF79BF91476317F900E39024F54A24CF
:1018D8002115F5B793070010E319F9F2A147E3E6DC
:1018E80097F24A244115E1BF9D676375F506930792
:1018F80005E01947B3C7E7025A24372A0020B387FF
:10190800E702BE9A93078A639C53130A8A63B1CB92
:1019180083274A026392570703250A029146130850
:10192800A0059305F00F93D72600139727002A9751
:10193800302363120607835807003033639928055C
:10194800B306D64063C4960485078A072686CE85E3
:101958003E9515B721677917E369A7EAB307F540FC
:1019680061BF4A249305E00497E0FA1FE780006D01
:101978002320AA0251FD51BD4E241C5C03260A02F5
:1019880089815685829723225A0379B70EA3931625
:101998000601C18249BF5224B385960091051306FA
:1019A80006FCE3F4C5E613863400719A1106B29674
:1019B800230107012310270134B379B7372A002000
:1019C80093078A639C53130A8A6395CF03250A02F7
:1019D80091461308A0059305F00F93D72600139797
:1019E80027002A97302363100605835807003033F1
:1019F80063972801B306D640E3D896F40EA393164E
:101A08000601C182D9BF68245E249305E00433052A
:101A1800F5024205418197E0FA1FE7802062232002
:101A2800AA024DF5DDB352246C24B385C502338672
:101A380096001106E3EBC5DCBDB7014582809C2109
:101A48001CA1BE211CB1BE21A1833CA1DC213CB15B
:101A580011458280B727002023AE073AB727002018
:101A680023AC073A82800DCD411126C206C622C496
:101A7800AA8401458DC12E84B7E50600228541461A
:101A8800938505A797F0FA1FE780608A9C20054593
:101A98005CA49C305CB4B2402244924441018280F0
:101AA80001458280011122CC26CA06CE0947AA84A4
:101AB80032846381E50441468147639BC500638F97
:101AC800E6006397B6000DA841478147638EE6009C
:101AD800F2406244D2443E85056182808A8522852F
:101AE800593741468A8519A88A85B53F41468A856E
:101AF800228531A0E39AB6FC2E86A285268597F02A
:101B0800FA1FE780C093AA87E1B7B727002023AC64
:101B1800A73A8280B727002023AEA73A8280011116
:101B280022CC622106CE26CA4AC84EC62DCC8329AD
:101B38008500AE842A8803C90900814713178901E3
:101B4800618763550702B147054563F78704511458
:101B5800420403552800418033878900A2864E86B7
:101B68008545EFA06020B337A00085077D14135585
:101B78006900420405891379F90341809CA088B063
:101B880023812401C2A0014719C01387190098C4F2
:101B980009476383E7000145F2406244D244424961
:101BA800B249056182800545C5BFC167F917630A57
:101BB800F502D94763F7B702011122CC2EC606CE2B
:101BC8002A84EF70B027B2456368B5002285624465
:101BD800F24005616F904019F24062440545056185
:101BE800828005458280C167F9176314F5006F701C
:101BF800F024411106C6EF90A00511E15D45B24001
:101C0800410182809147639DF5001C211CA23C2163
:101C18001831A207D98F3EA23C3101455CA28280CF
:101C2800114582804111814522C426C206C6AA8474
:101C3800BD232A8409E9B727002083A7873B81C7EA
:101C4800F945268582972285B24022449244410173
:101C5800828039714ED656D25AD006DE22DC26DA78
:101C68004AD852D4AA8A2E8BB28951EB36C6A53FE0
:101C78009145EF70502BAA844D493DC5B246054A9F
:101C8800238034010544630A0B00B68513851400CC
:101C9800029B0505131405014180E20993D9894186
:101CA80063D30902C1455685EF90E008654915E5FB
:101CB80033868400A2852685EF90F05C2A8911ED91
:101CC80031044204418091472C085685FC8426CE75
:101CD800E085EF80B0212A8901C963070A002685BB
:101CE80097E0FA1FE7808042F25062544A85D25446
:101CF8004259B259225A925A025B21618280BA84AF
:101D0800014ABDBF011122CC26CA4AC84EC606CE1A
:101D18002A893284B689353FAA840DE1B727002085
:101D280083A7C73B81CF05476317E40003C40900B5
:101D380005041374F40FA2854A858297F240624421
:101D480026854249D244B24905618280AE86B725CC
:101D5800050001470546938565A46DB79E211CA122
:101D68009E21A1831CB1094582809E211CA19E2130
:101D7800A1831CB1BE213CA1BE21A1833CB1114568
:101D880082809E211CA19E21A1831CB1BE213CA161
:101D9800BE21A1833CB1DC315CA1FC215CB18A2568
:101DA80019054205418182809E211CA19E21A183A3
:101DB8001CB1094582809E211CA19E21A1831CB1D2
:101DC800BE213CA1BE21A1833CB111458280CA211C
:101DD80006054205418182809E211CA19E21A18386
:101DE8001CB1AA2109054205418182809E211CA1BE
:101DF8009E21A1831CB1BE213CA1BE21A1833CB17F
:101E0800CA2111054205418182809C211CA10545FA
:101E180082809E21411122C406C61CA19E212E84C7
:101E28001105A183A30EF5FEBE219505230FF5FE2E
:101E380083D7D5FFA183A30FF5FE03C6F5FF97E06F
:101E4800FA1FE780C04E4820B240224411054101E4
:101E5800828089476399F5001C3118210145A20742
:101E6800D98F1EA28280114582809A21D94763FDAD
:101E7800E702011122CC06CE2EC62A84EF70007C20
:101E8800B2469E22636DF50022856244F240B72572
:101E9800050001470946938545D605615DBBF240BB
:101EA800624409450561828009458280914785C55C
:101EB8001421FD15C2058547C1816390F60213D729
:101EC80025008D89914781E9914711C7050534A2FD
:101ED8001AA248C281473E85828009479147E39C00
:101EE800E6FEC94733D7F502B3F5F502E1BFAE8682
:101EF800B725050001471146938525D799BB93F768
:101F0800350089EB8981914781C50EA248C2814776
:101F18003E8582809147EDBFD8218947631CF7022F
:101F2800011122CC2A84C84506CEAE86014709C9CC
:101F38002EC69D4597E0FA1FE780802AB2462A8779
:101F480022856244F240B725050019469385A5D835
:101F5800056101B30945828099E1114582801C2100
:101F680005473EA2E37BF7FEFD1593F5F50F33D742
:101F7800F502B387E702E392F5FE050548C21AA207
:101F880001458280DC210947AE866385E700414729
:101F98006399E700B7250500014721469385A5E128
:101FA8004DB9094582800EA291E1014548C201451B
:101FB8008280AE86B725050001472946938505DB53
:101FC80049B90EA291E1014548C201458280AE8619
:101FD800B7250500014731469385E5DB9DB90EA27B
:101FE80091E1014548C201458280DA21854763FFB6
:101FF800E702011122CC2A84884106CE1DC12EC6D3
:10200800854597E0FA1FE780A01D2A87228562444C
:10201800B246F240B72505003946938565DD05616E
:102028000DB9F24062440945056182800945828004
:10203800914785C518218D46914763F0E602FD1545
:10204800C205C181B3C6E5023308D702639705010B
:10205800050516A23AA248C281473E858280DC2146
:102068000947AE866385E70041476399E700B725CE
:102078000500014741469385A5E1E1BE09458280F7
:10208800B335B000139525008280011122CC26CAF1
:1020980006CE98258547AA842E844946631FF700F3
:1020A80099363E2049151306200963C8A700F24057
:1020B8006244D24409450561828018348547631417
:1020C800F70013660604484001C98D4532C697E0FB
:1020D800FA1FE780E0103246A2866244F2402A875F
:1020E8002685D244B7250500938505DE056195B69A
:1020F8008D4763F8B7021C311821F115A207D98F53
:102108001EA23C313821C205A207C181D98F3EA247
:102118004EA289C5110508C6014582802324060000
:10212800E5BF11458280011122CC2A84884506CE5C
:10213800AE8601C92EC6954597E0FA1FE780400A8A
:10214800B2462A8722856244F240B72505005946DF
:10215800938545DF0561F5BCB335B00013952500BF
:102168008280AE86B725050001476146938525E143
:10217800CDB48547114563F0D7021C320C22A20763
:10218800CD8F1EA39387E6FF3EA389476386F6009B
:10219800090650C30145828023220700E5BF014795
:1021A80081467946814575B49E211CA19E21A18353
:1021B8001CB109458280BC2105471CA18A2163976F
:1021C800E7000A050505420541818280C9473305B4
:1021D800F502CDBF8A210A05420541818280BE21D0
:1021E8001CA18A21BE213305F5020505420541815E
:1021F80082808A2182808A2182808A218280BE21EF
:102208001CA18A21BE213305F5020505420541813D
:1022180082809E211CA19E21A1831CB1BE213CA1CC
:10222800BE21A1833CB1CA211105420541818280AA
:102238009E211CA19E21A1831CB1AA21090542054A
:1022480041818280894711456398F6001C32142227
:102258000145A207D58F1EA382809A21D947AE8651
:1022680063F9E700B725050001470D469385051B6F
:1022780051BC094582801145639DA6001C32142279
:102288000145A207D58F1EA33C323422A207D58F61
:102298003EA38280BC210547FD1793F7F70F6361C2
:1022A800F7049E2195CF011122CC2A84C84106CE7D
:1022B8001DC12EC6894597E0FA1FE78060F22A877C
:1022C80022856244B246F240B7250500154693853B
:1022D800E51B056105BCF240624409450561828041
:1022E800094582809547114563F1D706411122C4FB
:1022F80026C24AC006C61C32BA841822A2073284F3
:10230800D98F9EA03C32382293054400A207D98F6A
:10231800BEA08947DCA0094613855400368997E09A
:10232800FA1FE780C0009307A9FF9EA49947631B83
:10233800F90023A60400B240224492440249014510
:10234800410182801904C0C4FDB782809E2195CFC7
:10235800011122CC2A84C84106CE1DC12EC685454E
:1023680097E0FA1FE780C0E72A8722856244B246D1
:10237800F240B72505001D469385C51D056159B274
:10238800F240624409450561828009458280994787
:10239800639DF6028947411106C65CA31C321422CC
:1023A800B285A207D58F1EA33C3234225023A20740
:1023B800D58F130557003EA3910597E0FA1FE780D4
:1023C80000F7B240014541018280D147114563942D
:1023D800F600C147C9B782809E219DCF011122CC4A
:1023E8002A84C84106CE05C52EC6894597E0FA1F3E
:1023F800E78000DF2A8722856244B246F240B7258B
:10240800050025469385651E05616FF0BF8FF24074
:1024180062440945056182800945828089471145E2
:102428006398F6001C3214220145A207D58F1EA31B
:102438008280011122CC2A84C84106CEAE8601478B
:1024480009C92EC6854597E0FA1FE78060D9B246CC
:102458002A8722856244F240B72505002D469385D8
:10246800A51F05616FF01F8A1145639DA6001C32E8
:1024780014220145A207D58F1EA33C323422A2079D
:10248800D58F3EA38280011122CC2A84C84106CE72
:10249800AE8601C92EC6854597E0FA1FE78040D46D
:1024A800B2462A8722856244F240B72505003546A0
:1024B8009385E51F05616FF0FF8493F716001145BA
:1024C80081EB89476386F600858256A310C30145D0
:1024D8008280011122CC2A84C84106CE05C52EC6A9
:1024E800854597E0FA1FE780A0CF2A8722856244B6
:1024F800B246F240B72505003D4693852520056183
:102508006FF05F80F24062440945056182809E2138
:102518009DCF011122CC2A84C84106CE05C52EC6FE
:10252800894597E0FA1FE780A0CB2A872285624475
:10253800B246F240B72505004546938565200561FA
:102548006FF04FFCF24062440945056182800945FD
:102558008280854763F6D70208A70CB71C320C2285
:10256800A207CD8F1EA39387E6FF3EA38947638604
:10257800F600090650C30145828023220700E5BF03
:1025880011458280014781464D4681456FF08FF79E
:102598008D47114563F4D7021C320C22A207CD8F58
:1025A8001EA33C322C22A207CD8F3EA39387C6FFE1
:1025B8005EA36386A600110610C701458280232406
:1025C8000700E5BF011122CC2A84884506CEAE86D5
:1025D80001C92EC6954597E0FA1FE78060C0B2464C
:1025E8002A8722856244F240B72505005D46938517
:1025F800A52105616FF00FF1854711456395F60038
:102608001C2201451CA382800147814665468145FD
:102618006FF04FEF011122CC2A84C84106CEAE8656
:10262800014709C92EC68D4597E0FA1FE78040BBD0
:10263800B2462A8722856244F240B72505006D46D6
:102648009385852305616FF0CFE0011122CC2A84A0
:10265800C84106CEAE86014709C92EC68D4597E00A
:10266800FA1FE780E0B7B2462A8722856244F24023
:10267800B725050075469385852305616FF06FDDE5
:10268800011106CE2EC6EF80C05819C5B245F240DA
:102698002A2105616FC0E02CF2404945056182801E
:1026A800B7270020A384073EB72700202384073ECE
:1026B800B727002023A8073CB727002023AA073CF8
:1026C800B727002023AC073CB727002023AE073CE0
:1026D800B727002023A6073CB727002023A4073CE0
:1026E800B727002023920770130640389387477056
:1026F800B2B371761307400B130606B8BAA3D2B368
:1027080011671D46930600059305000A1305007D11
:10271800DAA3F2B341470546130810F8BAA7DAA7B7
:10272800BAABDAABFAAB9AAF9AB723960703EEA324
:102738008EA7F6A796ABAAAF239E0700239F070094
:1027480023900702B2B7239707021308F0072398CC
:1027580007022392E7042393E704239FE7042390C7
:10276800E7062391E7062392E70623990703130751
:10277800C01CD2BBF2BB239C0702239D0702239EE9
:102788000702239F0702239007042391C704239479
:102798000704239507042396C7042397D70423988F
:1027A800D7042399A704239A0704239B0704239C8F
:1027B8000704239DD704239ED7042393A7062394B5
:1027C800070623950706239607062397B706239837
:1027D800B70623990706239AE7067D57239B070622
:1027E80023900708239107082392E70882800111A4
:1027F80026CAAA84214522CC06CE2E8432C636C4E7
:102808003AC297E0FA1FE780C0A20DC5A246124758
:102818003246930700FD1CA1994704B13CA174A15D
:1028280078B152A1AA8522856244F240D24405615A
:102838006FD01FE6F2406244D24405618280B72718
:10284800002023ACA73C8280B727002023AEA73CFA
:102858008280011122CC4AC806CE26CA2A890144A0
:10286800B30489006368B400F2406244D244424928
:10287800056182802EC6EFD0BFFB93170501C18387
:10288800A183B2459CA09307140093F7F70F850422
:1028980063F8B700CA97090488A31374F40FC9B77B
:1028A8003E84C9B7411122C4372400201304446E62
:1028B8006A20C16706C6FD17630EF500B73700200A
:1028C80003C68782B72500209385053EEF80A017B1
:1028D800FD577EA0B24022444101828009C92515D6
:1028E8001375F50F1335850E1345150082800145C4
:1028F800828023900500C1C6797122D426D24ECE9B
:1029080052CC5AC806D64AD056CA5EC63684328ACF
:10291800AE892A8B814463F24407B30794009C2351
:10292800138914004209939A070193DA0A0113598B
:10293800090163840A04CA976341FA04B3072401AE
:1029480083CB07005E85593F0DC99387FAFF239013
:10295800F90063906B03130519002295B2502254B5
:1029680092540259F249624AD24A424BB24B4561EB
:102978008280D694C204C18079BF0145C5B701459C
:102988008280011122CC3724002026CA4AC84EC6AC
:102998009307446E06CE2E89D0CB8CCBC8C7AA84A9
:1029A80041469305F00F4A8597E0FA1FE780C0B0CB
:1029B80085491304446E631935030848C145513DE0
:1029C80041469305F00F268597E0FA1FE780C0AED1
:1029D80005496315250348446244F240D2444249FC
:1029E800B249C1450561B5B5414681454A8597E07B
:1029F800FA1FE78060ACE31535FDC1B74146814554
:102A0800268597E0FA1FE78020ABE30625FDF24014
:102A18006244D2444249B24905618280411122C4CC
:102A28003724002026C24AC0AE842A891306000231
:102A380081451305446E06C697E0FA1FE780C095E6
:102A48009307446EA3812701B73700202386978216
:102A5800EFB07073854719C1814749452302F46E69
:102A6800B24022449244024941018280814791C97F
:102A780009C985476319F500DC3193E707FCDCB128
:102A880085473E85828089476316F500DC3193F7D8
:102A9800F703F5B70D478547E315E5FED8311377FA
:102AA800F70313670704D8B1E9BF814785C119CD7A
:102AB800D8319306000C85471377070C6308D700B5
:102AC800930600048D476303D70089473E858280BB
:102AD800411122C4005D06C626C21DC8AA8408503A
:102AE80009C597D0FA1FE7806062485009C597D09A
:102AF800FA1FE780A061085409C597D0FA1FE7803C
:102B0800E060228597D0FA1FE780406023AC04027A
:102B1800B240224492444101828019E9B72700203B
:102B280083C7676E91C7372500201305053C82804F
:102B3800372500201305C56F8280B727002003C5FD
:102B4800676E8280B727002003A5076F8280B727AA
:102B5800002003A5476F8280B727002083A7876FCF
:102B680088438280B72700209387476ED44B9842CA
:102B7800050798C2A8339307F00F6305F500916520
:102B88006FD03FE58280011122CC06CE2E8432C65A
:102B9800EF80C0189147B2456310F502B7270020AF
:102BA80083A7C73D95C303A30700630F03002285CE
:102BB8006244F24005610283B727002083A7473D9E
:102BC80081C703A34700D5B7F240624405450561B4
:102BD8008280011122CC2A844A2106CE26CA4AC8FC
:102BE8004EC697E0FA1FE780A0EA2DC52A8904217E
:102BF8008349C500F13D4A85EF8080504A20EF8027
:102C0800200D372900201309893E83470900B9C7D9
:102C180063969704B727002083C5973E26858D3491
:102C280019E1230009004A20EF80400F9147631CF7
:102C3800F500B72700209387476E5620FA23639440
:102C4800E6007D57FAA3F2406244D2444249B249B1
:102C58000561828081499304F00F65B79307F00FEF
:102C6800E383F4FC7420522028204E87A685413641
:102C78005DBF79715EC6AA8B2E8552CC56CA5AC8DA
:102C880006D622D426D24AD04ECEAE8A328B368A87
:102C980097E0FA1FE780C0DF7DC1045D2A89E5C09F
:102CA8009C50614599C3130540039C5481C7510545
:102CB8004205418163050A00710542054181DC50E6
:102CC80081C75D054205418197D0FA1FE7806056AC
:102CD8002A8455C56146814597D0FA1FE780C06BA5
:102CE800B727002083C94773639409008349090003
:102CF800930700FD1CA0A947A30074013CA023036F
:102D080064018C50231254011305840191C908C42D
:102D18007146930A440397D0FA1FE78040615685AD
:102D28008C5491C948C45146930A450197D0FA1F5B
:102D3800E780E05F5685630C0A0008C87146D285B3
:102D4800930AC50197D0FA1FE780605E5685CC507C
:102D580099C548C85D4697D0FA1FE780405DA285AF
:102D68004E85EFD0FF922254B2509254F249624AF3
:102D7800D24A424BB24B4A850259456191BBB25087
:102D8800225492540259F249624AD24A424BB24BF7
:102D98004561828001114EC6AA892E854AC806CE91
:102DA80022CC26CA2E8997E0FA1FE78060CE39C563
:102DB800B727002083C4477391E00421194597D0B1
:102DC800FA1FE78000472A8415C98145194697D01C
:102DD800FA1FE780605C930700FD1CA0B947A300B9
:102DE80034013CA023122401A2856244F2404249E6
:102DF800B2492685D24405616FD09F89F24062446A
:102E0800D2444249B2490561828039715ECEAA8BAB
:102E18002E8526DA4ED652D456D25AD006DE22DC79
:102E28004AD8AE84328BB68A3A8ABE8942C697E0BF
:102E3800FA1FE780E0C539C92A89414597D0FA1FAA
:102E4800E780203F2A8439C14146814597D0FA1F3F
:102E5800E7808054B727002003C5477319E103456D
:102E68000900930700FD1CA0BD473CA0B247A30082
:102E7800740146A023046401A304540123054401FA
:102E8800A30534015CC4A285EFD09F80F250625440
:102E9800D2544259B259225A925A025BF24B2161DA
:102EA8008280797126D2AA8439454AD04ECE06D678
:102EB80022D42EC6B289368997D0FA1FE7806037A8
:102EC8000DCDB2459307000D1EA1B1472A844EA12E
:102ED8003CA1CE851905194697D0FA1FE7802045F1
:102EE80023062401A2852254B2500259F24913F54F
:102EF800F40F925445616FD0AFF9B25022549254F6
:102F08000259F24945618280411126C2B724002046
:102F18009384446EB83006C622C44AC09307F00FA3
:102F28006308F7042A89394597D0FA1FE78060308B
:102F38002A841DCD930700FDB72500201CA1A300FE
:102F48002501230105009385C56F0D05194697D006
:102F5800FA1FE780C03D9E24A285A8303EA49C307D
:102F68005CA42244B2409244024941016FD04FF21E
:102F7800B2402244924402494101828001115AC060
:102F88002A8B314526CA4EC652C456C206CE22CC1A
:102F98004AC8AE84B28A368ABA8997D0FA1FE780BF
:102FA80040292DCD2A84268597E0FA1FE78040AE78
:102FB80009C55825A1476311F704B727002003C99D
:102FC800776E930700FD1CA09D47A30064013CA0F9
:102FD80046A0231354012314440123153401A28568
:102FE8006244F240D244B249224A924A024B4A858C
:102FF800424905616FD0CFE9B737002003C9D782AE
:10300800E3110BFCB727002083A707499C47D5DBB2
:10301800CE865286D6852685829765B7F240624469
:10302800D2444249B249224A924A024B05618280FF
:10303800011122CC2A84214506CE2EC697D0FA1F2C
:10304800E780201F15C5B245930700FD1CA1C547A1
:103058003CA1BC313CB1DE215EA1FC217CA1FC314C
:10306800AA857CB122856244F24005616FD04FE2A7
:10307800F24062440561828001114AC82A8961458B
:1030880026CA4EC606CE22CCAE89B28497D0FA1F85
:10309800E780201A25C1930700FD1CA1BC302A84B3
:1030A800938584001CB195473CA1FC301105194655
:1030B800A30FF5FE97D0FA1FE7806027DE202306CE
:1030C8003401A2853EA4BE2C4A857EA4DE2C1EA80F
:1030D800FE2C3EA883C704025CA883C714025CB810
:1030E800BE30F240D2447EA862444249B2490561EA
:1030F8006FD00FDAF2406244D2444249B2490561C6
:103108008280411122C4372400201304446E3C20DD
:1031180006C626C285CBB7240020AA851946138582
:10312800043C97D0FA1FE780802028209385043C30
:10313800EFF0DF932244B2401385043C92444101EE
:103148006FB03005B240224492440145410182806B
:10315800411126C2B72400209387446E06C622C4B4
:103168004AC0B8339307F00F9384446E6301F704A1
:103178002A89294597D0FA1FE780A00B2A8405C918
:10318800930700FD1CA1A147A30025013CA1BC2079
:10319800B72500209385053C3CB11946110597D009
:1031A800FA1FE780C018A830A285EFD06FCEB820EC
:1031B8008D476311F702B727002083A7873D99CB76
:1031C80003A38700630803002244B24092440249E3
:1031D80041010283B2402244924402494101828063
:1031E800797122D406D626D24AD04ECE52CC56CAAF
:1031F80009444DCD2A890A21AE89514497E0FA1F26
:10320800E7800089AA845DC1373700209307878249
:10321800DC238546BA8AFD1793F7F70F494463F70D
:10322800F6085825A1476314F700639109089C5CC8
:103238004544ADEF9165938545711305C00297D05C
:10324800FA1FE780A0DF88DC2A8A4D4425C11306CF
:10325800C002814597D0FA1FE78000148357090000
:1032680093064A0036852311FA00714693054900F2
:1032780036C697D0FA1FE780800B89472300FA00EB
:10328800C824B2460356090083C58A8261151335DE
:103298001500EF8010212A8463860900CE852685D3
:1032A800EF80E01301C42685EFF09F822285B2509B
:1032B800225492540259F249624AD24A45618280A4
:1032C800B737002083C7C7820547FD1793F7F70F65
:1032D8006377F708894749C6011122CC26CA4AC82C
:1032E8004EC652C406CEAA89368AB2842E8997D091
:1032F800FA1FE780E0792A84D14731C5485509C5C6
:1033080097D0FA1FE78080E0F145268597D0FA1F0D
:10331800E780200E48D4CD471DC554242147814756
:10332800639DE600630B0A00382D122993062501D8
:10333800AA854E85EF800011AA875820630E0900E0
:103348001367670058A0F2406244D2444249B24928
:10335800224A3E850561828013674700E5B7C94761
:103368003E8582809307100463EAA700B7270020F0
:103378009387477006053E950A21828041657D1531
:103388008280011122CC2A842E8526CA06CEAE84DC
:1033980097D0FA1FE780C06F0DCDB7470F0093870E
:1033A800F723094563E2870281450A85414697D09C
:1033B800FA1FE78060FEA68560800A85418040810B
:1033C800A3010100EF80807AF2406244D244056193
:1033D80082804945D5BFB73700202385A7828280E0
:1033E8006F809006797152CC2A8A328522D426D2EF
:1033F8004AD04ECE56CA5AC85EC606D662C4AE8BEE
:10340800B28A368BBA843E89C289468497D0FA1F1D
:10341800E78000680DC92A8C63130A0213774B00F2
:103428005C2115CF93E727012302FC008DEC631C78
:103438000902639A090205E8ED9B2302FC00832B2D
:103448008C0363910B08B250225492540259F249EA
:10345800624AD24A424BB24B224C45618280F59B6C
:1034680093E70701D1B793E747002302FC0001CC9B
:103478001C484146A2852324FC0213058C0197D0E1
:10348800FA1FE780C0EA63930B02D5D80325CC0264
:1034980009C597D0FA1FE78060C7F145268597D000
:1034A800FA1FE78000F52326AC0251BFE30909F8AB
:1034B8000325CC0209C597D0FA1FE78020C5F1453E
:1034C8004A85F1BF9DC483A70B0299EB916593854B
:1034D8003571714597D0FA1FE78040B623A0AB023B
:1034E80003A50B0219C57146A68597D0FA1FE78078
:1034F80000E46388090283A74B0299EB91659385E1
:1035080025715D4597D0FA1FE78040B323A2AB022F
:1035180003A54B0219C55D46CE8597D0FA1FE780F3
:1035280000E11DC483A78B0299EB91659385157102
:10353800514597D0FA1FE78060B023A4AB0203A5DA
:103548008B0219C55146A28597D0FA1FE78020DE65
:103558002254B2509254F249B24B224CCA865A862F
:103568000259424BD6855285D24A624A45616FF06C
:103578004FF0011126CA52C406CE22CC4AC84EC604
:103588002A8AAE8497D0FA1FE780805035C1AA896D
:10359800394597D0FA1FE780C0C92A8431C9B727AF
:1035A800002003C947736314090003C9090093077E
:1035B800000D1EA0AD473CA093856900130534009B
:1035C800194697D0FA1FE78080D693F714008580B4
:1035D80085885CA444B423154401A2856244F24062
:1035E800D244B249224A4A85424905616FD04F8A7E
:1035F800F2406244D2444249B249224A056182807B
:1036080001114EC652C456C206CE22CC26CA4AC89A
:10361800AA8A2E8AB28997D0FA1FE78060472DCDF3
:103628002A891305C00297D0FA1FE78080C02A8430
:1036380025C5B727002083C4477399E08344090050
:103648009307000D1EA0E9473CA0930569001305E8
:103658003400194697D0FA1FE78060CDD28523152C
:1036680054011305C400414697D0FA1FE78020CCC7
:10367800CE851305C401414697D0FA1FE78020CBB9
:10368800A2856244F2404249B249224A924A2685BA
:10369800D24405616FC0DFFFF2406244D244424920
:1036A800B249224A924A05618280411122C43724D4
:1036B80000201304843C084006C619C597D0FA1F99
:1036C800E780C0A423200400B24022444101828044
:1036D800011106CE22CC26CA4AC82EC697D0FA1F98
:1036E800E780003B31CDB245B727002003C94773B7
:1036F8000CD5AA846314090003490500414597D0F5
:10370800FA1FE78000B32A8405CD9307000D1EA198
:10371800A5473CA1DC30938564001105A30FF5FE95
:10372800194697D0FA1FE78080C09C54A285F240C2
:103738005CC46244D2444A85424905616FC05FF562
:10374800F2406244D2444249056182801D71A2CC94
:1037580086CE2A842EC697D0FA1FE780603315C913
:1037680054251147AA8749456391E6029C5FB245F3
:1037780091C3EC2BB7D605002308B1009386E6B3B6
:10378800100889452285EF70B03CF64066442561F3
:1037980082805145DDBFB737002083C7C782054700
:1037A800FD1793F7F70F637AF704894721CA411188
:1037B80022C426C24AC006C6B2842E8997D0FA1FF0
:1037C800E780002D2A84D14715C1630609005C21D2
:1037D80093E727005CA14146A6851305840197D08D
:1037E800FA1FE780C0B49C481CD48147B2402244E9
:1037F800924402493E8541018280C9473E858280C4
:10380800797122D406D62A842EC697D0FA1FE7806B
:10381800202801CDB2452285230EB1006C08EF7037
:10382800B038B2502254456182805145DDBF6F7077
:10383800C043C1671387E7FF6395E502B7270020F8
:1038480083A7473D91EB494582804945B2402244D0
:10385800924402494101828003A30700E30503FE65
:103868000283411122C426C24AC006C6FD172A890E
:103878002E84B284639AF502B727002083A7473DB8
:1038880091CF9C4381CF829711E9B72700202384E9
:10389800273FB7270020A384973E4DBFA6854A85BA
:1038A800EFE01FDE45F5D5B72E8597D0FA1FE780E4
:1038B800201E41DD1C210D45E39A27F9228522446B
:1038C800B2400249A685924441016FB0800993072E
:1038D800100463E1A7064111C16722C406C626C2C7
:1038E800FD172A8409456381F502C547AE84631232
:1038F800F4022E85EFB0200E372500201305457001
:1039080006042A9406A00145B2402244924441018B
:1039180082809307A0036316F4002E85EFB020057C
:10392800E1BF9307B003E319F4FC13F5F50FEFB00B
:103938004004D9B709458280011106CE2AC6EFE0B6
:103948003FD6EF10401BEF90416EB72700209387BA
:10395800476E130700F0BAA323820700B737002089
:10396800324513878782FD5634A3F2402384A78209
:10397800954505616F50D05575719397050126C31C
:1039880006C722C54AC1CEDED2DCD6DADAD8DED600
:10399800E2D4E6D2EAD0EECEC187AE8463D0075631
:1039A800373400200345848237290020372A002035
:1039B80097D0FA1FE780408DAA8C22CCB72A002026
:1039C800372B0020372D00201304496E372C002098
:1039D80063930C022165258DBA402A449A440A490A
:1039E800F659665AD65A465BB65B265C965C065D07
:1039F800F64D4961828083C70C001307200A639C37
:103A0800E7008349340003D52C00C1656686FD159F
:103A1800EFF06F9785A262471307878283492700D3
:103A2800130710096394E71683C71C0015476391B1
:103A3800E7026685EFF0EF996685EFC09FC0E24721
:103A480003C5878297D0FA1FE7800084AA8C49B7FC
:103A580039476395E71603D54C008567A5076316B4
:103A6800F50483A58C0083CB0500639D0B008505B9
:103A780091C93725002019461305C56F97D0FA1F3D
:103A8800E780E08A0347496E85476311F71063882A
:103A98000B002302096E5E85EFF00FC771BF8947DF
:103AA8002302F96EEFA0B06E41BF89671387270024
:103AB8006318E50483AB8C00638A0B0C83C70B0087
:103AC80099EB83C72B0003C71B00A207D98F1EA43D
