:020000024000BC
:10E000006FF0617C00000000001801180028012852
:10E0100002280328002901290229032904290529A6
:10E02000062907290829002A012A022A032A042A84
:10E03000052AA62A88DF0600D4090500420400202C
:10E04000BC040020CA0300209C03002032030020EF
:10E05000760B0500B60B0500540D0500D40F050026
:10E06000B810050034080500E60705008C02002002
:10E070003602002072150500D00700204C0B050069
:10E080007A12050088980600689A0600D29A06005F
:10E09000DC5C0600145D060072160600A80B060084
:10E0A0000A930600AA1205000A63060064AE050082
:10E0B000F4AE05004EAF05009A1D0500D81D050001
:10E0C000581C0500CE700500F26B0500480A0020C0
:10E0D000047D05006A800500205F0500C45E050020
:10E0E000826205006C5F0500A45E05001A5F0500F2
:10E0F0005A5E0500E45F05003C600500EC5F05002A
:10E10000F05F05008660050044600500746005004E
:10E110002E65050032650500E05F0500E85F05003B
:10E120008460050030650500326105008A660500DF
:10E13000C48D0500388E0500728E05001A73050027
:10E140002E730500627305004C54050072560500DD
:10E150004E570500863A05001C3505005A4B050050
:10E1600098350500D84605006EC1060012BA0600B3
:10E17000D4BE0600E0D30600CCD206003AD6060094
:10E180002AD6060032D6060074D606006AAC06000F
:10E19000000000000000000000000000000000007F
:10E1A000E4D60600D2D0060070D0060000000000C1
:10E1B000000000000000000000000000000000005F
:10E1C000E87B06000E6B0600646E06004C6C0600D1
:10E1D0002676060062930600000000009EAC060052
:10E1E000F6160500245D0600EA620600E2630600FA
:10E1F000000000000000000000000000DE760500C6
:10E20000267B060000000000000000000000000067
:10E21000BE6A0600BA090020905D060060D60600BE
:10E2200000000000000000002ED606005E0F050072
:10E230005274050068D60600D47D0600387F0600BB
:10E24000A47F06001ABF060064D606006CD606003E
:10E25000340B060070D60600801B002088240020A6
:10E2600000000000000000000000000000000000AE
:10E27000000000000000000000000000000000009E
:10E280006373B60082801C419105110523AEF5FE33
:10E29000C5BFB727002037370020938707551307DE
:10E2A000C7C16373F700828023A007009107D5BF21
:10E2B000411122C4B747024006C603A4C72023A6C3
:10E2C00007200F10000011C199E5B747024023A6AF
:10E2D0008720014545A093073500C207C183F19B04
:10E2E000C207C183130740036366F7023727002084
:10E2F0000325077D372700208326877C6391A602AC
:10E30000373700200327C78569D3C207DD8D054550
:10E31000029765BF372700200325C77CE1BF7A211C
:10E3200031EF5A21636CF704B72600203306F7401B
:10E3300021489386867D6375C8028328050003D82B
:10E340006600138687001D8F2A9661175AA2232024
:10E3500016012313060010C15EA1130788FFFAA25D
:10E360006EA1EE222105B387F540FEA2B747024019
:10E3700023A68720B2402244410182800841BDBFCC
:10E38000B747024003A8C72023A607200F100000AC
:10E3900001E523A607218280B727002003AE077D71
:10E3A000B727002003A3877C8146F28763FE6708B6
:10E3B00083A80700636DF50863EBA808138787003F
:10E3C0006364E508F223216705076319E600372631
:10E3D00000200347065F05072308E65E3726002076
:10E3E0001305867DCE237A21239307001306867DAD
:10E3F0002E97420741837AA16383C7033725002004
:10E400000325C57C630DF500EA2211E9DE2223A075
:10E4100016012107BE95A105CEA27AA2B687984320
:10E4200063046702B726002083A6C67C630ED7006C
:10E43000762399EAD6234E231843A106AE96D6A397
:10E4400098C37E22A1077EA2B747024099B7BE8635
:10E45000C687A9BFB7270020B726002083A7077D5E
:10E4600003A6867C2A87B305B5406314F6003A8577
:10E4700029A8938687009C43E369D7FEE377F7FEDC
:10E480002E85E3E4D5FEE3F2F5FE828023AC05FEA3
:10E490001C4181E70CC18280BA8703A787FF6DFF0B
:10E4A00023ACB7FE8280411126C24AC0B744024065
:10E4B00006C622C403A9C42023A604200F1000000E
:10E4C00009E923A62421B240224492440249410191
:10E4D00082802A842105BD654205C18D4181C93BE9
:10E4E00011C9FD572320050042A17CA123A62421A8
:10E4F0002105D1BF23A624210145F1B701114AC846
:10E500004EC6B747024006CE22CC26CA83A9C720F2
:10E510002A8923A607200F10000037250020032496
:10E52000457D8144014609E889ECA1654A8597103B
:10E5300005E0E78060D125A08347E4FF639D2703C2
:10E54000A1C0A6851305457D970005E0E780004F33
:10E5500069DCA1654A85971005E0E7800089F240F3
:10E560006244B747024023A6372126854249D24458
:10E57000B2490561828091E02286032484FF65B759
:10E58000A284E5BFB737002083A7478299E33E8581
:10E590008280BA236315B7009823E30AA7FEDC47FD
:10E5A000F5B7B747024003A7C72023A607200F10DF
:10E5B000000001C599C1814711E6B747024023A673
:10E5C000E7208280B386F50003C80600B306F50095
:10E5D000850723800601E317F6FEC5B737470240DB
:10E5E0008327C720232607200F10000019C191C1DF
:10E5F00011E6374702402326F7208280910503A7C2
:10E60000C5FF11057D16232EE5FEDDB73747024015
:10E610008327C720232607200F10000001C53307DA
:10E62000C50011E6374702402326F7208280050502
:10E63000A30FB5FEE31DE5FEF5B7B747024083A67D
:10E64000C72023A607200F10000081473307F500DD
:10E650000307070019E7374702402326D7203E85E6
:10E6600082808507E5B7011126CA4AC8B74702402C
:10E6700006CE22CC83A4C7202A892E8623A6072073
:10E680000F100000131506019305F004418132C6F6
:10E6900005312A8401C53246CA8521372285F240D8
:10E6A0006244B747024023A697204249D2440561FD
:10E6B0008280B747024003A7C72023A607200F1078
:10E6C000000001C599C1814711EAB747024023A65E
:10E6D000E720054582808507E309F6FE3308F5004B
:10E6E000B386F500034808009422E306D8FEB74736
:10E6F000024023A6E72001458280B747024003A7D6
:10E70000C72023A607200F1000009307F6FFBE9531
:10E710002A966317C500B747024023A6E7208280E8
:10E72000FD159C310505A30FF5FEE5B737470240FF
:10E730008327C720232607200F10000001C53307B9
:10E74000C50019E6374702402326F720014582809D
:10E7500005058346F5FFE397B6FEE31BE5FE374765
:10E7600002402326F72005458280797126D2B734EE
:10E77000002022D403A4448206D64AD04ECE52CCE6
:10E7800056CA5AC85EC662C455C4373A00203729F3
:10E790000020B7390020814BB73A002037CBC901A0
:10E7A000130A8A821309897D938909873E2099EF8C
:10E7B0005C44639A0B0023A2F482032CC4002285DC
:10E7C000C1366284A9A823A6FB00C5BF83A7CA815E
:10E7D00082971C443307F5406376F50003A7490090
:10E7E0001D8F2A979306FB3763EAE6062328090064
:10E7F0002E200820970005E0E780205F5C40584409
:10E80000B1C70C4403A64900AE97BE8663E4B700C7
:10E8100063E4C700B386C74014C4A28B3A8459F49A
:10E82000B72700209387877D984B854663FCE604D5
:10E830007D1798CBB250225492540259F249624A41
:10E84000D24A424BB24B224C4561828063950B0009
:10E8500023A2E4829DB723A6EB0085B703278A0293
:10E8600019CB63EDA7003385A740832709016374A3
:10E87000F5002328A900A28B404455B703A74900FF
:10E88000BA97D5B723A8070075B701114EC6B74789
:10E89000024006CE22CC26CA4AC852C483A9C72049
:10E8A00023A607200F1000003734002093070487A9
:10E8B000C843DC2713040487B9CFB73700209387F8
:10E8C000879D03D7870A21CB83A4470A6385A404C5
:10E8D000B72700201387877D184B138A877D630F26
:10E8E000A70E373900208327C981829763E5A40EDC
:10E8F0008327C981898C829703270A0163F3E40087
:10E900002687B307A7003E85544063E4E70063E42D
:10E91000D7003385D740B747024023A637215C4054
:10E92000639DA702B72400209384847D9848B7375D
:10E93000002083A7C7816315A70A82975440B74771
:10E9400036FE938707C8B6973387A7003A85636476
:10E95000F7006364D7003305D740B73400209387AE
:10E96000C4B1DC539384C4B199CBB737002083A6DC
:10E9700087B93707CDFF7D179C46F98F9CC611E1FB
:10E9800048408547DCC4B737002083A707858297B6
:10E9900005E1DC5089CFDC4499CB976006E0E78045
:10E9A00060E1975006E0E780406023A60400753BD5
:10E9B000DC5091CBB737002003A787B9B7063300E7
:10E9C0001C47D58F1CC7F2406244D2444249B24929
:10E9D000224A056182805C40BE9419BF268525BF0E
:10E9E000829794485840B387A6003E8563E4D700D9
:10E9F000E3E5E7F63385E7408DB7B727002023A886
:10EA0000A75411C5B72700200547238AE754828001
:10EA1000B727002003A70755411122C406C6138457
:10EA2000075511C30297B727002083C7475593F7AF
:10EA3000F70F99E323200400B24022444101828071
:10EA4000011126CAB734002022CC4AC89387048714
:10EA500006CE4EC652C456C2DC27373900209384F6
:10EA600004871304498095E3B73700209387C7B123
:10EA7000D833058B19CBF8339946639BE60AA382FA
:10EA80000700EF1020465C4482971C4491C3829794
:10EA900037240020B73900209307847D03A709821B
:10EAA0009033130A847D8347847D93961700BA962A
:10EAB0009622C9CA8347847D63EEC708230C047C71
:10EAC000373400209307C4B19C371304C4B1639159
:10EAD0000710B737002083A7C781F5C3DC40232880
:10EAE000FA006131B737002083A70785E9CB7C3076
:10EAF00011476366F70CB7370020938787B6DC278A
:10EB0000918BD5EFB727002083C7475593F7F70FB1
:10EB1000DDE783461A0003A6098263C7D70C624467
:10EB2000F240D2444249B249224A924A0561B1BBFD
:10EB3000F8339D46E39BE6F4A3820700EF10803A8A
:10EB40001C4899B7850793F7F70F230CF47CE3EC87
:10EB5000C7F48DB786073E970E23231007000345A1
:10EB6000847DB737002083A7078013172500B73AA5
:10EB70000020BA979C43239C0A80829783D78A817E
:10EB80000347847D93C7F7FF7D8D9317170003A775
:10EB900009823E971E235D8D0AA38347847D81C72A
:10EBA0008507230CF47C8327498081C78297232221
:10EBB00009800347847D83471A00E371F7F0F24030
:10EBC0006244D2444249B249224A924A0561828053
:10EBD0007C3093F7F70FE39E07EEA30404009750F1
:10EBE00006E0E780806CF5B51397170032971A237B
:10EBF00079F785071DB7374702408326C720F1778D
:10EC0000FD17F58F2326F72001000100B72700200C
:10EC10009387877DC84F832787262326D7206A05B9
:10EC200093C7F7FF99835D8D8280B727002083C744
:10EC3000B77D89CFB737002083C7C78791CBB73758
:10EC4000002003A307886307030002830545828031
:10EC5000094582801305F00F8280B737002003C674
:10EC6000479DB727002003A7075C81476315F6007F
:10EC7000814636858280BA8613078702835587FDD1
:10EC8000E389A5FE850793F7F70FCDB7B7370020C7
:10EC900003C7579DB727002083A7C75D2A860507AE
:10ECA00081463E859E236388C700850693076500DD
:10ECB000E3E9E6FE01458280B727002003A7475D10
:10ECC00019E3014615A81C4703D8A700636B05018B
:10ECD00083584700B38608016355D5008146639485
:10ECE00016011843F1BF3E86C10703D3A7FF631780
:10ECF000A30099C123900501328582808506C20652
:10ED0000C182F1BFB737002003C6479DB737002047
:10ED100003A7479781476315F600814636858280B1
:10ED2000BA861307C703835567FCE389A5FE8507E9
:10ED300093F7F70FCDB7032785116DCB411122C48F
:10ED400006C65C258345E5042A8493F7C70F5CA5B6
:10ED50001437522713958601618563F7C506635101
:10ED60000506082793F6F60714B7054693E627002D
:10ED70006314C50093E6170054A45C4389075CC381
:10ED80004CB8032504112E864C430905EFF07F8112
:10ED9000832784115038D443DA27B296118FD4C315
:10EDA000DAA789473CBCB73700200347640383C711
:10EDB000A7836371F7045C2493E707015CA41DA893
:10EDC00093E717005CA46DBF9376F60F63590502B5
:10EDD0000827854513E627006314B50013E61700DE
:10EDE00050A454B8A304070085473CBC8327841172
:10EDF0009C43D5FBB240224401454101828093E708
:10EE000017005CA454B8A3040700032504114C4365
:10EE10000905EFF00FF9832784115038D443DA271E
:10EE2000B296118FD4C3DAA78D47C1B7054582804A
:10EE3000B737002083A7C7AF411122C406C6858B10
:10EE40002A84D5E34165130525F5971006E0E78090
:10EE5000604E51C93C253EA583270412ADE3232013
:10EE6000A4122322A41285472311F40423200500B1
:10EE70007C2854415EA5583418A5054718B5373786
:10EE80000020032707B41385170215811C437D1545
:10EE90001375F50F9CC25C43DCC21C479CC65C47E3
:10EEA000DCC61C4B9CCA5C4BDCCA1C4F9CCE5C4F26
:10EEB000DCCE19CD9386060213070702C1BF832754
:10EEC000441288C3835724042322A412850769BFF0
:10EED000B73700209387879D9A2705079AA7B240E6
:10EEE0002244410182805C2423090400054593C724
:10EEF00047005CA4EDB71C2D93F7E70FC5EB1C3D55
:10EF0000D5E73029542509CA3737002083456503E2
:10EF10000347B78363E7E50013F7060149CB0147D1
:10EF200009C6C18A0357E51B81C68356251C36973F
:10EF30003DCFB737002003D587871307C712374661
:10EF40000F00B335A702411113060624814622C4DF
:10EF500026C206C67D543305A70297D006E0E78097
:10EF6000C0B4B737002083C7F783B384A700B7378F
:10EF7000002003A787A68327070963F387003E8441
:10EF8000184375FBB737002083A7C7818297814755
:10EF90006364A400B307A440B2402244B3B797000F
:10EFA00093C7170092443E854101828081473E8588
:10EFB0008280B737002003A747B47C53FDFF8280CF
:10EFC00001114EC6B73900209387899D22CC03A436
:10EFD000870926CAB7340020938704879E274AC82A
:10EFE000035964080325040906CE3309F902B7471B
:10EFF0000F001387F7239387072452C456C25AC0C1
:10F000009389899D938404873A993359F902636DF2
:10F010002503373A00208327CA8133092541829787
:10F020006367A9023309A9406346090283570404B0
:10F03000A30F040085072310F4048347041463948A
:10F0400007102285CD2511A2DC403E95D9B7DC40C2
:10F050003E99C9BF8327CA81829703278408636FBB
:10F06000E508198D7E3C9A248E07B387E7021307C3
:10F07000003293870719B3D7E70263E5A708B74AB9
:10F080000F00138BFA23938A0A24835704048507FD
:10F090002310F4048347041499E32285692522850B
:10F0A000971006E0E780008E631D0524832604097F
:10F0B0008327C408D840B6973E8563E4D70063E44D
:10F0C000E7003385E7407C3C035964082328A40803
:10F0D00085077CBC9E243309F9025A993359590398
:10F0E000636C2505330925418327CA8182976369AB
:10F0F000A9043305A940E34A05F80DBFDC40998F08
:10F100003E958DB7A1452285970006E0E780C07F38
:10F11000A305A402B737002003A3C7856303031E1A
:10F120006244F240D2444249B249224A924A024BD6
:10F130008945154505610283330927412A996DB731
:10F14000DC403E997DB7228551252285971006E047
:10F15000E78040836317051A8A2483576408B746FB
:10F160000F001386F623B387A7029386062403278E
:10F170000409230B040283AA4400B297B3D7D70231
:10F18000636BF718B307F7408326C4082324F408F9
:10F19000014BB387E6003E8963E4D70063E457017F
:10F1A000338957411E3023282409A1CB83560404F8
:10F1B0005A3037460F0056B03387E640B387E70230
:10F1C0003A301306062481468145BA97C207C183A7
:10F1D0003385A7023EB097D006E0E780008D11CDC1
:10F1E0004A95333925012E99AA8763142B0163644C
:10F1F0005501B30755412328F4088327CA81829714
:10F200002A898327CA818297E30D25FF8327CA8134
:10F210000329840882976365A9103305A940630A0E
:10F22000051083DA84008357640837490F001307F9
:10F23000F923B387570313090924BA97B3D72703D0
:10F24000373700200347F783BA9763E4A70EB33537
:10F250002503035A2402568681463305250397D099
:10F2600006E0E7808084330BAA0033055A03374653
:10F270000F00130606248146814597D006E0E780FB
:10F28000C0820DC1B337250356868146B305B90246
:10F290003305A902BE9597D006E0E78000813305CB
:10F2A000AA402AB03545975006E0E780600D23ACB0
:10F2B000890838348547631DF700930700FD7CA457
:10F2C000B737002003A587B0DC24B1CFEFF0EFF211
:10F2D000B736002003A646B4B73700209387C7B1DE
:10F2E0001547F8B35846F977FD17F98F5CC60F102C
:10F2F000000083A746B48966060B94C723A267075C
:10F30000D8C7F2406244D2444249B249224A924AA2
:10F31000024B05618280B3065701B387F640ADB555
:10F32000DC403E99DDBD8145970005E0E780C009DE
:10F3300045B7DC2423AC090885C3B737002003A5F3
:10F3400047B0970005E0E780C042B7E700E0370725
:10F35000000223A2E72075B78347940285456244E3
:10F36000F240D2444249B249224A924A024BB395F2
:10F37000F500C205C18101450561170305E067007D
:10F38000C3A6011122CC4AC84EC606CE26CA52C414
:10F3900056C25AC0383585472A842E8983290509E3
:10F3A0006315F71E83570508035BC503373A002032
:10F3B00093060A8783DA8600130A0A8763FF6719B0
:10F3C0001429639CE618032785116318071803277F
:10F3D000450A6314071874351D476390E6182A3DE3
:10F3E000330BFB409307204E330565038324440908
:10F3F00037460F001306062481463305F502B7375A
:10F40000002083C7E783B3549502B3B5AA02BE9424
:10F41000C204C180231394083385AA0297C006E072
:10F42000E780A068AA9933B5A9002E954E87832757
:10F430004A0019E163E4F9003387F940B3845403C7
:10F44000B7460F009387F623938606242320E9000E
:10F45000BE94B3D4D40293171B00A6976369F70E2A
:10F460001D8F2320E900B739002083A7C981832499
:10F470000900829763EEA4103385A440635D050AFA
:10F4800083A7C981373B0020130B0B878297032783
:10F4900009006365E510198D7E3C03578B008E07CC
:10F4A000B387E7021307003293870719B3D7E70240
:10F4B00063EBA70E374A0F00930AFA23130A0A24B4
:10F4C0008357040485072310F4048347041499E345
:10F4D0002285912C2285970006E0E780A04A6DE105
:10F4E000832604098327C40803274B00B6973E856B
:10F4F00063E4D70063E4E7003385E7407C3C835452
:10F5000064082328A40885077CBC83578B00B38438
:10F51000F402D694B3D444036363950CB3049540CA
:10F5200083A7C98123209900829763EEA40A3385BB
:10F53000A440E34705F8B737002083C7F78363E2A9
:10F54000A708B737002023A887A601459DA88326D2
:10F550004A00B387F6403E9729B783576408374778
:10F560000F00B38457039307F723A6979304072448
:10F57000B3D4970263E79900B3849940232099009C
:10F58000DDB583274A00BE99C5BF23A03501E1BD83
:10F59000B737002083A74787BE94F9BD83274B0068
:10F5A000998F3E95D5BDA1452285970006E0E7805D
:10F5B000A035A305A402B737002083A7C78581EF34
:10F5C0007D55F2406244D2444249B249224A924AAD
:10F5D000024B05618280894515458297D5B7B304F2
:10F5E0009740AA9435BF83274B00BE9489B721CD9D
:10F5F00001116C0022CC06CE2A84613339C1FD573B
:10F600006307F502B736002093868682FC3A94564B
:10F61000324791C285836360F702B307F7403EC665
:10F62000B24503459402970005E0E780E091F2407F
:10F63000624405618280B736002083A646873697EC
:10F64000E9BFBD3AEDB78280B737002079711387E3
:10F65000879D4AD00329070906D622D426D24ECE4A
:10F6600052CC56CA094763000906B7340020938A72
:10F67000879D9387C4B1FC3395469384C4B10D47ED
:10F680006383F604DC442A8A99CB975006E0E7802E
:10F690006012975006E0E780409123A60400FD59D0
:10F6A0006C004A85F93915E937150020130505D591
:10F6B000EFF0AFB4A147DCA0B737002083A747B471
:10F6C0000947F8D30D47B250225492540259F249D7
:10F6D000624AD24A3A854561828063743501324478
:10F6E000AA8903290900E31D09FAFD571307F00F42
:10F6F000E38BF9FC914763F187029307B4FF232062
:10F70000FA0023A2FA0A0147DDFFB737002083A7DA
:10F7100047872320FA0045BFB737002083A74787D4
:10F72000ED17A297E9BF797126D206D622D44AD026
:10F730004ECE52CC56CA5AC85EC6834755030344C0
:10F740007513AA843E941374F40F9307400263F672
:10F7500087001304B4FD1374F40F03AA841383AA5F
:10F76000C413A38B841222865285D68597C006E0E7
:10F77000E780E030058915E503CBD41201498149C2
:10F78000337B6403930B50024A865285D68597C01B
:10F7900006E0E780C02E058915C5639169031374DF
:10F7A000F90F238B8412B250225492540259F24919
:10F7B000624AD24A424BB24B456182808509E209D6
:10F7C00093D989410509E31179FDE1BF83278509B3
:10F7D00003560504797193D60701BD8EC206C18216
:10F7E000358E1357764093575640898B058B5D8F26
:10F7F00093573640918B5D8F93571640A18B5D8F49
:10F8000093171600C18B5D8F9317360093F707028D
:10F810005D8F931756009355860093F707041E06D5
:10F820005D8F1376F60F518F93D7554013D6354021
:10F83000118A898BD18F13D67540D18F13D615407D
:10F84000218AD18F13961500418AD18F13963500E6
:10F8500013760602D18F13965500137606049E0583
:10F86000D18F93F5F50FCD8FA20745465D8F3307F6
:10F87000C70222D42A8426D252CC56CA032A841321
:10F88000832AC4135AC806D6369742074183935732
:10F890007740135557400989858BC98F13553740D9
:10F8A0001189C98F135517402189C98F1315170066
:10F8B0004189C98F1315370013750502C98F1315B8
:10F8C000570093558700137505041E07C98F1377DA
:10F8D000F70FD98F13D5354013D755401189098BB0
:10F8E000498F13D57540498F13D515402189498F0C
:10F8F000139515004189498F13953500137505023D
:10F90000498F13955500137505049E05498F93F58E
:10F91000F50F4D8F2207D98FB387C7024AD04ECE3D
:10F920005EC662C4B697C207C18313D7774013D5AA
:10F9300057400989058B498F13D537401189498F65
:10F9400013D517402189498F139517004189498F95
:10F950001395370013750502498F1395570093D5FA
:10F960008700137505049E07498F93F7F70FD98F0A
:10F9700013D5354013D755401189098B498F13D5BD
:10F980007540498F13D515402189498F139515006E
:10F990004189498F1395350013750502498F1395D9
:10F9A0005500137505049E05498F93F5F50F4D8F8E
:10F9B0002207D98FB387C702130650025285D68516
:10F9C000B697BD8E93940601C18033F6C402137BB3
:10F9D000F60F97C006E0E780800A05890DED8347A2
:10F9E000D41201498149B3849702130C5002C1809B
:10F9F0004A865285D68597C006E0E780400805898B
:10FA0000937BF90F11C563863403850993F9F90FC8
:10FA10000509E31F89FD230B6413B250225492544D
:10FA20000259F249624AD24A424BB24B224C4561DA
:10FA300082805E8BCDB7797122D406D6BC312E84FC
:10FA400023160100DC87DC21100802C05C87DC3152
:10FA50008A8502C2DC8602C402C802CA02CC02CE77
:10FA60000D2A0347F1011C200145631EF7000347DF
:10FA7000E1011C3001456318F7000345D1013C202A
:10FA80001D8D13351500B25022544561828001113D
:10FA9000B737002022CC03A487A926CA4AC84EC67D
:10FAA00006CEAA8413092500854905C09C3038304C
:10FAB000858B6304F700405CCDBF19469305440075
:10FAC0004A85EFE01FBFE31835FF2285F24062440C
:10FAD000D2444249B249056182804111B7370020C2
:10FAE00022C403A487A926C24AC006C693042500DF
:10FAF000054901E82285B24022449244024941016D
:10FB00008280A6851305A4023D37E30525FF405CEE
:10FB1000CDB74111B737002022C403A487A926C25C
:10FB20004AC006C693042500054901E82285B24073
:10FB300022449244024941018280A6851305A40112
:10FB4000DD3DE30525FF405CCDB70111B73700204F
:10FB500022CC03A407A926CA06CE2AC42EC68544F1
:10FB600019E40145F2406244D244056182809C84DC
:10FB70001830858B6304F7000044DDB71946930500
:10FB8000A10013052400EFE0DFB2E31795FE054561
:10FB9000D1BFB736002083A7C6B01307001098C3A3
:10FBA00023A0070018310348250022074208429786
:10FBB000034805004297034835006208429798D7EA
:10FBC0005831034865002207420842970348450020
:10FBD00042970348750062084297D8D71835034802
:10FBE000A500220742084297034885004297034830
:10FBF000B5006208429798DB58350348E5002207B4
:10FC0000420842970348C5006835429762052A9723
:10FC1000D8DB9831A821220742052A9788212A9704
:10FC2000A83162052A9798CFD831E82122074205EA
:10FC30002A97C8212A97E83162052A97D8CF9835A4
:10FC4000A825220742052A9788252A97A835620504
:10FC50002A9798D3D835E825220742052A97C82540
:10FC6000EC352A97E2052E97D8D3D843759BD8C395
:10FC7000D84313671700D8C398431367170098C376
:10FC800003A7C6B05C43858BBDE71C4F01451CA292
:10FC900083A7C6B09C4FA1831CB283A7C6B09C4F5C
:10FCA000C1833CA283A7C6B09C4FE1833CB283A72B
:10FCB000C6B0D84F58A2D84F218358B2D84F4183ED
:10FCC00078A2D84F618378B2985318A698532183AD
:10FCD00018B69853418338A69853618338B6D853E1
:10FCE00058A6D853218358B6D853418378A6DC53FD
:10FCF000E1837CB68280010061B7B737002003A79B
:10FD000047B41605136505083C4B93E707083CCB41
:10FD1000B737002083A7C7B003A7450E88C398CB89
:10FD200003A7850E0145D8CB03A7C50B98CF03A722
:10FD3000050CD8CF03A7450C98D303A7850CD8D3BF
:10FD400003A7C50C98D703A7050DD8D703A7450D62
:10FD500098DB03A7850DD8DB03A7C50D98C703A7BC
:10FD6000050ED8C798431367070498C38280B73736
:10FD7000002003A747B41605136505083C4B93E71D
:10FD800007083CCBB737002083A7C7B003A7C50E31
:10FD900088C398CB03A7050F0145D8CB03A7C50B94
:10FDA00098CF03A7050CD8CF03A7450C98D303A77A
:10FDB000850CD8D303A7C50C98D703A7050DD8D7B2
:10FDC00003A7450D98DB03A7850DD8DB03A7C50D59
:10FDD00098C703A7050ED8C798431367070498C3AD
:10FDE000B73700209387C7B1130700F8F8A38280C4
:10FDF000B736002003A706B141114AC01C5F06C6F2
:10FE000022C4998326C2858B3689B5CF9307000615
:10FE1000373400201CDF8347C4B19304C4B193F787
:10FE2000070489CFB737002083A7C7818297C8CC42
:10FE30008347C4B193F7F70B230EF4B08347C4B1E3
:10FE400093F7070285C38347C4B1373700200327E0
:10FE500047B493F7F70D230EF4B0DC48A16614C73E
:10FE600086077CD7DC2093F7070491EF8547DCB049
:10FE7000B737002083A747B4096798C7130700FC6A
:10FE8000D8A09848F8D3032709B11C5F9183858BCC
:10FE900089CBC1471CDFB73700209387C7B18546A0
:10FEA000D4A31C5F9D83858B91CB930700081CDF37
:10FEB000B73700209387C7B10547D8A3B7370020CD
:10FEC00083A7C7B0D8430583058B19C7D843759B53
:10FED000D8C3D843799BD8C3B24022449244024944
:10FEE00041018280B7370020B736002003A647B40F
:10FEF0009387C6B103C7C6B1058B19E79833058B45
:10FF000001E7785265FBD833A38207008280373837
:10FF10000020032708B11C5F9583858BBDE701C6D0
:10FF20001C5BBD831CA29DC6832708B1985B460756
:10FF3000935767016356070093E707C0C207C18361
:10FF400003970600C207C18709C7BA970947B3C715
:10FF5000E7029EA285C11C3191CF3E951C35054715
:10FF6000194593F6F7066393E602E207E187394500
:10FF700063CE0700832708B13737002001459C5F17
:10FF8000ED838D8BA303F7B28280054582804111FA
:10FF900022C406C63734002026C2032744B43DE5F8
:10FFA000AE877453FDFEB73400209384C4B13E8500
:10FFB000B28523810400974006E0E7802013B7371D
:10FFC000002083A707B1B70680009843558F98C3D8
:10FFD000D857719BD8D7832744B4A3820400A38049
:10FFE0000400094798C3832644B4B7370020938799
:10FFF000C7B1B823058B11E7B833058B19E3F85265
:020000025000AC
:100000006DFBB24022449244410182808D47631FC0
:10001000F500B737002083A707B1B70680009843E3
:10002000558F98C3D857719BD8D775BF8547E31CA8
:10003000F5FA5447F977FD17F58F5CC70F100000EC
:10004000032744B48967130600F81CC7B73700209C
:100050009387C7B1D0A3B737002083A707B19C43CC
:10006000B1838D8B91E7930760197CD354C7A5BFEB
:100070009307E01BDDBF5D7152DC373A0020032798
:100080000AB186C6A2C4A6C2CAC04EDE1C43B73996
:1000900000203739002093F7F7E793E707081CC3E0
:1000A00083A689B93707CEFF7D179C4613068002C9
:1000B0002A84F98F9CC6832749B42800AE8423A8DC
:1000C000070493051008EFE06FD43545974006E02C
:1000D000E780002B83270AB19376F41F370633009D
:1000E00023A40700984B370FFCFF4E881367F703D4
:1000F00098CBF84FCA88130510F8137707E0558F8F
:10010000F8CF9843F576FD16758F98C337370020E2
:10011000832649B41307C7B1A3020700A300070051
:10012000054798C29843D285B70204001377F7E7D2
:1001300098C398439303802511491377F7E7136712
:10014000071098C303A789B97D1F85491C47930FE2
:100150008002D18F1CC793079005BCCA01473400A9
:100160001353370026938347030013767700B3D7E2
:10017000C740858BE1C383A705B1832E88B9239C33
:1001800007042390070603AECE02137EDEFF23A6EC
:10019000CE0383AE0700137EF70793FE0EF833EE0F
:1001A000CE0123A0C70103AE4702336E5E0023A237
:1001B000C70383AE48B4014E23A27E0603DA0706C6
:1001C00063074E0303AE0703038A0600135EFE00B7
:1001D000620E135E8E416358CA0103AE0703135EBD
:1001E000FE002380C60103DE0706137EFE0F03AA6E
:1001F0004E0663060A0003DA8705E37F49FB03AE78
:100200004702337EEE0123A2C70383870600635CA7
:10021000F400034E03003396C9001346F6FF33760D
:10022000C6012300C3003E8663D3A7002A861315A8
:100230008601618505071377F70F8506E312F7F34B
:10024000B640264496440649F259625A616182805A
:10025000B737002083A747B4D8479316170163D256
:10026000060298479316170163DD06007D57B8D73D
:10027000372700201307877D544F850654CF116719
:1002800098C798470D83058B11CF37370020130788
:10029000C7B1342393E6160034A3930600F854A3A1
:1002A000214798C79847058B19CB3737002013078C
:1002B000C7B1143393E6160014B3054798C798479F
:1002C0000983058B09E798470583058B31CB3737C1
:1002D00000201306C7B1A30206009447B7350020DB
:1002E00083A505B18982858AE5C69441B1828D8A4C
:1002F000E9EEA84B54521376050294324DC2F9E24E
:100300009306D005D4CF8346C7B193E61600230EDB
:10031000D7B0114798C7D855719B13671700D8D528
:1003200098479316370163D40602373700209306A7
:10033000879D03C606071307879D418A45C203C7E9
:100340000607136707022388E606056798C79847DC
:100350009316270163DF0600373700201307C7B164
:100360005423E206E18663D40600854654A3096758
:1003700098C798479316070163D2060237370020C3
:100380001307879D83461707858AADCA83461707DB
:1003900093E62600A308D706216798C78280ADD2CE
:1003A00005466395C60093061006A9BF09466395E6
:1003B000C60093065006B9B70D466395C60093066E
:1003C000900689B79306B00635BF9306C0061DBFD9
:1003D00038321367170038B209472DBF8346070725
:1003E0000946BD8A6388C600834607070D46BD8A55
:1003F000E39DC6F491462308D70681BF83461707BD
:10040000918AD9DA8346170793E6860061B7B73732
:10041000002083A747B4B73600201387C6B19047A2
:1004200010CF90470D82058A11CA3023136616003B
:1004300030A3130600F850A3214690C79047058AC1
:1004400019C610331366160010B3054690C79047BF
:100450000982058A09E690470582058A31C6A3020A
:1004600007009047B735002083A505B10982058AAA
:1004700059CA904131820D8A41E6A84B50531375F9
:100480000502103221C935EA1306D005D0CF03C6C4
:10049000C6B113661600238EC6B0914694C7D455D4
:1004A000F19A93E61600D4D5944713962601635B20
:1004B00006005423E206E18663D40600854654A371
:1004C000096798C798479316070163D40600216708
:1004D00098C7828055DA05456315A60013061006F5
:1004E00075B709456315A6001306500645B70D45B7
:1004F0006315A6001306900651BF1306B00679B720
:100500001306C00661B7343393E6160034B3894648
:1005100071B737370020B7360020138686B413072B
:1005200087B65C372C3E484AAE97FD8BB355F50035
:100530001CB25CB785898DE9183B8146130800021F
:10054000B3F7E7020147B355E50085899378F70FC4
:1005500089C96395D700A30016018280850693F6AA
:10056000F60F0507E31107FF8280B7370020938756
:10057000C7B1DC3393F7F70FD1EBB737002083A770
:10058000C781411122C44AC006C626C282973739A4
:100590000020930789B68047130989B66302A40631
:1005A00063688504018DB7340020938784B4BC2F21
:1005B00013545500938484B46364F40485676371B1
:1005C000F404813FBC2C032789009396570036978B
:1005D0001D8C2324E900E376F4FE22448830B240E7
:1005E0009244024981454101174306E067004320D8
:1005F000B737002083A7478733848740229565B7A4
:10060000B240224492440249410182808280B7373D
:10061000002083A7C781011122CC26CA52C406CE6E
:100620004AC84EC68297B7340020938784B6804765
:10063000014A6300A406938484B663658506018D30
:1006400037370020930787B4BC2F13545500137A13
:10065000F501130987B4636BF402B739002093895D
:100660000987453D8346A90103A8840083A5490065
:10067000139756004297158C3A86636407016364AA
:10068000B7003306B74090C4E37DD4FC1604336A48
:100690004401F24062445285D2444249B249224A5E
:1006A00005618280B737002083A74787338487405E
:1006B000229579B7B737002003A747B4856793879A
:1006C00007777CD3B737002083A787B983A60709AC
:1006D000139656006358060083A607091396660012
:1006E000634406007453FDF282800000EFE04FB2D5
:1006F0007300000000000000970200009382C20C0B
:100700000383020023800200630F0300F3251034EB
:100710002EC0970500009385A5FD73901534EFF06A
:100720001FCF7300203086DCEFF09FB2E65082804E
:0407300000000000C5
:10073400B72700203727002083A7077D0327877C5E
:1007440001456313F7008280F62399E2D623369598
:100754009C43C5BFB737002083A587823727002075
:1007640093878782138605222328C77CDA239387FD
:1007740085FFB72600204111BA97056523A4F67CAE
:1007840006C61D05935637006374E50093060020E2
:100794003307D600372500202326E57C23A0E52255
:1007A400E11656A2231306001CC3998FE1175EA31A
:1007B40023130700B53FB240B7270020239FA77C2F
:1007C40041018280184183A785FF6319B7001CC1CA
:1007D400FD5723AC05FE238FF5FE8280232CF6FE05
:1007E400C5BF411122C426C23744024006C6832431
:1007F400C420232604200F10000009E92326942096
:100804001545B24022449244410182800347E5FFEA
:100814009307F00F6306F700232694201145D5B7FC
:100824009700FB1FE780C08E014523269420D1BF8B
:10083400411126C24AC0B744024006C622C403A9D5
:10084400C42023A604200F10000089E523A6242138
:10085400154515A0B727002083C7977D2A842E85C8
:100864006375F400894763EE8700A53FB7470240EC
:1008740023A627210D45B240224492440249410156
:10088400828083A785FF99E703C7E5FF9307F00FED
:100894006308F700B937B747024023A627214DBFA5
:1008A40037250020238F85FE1305457D9700FB1F08
:1008B400E780C096A16522856D2C014523A62421DD
:1008C4005DBFB727002023AA077C8280BDCD797144
:1008D40022D406D626D24AD04ECE01444147B3D7BD
:1008E4008540858BB1CF1205314722953305E5024A
:1008F400B737002003A987868544B3948400C204D3
:10090400C180BE892A990327090011C7032549001C
:100914002EC60297B24531473304E40283A7898681
:100924003E941C4489E72320090023220900B25085
:100934002254A58D02599254F2492E854561828034
:100944000504E31EE4F88144DDB72E85828041115D
:100954001397050122C406C626C24AC041872E84C5
:10096400635107029700FB1FE780409211C1953D38
:10097400A1673D8C2285B240224492440249410140
:100984008280EDD9AA8701474146B356E440858A5F
:100994009DCA9207BA97B146B387D702B7360020EB
:1009A40003A986868544B394E400C204C1803E99B9
:1009B4008327090003254900829723200900232265
:1009C4000900258C45BF0507E311C7FC8144D5BF49
:1009D400411126C2B747024006C622C483A4C720D9
:1009E40023A607200F100000B737002083A7C78471
:1009F400372400201304045291C782971C403E956B
:100A040008C031A0B737002083A7C781FDF71C4079
:100A1400374703001307D73FB387E70237A72600FA
:100A2400130737ECB240BA971CC0B747024023A65D
:100A3400972008402244924441018280797126D251
:100A4400B747024006D622D44AD04ECE52CC56CA1C
:100A54005AC85EC662C483A4C72023A607200F1009
:100A6400000005E123A697200945B2502254925470
:100A74000259F249624AD24A424BB24B224C456176
:100A84008280B737002083A7C781BA8A368AB28B9F
:100A94002E8BAA898297B737002003A787863E89C1
:100AA4000144B146C147330CD402330687011042D6
:100AB40059E2C165938505F0414597F0FA1FE78037
:100AC400205819EDB737002083A7C78581C7814512
:100AD40011458297B747024023A697202D4571B749
:100AE400B737002003A7478239E323A2A782230054
:100AF40005008327898605473317870023260500C9
:100B0400232475013AA123225501E29723A037013A
:100B140023A2670123A4570163040A0023008A0067
:100B2400B747024023A69720014581B73E875C471B
:100B3400F5FF48C76DBF0504E317F4F6B747024055
:100B440023A69720214515B7B737002083A7C7866A
:100B5400411122C406C6372400201304847D89C7AA
:100B640082975C483E9548C84848B24022444101B7
:100B74008280B747024083A6C72023A607200F1010
:100B84000000372700200347977D6370E50237365E
:100B9400002013171500032506823A951A21D98DD2
:100BA4000EA123A6D7200145828023A6D7200D4578
:100BB4008280B747024083A6C72023A607200F10D0
:100BC4000000372700200347977D6372E50237361C
:100BD4000020131715000325068293C5F5FF3A95E7
:100BE4001A21F98D0EA123A6D7200145828023A6C0
:100BF400D7200D45828001114AC83747024006CEEE
:100C040022CC26CA4EC652C40329C7202326072055
:100C14000F100000130705FF1377F70FFD4763E379
:100C2400E70AB146B306D502B737002003A7878683
:100C340036971C43C1CB9354450005443D89331575
:100C4400A400131405014180AE892685A28597F07E
:100C5400FA1FE780206C2A8A29C9A2852685913F3C
:100C6400B737002083A7C781B73400209384048753
:100C740082979E242A848146B38537031306006431
:100C8400B3B7370313850532B335B500BE95EFC04E
:100C9400513AB30785003E87D44063E4A70063E478
:100CA400D7003387D7402324EA00B747024023A65E
:100CB40027210145F2406244D2444249B249224AC2
:100CC40005618280B747024023A627210945DDB785
:100CD40001114AC8B747024006CE22CC26CA4EC6E6
:100CE40003A9C72023A607200F100000BD4763EB0C
:100CF400A70431473307E502B737002083A7878667
:100D0400BA979C43A1C305443314A4004204418010
:100D1400AE840145A28597F0FA1FE780A05FAA89F7
:100D240011C5A2850145713523A49900B747024036
:100D340023A627210145F2406244D2444249B249E4
:100D440005618280B747024023A627210945E5B7FC
:100D5400797126D252CCB744024006D622D44AD066
:100D64004ECE56CA5AC85EC603AAC42023A604207F
:100D74000F100000B727002083C7977D6378F50024
:100D8400B737002083ABC78163970B00B747024096
:100D940023A6472199A03739002013090987AE8A71
:100DA400032B490083558900B74736FE938707C84C
:100DB4003E9BB387C5022A84B2898146B3B5C50276
:100DC40013850732B337F50013060064BE95EFC0F0
:100DD40051266370AB0223A644210145B25022542C
:100DE40092540259F249624AD24A424BB24B45618B
:100DF4008280829B83558900AA8413060064B3878A
:100E040035038146B3B5350313850732B337F5008F
:100E1400BE95EFC01122B3079500BE840327490095
:100E240063E4A70063E4E700B384E740D685228542
:100E340097F0FA1FE780004E01C904C5B747024086
:100E440023A64721054559BF936504F0C205C18116
:100E5400414597F0FA1FE780A01E11E9B73700203B
:100E640083A7C78585D7A2851145829705B73737EC
:100E740000208327478299EF2322A78285472326D0
:100E8400050004C52311550100A11CB1232205004E
:100E940075B7BA87D84775FFC8C7CDB779714ECE35
:100EA400B747024006D622D426D24AD052CC56CADC
:100EB4005AC85EC662C466C26AC083A9C72023A694
:100EC40007200F10000025C141443689B28A2E8ABA
:100ED400AA84B14C373B0020054D130C0003B30B1F
:100EE400940303278B865E971C43B9EF9375F40034
:100EF400B315BD0013554440C2055686C181137510
:100F0400F50FB93531C183278B86DE9784C323A2BD
:100F140047016304090023008900B747024023A660
:100F24003721014521A023A637210945B250225477
:100F340092540259F249624AD24A424BB24B224C71
:100F4400924C024D456182800504E31A84F9B74747
:100F5400024023A637212145D1BF011122CC26CA44
:100F64004AC84EC6B747024006CE03A9C7202A8402
:100F7400AE89B28423A607200F100000D13B22853E
:100F8400CE8597F0FA1FE780E0382A8405C5B73785
:100F9400002083D58787130600648146B3879502B2
:100FA400B3B5950213850732B337F500BE95EFC08C
:100FB400510848C013351400F2406244B747024058
:100FC40023A62721D2444249B2490E0505618280F5
:100FD400011122CC4AC84EC6B747024006CE26CAE3
:100FE40083A9C7202A892E8423A607200F10000076
:100FF40097F0FA1FE7800032AA8419C12311050073
:10100400A2854A857D36B727002083C7877D6399EB
:101014002701B737002003D78781598C239C878009
:10102400B747024023A63721014591E01945F24014
:101034006244D2444249B24905618280011126CA00
:101044004AC8B744024006CE22CC4EC603A9C420E7
:1010540023A604200F1000009307F00263E6A70400
:10106400B1473304F502B739002083A78986A297D4
:101074009C439DCB9377F5008545B395F500C20558
:10108400C1811181B13783A789860145A29723A025
:10109400070023A2070023A62421F2406244D2447D
:1010A4004249B24905618280B747024023A62721FD
:1010B4000945E5B7411126C206C622C4B747024016
:1010C40083A4C72023A607200F10000097F0FA1F5F
:1010D400E780402419E90145B2402244B747024061
:1010E40023A69720924441018280B737002083A72A
:1010F400C78100458297B7370020938707876367C6
:10110400A402D843B74636FE938606C83305A440E6
:101114003697E372E5FC13070064B335E5029227C2
:1011240081463305E502EFC0C1707DB7D8433A94D8
:10113400C9BF4111B737002006C623A6A78602956A
:10114400B240B727002023A8A77E01454101828031
:10115400914763E9B700B73700208A059387478032
:10116400BE9588C18280B737002023A20782373515
:101174000020B7370020411123A607865146B73710
:10118400002081451305458006C623AE078022C48E
:1011940026C23724002097F0FA1FE7802020130589
:1011A400847D13068002814597F0FA1FE780001FB3
:1011B400EFF04FDAB737002083C7D7831304847D59
:1011C400854513D527008D8B3E958D473305F50254
:1011D4009947B734002039051375F50F28A0330556
:1011E400F5021305052497F0FA1FE78060E523A4B0
:1011F400A4862DCD3020994781453306F602130687
:10120400062497F0FA1FE780601983A784863820A4
:10121400B7340020938707240A0723A0F480BA97E1
:10122400373700202320F782EFF0AFE91D211C306F
:1012340083A60480371605001397270036971306F4
:10124400068D10C3138717001377F70F0A07371695
:10125400050036971306269510C3138737008907B0
:1012640093F7F70F8A0718B0B69790C3B240224499
:10127400924441018280372700201307877D1C3365
:10128400342363FFD700B736002083A60680138675
:10129400170010B313972700369708C33E85828042
:1012A4009307F00FE5BF1C41F1CF41777D8FB7065F
:1012B400002089476319D70C5A2171C7411126C2EE
:1012C4001946AA849305F00F610506C622C497F057
:1012D400FA1FE780A01E05478D47630FE5089C446D
:1012E40091C7985C994749CBD85C59C737340020DB
:1012F4001306000481451305848297F0FA1FE780E2
:10130400E00913060004A6851305848297F0FA1FEA
:10131400E780200293078482DA2701E7130700108D
:10132400DAA7F82719E30547F8A79A2B19E36D47BD
:101334009AABF83719E31547F8B7B82B19E3054703
:10134400B8ABB83B19E3F837B8BBD82B19E325473A
:10135400D8ABF82801E71307C003F8ABDC5791C7F3
:101364008297B72700202390A77EB73700207D57A8
:10137400A38EE7BECD3B8147B240224492443E85D2
:101384004101828089473E85828001114AC83739EC
:1013940000208327098706CE22CC26CA52C456C20F
:1013A4004EC68297130A0064B335450313090987AF
:1013B400835A89008146568633054503EFC0614749
:1013C400B72700201387877D004FAA840145630651
:1013D40094029389877D33858440636E940003254A
:1013E400490056868146B335AA023305AA02EFC0E6
:1013F4004144018D269523AC9900F2406244D244C5
:101404004249B249224A924A05618280011122CCA2
:101414002E84B7E506000A8541469385C5C706CEE6
:10142400EFC0417A180806043A94B73700200355F0
:1014340004FF83D7A787F2406244AA9737450F0079
:10144400130505243355F50205618280B737002062
:1014540083D7A78751471D45637CF7027947194510
:101464006378F7021307200315456373F702130724
:10147400B0041145637EF700130740060D456379F8
:10148400F7001307600909456374F70013B5B70F34
:101494008280011122CC06CE2A842EC6EFF04FD3CF
:1014A400B245F240818D33A5A5022295624413759D
:1014B400F50F05618280011122CC06CE2A842EC646
:1014C400EFF00FD1B245F240818D33A5A5022295EC
:1014D40062444205418105618280011122CC06CE1D
:1014E4002A842EC6EFF0CFCEB245F240818D33B5BB
:1014F400A5022295624405618280B737002023A0AB
:10150400A7888280B737002013878782585739CF3E
:10151400411122C426C24AC006C613898782029793
:10152400B72700201387877D1A272A849384877D11
:1015340005CBBA876373A700AA87C207C183BA869B
:101544006373E400A286C206C182958F5147635932
:10155400F7008327090391C38297EF40516882A45F
:10156400B2402244924402494101828082800111A6
:10157400B737002022CC3734002023A007889307F4
:1015840084829C5B06CEAA851304848281C72AC602
:101594008297B245C9C19C410545B5CBDC41A5CB79
:1015A4009E25B5C7BE25A5C7DC2589CB5C3813F7B6
:1015B40037008983BA970947634BF704373500200E
:1015C40041461305058797F0FA1FE78080D6B737A1
:1015D400002083A6078737370020232ED78078384A
:1015E4000DE3938707878A279307805737460F00B1
:1015F4003305F5021306062481468145EFC06123B5
:1016040068B8371505001305E53825360145F2405D
:10161400624405618280B72700209387877D37174E
:10162400002023AE070013076798B737002023A8CC
:10163400E7863787320093870787FD56130727A16C
:10164400D4C398C723860700B747024023A4D726EC
:10165400BDBF011122CC3734002093078482884710
:1016640006CE26CA4AC801E90545F2406244D2447E
:10167400424905618280130484821C5CF5D7585C5E
:1016840065D77000854582971844B247E30EF7FC8E
:101694004A249305E004B724002097F0FA1FE7805A
:1016A400209A1387847D08D39384847D55DD522446
:1016B4009305F00F014997F0FA1FE78020CE7C24B0
:1016C4009050634DF900328597F0FA1FE78040A4EB
:1016D400014523A0040223A2040241BF4E2408446E
:1016E400585CB3872503898105093E9508C2029792
:1016F400F9B701114EC6B7390020938789829C47F8
:1017040026CA4AC852C406CE22CC56C25AC02A8A15
:10171400AE8432896388071E9389898203A789036B
:10172400630207121307F01F6360A7123724002017
:101734001307847D832A07021304847D63980A08AF
:1017440003D5C9009565938515E097F0FA1FE780E6
:10175400208F08D02A867DC583D5C90083A7890335
:1017640003A589008981829783A78900832A0402BB
:101774005CD089476314FA08C1476395F40C83D598
:10178400C9009147938505FCB3C5F5028A05D69532
:10179400B8219307A0056313F70A9E216390470BB2
:1017A4004A852686910597F0FA1FE78080B81C5079
:1017B4005685639157130145F2406244D24442492D
:1017C400B249224A924A024B056182805850E38210
:1017D400E7FA03D5C9009565938525E097F0FA1FCC
:1017E400E7800086AA8A39CD83D5C9002A8683A7D3
:1017F400890303A5890089818297A5BF8D47631B4F
:10180400FA00C1476390F40483D5C900938545FD6C
:10181400F199B5BF91476318FA006395440383D5E2
:10182400C900A115F5B793070010631DFA00A1477D
:1018340063EA970083D5C900C115D9BF1C505685EA
:10184400639D570B29458DBF9D6A637A5509930A99
:1018540005E01947B3CAEA0203D7C900372B0020B1
:10186400B38AEA02BE9A93078B7DDC53130B8B7DFC
:101874006395570103240B021DE003D5C9009305AA
:10188400E00497E0FA1FE780A07B2A8445DD83D536
:10189400C90083A789032A86898156858297914541
:1018A4001307A005898193972500A297B423639118
:1018B400E6049623639C460385058A052686A2953D
:1018C4004A8597F0FA1FE780C0A683270B02E384BA
:1018D40087EE228597F0FA1FE7808083E9BD2167B0
:1018E4007917E361A7F6B30A5541BDB7AC335DBFC1
:1018F40083270B02E38887F4228597F0FA1FE78099
:10190400208189B7B727002083A5877F85DD91478C
:101914009306A0058983139727002E973023E3139A
:10192400D6F21223631C460185078A072686BE95D4
:101934004A8597F0FA1FE780C09FB5BD3C33D9BFF5
:10194400B737002093878782984721C3D85F15CF84
:101954008546631CD502411122C437240020130498
:10196400847D105006C611CECE2748508981029737
:10197400085097E0FA1FE780A0792320040223226D
:101984000402B2402244410182808280011122CCAF
:10199400373400209307848256C283AA870026CA5C
:1019A4004AC84EC606CE52C42A89AE84B2891304EC
:1019B4008482638D0A1A5C5C99EB2945F240624487
:1019C400D2444249B249224A924A056182801C5C4F
:1019D400EDD79307F01F63E1A70C372A0020930784
:1019E4008A7D9C53130A8A7DA9C7084483274A0227
:1019F400639CA70489476313F906C147E39FF4FA7C
:101A04004A249147130505FC3345F5029317250035
:101A140003250A022686CE853E959307A0053CA1A0
:101A240023102501110597F0FA1FE78080900145E6
:101A340071B74A249305E00497E0FA1FE7804060F9
:101A44002320AA025DF195BF4E241C5C03260A02E2
:101A5400898182971C442322FA0269BF8D47631B44
:101A6400F900C147E39BF4F44A24130545FD937739
:101A7400C5FF79BF91476317F900E39024F54A2421
:101A84002115F5B793070010E319F9F2A147E3E62E
:101A940097F24A244115E1BF9D676375F5069307E4
:101AA40005E01947B3C7E7025A24372A0020B38751
:101AB400E702BE9A93078A7D9C53130A8A7DB1CBB1
:101AC40083274A026392570703250A0291461308A3
:101AD400A0059305F00F93D72600139727002A97A4
:101AE40030236312060783580700303363992805AF
:101AF400B306D64063C4960485078A072686CE8536
:101B04003E9515B721677917E369A7EAB307F5404E
:101B140061BF4A249305E00497E0FA1FE78040522E
:101B24002320AA0251FD51BD4E241C5C03260A0247
:101B340089815685829723225A0379B70EA3931677
:101B44000601C18249BF5224B3859600910513064C
:101B540006FCE3F4C5E613863400719A1106B296C6
:101B6400230107012310270134B379B7372A002052
:101B740093078A7D9C53130A8A7D95CF03250A0215
:101B840091461308A0059305F00F93D726001397E9
:101B940027002A9730236310060583580700303343
:101BA40063972801B306D640E3D896F40EA39316A0
:101BB4000601C182D9BF68245E249305E00433057D
:101BC400F5024205418197E0FA1FE7806047232030
:101BD400AA024DF5DDB352246C24B385C5023386C5
:101BE40096001106E3EBC5DCBDB7014582809C215C
:101BF4001CA1BE211CB1BE21A1833CA1DC213CB1AE
:101C040011458280B727002023AE0754B727002050
:101C140023AC075482800DCD411126C206C622C4CE
:101C2400AA8401458DC12E84B7E50600228541466C
:101C34009385C5C897E0FA1FE780A06F9C200545EF
:101C44005CA49C305CB4B240224492444101828042
:101C540001458280011122CC26CA06CE0947AA84F6
:101C640032846381E50441468147639BC500638FE9
:101C7400E6006397B6000DA841478147638EE600EE
:101C8400F2406244D2443E85056182808A85228581
:101C9400593741468A8519A88A85B53F41468A85C0
:101CA400228531A0E39AB6FC2E86A285268597E08C
:101CB400FA1FE7800079AA87E1B7B727002023AC91
:101CC400A7548280B727002023AEA7548280011135
:101CD40022CC622106CE26CA4AC84EC62DCC832900
:101CE4008500AE842A8803C9090081471317890136
:101CF400618763550702B147054563F787045114AB
:101D0400420403552800418033878900A2864E8609
:101D14008545EFA02021B337A00085077D14135516
:101D24006900420405891379F90341809CA088B0B5
:101D340023812401C2A0014719C01387190098C444
:101D440009476383E7000145F2406244D2444249B3
:101D5400B249056182800545C5BFC167F917630AA9
:101D6400F502D94763F7B702011122CC2EC606CE7D
:101D74002A84EF705028B2456368B5002285624416
:101D8400F24005616F90E019F24062440545056137
:101D9400828005458280C167F9176314F5006F706E
:101DA4009025411106C6EF90400611E15D45B24011
:101DB400410182809147639DF5001C211CA23C21B6
:101DC4001831A207D98F3EA23C3101455CA2828022
:101DD400114582804111814522C426C206C6AA84C7
:101DE400BD232A8409E9B727002083A7875581C723
:101DF400F945268582972285B240224492444101C6
:101E0400828039714ED656D25AD006DE22DC26DACA
:101E14004AD852D4AA8A2E8BB28951EB36C6A53F32
:101E24009145EF70F02BAA844D493DC5B246054A51
:101E3400238034010544630A0B00B685138514001E
:101E4400029B0505131405014180E20993D98941D8
:101E540063D30902C1455685EF908009654915E5AC
:101E640033868400A2852685EF90905D2A8911ED42
:101E740031044204418091472C085685FC8426CEC7
:101E8400E085EF8050222A8901C963070A0026856C
:101E940097E0FA1FE780C027F25062544A85D25473
:101EA4004259B259225A925A025B21618280BA8401
:101EB400014ABDBF011122CC26CA4AC84EC606CE6D
:101EC4002A893284B689353FAA840DE1B7270020D8
:101ED40083A7C75581CF05476317E40003C40900EE
:101EE40005041374F40FA2854A858297F240624474
:101EF40026854249D244B24905618280AE86B7251F
:101F0400050001470546938525BF6DB79E211CA199
:101F14009E21A1831CB1094582809E211CA19E2182
:101F2400A1831CB1BE213CA1BE21A1833CB11145BA
:101F340082809E211CA19E21A1831CB1BE213CA1B3
:101F4400BE21A1833CB1DC315CA1FC215CB18A25BA
:101F540019054205418182809E211CA19E21A183F5
:101F64001CB1094582809E211CA19E21A1831CB124
:101F7400BE213CA1BE21A1833CB111458280CA216E
:101F840006054205418182809E211CA19E21A183D8
:101F94001CB1AA2109054205418182809E211CA110
:101FA4009E21A1831CB1BE213CA1BE21A1833CB1D1
:101FB400CA2111054205418182809C211CA105454D
:101FC40082809E21411122C406C61CA19E212E841A
:101FD4001105A183A30EF5FEBE219505230FF5FE81
:101FE40083D7D5FFA183A30FF5FE03C6F5FF97E0C2
:101FF400FA1FE78000344820B24022441105410111
:10200400828089476399F5001C3118210145A20794
:10201400D98F1EA28280114582809A21D94763FDFF
:10202400E702011122CC06CE2EC62A84EF70A07CD2
:10203400B2469E22636DF50022856244F240B725C4
:10204400050001470946938505F105615DBBF24032
:10205400624409450561828009458280914785C5AE
:102064001421FD15C2058547C1816390F60213D77B
:1020740025008D89914781E9914711C7050534A24F
:102084001AA248C281473E85828009479147E39C52
:10209400E6FEC94733D7F502B3F5F502E1BFAE86D4
:1020A400B7250500014711469385E5F199BB93F7E0
:1020B400350089EB8981914781C50EA248C28147C9
:1020C4003E8582809147EDBFD8218947631CF70282
:1020D400011122CC2A84C84506CEAE86014709C91F
:1020E4002EC69D4597E0FA1FE780C00FB2462A87A7
:1020F40022856244F240B72505001946938565F3AD
:10210400056101B30945828099E1114582801C2152
:1021140005473EA2E37BF7FEFD1593F5F50F33D794
:10212400F502B387E702E392F5FE050548C21AA259
:1021340001458280DC210947AE866385E70041477B
:102144006399E700B725050001472146938565FC9F
:102154004DB9094582800EA291E1014548C201456D
:102164008280AE86B7250500014729469385C5F5CB
:1021740049B90EA291E1014548C201458280AE866B
:10218400B7250500014731469385A5F69DB90EA2F2
:1021940091E1014548C201458280DA21854763FF08
:1021A400E702011122CC2A84884106CE1DC12EC625
:1021B400854597E0FA1FE780E0022A87228562447A
:1021C400B246F240B72505003946938525F80561E6
:1021D4000DB9F24062440945056182800945828057
:1021E400914785C518218D46914763F0E602FD1598
:1021F400C205C181B3C6E5023308D702639705015E
:10220400050516A23AA248C281473E858280DC2198
:102214000947AE866385E70041476399E700B72520
:10222400050001474146938565FCE1BE094582806E
:10223400B335B000139525008280011122CC26CA43
:1022440006CE98258547AA842E844946631FF70045
:1022540099363E2049151306200963C8A700F240A9
:102264006244D24409450561828018348547631469
:10227400F70013660604484001C98D4532C697E04D
:10228400FA1FE78020F63246A2866244F2402A878B
:102294002685D244B72505009385C5F8056195B612
:1022A4008D4763F8B7021C311821F115A207D98FA5
:1022B4001EA23C313821C205A207C181D98F3EA29A
:1022C4004EA289C5110508C6014582802324060053
:1022D400E5BF11458280011122CC2A84884506CEAF
:1022E400AE8601C92EC6954597E0FA1FE78080EFB8
:1022F400B2462A8722856244F240B7250500594632
:10230400938505FA0561F5BCB335B0001395250036
:102314008280AE86B7250500014761469385E5FBBB
:10232400CDB48547114563F0D7021C320C22A207B5
:10233400CD8F1EA39387E6FF3EA389476386F600ED
:10234400090650C30145828023220700E5BF0147E7
:1023540081467946814575B49E211CA19E21A183A5
:102364001CB109458280BC2105471CA18A216397C1
:10237400E7000A050505420541818280C947330506
:10238400F502CDBF8A210A05420541818280BE2122
:102394001CA18A21BE213305F502050542054181B0
:1023A40082808A2182808A2182808A218280BE2141
:1023B4001CA18A21BE213305F50205054205418190
:1023C40082809E211CA19E21A1831CB1BE213CA11F
:1023D400BE21A1833CB1CA211105420541818280FD
:1023E4009E211CA19E21A1831CB1AA21090542059D
:1023F40041818280894711456398F6001C3214227A
:102404000145A207D58F1EA382809A21D947AE86A3
:1024140063F9E700B725050001470D469385C535E7
:1024240051BC094582801145639DA6001C321422CB
:102434000145A207D58F1EA33C323422A207D58FB3
:102444003EA38280BC210547FD1793F7F70F636114
:10245400F7049E2195CF011122CC2A84C84106CECF
:102464001DC12EC6894597E0FA1FE780A0D72A87A9
:1024740022856244B246F240B7250500154693858D
:10248400A536056105BCF2406244094505618280B8
:10249400094582809547114563F1D706411122C44D
:1024A40026C24AC006C61C32BA841822A207328445
:1024B400D98F9EA03C32382293054400A207D98FBD
:1024C400BEA08947DCA0094613855400368997E0ED
:1024D400FA1FE78000E69307A9FF9EA49947631BB0
:1024E400F90023A60400B240224492440249014563
:1024F400410182801904C0C4FDB782809E2195CF1A
:10250400011122CC2A84C84106CE1DC12EC68545A0
:1025140097E0FA1FE78000CD2A8722856244B246FD
:10252400F240B72505001D4693858538056159B2EB
:10253400F2406244094505618280094582809947D9
:10254400639DF6028947411106C65CA31C3214221E
:10255400B285A207D58F1EA33C3234225023A20792
:10256400D58F130557003EA3910597E0FA1FE78026
:1025740040DCB240014541018280D147114563945A
:10258400F600C147C9B782809E219DCF011122CC9C
:102594002A84C84106CE05C52EC6894597E0FA1F90
:1025A400E78040C42A8722856244B246F240B725B8
:1025B400050025469385253905616FF0BF8FF240EC
:1025C4006244094505618280094582808947114535
:1025D4006398F6001C3214220145A207D58F1EA36E
:1025E4008280011122CC2A84C84106CEAE860147DE
:1025F40009C92EC6854597E0FA1FE780A0BEB246FA
:102604002A8722856244F240B72505002D4693852A
:10261400653A05616FF01F8A1145639DA6001C325F
:1026240014220145A207D58F1EA33C323422A207EF
:10263400D58F3EA38280011122CC2A84C84106CEC4
:10264400AE8601C92EC6854597E0FA1FE78080B99A
:10265400B2462A8722856244F240B72505003546F2
:102664009385A53A05616FF0FF8493F71600114531
:1026740081EB89476386F600858256A310C3014522
:102684008280011122CC2A84C84106CE05C52EC6FB
:10269400854597E0FA1FE780E0B42A8722856244E3
:1026A400B246F240B72505003D469385E53A0561FB
:1026B4006FF05F80F24062440945056182809E218B
:1026C4009DCF011122CC2A84C84106CE05C52EC651
:1026D400894597E0FA1FE780E0B02A8722856244A3
:1026E400B246F240B725050045469385253B056172
:1026F4006FF04FFCF2406244094505618280094550
:102704008280854763F6D70208A70CB71C320C22D7
:10271400A207CD8F1EA39387E6FF3EA38947638656
:10272400F600090650C30145828023220700E5BF55
:1027340011458280014781464D4681456FF08FF7F0
:102744008D47114563F4D7021C320C22A207CD8FAA
:102754001EA33C322C22A207CD8F3EA39387C6FF33
:102764005EA36386A600110610C701458280232458
:102774000700E5BF011122CC2A84884506CEAE8627
:1027840001C92EC6954597E0FA1FE780A0A5B24679
:102794002A8722856244F240B72505005D46938569
:1027A400653C05616FF00FF1854711456395F600AF
:1027B4001C2201451CA38280014781466546814550
:1027C4006FF04FEF011122CC2A84C84106CEAE86A9
:1027D400014709C92EC68D4597E0FA1FE78080A0FE
:1027E400B2462A8722856244F240B72505006D4629
:1027F4009385453E05616FF0CFE0011122CC2A8418
:10280400C84106CEAE86014709C92EC68D4597E05C
:10281400FA1FE780209DB2462A8722856244F2404F
:10282400B725050075469385453E05616FF06FDD5C
:10283400011106CE2EC6EF80605919C5B245F2408B
:102844002A2105616FC0E02EF2404945056182806E
:10285400B7270020A3840758B727002023840758EC
:10286400B727002023A80756B727002023AA075616
:10287400B727002023AC0756B727002023AE0756FE
:10288400B727002023A60756B727002023A40756FE
:10289400B73700202392078A130640389387478A64
:1028A400B2B371761307400B130606B8BAA3D2B3BA
:1028B40011671D46930600059305000A1305007D64
:1028C400DAA3F2B341470546130810F8BAA7DAA70A
:1028D400BAABDAABFAAB9AAF9AB7EEA38EA7F6A768
:1028E40096ABAAAF239E0700239F070023900702FD
:1028F400B2B723960703239707029308F007239898
:1029040007022392E7042393E704239FE704239019
:10291400E7062391E7062392E70623991703130793
:10292400C01CD2BBF2BB239C0702239D0702239E3B
:102934000702239F0702239007042391C7042394CB
:102944000704239507042396C7042397D7042398E1
:10295400D7042399A704239A0704239B0704239CE1
:102964000704239DD704239ED7042393A706239407
:10297400070623950706239607062397B706239889
:10298400B70623990706239AE7067D57239B070674
:102994002390070823910708239207092393E70844
:1029A4008280011126CAAA84214522CC06CE2E8417
:1029B40032C636C43AC297E0FA1FE780C0870DC515
:1029C400A24612473246930700FD1CA1994704B161
:1029D4003CA174A178B152A1AA8522856244F24037
:1029E400D24405616FD0DFE4F2406244D244056111
:1029F4008280B727002023ACA7568280B727002007
:102A040023AEA7568280011122CC4AC806CE26CA1C
:102A14002A890144B30489006368B400F240624423
:102A2400D2444249056182802EC6EFD07FFA9317C3
:102A34000501C183A183B2459CA09307140093F7B9
:102A4400F70F850463F8B700CA97090488A31374C1
:102A5400F40FC9B73E84C9B7411122C437340020EA
:102A6400130444886A20C16706C6FD17630EF50087
:102A7400B737002003C6C79CB725002093850558A7
:102A8400EF800018FD577EA0B240224441018280AD
:102A940009C925151375F50F1335850E1345150052
:102AA40082800145828023900500C1C6797122D4B9
:102AB40026D24ECE52CC5AC806D64AD056CA5EC684
:102AC4003684328AAE892A8B814463F24407B30781
:102AD40094009C23138914004209939A070193DA02
:102AE4000A011359090163840A04CA976341FA0469
:102AF400B307240183CB07005E85593F0DC9938733
:102B0400FAFF2390F90063906B03130519002295D3
:102B1400B250225492540259F249624AD24A424B68
:102B2400B24B45618280D694C204C18079BF01450D
:102B3400C5B701458280011122CC3734002026CA52
:102B44004AC84EC69307448806CE2E89D0CB8CCB78
:102B5400C8C7AA8441469305F00F4A8597E0FA1F37
:102B6400E780C095854913044488631935030848F0
:102B7400C145513D41469305F00F268597E0FA1F64
:102B8400E780C09305496315250348446244F24035
:102B9400D2444249B249C1450561B5B54146814572
:102BA4004A8597E0FA1FE7806091E31535FDC1B7C8
:102BB40041468145268597E0FA1FE7802090E30689
:102BC40025FDF2406244D2444249B2490561828003
:102BD400411122C43734002026C24AC0AE842A8957
:102BE4001306000281451305448806C697D0FA1FD0
:102BF400E780C07A93074488A3812701B737002070
:102C04002388979CEFB03075854719C181474945A2
:102C14002302F488B2402244924402494101828052
:102C2400814791C909C985476319F500DC3193E7E8
:102C340007FCDCB185473E85828089476316F50031
:102C4400DC3193F7F703F5B70D478547E315E5FE48
:102C5400D8311377F70313670704D8B1E9BF814765
:102C640085C119CDD8319306000C85471377070C1D
:102C74006308D700930600048D476303D700894790
:102C84003E858280411122C4005D06C626C21DC84D
:102C9400AA84085009C597D0FA1FE78060474850B6
:102CA40009C597D0FA1FE780A046085409C597D0F4
:102CB400FA1FE780E045228597D0FA1FE780404558
:102CC40023AC0402B240224492444101828019E9B7
:102CD400B737002083C7678891C7372500201305BD
:102CE40005568280373500201305C5898280B737A1
:102CF400002003C567888280B737002003A50789B1
:102D04008280B737002003A547898280B737002027
:102D140083A7878988438280B737002093874788B1
:102D2400D44B9842050798C2A8339307F00F630564
:102D3400F50091656FD0FFE38280011122CC06CEAD
:102D44002E8432C6EF8020199147B2456310F502F4
:102D5400B727002083A7C75795C303A30700630FB2
:102D6400030022856244F24005610283B7270020F4
:102D740083A7475781C703A34700D5B7F2406244EE
:102D8400054505618280011122CC2A844A2106CEA0
:102D940026CA4AC84EC697E0FA1FE780A0CF2DC5C1
:102DA4002A8904218349C500F13D4A85EF80E0501A
:102DB4004A20EF80800D3729002013098958834762
:102DC4000900B9C763969704B727002083C59758AD
:102DD4002685B93C19E1230009004A20EF80A00FA1
:102DE4009147631CF500B737002093874788562026
:102DF400FA236394E6007D57FAA3F2406244D24476
:102E04004249B2490561828081499304F00F65B754
:102E14009307F00FE383F4FC7420522028204E879C
:102E2400A68541365DBF79715EC6AA8B2E8552CCCC
:102E340056CA5AC806D622D426D24AD04ECEAE8A14
:102E4400328B368A97E0FA1FE780C0C47DC1045DE7
:102E54002A89E5C09C50614599C3130540039C54DD
:102E640081C751054205418163050A007105420588
:102E74004181DC5081C75D054205418197D0FA1F2D
:102E8400E780603B2A8455C56146814597D0FA1F87
:102E9400E780C050B737002083C9478D6394090089
:102EA40083490900930700FD1CA0A947A3007401EE
:102EB4003CA0230364018C502312540113058401A4
:102EC40091C908C47146930A440397D0FA1FE78056
:102ED400404656858C5491C948C45146930A4501CD
:102EE40097D0FA1FE780E0445685630C0A0008C8AF
:102EF4007146D285930AC50197D0FA1FE7806043D3
:102F04005685CC5099C548C85D4697D0FA1FE780CE
:102F14004042A2854E85EFD0BF912254B2509254C4
:102F2400F249624AD24A424BB24B4A850259456140
:102F340091BBB250225492540259F249624AD24A85
:102F4400424BB24B4561828001114EC6AA892E853F
:102F54004AC806CE22CC26CA2E8997E0FA1FE780FB
:102F640060B339C5B737002083C4478D91E004218D
:102F7400194597D0FA1FE780002C2A8415C981458A
:102F8400194697D0FA1FE7806041930700FD1CA003
:102F9400B947A30034013CA023122401A285624452
:102FA400F2404249B2492685D24405616FD05F8818
:102FB400F2406244D2444249B24905618280397187
:102FC4005ECEAA8B2E8526DA4ED652D456D25AD04D
:102FD40006DE22DC4AD8AE84328BB68A3A8ABE89AF
:102FE40042C697E0FA1FE780E0AA39C92A89414519
:102FF40097D0FA1FE78020242A8439C141468145AD
:1030040097D0FA1FE7808039B737002003C5478D72
:1030140019E103450900930700FD1CA0BD473CA02E
:10302400B247A300740146A023046401A30454011D
:1030340023054401A30534015CC4A285EFD04FFFEE
:10304400F2506254D2544259B259225A925A025BF3
:10305400F24B21618280797126D2AA8439454AD003
:103064004ECE06D622D42EC6B289368997D0FA1F00
:10307400E780601C0DCDB2459307000D1EA1B1473A
:103084002A844EA13CA1CE851905194697D0FA1F72
:10309400E780202A23062401A2852254B250025933
:1030A400F24913F5F40F925445616FD06FF8B250A2
:1030B400225492540259F24945618280411126C238
:1030C400B734002093844488B83006C622C44AC06A
:1030D4009307F00F6308F7042A89394597D0FA1F3C
:1030E400E78060152A841DCD930700FDB7350020C5
:1030F4001CA1A3002501230105009385C5890D05A5
:10310400194697D0FA1FE780C0229E24A285A830D2
:103114003EA49C305CA42244B24092440249410142
:103124006FD00FF1B240224492440249410182809F
:1031340001115AC02A8B314526CA4EC652C456C202
:1031440006CE22CC4AC8AE84B28A368ABA8997D0CF
:10315400FA1FE780400E2DCD2A84268597E0FA1FBA
:10316400E780409309C55825A1476311F704B73791
:10317400002003C97788930700FD1CA09D47A30086
:1031840064013CA046A023135401231444012315D5
:103194003401A2856244F240D244B249224A924A9E
:1031A400024B4A85424905616FD08FE8B73700204A
:1031B40003C9179DE3110BFCB727002083A70763FE
:1031C4009C47D5DBCE865286D6852685829765B701
:1031D400F2406244D2444249B249224A924A024BE2
:1031E40005618280011122CC2A84214506CE2EC697
:1031F40097D0FA1FE780200415C5B245930700FD58
:103204001CA1C5473CA1BC313CB1DE215EA1FC211F
:103214007CA1FC31AA857CB122856244F24005611F
:103224006FD00FE1F24062440561828001114AC807
:103234002A89614526CA4EC606CE22CCAE89B284FE
:1032440097D0FA1FE78020FF25C1930700FD1CA13A
:10325400BC302A84938584001CB195473CA1FC3082
:1032640011051946A30FF5FE97D0FA1FE780600CED
:10327400DE2023063401A2853EA4BE2C4A857EA40A
:10328400DE2C1EA8FE2C3EA883C704025CA883C7BC
:1032940014025CB8BE30F240D2447EA86244424973
:1032A400B24905616FD0CFD8F2406244D24442495A
:1032B400B24905618280411122C4373400201304CD
:1032C40044883C2006C626C285CBB7240020AA85A4
:1032D40019461385045697D0FA1FE78080052820E5
:1032E40093850456EFF0DF932244B24013850456CD
:1032F400924441016FB0F006B24022449244014529
:1033040041018280411126C2B7340020938744884A
:1033140006C622C44AC0B8339307F00F9384448886
:103324006301F7042A89294597D0FA1FE780A0F0A2
:103334002A8405C9930700FD1CA1A147A300250108
:103344003CA1BC20B7250020938505563CB1194605
:10335400110597D0FA1FE780C0FDA830A285EFD0F1
:103364002FCDB8208D476311F702B727002083A71C
:10337400875799CB03A38700630803002244B24014
:103384009244024941010283B240224492440249D8
:1033940041018280797122D406D626D24AD04ECEFB
:1033A40052CC56CA09444DCD2A890A21AE895144CA
:1033B40097D0FA1FE780006EAA845DC137370020DA
:1033C4009307C79CDC238546BA8AFD1793F7F70F4A
:1033D400494463F7F6085825A1476314F70063913D
:1033E40009089C5C4544ADEF9165938545711305CF
:1033F400C00297D0FA1FE780A0C488DC2A8A4D4413
:1034040025C11306C002814597D0FA1FE78000F951
:103414008357090093064A0036852311FA00714642
:103424009305490036C697D0FA1FE78080F0894794
:103434002300FA00C824B2460356090083C5CA9C77
:10344400611513351500EF8090212A8463860900E5
:10345400CE852685EF80401401C42685EFF09F8237
:103464002285B250225492540259F249624AD24AF5
:1034740045618280B737002083C7079D0547FD1744
:1034840093F7F70F6377F708894749C6011122CCF0
:1034940026CA4AC84EC652C406CEAA89368AB284FF
:1034A4002E8997D0FA1FE780E05E2A84D14731C580
:1034B400485509C597D0FA1FE78080C5F145268590
:1034C40097D0FA1FE78020F348D4CD471DC5542474
:1034D40021478147639DE600630B0A00382D1229BA
:1034E40093062501AA854E85EF806011AA8758208E
:1034F400630E09001367670058A0F2406244D24487
:103504004249B249224A3E850561828013674700D9
:10351400E5B7C9473E8582809307200463EAA70084
:10352400B73700209387478A06053E950A21828093
:1035340041657D158280011122CC2A842E8526CAFC
:1035440006CEAE8497D0FA1FE780C0540DCDB7479E
:103554000F009387F723094563E2870281450A85B3
:10356400414697D0FA1FE78060E3A68560800A850C
:1035740041804081A3010100EF80E07AF24062447F
:10358400D244056182804945D5BFB73700202387DF
:10359400A79C82806F801007797152CC2A8A328569
:1035A40022D426D24AD04ECE56CA5AC85EC606D6B1
:1035B40062C4AE8BB28A368BBA843E89C289468491
:1035C40097D0FA1FE780004D0DC92A8C63130A02B5
:1035D40013774B005C2115CF93E727012302FC00EE
:1035E4008DEC631C0902639A090205E8ED9B230232
:1035F400FC00832B8C0363910B08B2502254925429
:103604000259F249624AD24A424BB24B224C4561BA
:103614008280F59B93E70701D1B793E74700230224
:10362400FC0001CC1C484146A2852324FC0213055E
:103634008C0197D0FA1FE780C0CF63930B02D5D8D3
:103644000325CC0209C597D0FA1FE78060ACF14589
:10365400268597D0FA1FE78000DA2326AC0251BFF3
:10366400E30909F80325CC0209C597D0FA1FE780BE
:1036740020AAF1454A85F1BF9DC483A70B0299EBAB
:10368400916593853571714597D0FA1FE780409B0A
:1036940023A0AB0203A50B0219C57146A68597D0DA
:1036A400FA1FE78000C96388090283A74B0299EBDC
:1036B4009165938525715D4597D0FA1FE780409801
:1036C40023A2AB0203A54B0219C55D46CE8597D054
:1036D400FA1FE78000C61DC483A78B0299EB91658E
:1036E40093851571514597D0FA1FE780609523A4FF
:1036F400AB0203A58B0219C55146A28597D0FA1FC8
:10370400E78020C32254B2509254F249B24B224C67
:10371400CA865A860259424BD6855285D24A624A93
:1037240045616FF04FF0011126CA52C406CE22CC77
:103734004AC84EC62A8AAE8497D0FA1FE7808035DD
:1037440035C1AA89394597D0FA1FE780C0AE2A84CB
:1037540031C9B737002003C9478D6314090003C971
:1037640009009307000D1EA0AD473CA09385690096
:1037740013053400194697D0FA1FE78080BB93F7EE
:103784001400858085885CA444B423154401A28573
:103794006244F240D244B249224A4A854249056110
:1037A4006FD00F89F2406244D2444249B249224A5E
:1037B4000561828001114EC652C456C206CE22CC87
:1037C40026CA4AC8AA8A2E8AB28997D0FA1FE780E5
:1037D400602C2DCD2A891305C00297D0FA1FE780EB
:1037E40080A52A8425C5B737002083C4478D99E076
:1037F400834409009307000D1EA0E9473CA09305EC
:10380400690013053400194697D0FA1FE78060B2A7
:10381400D285231554011305C400414697D0FA1FDD
:10382400E78020B1CE851305C401414697D0FA1F25
:10383400E78020B0A2856244F2404249B249224A5C
:10384400924A2685D24405616FC09FFEF2406244CD
:10385400D2444249B249224A924A056182804111C6
:1038640022C43724002013048456084006C619C510
:1038740097D0FA1FE780C08923200400B240224475
:1038840041018280011106CE22CC26CA4AC82EC626
:1038940097D0FA1FE780002031CDB245B73700201A
:1038A40003C9478D0CD5AA84631409000349050094
:1038B400414597D0FA1FE78000982A8405CD9307E5
:1038C400000D1EA1A5473CA1DC30938564001105C1
:1038D400A30FF5FE194697D0FA1FE78080A59C54E4
:1038E400A285F2405CC46244D2444A8542490561DF
:1038F4006FC01FF4F2406244D244424905618280A1
:103904001D71A2CC86CE2A842EC697D0FA1FE780DA
:10391400601815C954251147AA8749456391E602E1
:103924009C5FB24591C3EC2BB7D605002308B100C8
:103934009386C6CF100889452285EF70103DF64066
:103944006644256182805145DDBFB737002083C7B7
:10395400079D0547FD1793F7F70F637AF704894727
:1039640021CA411122C426C24AC006C6B2842E8985
:1039740097D0FA1FE78000122A84D14715C1630645
:1039840009005C2193E727005CA14146A685130545
:10399400840197D0FA1FE780C0999C481CD48147C2
:1039A400B2402244924402493E8541018280C94783
:1039B4003E858280797122D406D62A842EC697D079
:1039C400FA1FE780200D01CDB2452285230EB100F8
:1039D4006C08EF701039B250225445618280514511
:1039E400DDBF6F702044C1671387E7FF6395E5026D
:1039F400B727002083A7475791EB49458280494563
:103A0400B2402244924402494101828003A3070048
:103A1400E30503FE0283411122C426C24AC006C63E
:103A2400FD172A892E84B284639AF502B7270020F1
:103A340083A7475791CF9C4381CF829711E9B7273A
:103A4400002023842759B7270020A38497584DBF0B
:103A5400A6854A85EFE0DFDD45F5D5B72E8597D0FD
:103A6400FA1FE780200341DD1C210D45E39A27F965
:103A740022852244B2400249A685924441016FB096
:103A8400400B9307200463E1A7064111C16722C4D8
:103A940006C626C2FD172A8409456381F502C54777
:103AA400AE846312F4022E85EFB0E00F37350020A8
:103AB4001305458A06042A9406A00145B24022440F
:103AC4009244410182809307A0036316F4002E857B
