:020000024000BC
:10E000006FE0F152000000000018011800280128FC
:10E0100002280328002901290229032904290529A6
:10E02000062907290829002A012A022A032A042A84
:10E03000052AA62AB0D40600A2010500DC030020B0
:10E0400020040020980300208603002052030020B3
:10E050001A02050042020500100305000005050034
:10E06000AA0505002E000500C0FF040002020020E2
:10E07000ECFF0400140A050016050020F00105005D
:10E080003C070500C68E0600A49006000E9106000F
:10E09000B4590600C8590600FA190600980D060082
:10E0A000268906006C070500EE5F060062B10500D8
:10E0B000F2B105004CB2050084120500C212050041
:10E0C00042110500EE730500146F0500540700208F
:10E0D0003E800500A483050038620500DA61050072
:10E0E0009C65050084620500B8610500306205008A
:10E0F0006E610500FE6205005663050006630500BB
:10E100000A630500A06305005E6305008E630500D9
:10E110005068050054680500FA62050002630500B6
:10E120009E630500526805004C640500AE69050059
:10E13000F0900500649105009E9105003A76050077
:10E140005076050088760500165C0500F45C050035
:10E15000585D0500742F0500162A05001C530500A4
:10E16000922A0500644E05002AB2060032AF06006E
:10E17000A4B90600E6C80600BCC706009ACB060094
:10E180008ACB060092CB0600D8CB060066A106001B
:10E19000D4CB060046C006006CC006008CC006004A
:10E1A00048CC0600BAC5060058C50600B8CC060023
:10E1B00022A20600B6A20600D6A2060088A2060089
:10E1C000EC710600406506008868060008660600D7
:10E1D000A86E0600BA890600000000009AA1060099
:10E1E000E00B0500D8590600CE5F0600C6600600A9
:10E1F000000000000000000000000000107A050090
:10E20000A0710600000000000000000000000000F7
:10E21000F0640600F40600207C5A0600C0CB06001D
:10E2200000000000000000008ECB0600A6040500E0
:10E230007A770500C8CB0600E47306003675060041
:10E24000A2750600E2B90600C4CB0600CCCB0600DE
:10E25000240D0600D0CB06002A15002086190020C8
:10E2600000000000000000000000000000000000AE
:10E27000000000000000000000000000000000009E
:10E280006373B60082801C419105110523AEF5FE33
:10E29000C5BFB727002037270020938787DD1307E6
:10E2A000C7346373F700828023A007009107D5BFAE
:10E2B0005DC5AA870145D5C58D07C207C183F19BFE
:10E2C000C207C18313074003636CF702372700209E
:10E2D0000325C7F537270020832647F56397A60255
:10E2E000372700200327C7FE014525CF4111C2076C
:10E2F00006C60545DD8D0297B24001454101828089
:10E3000037270020032587F5F1B77A2139E75A210D
:10E310006365F704B72600203306F740214893864B
:10E3200046F66375C8028328050003D86600138685
:10E3300087001D8F2A9661175AA2232016012313E6
:10E34000060010C15EA1130788FFFAA26EA1EE229B
:10E350002105B387F540FEA28280084141B70145FF
:10E360008280828009CDB727002003A3C7F5B72795
:10E37000002083A847F581469A8763E317018280CE
:10E3800003A80700636BF5086369A8081387870073
:10E39000E367E5FEF223216705076319E6003726E8
:10E3A0000020034786E605072304E6E6372600201B
:10E3B000130546F6CE237A2123930700130646F66B
:10E3C0002E97420741837AA1638367023725002095
:10E3D000032585F5630DF500EA2211E9DE2223A06D
:10E3E00006012107BE95A105CEA27AA2B687984361
:10E3F000E30717F9B726002083A686F5E301D7F8CF
:10E400007623B5FED6234E231843A106AE96D6A397
:10E4100098C37E22A1077EA28280BE86C287B1BF3A
:10E42000B7270020B726002083A7C7F503A646F527
:10E430002A87B305B5406314F6003A8529A8938668
:10E4400087009C43E369D7FEE377F7FE2E85E3E47C
:10E45000D5FEE3F2F5FE828023AC05FE1C4181E788
:10E460000CC18280BA8703A787FF6DFF23ACB7FE7C
:10E470008280411126C2B724002083A704F622C45B
:10E480004AC006C60144014981EBA165970005E039
:10E49000E780402E0DC819A803C7E7FF631CA70239
:10E4A0001DCCA165970005E0E78060FE03A704F698
:10E4B000832784FF6317E40223A0F4F6FD57232C7F
:10E4C00004FE230FF4FE2285B24022449244024906
:10E4D0004101828011E03E8983A787FF75B73E84A2
:10E4E000E5BF232CF9FED9BFB727002083A747FB40
:10E4F00099E33E858280BA236315B7009823E30A27
:10E50000A7FEDC47F5B70111680006CE22CC9710B4
:10E5100006E0E780805FFD576307F508324741C397
:10E5200037240020130444F61848630DF700B7277A
:10E53000002083A70700829732471C486373F700C7
:10E54000BA873E95372400209307C4289C4F1304B4
:10E55000C42899CBB727002083A6472F3707CDFFC4
:10E560007D179C46F98F9CC6B727002083A707FE1E
:10E57000829719E91C4C85C7976006E0E78060EF39
:10E58000975006E0E780A06D1C4C91CBB727002088
:10E5900003A7472FB70633001C47D58F1CC7F2408F
:10E5A00062440561828037240020130444F61C482D
:10E5B000E387A7FEB727002083A7070082971C48A0
:10E5C00049B709CD81CD19CA81473387F500142396
:10E5D0003307F500850714A3E319F6FE828019C9F5
:10E5E00091C909CA910583A7C5FF11057D16232E80
:10E5F000F5FEC5BF828001C919C62A960505A30F7D
:10E60000B5FEE31DA6FE828081473307F5000307B0
:10E61000070019E33E8582808507C5BF01112E865C
:10E6200026CAAA84131506019305F004418122CC61
:10E6300006CE32C6B5392A8401C53246A685513781
:10E640002285F2406244D24405618280854705C13B
:10E6500099CD11CE8147B306F5003387F50094229A
:10E6600018236398E6008507E317F6FE85473E8585
:10E6700082808147EDBF9307F6FFBE952A9663130C
:10E68000C5008280FD159C310505A30FF5FEC5BFB1
:10E69000AA87014581CF09CE3E96850703C7F7FFBC
:10E6A0006317B700E39BC7FE054582808280014562
:10E6B000828079714AD03729002022D4032449FB73
:10E6C00006D626D24ECE52CC56CA5AC85EC63DCCCD
:10E6D00037CAC901B72A0020B72900208144372B47
:10E6E0000020130AFA37938A8AFB938949F63E2061
:10E6F00099EB5C44BDE4232AF9FA832BC4002285FC
:10E7000095315E840DA883270B0082971C44330744
:10E71000F540636AEA0423A809002E200820970028
:10E7200005E0E780C0D654405C44E9D61844A28492
:10E73000369718C43E8445FCB7270020938747F6D8
:10E74000984B894663FEE602791798CBB250225463
:10E7500092540259F249624AD24A424BB24B456145
:10E760008280DCC459BF03A78A0201CB03A7090139
:10E77000898F63F4E70023A8F900A284404465BFB1
:10E7800023A80700E1B701114AC8372900208327D1
:10E7900009F906CE22CC26CA4EC652C456C25AC069
:10E7A00081C78297232809F8930709F9DC433724A6
:10E7B0000020130404F991C38297832709F9639910
:10E7C0000714B72400209387C428DC339384C4281B
:10E7D000858B99CFF830A3820400954763FAE70050
:10E7E000EF106008FC30F5178A07A2979C438297C8
:10E7F000372A00209307CA2CDC27130ACA2C918BD6
:10E8000099C3EF1040681C4491C3829737240020BD
:10E81000B7290020930744F603A709FB9033930A16
:10E8200044F6834744F693961700BA969622B5CAE3
:10E83000834744F663EFC706832709F9230204F6EA
:10E84000E1EB9C3489CBFC3099E7A384040097501A
:10E8500006E0E780807DB727002083A70700CDCBA7
:10E86000FD5723A8FA00B135B727002083A707FE7C
:10E87000C5C3F830954763EDE7088347CA00918B1D
:10E88000C1EB83C61A0003A609FB63CDD708624417
:10E89000F240D2444249B249224A924A024B0561AF
:10E8A0009DB1850793F7F70F2302F4F6E3EBC7F664
:10E8B00041B786073E970E2323100700034544F611
:10E8C000B727002083A7C7F813172500372B002090
:10E8D000BA979C4323160BFA82978357CBFA0347C8
:10E8E00044F693C7F7FF7D8D9317170003A709FB25
:10E8F0003E971E235D8D0AA3834744F681C7850793
:10E900002302F4F6034744F683C71A00E376F7F2CE
:10E91000F2406244D2444249B249224A924A024BEE
:10E92000056182801397170032971A2375F38507C4
:10E93000A9BFAD6737470240BD072326F720010076
:10E940000100B7270020938747F6C84F8327872603
:10E95000BD66BD0693C7F7FF99836A052326D720B6
:10E960005D8D82808280B727002003C64715B727B8
:10E97000002003A787E381476315F60081463685AB
:10E980008280BA8613078702835587FDE389A5FE37
:10E99000850793F7F70FCDB7B727002003C65715A4
:10E9A000B727002083A747E501476365C700814675
:10E9B00036858280BE86990783D5A7FFE38AA5FEA8
:10E9C0000507E5B7B727002003A7C7E419E3014609
:10E9D00015A81C4703D8A700636B0501835847009F
:10E9E000B38608016355D500814663941601184328
:10E9F000F1BF3E86C10703D3A7FF6317A30099C1E8
:10EA000023900501328582808506C206C182F1BF4E
:10EA1000B727002003C64715B727002003A7071014
:10EA200081476315F600814636858280BA861307D2
:10EA3000C703835567FCE389A5FE850793F7F70FA6
:10EA4000CDB7032785117DC7411122C406C65C25B9
:10EA50008345C5042A8493F7C70F5CA51437522752
:10EA600013958601618563F6C50663500506082780
:10EA700093F6F60714B7054693E627006314C5001E
:10EA800093E6170054A45C4389075CC34CB8032584
:10EA900004112E864C4309052D36832784115038E6
:10EAA000D443DA27B296118FD4C3DAA789473CBC86
:10EAB000B72700200347440383C7A7FC6371F7040B
:10EAC0005C2493E707015CA41DA893E717005CA4EE
:10EAD00075BF9376F60F635905020827854513E63F
:10EAE00027006314B50013E6170050A454B8A3041C
:10EAF000070085473CBC832784119C43D5FBB2406B
:10EB0000224401454101828093E717005CA454B878
:10EB1000A3040700032504114C4309055D34832732
:10EB200084115038D443DA27B296118FD4C3DAA7B0
:10EB30008D47C9B705458280B727002083A747279F
:10EB4000411122C406C6858B2A84D5E3416513058D
:10EB500025F5972006E0E78040B751C93C253EA542
:10EB600083270412ADE32320A4122322A412854795
:10EB70002310F404232005007C2854415EA558345A
:10EB800018A5054718B5372700200327472A1385FE
:10EB9000170215811C437D151375F50F9CC25C434C
:10EBA000DCC21C479CC65C47DCC61C4B9CCA5C4B49
:10EBB000DCCA1C4F9CCE5C4FDCCE19CD938606027E
:10EBC00013070702C1BF8327441288C38357040475
:10EBD0002322A412850769BFB72700209387071651
:10EBE0009A2705079AA7B2402244410182805C24FB
:10EBF00023090400054593C747005CA4EDB71C2D0D
:10EC000093F7E70FD5E71C3DC5E73029542509CA1E
:10EC100037270020834545030347B7FC63E7E5003A
:10EC200013F7060159C7014709C6C18A035785185A
:10EC300081C68356C51836972DCF411122C437247B
:10EC40000020130484FB6A2C1307C71237460F00F9
:10EC5000B335A70213060624814626C206C633052D
:10EC6000A70297C006E0E780C03A7C387D54B384A1
:10EC7000A700B727002003A7871E8327070963F390
:10EC800087003E84184375FBB727002083A7070041
:10EC9000829781476364A400B307A440B240224432
:10ECA000B3B7970093C7170092443E854101828015
:10ECB00081473E858280B72600209387061683A76A
:10ECC0008708638A0742797126D293860616B7248D
:10ECD0000020138784FB03A506090353E701374788
:10ECE0000F0006D622D44AD04ECE52CC56CA5AC8AD
:10ECF0005EC662C40148FD58938484FB130EF7235B
:10ED00001306072403D7470883A5070933076702BB
:10ED100072973357C7023387E540637517013E8505
:10ED2000BA8805489C43F9FF6304080023A8A60895
:10ED300003A40609B7490F00938BF9233729002054
:10ED4000930A0032130B204E054A93890924832726
:10ED50000900032C040982976370852DF62C035754
:10ED60004408FC38330CAC403307D7025E97335766
:10ED700037033E97636087237E3CA30F0400228500
:10ED800085077EBC83470414C5C7112922859710C7
:10ED900006E0E780400449E1EA2C835744083747FE
:10EDA0000F009306F723B387A702130707248329CD
:10EDB0000409230A0402B697B3D7E7020547B387CD
:10EDC000F9402324F4088327C408BE993C3423283F
:10EDD00034096391E7060357E407363C63ECE60425
:10EDE00014286399F60483278411A9E78327440A2A
:10EDF000B1E374349D47639FF6021E3CB387E7027C
:10EE00001307204EB387E70203274409B3D7E7026D
:10EE1000F828BA972312F408B25022549254025997
:10EE2000F249624AD24A424BB24B224C456182803F
:10EE3000E124A9BF1E308DCF763C5A3037460F00F3
:10EE400056B03387E640B387E7023A30130606240C
:10EE500081468145BA97C207C1833385A7023EB078
:10EE600097C006E0E780E01A01C5AA992328340973
:10EE7000832709008297AA89832709008297E30DD7
:10EE800035FF832709008329840882973385A940A9
:10EE900079C58327C4086374F50C37490F0013093B
:10EEA0000924B3352503F22C81463305250397C089
:10EEB00006E0E78000163E30372700208326872AA9
:10EEC0003E95B567BD07DCC6010001008327872A90
:10EED00009678359240298C7E62C372700201307B7
:10EEE000C728930600F854A30605E8D33385990292
:10EEF0003D673D0737460F00D8C7130606248146F5
:10EF0000814597C006E0E780C0100DC1B3372503E7
:10EF100026868146B305B9023305A902BE9597C07E
:10EF200006E0E780000F3385A9402AB0975006E03D
:10EF3000E780600D975006E0E7806014383485471D
:10EF4000E31CF7EC375506008145130565E1970092
:10EF500005E0E780C093930700FD7CA475BD3834BD
:10EF6000854703A344036317F7009545E30603EAC7
:10EF7000154529A0E30203EA954519452254B250EC
:10EF800092540259F249624AD24A424BB24B224C45
:10EF90004561028363580C047E3C85077EBC834731
:10EFA000041499E32285892A2285971006E0E780D8
:10EFB00080E2832704090327C408BA972328F408AA
:10EFC0003C34639747012285974006E0E78000C202
:10EFD0007C3C854585077CBCDC58E38A07D6154513
:10EFE0008297B5B35E3C130700328E07B387D70212
:10EFF00093870719B3D7E702E3F087E3A14522859A
:10F00000971006E0E78000D52305A40203A344037C
:10F010008945E31F03F409B55E3CFA2C330C8541A6
:10F020008E07B387E70293870719B3D75703637433
:10F03000FC0A8327090082977E3C2A8C85077EBCC8
:10F040008347041499E3228545282285971006E01A
:10F05000E78060D8E31205DC832704090327C4088E
:10F06000BA972328F4087C3C13F7070F21CF228599
:10F07000971006E0E780C08CA30F040083270409E3
:10F08000E379FCFA8356E4071E3C03274409B3875F
:10F09000D702B3876703B3D7E702F8280607BA9702
:10F0A0002312F4083C34639247033E3CE3F1D7CA91
:10F0B0002285974006E0E78060B3DC58E38907C803
:10F0C0008D4531BF85077CBC55BFDC58E38107C83F
:10F0D0008D45194531B7E3410CD4A14522859710E0
:10F0E00006E0E78020C72305A40203A34403E30549
:10F0F00003D29145B5BD8280797126D206D622D43D
:10F100004AD04ECE52CC56CA5AC85EC68347350343
:10F1100003447513AA843E941374F40F93074002BA
:10F1200063F687001304B4FD1374F40F03AA841369
:10F1300083AAC413A38B841222865285D68597C0D6
:10F1400006E0E78040EA058915E503CBD4120149C2
:10F150008149337B6403930B50024A865285D685DE
:10F1600097C006E0E78020E8058915C5639169032B
:10F170001374F90F238B8412B25022549254025903
:10F18000F249624AD24A424BB24B456182808509BC
:10F19000E20993D989410509E31179FDE1BF83278C
:10F1A0008509723D797193D60701BD8EC206C18271
:10F1B000358E1357764093575640898B058B5D8F5C
:10F1C00093573640918B5D8F93571640A18B5D8F7F
:10F1D00093171600C18B5D8F9317360093F70702C4
:10F1E0005D8F931756009355860093F707041E060C
:10F1F0005D8F1376F60F518F93D7554013D6354058
:10F20000118A898BD18F13D67540D18F13D61540B3
:10F21000218AD18F13961500418AD18F139635001C
:10F2200013760602D18F13965500137606049E05B9
:10F23000D18F93F5F50FCD8FA20745465D8F33072C
:10F24000C70222D42A8426D252CC56CA032A841357
:10F25000832AC4135AC806D6369742074183935768
:10F260007740135557400989858BC98F135537400F
:10F270001189C98F135517402189C98F131517009C
:10F280004189C98F1315370013750502C98F1315EE
:10F29000570093558700137505041E07C98F137710
:10F2A000F70FD98F13D5354013D755401189098BE6
:10F2B000498F13D57540498F13D515402189498F42
:10F2C000139515004189498F139535001375050273
:10F2D000498F13955500137505049E05498F93F5C5
:10F2E000F50F4D8F2207D98FB387C7024AD04ECE74
:10F2F0005EC662C4B697C207C18313D7774013D5E1
:10F3000057400989058B498F13D537401189498F9B
:10F3100013D517402189498F139517004189498FCB
:10F320001395370013750502498F1395570093D530
:10F330008700137505049E07498F93F7F70FD98F40
:10F3400013D5354013D755401189098B498F13D5F3
:10F350007540498F13D515402189498F13951500A4
:10F360004189498F1395350013750502498F13950F
:10F370005500137505049E05498F93F5F50F4D8FC4
:10F380002207D98FB387C702130650025285D6854C
:10F39000B697BD8E93940601C18033F6C402137BE9
:10F3A000F60F97C006E0E78000C405890DED83479E
:10F3B000D41201498149B3849702130C5002C180D1
:10F3C0004A865285D68597C006E0E780C0C1058988
:10F3D000937BF90F11C563863403850993F9F90FFF
:10F3E0000509E31F89FD230B6413B2502254925484
:10F3F0000259F249624AD24A424BB24B224C456111
:10F4000082805E8BCDB70111B727002022CC03A4E8
:10F41000472126CA4AC84EC606CEAA84130925002B
:10F42000854905C09C303830858B6304F700405C0B
:10F43000CDBF1946930544004A85EFF02FA1E3188C
:10F4400035FF2285F2406244D2444249B249056107
:10F4500082804111B727002022C403A4472126C27D
:10F460004AC006C693042500054901E82285B2403A
:10F4700022449244024941018280A6851305A402D8
:10F48000973006E0E7804028E30225FF405CF1BFAB
:10F490004111B727002022C403A4472126C24AC035
:10F4A00006C693042500054901E82285B24022449E
:10F4B0009244024941018280A6851305A401973038
:10F4C00006E0E7806024E30225FF405CF1BF011104
:10F4D000B727002022CC03A4C72026CA06CE2AC400
:10F4E0002EC6854419E40145F2406244D2440561C8
:10F4F00082809C841830858B6304F7000044DDB75C
:10F5000019469305A10013052400EFF02F94E3178B
:10F5100095FE0545D1BFB727002003A7872A011113
:10F520002AC62EC432C206CE3C4B93E707083CCB1A
:10F53000975006E0E78020ADB726002083A7C627B6
:10F540003245A24523A007001831034825002207B1
:10F550004208429703480500429703483500620875
:10F56000429798D7583103486500220742084297CE
:10F570000348450042970348750062084297D8D770
:10F5800018350348A5002207420842970348850022
:10F5900042970348B5006208429798DB5835034804
:10F5A000E5002207420842970348C50068354297A4
:10F5B00062052A97D8DB9831A821220742052A97AD
:10F5C00088212A97A83162052A9798CFD831E82157
:10F5D000220742052A97C8212A97E83162052A970F
:10F5E000D8CF9835A825220742052A9788252A973B
:10F5F000A83562052A9798D3D835E8252207420511
:10F600002A97C825EC352A97E2052E97D8D3D843F8
:10F61000759BD8C3D84313671700D8C398431367A3
:10F62000170098C3124603A7C6275C43858BADEB32
:10F630001C4F01451CA283A7C6279C4FA1831CB267
:10F6400083A7C6279C4FC1833CA283A7C6279C4F94
:10F65000E1833CB283A7C627D84F58A2D84F218355
:10F6600058B2D84F418378A2D84F618378B298536B
:10F6700018A69853218318B69853418338A69853F7
:10F68000618338B6D85358A6D853218358B6D85377
:10F69000418378A6DC53E1837CB6F2400561828029
:10F6A000010051B7B727002003A7872A1605136565
:10F6B00005083C4B93E707083CCBB727002083A7FE
:10F6C000C72703A7450E88C398CB03A7850E01451E
:10F6D000D8CB03A7C50B98CF03A7050CD8CF03A79A
:10F6E000450C98D303A7850CD8D303A7C50C98D78E
:10F6F00003A7050DD8D703A7450D98DB03A7850DF4
:10F70000D8DB03A7C50D98C703A7050ED8C7984334
:10F710001367070498C38280B727002003A7872AAE
:10F720001605136505083C4B93E707083CCBB72744
:10F73000002083A7C72703A7C50E88C398CB03A7BC
:10F74000050F0145D8CB03A7C50B98CF03A7050C20
:10F75000D8CF03A7450C98D303A7850CD8D303A70C
:10F76000C50C98D703A7050DD8D703A7450D98DB7F
:10F7700003A7850DD8DB03A7C50D98C703A7050E02
:10F78000D8C798431367070498C3B7270020938707
:10F79000C728130700F8F8A38280372700208326A4
:10F7A0000728411126C29C5E06C622C499834AC01E
:10F7B000858BBA84B1CB93070006372900209CDEE5
:10F7C0008347C9281304C92893F7070489CFB727AB
:10F7D000002083A70700829708C88347C92893F7AA
:10F7E000F70B2306F9285C2093F7070491EF854770
:10F7F0005CB0B727002083A7872A096798C713073B
:10F8000000FC58A05844F8D303A704281C5F918338
:10F81000858B89CBC1471CDFB72700209387C7287A
:10F820008546D4A31C5F9D83858B91CB93070008ED
:10F830001CDFB72700209387C7280547D8A3B72721
:10F84000002083A7C727D8430583058B19C7D84352
:10F85000759BD8C3D843799BD8C3B2402244924405
:10F86000024941018280B7270020B726002003A665
:10F87000872A9387C62803C7C628058B11C723820A
:10F880000700A382070082809833058B6DFB7852B6
:10F890007DF3D833FDB737280020032708281C5FE5
:10F8A0009583858BBDE701C61C5BBD831CA29DC6ED
:10F8B00083270828985B460793576701635607001C
:10F8C00093E707C0C207C18303970600C207C18739
:10F8D00009C7BA970947B3C7E7029EA285C11C3181
:10F8E00091CF3E951C350547194593F6F70663936E
:10F8F000E602E207E187394563CE0700832708283F
:10F900003727002001459C5FED838D8BA30BF728E3
:10F91000828005458280411122C406C6372400201A
:10F9200026C20327842A3DE5AE877453FDFEB72423
:10F9300000209384C4283E85B2852381040097402B
:10F9400006E0E7806049B727002083A70728B706AD
:10F9500080009843558F98C3D857719BD8D7832779
:10F96000842AA3820400A3800400094798C3832645
:10F97000842AB72700209387C728B823058B11E76F
:10F98000B833058B51C723820700B240224492440A
:10F99000410182808D47631FF500B727002083A7B0
:10F9A0000728B70680009843558F98C3D857719B96
:10F9B000D8D775BF8547E31CF5FAB567BD075CC7A7
:10F9C000010001008327842A0967930600F898C77D
:10F9D000372700201307C72854A337270020832682
:10F9E00007280946984231830D8B6319C700130716
:10F9F000E043F8D33D673D07D8C795BF98423183B0
:10FA00000D8B01E713076019EDB71307E01BD5B79E
:10FA1000F85225F79DBF5D7152DC372A002003277D
:10FA20000A2886C6A2C4A6C2CAC04EDE1C43B72995
:10FA300000203729002093F7F7E793E707081CC356
:10FA400083A6492F3707CEFF7D179C4613068002F9
:10FA50002A84F98F9CC68327892A2800AE8423A88C
:10FA6000070493051008EFE01FB9974006E0E78010
:10FA70008059974006E0E780806083270A289376C4
:10FA8000F41F3706330023A40700984B370FFCFF01
:10FA90004E881367F70398CBF84FCA88130510F800
:10FAA000137707E0558FF8CF9843F576FD16758FDD
:10FAB00098C3372700208326892A1307C728A30263
:10FAC0000700A3000700054798C29843D285B702F4
:10FAD00004001377F7E798C398439303401F114935
:10FAE0001377F7E71367071098C303A7492F7D1F04
:10FAF00085491C47930F8002D18F1CC7930790053F
:10FB0000BCCA0147340013533700269383470300D0
:10FB100013767700B3D7C740858BE1C383A7052849
:10FB2000832E482F239C07042390070603AECE02A2
:10FB3000137EDEFF23A6CE0383AE0700137EF707F6
:10FB400093FE0EF833EECE0123A0C70103AE4702A9
:10FB5000336E5E0023A2C70383AE882A014E23A220
:10FB60007E0603DA070663074E0303AE0703038A24
:10FB70000600135EFE00620E135E8E416358CA01DA
:10FB800003AE0703135EFE002380C60103DE0706F3
:10FB9000137EFE0F03AA4E0663060A0003DA8705EA
:10FBA000E37F49FB03AE4702337EEE0123A2C70386
:10FBB00083870600635CF400034E03003396C9009C
:10FBC0001346F6FF3376C6012300C3003E8663D397
:10FBD000A7002A8613158601618505071377F70F9D
:10FBE0008506E312F7F3B640264496440649F259D7
:10FBF000625A61618280372600208327862AD8478F
:10FC00009316170163D2060298479316170163DD16
:10FC100006007D57B8D737270020130747F6544F03
:10FC2000850654CF116798C798470D83058B11CF70
:10FC3000372700201307C728342393E6160034A380
:10FC4000930600F854A3214798C79847058B19CB12
:10FC5000372700201307C728143393E6160014B380
:10FC6000054798C798470983058B09E79847058397
:10FC7000058B31CB94473727002037250020898218
:10FC8000858AE5CE832605289442B1828D8AFDE2DD
:10FC9000AC4B9306C728944E93F505029432CDC51C
:10FCA000F9E69306D005D4CF8346C72893E616001D
:10FCB0002306D728114798C7032705285C57F19BCF
:10FCC00093E717005CD70327862A1C4793963701D2
:10FCD00063D40602B72700209386071603C6C6061C
:10FCE00093870716418A55C283C7C60693E7070262
:10FCF0002386F60685671CC71C479396270163DF9A
:10FD00000600B72700209387C728D423E206E186A0
:10FD100063D406008546D4A389671CC71C47939605
:10FD2000070163D20602B72700209387071683C610
:10FD3000D706858ABDCA83C6D70693E62600A38662
:10FD4000D706A1671CC78280A9DE85456395B600EA
:10FD50009306100689BF89456395B6009306500641
:10FD600099B78D456395B600930690062DBF93060F
:10FD7000B00615BF9306C0063DB71307C728343336
:10FD800093E6160034B309473DB783C6C706094654
:10FD9000BD8A6388C60083C6C7060D46BD8AE39B3D
:10FDA000C6F491462386D706B1B783C6D706918A93
:10FDB000C9DA83C6D70693E6860051B737270020F5
:10FDC000B72600201386C62A1307C72C5C372C3EA3
:10FDD000484AAE97FD8BB355F5001CB25CB78589D8
:10FDE0008DE9183B814613080002B3F7E70201478B
:10FDF000B355E50085899378F70F89C96395D700D6
:10FE0000A30016018280850693F6F60F0507E3111D
:10FE100007FF8280B727002083A70700011122CCAB
:10FE200026CA4EC606CE4AC88297B72400209387BA
:10FE3000C42C804781496300A4043727002093071E
:10FE4000C72ABC2F018D135455009384C42C937979
:10FE5000F5011309C72A636DF4008D370347A90123
:10FE6000944493175700BE96198C94C4E377E4FE2C
:10FE70001604B3693401F24062444E85D2444249CB
:10FE8000B24905618280B727002083A7070041118E
:10FE900022C44AC006C626C282973729002093078B
:10FEA000C92C80476307A404B72400209387C42A81
:10FEB000BC2F018D135455001309C92C9384C42AF7
:10FEC0006369F402E53DBC2C032789009396570033
:10FED00036971D8C2324E900E376F4FE2244883013
:10FEE000B2409244024981454101174306E0670050
:10FEF000035CB24022449244024941018280B72708
:10FF0000002003A7472FB75702009387079F832638
:10FF100007091396560063580600832607091396AF
:0CFF2000660063440600FD17FDF38280BC
:10FF2C00B72700203727002083A7C7F5032747F5FD
:10FF3C0001456313F7008280F62399E2D6233695A8
:10FF4C009C43C5BFB727002083A587FB372700201C
:10FF5C00938787FB13860522232EC7F4DA23938716
:10FF6C0085FFB72600204111BA97056523AAF6F440
:10FF7C0006C61D05935637006374E50093060020F2
:10FF8C003307D60037250020232CE5F423A0E522E7
:10FF9C00E11656A2231306001CC3998FE1175EA32A
:10FFAC0023130700B53FB240B72700202395A7F6CF
:10FFBC00410182801DC18346E5FF1307F00F914775
:10FFCC00639EE600411106C69700FB1FE7800012F6
:10FFDC00B24081473E854101828095473E858280B3
:10FFEC0001E9014582800145B240224441018280F1
:04FFFC0095654111B5
:020000025000AC
:10000000938505D022C4C98D2A842105C2054205E5
:10001000C181418106C69700FB1FE780A00271D90C
:10002000FD572320050042A17CA12105E1B7ADC108
:10003000B727002083C757F6411122C406C62A8479
:100040002E856375F400894763E88700953F0D4569
:10005000B24022444101828083A785FF99E703C70C
:10006000E5FF9307F00F6305F700993F1545CDB7FE
:1000700037250020238F85FE130505F69700FB1F0B
:10008000E780C01622852244B240A165410171A2D9
:1000900015458280B727002023A007F68280BDCDBA
:1000A000797122D406D626D24AD04ECE0144414799
:1000B000B3D78540858BB1CF1205314722953305E3
:1000C000E502B727002003A987FF8544B394840085
:1000D000C204C180BE892A990327090011C70325DC
:1000E00049002EC60297B24531473304E40283A784
:1000F00089FF3E941C4489E723200900232209003C
:10010000B2502254A58D02599254F2492E85456170
:1001100082800504E31EE4F88144DDB72E858280E9
:1001200041111397050122C406C626C24AC0418761
:100130002E84635107029700FB1FE780C00C11C19A
:100140004135A1673D8C2285B24022449244024948
:1001500041018280EDD9AA8701474146B356E44068
:10016000858A9DCA9207BA97B146B387D702B72648
:10017000002003A986FF8544B394E400C204C18033
:100180003E9983270900032549008297232009000F
:1001900023220900258C45BF0507E311C7FC8144D4
:1001A000D5BFB727002083A7C7FD411122C406C6CB
:1001B00037240020130484DA91C782971C403E95AF
:1001C00008C031A0B727002083A70700FDF708402B
:1001D000B74703009387D73F3305F502B7A726003B
:1001E000938737ECB2403E9508C02244410182809B
:1001F000B727002083A7C7FF411122C406C63724B2
:100200000020130444F689C782975C483E9548C88D
:100210004848B240224441018280B727002083C76A
:1002200057F6637EF5003727002093171500032546
:1002300007FB3E951E21DD8D0EA1014582800D45F7
:100240008280B727002083C757F66370F5023727EF
:10025000002093171500032507FB93C5F5FF3E9576
:100260001E21FD8D0EA1014582800D458280011168
:100270004AC806CE22CC26CA4EC652C49307F00204
:10028000094963EEA706B146B306D502B727002099
:1002900003A787FF094936971C43B5C3135A450086
:1002A00005443D893315A400131405014180AE8433
:1002B0005285A2859700FB1FE78040FCAA8901496F
:1002C0001DCDA2855285B53FB727002083A7070023
:1002D0008297B727002083D767FD2A84130600641E
:1002E000338797028146B3B7970213050732B335B8
:1002F000E500BE95EFC0B12A229523A4A900F240E3
:1003000062444A85D2444249B249224A0561828008
:10031000B727002083C757F66364F5000145828044
:100320000111B727002052C403AA070006CE22CC31
:1003300026CA4AC84EC6630D0A0837290020130989
:1003400089FBAE898355E9012A84B284B387C5024B
:100350008146B3B5C50213850732B337F5001306DE
:100360000064BE95EFC0B123B74736FE9387F7C749
:1003700063E0A706029A8355E9012A8A13060064FE
:10038000B38795028146B3B5950213850732B3371B
:10039000F500BE95EFC0B1202A9ACE852285970040
:1003A000FB1FE780A0ED09C523244501054515A0E5
:1003B000936504F0C205C18141459700FB1FE780AA
:1003C00060C805E18327490381C7A285114582974B
:1003D0000145F2406244D2444249B249224A056191
:1003E000828037270020832747FB85E3232AA7FA4B
:1003F000854723260500232445012311350100A14B
:100400001CB1232205005DB7BA87D84775FFC8C75E
:10041000C5B741C9797122D426D24AD04ECE52CC2A
:1004200056CA5AC85EC662C406D6B689B28A2E8A31
:100430002A899304000C4144372B0020054C930B70
:10044000000383278BFFA6979C43A1E79375F400D5
:10045000B315BC00C2055686C181135544004D3DFD
:100460000DC983278BFF0145BE9423A0240123A23D
:1004700044016384090023808900B25022549254BD
:100480000259F249624AD24A424BB24B224C456170
:10049000828005041374F40FB104E31474FB214546
:1004A000E9BF09458280411122C426C24AC006C65E
:1004B0002A842E89B284A93DCA8522859700FB1F14
:1004C000E780C0DB05CDB727002083D567FD2A84F0
:1004D00013060064B38795028146B3B59502138570
:1004E0000732B337F500BE95EFC0710B48C0014528
:1004F000B240224492440249410182802145CDBF4D
:10050000411122C426C24AC006C62A892E849700F9
:10051000FB1FE780A0D6AA8419C123110500A2857C
:100520004A850533B727002083C747F6639927011B
:10053000B727002003D7C7FA598C239687FA0145BD
:1005400091E01945B240224492440249410182801F
:100550009307F00263E8A7044111B14722C43304B2
:10056000F50226C2B724002083A784FF06C6A297FF
:100570009843894715C39377F5008545B395F500F2
:10058000C205C1811181AD3F83A784FFA29723A03B
:10059000070023A207008147B240224492443E85CF
:1005A0004101828089473E858280411106C622C46E
:1005B0009700FB1FE78080CC11E50145B240224443
:1005C00041018280B727002083A70700004582975A
:1005D000B74736FE3305A4409387E7C7E3EFA7FC90
:1005E00093070064B335F50237270020035667FDF3
:1005F00081463305F502EFC0817AC9B74111B727AB
:10060000002006C623AEA7FE0295B240B727002001
:1006100023AEA7F6014541018280994763E9B700FF
:10062000B72700208A05938707F9BE9588C1828085
:10063000B727002023AA07FA37250020B727002074
:10064000411123AE07FE7146B727002081451305EF
:1006500005F906C623A0070022C426C237240020BD
:100660009700FB1FE78060D2130544F61306800253
:1006700081459700FB1FE78040D1D938B72700207C
:1006800083C7D7FC130444F6854513D527008D8B0B
:100690003E958D473305F5029947B724002039056B
:1006A0001375F50F28A03305F502130505249700EF
:1006B000FB1FE780209923ACA4FE25CD302099476D
:1006C00081453306F602130606249700FB1FE780D8
:1006D000C0CB83A784FF3820B7240020938707244A
:1006E0000A0723A6F4F8BA97372700202328F7FA39
:1006F00055327D2E1C3083A6C4F8370605001397AB
:10070000270036971306E60910C3138717001377DF
:10071000F70F0A073706050036971306061210C3AF
:1007200013873700890793F7F70F8A0718B0B69732
:1007300090C3B24022449244410182803727002076
:10074000130747F61C33342363FFD700B726002076
:1007500083A6C6F81386170010B3139727003697A1
:1007600008C33E8582809307F00FE5BF1C41E9CBAB
:1007700041777D8FB706002089476314D70C5A2133
:1007800069C3411126C21946AA849305F00F610579
:1007900006C622C49700FB1FE780C0C805478D47E7
:1007A000630AE5089C4491C7985C994741C7D85CA7
:1007B00051C337240020130600048145130584FB30
:1007C0009700FB1FE78060BC13060004A685130595
:1007D00084FB9700FB1FE78000B8930784FBDA27B0
:1007E00001E713070010DAA7F82719E30547F8A770
:1007F0009A2B19E36D479AABF83719E31547F8B709
:10080000B82B19E30547B8ABB83B19E3F837B8BBC9
:10081000D82B19E32547D8ABF82801E71307C00305
:10082000F8ABDC5791C78297B72700202396A7F62D
:1008300001358147B240224492443E854101828085
:1008400089473E858280B727002083A707000111D2
:1008500006CE22CC26CA4EC64AC88297B7270020A9
:1008600083D967FD93070064B335F5024E86814650
:100870003305F502EFC0A152B7270020138747F6D2
:10088000004FAA84014563049402138947F6338517
:100890008440636C94004E8681461305009C93054A
:1008A000F063EFC0C14F018D2695232C9900F240D3
:1008B0006244D2444249B24905618280011122CC8E
:1008C0002E84B7D506000A8541469385451E06CE7F
:1008D000EFC01106180806043A94B7270020035504
:1008E00004FF83D787FDF2406244AA9737450F0083
:1008F000130505243355F50205618280B7270020D2
:1009000083D787FD51471D45637CF7027947194519
:100910006378F7021307200315456373F702130783
:10092000B0041145637EF700130740060D45637957
:10093000F7001307600909456374F70013B5B70F93
:100940008280011122CC06CE2A842EC6EFF07F854C
:10095000B245F240818D33A5A502229562441375FC
:10096000F50F05618280011122CC06CE2A842EC6A5
:10097000EFF03F83B245F240818D33A5A502229569
:1009800062444205418105618280011122CC06CE7C
:100990002A842EC6EFF0FF80B245F240818D33B538
:1009A000A5022295624405618280B7270020138743
:1009B00087FB585739CF411122C426C24AC006C608
:1009C000138987FB0297B7270020138747F61A275A
:1009D0002A84938447F605CBBA876373A700AA8756
:1009E000C207C183BA866373E400A286C206C182CD
:1009F000958F51476359F7008327090391C3829765
:100A0000EF50616C82A4B2402244924402494101F9
:100A100082808280011122CC37240020930784FB3E
:100A20009C5B06CE130484FB81C72AC6829732459D
:100A300029C57A2C85470DCF1A301DCBB72700204A
:100A400023A0A7007C3899EF6A2C9307805737467C
:100A50000F003305F5021306062481468145EFC0D9
:100A6000013468B83715050013056584413E814798
:100A7000F24062443E8505618280B727002093875B
:100A800047F623AE0700E17793C727A17EAC930713
:100A900020031EB07D57B747024023A4E726B707BF
:100AA0000020372700209387276C2320F70059BFA9
:100AB000011122CC37240020930784FB884706CEFF
:100AC00026CA4AC801E90545F2406244D244424977
:100AD00005618280130484FB1C5CF5D7585C65D7E4
:100AE0007000854582971844B247E30EF7FC4A240C
:100AF0009305E004B724002097F0FA1FE7808054A4
:100B0000138744F608D3938444F655DD52249305A5
:100B1000F00F01499700FB1FE78020877C2490504D
:100B2000634DF900328597F0FA1FE780E05C0145DC
:100B300023A0040223A2040241BF4E240844585CAF
:100B4000B3872503898105093E9508C20297F9B745
:100B5000411122C437240020930784FB9C4726C2FE
:100B600006C6B72400204AC0938444F691EB88500F
:100B700039EDB2402244924402490145410182804C
:100B8000130484FB5C5CE5D79C5089EB4A249305F5
:100B9000E00497F0FA1FE780E04A88D0885061D9D6
:100BA00052249305F00F014997F0FA1FE780E07D8A
:100BB0007C249050E35DF9FA4E241C4433852503D0
:100BC000898105093E955C5C08C28297D5B797F08C
:100BD000FA1FE780605223A0040223A2040251BF3F
:100BE00001114EC6B7290020938789FB9C4726CA6E
:100BF0004AC852C406CE22CC56C25AC02A8AAE84F3
:100C000032896388071E938989FB03A789036302DE
:100C100007121307F01F6360A71237240020130781
:100C200044F6832A0702130444F663980A0803D59E
:100C3000C9009565938515E097F0FA1FE78080401D
:100C400008D02A867DC583D5C90083A7890303A55B
:100C500089008981829783A78900832A04025CD056
:100C600089476314FA08C1476395F40C83D5C9001A
:100C70009147938505FCB3C5F5028A05D695B82141
:100C80009307A0056313F70A9E216390470B4A85DB
:100C90002686910597F0FA1FE780E06B1C50568579
:100CA000639157130145F2406244D2444249B2492C
:100CB000224A924A024B056182805850E382E7FA49
:100CC00003D5C9009565938525E097F0FA1FE78065
:100CD0006037AA8A39CD83D5C9002A8683A78903BC
:100CE00003A5890089818297A5BF8D47631BFA0000
:100CF000C1476390F40483D5C900938545FDF199FC
:100D0000B5BF91476318FA006395440383D5C900C2
:100D1000A115F5B793070010631DFA00A14763EA18
:100D2000970083D5C900C115D9BF1C505685639D56
:100D3000570B29458DBF9D6A637A5509930A05E0D3
:100D40001947B3CAEA0203D7C900372B0020B38A78
:100D5000EA02BE9A93074BF6DC53130B4BF66395EE
:100D6000570103240B021DE003D5C9009305E004DD
:100D700097F0FA1FE780002D2A8445DD83D5C9004E
:100D800083A789032A86898156858297914513070F
:100D9000A005898193972500A297B4236391E60467
:100DA0009623639C460385058A052686A2954A8577
:100DB00097F0FA1FE780205A83270B02E38487EE1F
:100DC000228597F0FA1FE7802033E9BD2167791764
:100DD000E361A7F6B30A5541BDB7AC335DBF8327C6
:100DE0000B02E38887F4228597F0FA1FE780C03072
:100DF00089B7B727002083A547F885DD914793067B
:100E0000A0058983139727002E973023E313D6F28A
:100E10001223631C460185078A072686BE954A85EC
:100E200097F0FA1FE7802053B5BD3C33D9BFB727F1
:100E30000020938787FB984721C3D85F15CF85464D
:100E4000631CD502411122C437240020130444F648
:100E5000105006C611CECE274850898102970850FF
:100E600097F0FA1FE780402923200402232204027E
:100E7000B2402244410182808280011122CC372479
:100E80000020930784FB56C283AA870026CA4AC85B
:100E90004EC606CE52C42A89AE84B289130484FB9E
:100EA000638D0A1A5C5C99EB2945F2406244D24496
:100EB0004249B249224A924A056182801C5CEDD7C0
:100EC0009307F01F63E1A70C372A002093074AF627
:100ED0009C53130A4AF6A9C7084483274A02639C15
:100EE000A70489476313F906C147E39FF4FA4A242C
:100EF0009147130505FC3345F5029317250003259B
:100F00000A022686CE853E959307A0053CA12310B4
:100F10002501110597F0FA1FE780E043014571B7FD
:100F20004A249305E00497F0FA1FE780A0112320DC
:100F3000AA025DF195BF4E241C5C03260A0289813A
:100F400082971C442322FA0269BF8D47631BF90074
:100F5000C147E39BF4F44A24130545FD9377C5FF8D
:100F600079BF91476317F900E39024F54A242115CE
:100F7000F5B793070010E319F9F2A147E3E697F2FA
:100F80004A244115E1BF9D676375F506930705E0A7
:100F90001947B3C7E7025A24372A0020B387E7026C
:100FA000BE9A93074AF69C53130A4AF6B1CB83279D
:100FB0004A026392570703250A0291461308A005C7
:100FC0009305F00F93D72600139727002A97302315
:100FD0006312060783580700303363992805B30668
:100FE000D64063C4960485078A072686CE853E953B
:100FF00015B721677917E369A7EAB307F54061BF21
:101000004A249305E00497F0FA1FE780A003232009
:10101000AA0251FD51BD4E241C5C03260A0289819F
:101020005685829723225A0379B70EA39316060199
:10103000C18249BF5224B38596009105130606FC70
:10104000E3F4C5E613863400719A1106B2962301C3
:1010500007012310270134B379B7372A00209307FB
:101060004AF69C53130A4AF695CF03250A02914685
:101070001308A0059305F00F93D7260013972700B8
:101080002A9730236310060583580700303363978F
:101090002801B306D640E3D896F40EA393160601B2
:1010A000C182D9BF68245E249305E0043305F502AC
:1010B0004205418197F0FA1FE780C0F82320AA0279
:1010C0004DF5DDB352246C24B385C50233869600FA
:1010D0001106E3EBC5DCBDB7014582809C211CA154
:1010E000BE211CB1BE21A1833CA1DC213CB1114534
:1010F0008280B727002023AE07DCB727002023AC6F
:1011000007DC82800DCD411126C206C622C4AA8406
:1011100001458DC12E84B7D50600228541469385B1
:10112000451F97F0FA1FE78000239C2005455CA42B
:101130009C305CB4B240224492444101828001451B
:101140008280011122CC26CA06CE0947AA843284A5
:101150006381E50441468147639BC500638FE600D8
:101160006397B6000DA841478147638EE600F240C1
:101170006244D2443E85056182808A852285593742
:1011800041468A8519A88A85B53F41468A852285C8
:1011900031A0E39AB6FC2E86A285268597F0FA1F29
:1011A000E7800024AA87E1B7B727002023ACA7DC9B
:1011B0008280B727002023AEA7DC8280011122CCD9
:1011C000622106CE26CA4AC84EC62DCC8329850088
:1011D000AE842A8803C909008147131789016187F2
:1011E00063550702B147054563F78704511442046C
:1011F00003552800418033878900A2864E868545A5
:10120000EFB08000B337A00085077D141355690047
:10121000420405891379F90341809CA088B0238199
:101220002401C2A0014719C01387190098C40947B7
:101230006383E7000145F2406244D2444249B24927
:10124000056182800545C5BFC167F917630AF502CC
:10125000D94763F7B702011122CC2EC606CE2A84E5
:10126000EF80700CB2456368B50022856244F2409D
:1012700005616F90307BF2406244054505618280D4
:1012800005458280C167F9176314F5006F80B009C6
:10129000411106C6EF90906711E15D45B2404101F2
:1012A00082809147639DF5001C211CA23C211831CE
:1012B000A207D98F3EA23C3101455CA28280114534
:1012C00082804111814522C426C206C6AA84BD235C
:1012D0002A8409E9B727002083A787DD81C7F9455C
:1012E000268582972285B240224492444101828021
:1012F00039714ED656D25AD006DE22DC26DA4AD8CA
:1013000052D4AA8A2E8BB28951EB36C6A53F91459D
:10131000EF801010AA844D493DC5B246054A23808E
:1013200034010544630A0B00B68513851400029B43
:101330000505131405014180E20993D9894163D35E
:101340000902C1455685EF90D06A654915E5338697
:101350008400A2852685EFA0503E2A8911ED310434
:101360004204418091472C085685FC8426CEE085B6
:10137000EF9090012A8901C963070A00268597F03A
:10138000FA1FE78060D7F25062544A85D25442591E
:10139000B259225A925A025B21618280BA84014A70
:1013A000BDBF011122CC26CA4AC84EC606CE2A8924
:1013B0003284B689353FAA840DE1B727002083A780
:1013C000C7DD81CF05476317E40003C409000504A6
:1013D0001374F40FA2854A858297F24062442685F1
:1013E0004249D244B24905618280AE86B7150500F4
:1013F000014705469385C50D6DB79E211CA19E2111
:10140000A1831CB1094582809E211CA19E21A1833C
:101410001CB1BE213CA1BE21A1833CB111458280FB
:101420009E211CA19E21A1831CB1BE213CA1BE21F5
:10143000A1833CB1DC315CA1FC215CB18A2519059A
:101440004205418182809E211CA19E21A1831CB165
:10145000094582809E211CA19E21A1831CB1BE2131
:101460003CA1BE21A1833CB111458280CA21060561
:101470004205418182809E211CA19E21A1831CB135
:10148000AA2109054205418182809E211CA19E213D
:10149000A1831CB1BE213CA1BE21A1833CB1CA21C4
:1014A00011054205418182809C211CA10545828055
:1014B0009E21411122C406C61CA19E212E84110525
:1014C000A183A30EF5FEBE219505230FF5FE83D75C
:1014D000D5FFA183A30FF5FE03C6F5FF97F0FA1F12
:1014E000E78060E74820B240224411054101828034
:1014F00089476399F5001C3118210145A207D98F4E
:101500001EA28280114582809A21D94763FDE7029D
:10151000011122CC06CE2EC62A84EF80C060B246CE
:101520009E22636DF50022856244F240B7150500E6
:10153000014709469385A53F05615DBBF2406244C2
:1015400009450561828009458280914785C514213E
:10155000FD15C2058547C1816390F60213D72500AA
:101560008D89914781E9914711C7050534A21AA2D7
:1015700048C281473E85828009479147E39CE6FE49
:10158000C94733D7F502B3F5F502E1BFAE86B7150B
:101590000500014711469385854099BB93F73500B7
:1015A00089EB8981914781C50EA248C281473E855A
:1015B00082809147EDBFD8218947631CF702011152
:1015C00022CC2A84C84506CEAE86014709C92EC65C
:1015D0009D4597F0FA1FE780E0BDB2462A87228535
:1015E0006244F240B715050019469385054205612E
:1015F00001B30945828099E1114582801C2105478C
:101600003EA2E37BF7FEFD1593F5F50F33D7F50208
:10161000B387E702E392F5FE050548C21AA2014529
:101620008280DC210947AE866385E70041476399E4
:10163000E700B7150500014721469385054B4DB9D5
:10164000094582800EA291E1014548C20145828090
:10165000AE86B7150500014729469385654449B90B
:101660000EA291E1014548C201458280AE86B715C0
:10167000050001473146938545459DB90EA291E18C
:10168000014548C201458280DA21854763FFE702B0
:10169000011122CC2A84884106CE1DC12EC6854563
:1016A00097F0FA1FE78000B12A8722856244B2468C
:1016B000F240B715050039469385C54605610DB959
:1016C000F240624409450561828009458280914764
:1016D00085C518218D46914763F0E602FD15C205C8
:1016E000C181B3C6E5023308D7026397050105053A
:1016F00016A23AA248C281473E858280DC21094772
:10170000AE866385E70041476399E700B71505009A
:10171000014741469385054BE1BE09458280B335BB
:10172000B000139525008280011122CC26CA06CE76
:1017300098258547AA842E844946631FF700993669
:101740003E2049151306200963C8A700F2406244F1
:10175000D244094505618280183485476314F70037
:1017600013660604484001C98D4532C697F0FA1F3A
:10177000E78040A43246A2866244F2402A8726854A
:10178000D244B715050093856547056195B68D4729
:1017900063F8B7021C311821F115A207D98F1EA2D8
:1017A0003C313821C205A207C181D98F3EA24EA289
:1017B00089C5110508C60145828023240600E5BFBE
:1017C00011458280011122CC2A84884506CEAE863E
:1017D00001C92EC6954597F0FA1FE780A09DB24635
:1017E0002A8722856244F240B71505005946938541
:1017F000A5480561F5BCB335B0001395250082807E
:10180000AE86B7150500014761469385854ACDB47C
:101810008547114563F0D7021C320C22A207CD8FF9
:101820001EA39387E6FF3EA389476386F600090659
:1018300050C30145828023220700E5BF014781464E
:101840007946814575B49E211CA19E21A1831CB1BE
:1018500009458280BC2105471CA18A216397E700C6
:101860000A050505420541818280C9473305F50215
:10187000CDBF8A210A05420541818280BE211CA17B
:101880008A21BE213305F50205054205418182808A
:101890008A2182808A2182808A218280BE211CA1A5
:1018A0008A21BE213305F50205054205418182806A
:1018B0009E211CA19E21A1831CB1BE213CA1BE2161
:1018C000A1833CB1CA2111054205418182809E213C
:1018D0001CA19E21A1831CB1AA21090542054181B9
:1018E0008280894711456398F6001C321422014515
:1018F000A207D58F1EA382809A21D947AE8663F9AD
:10190000E700B725050001470D469385658451BC66
:10191000094582801145639DA6001C3214220145B1
:10192000A207D58F1EA33C323422A207D58F3EA337
:101930008280BC210547FD1793F7F70F6361F70419
:101940009E2195CF011122CC2A84C84106CE1DC10B
:101950002EC6894597F0FA1FE780C0852A87228521
:101960006244B246F240B725050015469385458589
:10197000056105BCF2406244094505618280094564
:1019800082809547114563F1D706411122C426C2D2
:101990004AC006C61C32BA841822A2073284D98FE4
:1019A0009EA03C32382293054400A207D98FBEA0E6
:1019B0008947DCA0094613855400368997F0FA1F41
:1019C000E78060999307A9FF9EA49947631BF900DC
:1019D00023A60400B2402244924402490145410139
:1019E00082801904C0C4FDB782809E2195CF011169
:1019F00022CC2A84C84106CE1DC12EC6854597E05B
:101A0000FA1FE780207B2A8722856244B246F24093
:101A1000B72505001D4693852587056159B2F2401B
:101A20006244094505618280094582809947639D2A
:101A3000F6028947411106C65CA31C321422B28506
:101A4000A207D58F1EA33C3234225023A207D58F84
:101A5000130557003EA3910597F0FA1FE780A08F6A
:101A6000B240014541018280D14711456394F6009F
:101A7000C147C9B782809E219DCF011122CC2A8403
:101A8000C84106CE05C52EC6894597E0FA1FE780F6
:101A900060722A8722856244B246F240B72505006B
:101AA00025469385C58705616FF0BF8FF24062447C
:101AB00009450561828009458280894711456398FF
:101AC000F6001C3214220145A207D58F1EA3828086
:101AD000011122CC2A84C84106CEAE86014709C92D
:101AE0002EC6854597E0FA1FE780C06CB2462A876C
:101AF00022856244F240B72505002D46938505896D
:101B000005616FF01F8A1145639DA6001C321422E7
:101B10000145A207D58F1EA33C323422A207D58FE0
:101B20003EA38280011122CC2A84C84106CEAE8613
:101B300001C92EC6854597E0FA1FE780A067B24627
:101B40002A8722856244F240B725050035469385F1
:101B5000458905616FF0FF8493F71600114581EB0D
:101B600089476386F600858256A310C301458280AB
:101B7000011122CC2A84C84106CE05C52EC6854552
:101B800097E0FA1FE78000632A8722856244B24605
:101B9000F240B72505003D469385858905616FF0C4
:101BA0005F80F24062440945056182809E219DCF9D
:101BB000011122CC2A84C84106CE05C52EC689450E
:101BC00097E0FA1FE780005F2A8722856244B246C9
:101BD000F240B725050045469385C58905616FF03C
:101BE0004FFCF240624409450561828009458280CC
:101BF000854763F6D70208A70CB71C320C22A20750
:101C0000CD8F1EA39387E6FF3EA389476386F60028
:101C1000090650C30145828023220700E5BF114514
:101C20008280014781464D4681456FF08FF78D4791
:101C3000114563F4D7021C320C22A207CD8F1EA3DC
:101C40003C322C22A207CD8F3EA39387C6FF5EA312
:101C50006386A600110610C7014582802324070071
:101C6000E5BF011122CC2A84884506CEAE8601C983
:101C70002EC6954597E0FA1FE780C053B2462A87E3
:101C800022856244F240B72505005D469385058BA9
:101C900005616FF00FF1854711456395F6001C2231
:101CA00001451CA3828001478146654681456FF04E
:101CB0004FEF011122CC2A84C84106CEAE860147DF
:101CC00009C92EC68D4597E0FA1FE780A04EB2469F
:101CD0002A8722856244F240B72505006D46938528
:101CE000E58C05616FF0CFE0011122CC2A84C84158
:101CF00006CEAE86014709C92EC68D4597E0FA1F6C
:101D0000E780404BB2462A8722856244F240B725DD
:101D1000050075469385E58C05616FF06FDD011157
:101D200006CE2EC6EF90A03A19C5B245F2402A2140
:101D300005616FD0A000F240494505618280B72758
:101D40000020A38407E0B7270020238407E0B727FB
:101D5000002023A807DEB727002023AA07DEB72725
:101D6000002023AC07DEB727002023AE07DEB7270D
:101D7000002023A607DEB727002023A407DEB7270D
:101D80000020239207021306403893874702B2B31C
:101D900071761307400B130606B8BAA3D2B31167C6
:101DA0001D46930600059305000A1305007DDAA37E
:101DB000F2B341470546130810F8BAA7DAA7BAAB41
:101DC000DAABFAAB9AAF9AB723960703EEA38EA7C6
:101DD000F6A796ABAAAF239E0700239F0700239088
:101DE0000702B2B7239707021308F00723980702E8
:101DF0002392E7042393E704239FE7042390E70655
:101E00002391E7062392E706239907031307C01CD3
:101E1000D2BBF2BB239C0702239D0702239E07022D
:101E2000239F0702239007042391C70423940704E8
:101E3000239507042396C7042397D7042398D70430
:101E40002399A704239A0704239B0704239C0704D0
:101E5000239DD704239ED7042393A7062394070624
:101E600023950706239607062397B7062398B706F8
:101E700023990706239AE7067D57239B070623909D
:101E8000E7088280011126CAAA84214522CC06CE09
:101E90002E8432C636C43AC2EFE04F950DC5A24635
:101EA00012473246930700FD1CA1994704B13CA19B
:101EB00074A178B152A1AA8522856244F240D2442D
:101EC00005616FE0CF96F2406244D24405618280A2
:101ED000B727002023A8A7DE8280B727002023AAE7
:101EE000A7DE8280B727002023ACA7DE8280B72739
:101EF000002023AEA7DE8280011122CC4AC806CE84
:101F000026CA2A890144B30489006368B400F240F8
:101F10006244D2444249056182802EC6EFE06FA838
:101F200093170501C183A183B2459CA093071400B8
:101F300093F7F70F850463F8B700CA97090488A3DD
:101F40001374F40FC9B73E84C9B7411122C43724B2
:101F50000020130444006A20C16706C6FD17630E03
:101F6000F500B727002003C6C714B72500209385C6
:101F700005E0EF80F077FD577EA0B240224441019A
:101F8000828009C925151375F50F1335850E134584
:101F9000150082800145828023900500C1C67971B9
:101FA00022D426D24ECE52CC5AC806D64AD056CAD1
:101FB0005EC63684328AAE892A8B814463F2440736
:101FC000B30794009C23138914004209939A0701D4
:101FD00093DA0A011359090163840A04CA97634119
:101FE000FA04B307240183CB07005E85593F0DC96E
:101FF0009387FAFF2390F90063906B031305190090
:102000002295B250225492540259F249624AD24A5D
:10201000424BB24B45618280D694C204C18079BFE5
:102020000145C5B701458280011122CC372400202B
:1020300026CA4AC84EC69307440006CE2E89D0CB86
:102040008CCBC8C7AA8441469305F00F4A8597E018
:10205000FA1FE780203D85491304440063193503C6
:102060000848C145513D41469305F00F268597E04C
:10207000FA1FE780203B0549631525034844624465
:10208000F240D2444249B249C1450561B5B5414625
:1020900081454A8597E0FA1FE780C038E31535FD92
:1020A000C1B741468145268597E0FA1FE780803712
:1020B000E30625FDF2406244D2444249B24905613B
:1020C0008280411122C43724002026C24AC0AE8437
:1020D0002A891306000281451305440006C697E0CD
:1020E000FA1FE780802A93074400A3812701B727BE
:1020F000002023889714EFC0B046854719C1814757
:1021000049452302F400B24022449244024941016D
:102110008280814791C909C985476319F500DC317F
:1021200093E707FCDCB185473E85828089476316CB
:10213000F500DC3193F7F703F5B70D478547E31555
:10214000E5FED8311377F70313670704D8B1E9BF69
:10215000814785C119CDD8319306000C8547137787
:10216000070C6308D700930600048D476303D7006C
:1021700089473E858280411122C4005D06C626C281
:102180001DC8AA84085009C597E0FA1FE780C0F669
:10219000485009C597E0FA1FE78000F6085409C5C2
:1021A00097E0FA1FE78040F5228597E0FA1FE78065
:1021B000A0F423AC0402B240224492444101828044
:1021C00019E9B727002083C7670091C7372500208A
:1021D000130505DE8280372500201305C5018280A6
:1021E000B727002003C567008280B727002003A51A
:1021F00007018280B727002003A547018280B72707
:10220000002083A7870188438280B7270020938717
:102210004700D44B9842050798C2A8339307F00FA4
:102220006305F50091656FD05FFF8280011122CCBC
:1022300006CE2E8432C6EF80307A9147B2456310C5
:10224000F502B727002083A7C7DF95C303A30700C4
:10225000630F030022856244F24005610283B727C1
:10226000002083A747DF81C703A34700D5B7F2400B
:102270006244054505618280011122CC2A844A21ED
:1022800006CE26CA4AC84EC697E0FA1FE78080519C
:102290002DC52A8904218349C500F13D4A85EF9067
:1022A000E0314A20EF80906E37290020130989E041
:1022B00083470900B9C763969704B727002083C5F1
:1022C00097E02685A93C19E1230009004A20EF8008
:1022D000B0709147631CF500B72700209387470033
:1022E0005620FA236394E6007D57FAA3F240624435
:1022F000D2444249B2490561828081499304F00F7A
:1023000065B79307F00FE383F4FC74205220282074
:102310004E87A685853E5DBF79715EC6AA8B2E85E8
:1023200052CC56CA5AC806D622D426D24AD04ECE4D
:10233000AE8A328B368A97E0FA1FE780A0466DC1DD
:10234000045D2A89F1CC9C50614599C31305400373
:102350009C5481C751054205418163050A007105FE
:1023600042054181DC5081C7590542054181EFD0CA
:10237000FFC72A8455C56146814597E0FA1FE7806B
:10238000C000B727002083C947056394090083492B
:102390000900930700FD1CA0A947A30074013CA0FD
:1023A000230364018C50231254011305840191C945
:1023B00008C47146930A440397E0FA1FE780A0F926
:1023C00056858C5491C948C45146930A450197E0FB
:1023D000FA1FE78040F85685630C0A0008C871466A
:1023E000D285930AC50197E0FA1FE780C0F65685AB
:1023F000CC5099C548C8594697E0FA1FE780A0F528
:10240000A2854E85EFD0BFC22254B2509254F249F9
:10241000624AD24A424BB24B4A8502594561A1BB3E
:10242000B250225492540259F249624AD24A424B63
:10243000B24B4561828001114EC6AA892E854AC8D9
:1024400006CE22CC26CA2E8997E0FA1FE780803577
:1024500029C5B727002083C4470591E00421194509
:10246000EFD0DFB82A8415C98145194697E0FA1FD5
:10247000E780A0F1930700FD1CA0B947A300340139
:102480003CA023122401A2856244F2404249B24991
:102490002685D24405616FD09FB9F2406244D24490
:1024A0004249B2490561828039715ECEAA8B2E8580
:1024B00026DA4ED652D456D25AD006DE22DC4AD87C
:1024C000AE84328BB68A3A8ABE8942C697E0FA1F3A
:1024D000E780402D29C92A894145EFD03FB12A84A0
:1024E00039C14146814597E0FA1FE78000EAB727E6
:1024F000002003C5470519E103450900930700FDC6
:102500001CA0BD473CA0B247A300740146A0230411
:102510006401A304540123054401A30534015CC4F0
:10252000A285EFD0DFB0F2506254D2544259B25972
:10253000225A925A025BF24B21618280797126D233
:10254000AA8439454AD04ECE06D622D42EC6B289A8
:102550003689EFD0BFA90DCDB2459307000D1EA15E
:10256000B1472A844EA13CA1CE851905194697E0B2
:10257000FA1FE78040DE23062401A2852254B250D0
:102580000259F24913F5F40F925445616FD03FAAF6
:10259000B250225492540259F2494561828041114D
:1025A00026C2B724002093844400B83006C622C453
:1025B0004AC09307F00F6306F7042A893945EFD024
:1025C000FFA22A841DCD930700FDB72500201CA182
:1025D000A3002501230105009385C5010D051946BA
:1025E00097E0FA1FE78020D79E24A285A8303EA45A
:1025F0009C305CA42244B2409244024941016FD015
:102600001FA3B24022449244024941018280011139
:102610005AC02A8B314526CA4EC652C456C206CE6F
:1026200022CC4AC8AE84B28A368ABA89EFD01F9CBF
:102630002DCD2A84268597E0FA1FE780A01609C5CC
:102640005825A1476311F704B727002003C9770075
:10265000930700FD1CA09D47A30064013CA046A079
:10266000231354012314440123153401A285624429
:10267000F240D244B249224A924A024B4A85424928
:1026800005616FD0DF9AB727002003C91715E31142
:102690000BFCB727002083A707EC9C47D5DBCE8631
:1026A0005286D6852685829765B7F2406244D24429
:1026B0004249B249224A924A024B05618280011185
:1026C00022CC2A84214506CE2EC6EFD03F9215C5D6
:1026D000B245930700FD1CA1C5473CA1BC313CB1EC
:1026E000DE215EA1FC217CA1FC31AA857CB1228582
:1026F0006244F24005616FD09F93F24062440561ED
:102700008280397162CC2A8C594526DA4AD84ED655
:1027100052D456D25AD05ECE06DE22DCAE8432C609
:1027200036C4BA8B3E8BC28A468A83590104034958
:102730004104EFD0BF8B2DC53246930700FDA24662
:102740001CA1954730B1A30085013CA12A841946FC
:102750001105A9C2B68597E0FA1FE780C0BF23061E
:102760006401230A2401231574012317540123183B
:10277000440123193401A2856254F2504259B259DE
:10278000225A925A025BF24B624C2685D254216146
:102790006FD0FF89814597E0FA1FE78000BFC1B77E
:1027A000F2506254D2544259B259225A925A025BA0
:1027B000F24B624C21618280411122C437240020F7
:1027C000130444003C2006C626C285CBB724002053
:1027D000AA851946138504DE97E0FA1FE780A0B7A3
:1027E0002820938504DEEFF0DF922244B240138567
:1027F00004DE924441016FC06057B24022449244CB
:10280000014541018280411126C2B72400209387EF
:10281000440006C622C44AC0B8339307F00F93841D
:102820004400630FF7022A892945EFD02FFC2A8440
:1028300005C9930700FD1CA1A147A30025013CA1E8
:10284000BC20B7250020938505DE3CB11946110553
:1028500097E0FA1FE78020B0A830A285EFD02FFDC7
:10286000B8208D476311F702B727002083A787DFC1
:1028700099CB03A38700630803002244B24092442B
:10288000024941010283B24022449244024941017B
:102890008280797122D406D626D24AD04ECE52CC2E
:1028A00056CA09444DCD2A890A21AE89514497E080
:1028B000FA1FE78020EFAA845DC137270020930725
:1028C000C714DC238546BA8AFD1793F7F70F4944EE
:1028D00063F7F6085825A1476314F70063910908C8
:1028E0009C5C4544ADEF9165938545711305C0022D
:1028F00097D0FA1FE780007588DC2A8A4D4425C1ED
:102900001306C002814597E0FA1FE78000A88357AD
:10291000090093064A0036852311FA007146930593
:10292000490036C697E0FA1FE780E0A289472300F6
:10293000FA00C824B2460356090083C5CA146115BB
:1029400013351500EF90E07F2A8463860900CE8559
:102950002685EF80907401C42685EFF0DF81228503
:10296000B250225492540259F249624AD24A456105
:102970008280B727002083C707150547FD1793F707
:10298000F70F6377F708894749C6011122CC26CA99
:102990004AC84EC652C406CEAA89368AB2842E8947
:1029A00097E0FA1FE78000E02A84D14731C54855F7
:1029B00009C597D0FA1FE7802074F145268597E076
:1029C000FA1FE780E09E48D4CD471DC55424214717
:1029D0008147639DE600630B0A00382D1229930698
:1029E0002501AA854E85EF80B071AA875820630E15
:1029F00009001367670058A0F2406244D24442497C
:102A0000B249224A3E850561828013674700E5B7D7
:102A1000C9473E8582809307F00363EAA700B72782
:102A200000209387470206053E950A218280416572
:102A30007D158280011122CC2A842E8526CA06CEDD
:102A4000AE8497E0FA1FE780E0D50DCDB7470F00C1
:102A50009387F723094563E2870281450A8541464A
:102A600097E0FA1FE7806092A68560800A85418022
:102A70004081A3010100EF90A05AF2406244D24489
:102A8000056182804945D5BFB72700202387A71459
:102A900082806F906065797152CC2A8A328522D407
:102AA00026D24AD04ECE56CA5AC85EC606D662C490
:102AB000AE8BB28A368BBA843E89C289468497E04F
:102AC000FA1FE78020CE0DC92A8C63130A02137700
:102AD0004B005C2115CF93E727012302FC008DEC0E
:102AE000631C0902639A090205E8ED9B2302FC00BE
:102AF000832B8C0363910B08B250225492540259D9
:102B0000F249624AD24A424BB24B224C4561828022
:102B1000F59B93E70701D1B793E747002302FC0039
:102B200001CC1C484146A2852324FC0213058C01DC
:102B300097E0FA1FE780208263930B02D5D8032524
:102B4000CC0209C597D0FA1FE780005BF1452685C6
:102B500097E0FA1FE780C0852326AC0251BFE30946
:102B600009F80325CC0209C597D0FA1FE780C058A1
:102B7000F1454A85F1BF9DC483A70B0299EB91658E
:102B800093853571714597D0FA1FE780A04B23A03C
:102B9000AB0203A50B0219C57146A68597D0FA1F93
:102BA000E780607B6388090283A74B0299EB9165FC
:102BB00093852571594597D0FA1FE780A04823A235
:102BC000AB0203A54B0219C55946CE8597D0FA1F13
:102BD000E78060781DC483A78B0299EB916593858C
:102BE0001571514597D0FA1FE780C04523A4AB0269
:102BF00003A58B0219C55146A28597D0FA1FE7801D
:102C000080752254B2509254F249B24B224CCA867B
:102C10005A860259424BD6855285D24A624A45614C
:102C20006FF08FEF011126CA52C406CE22CC4AC8DB
:102C30004EC62A8AAE8497E0FA1FE780A0B625C167
:102C4000AA893945EFD08FBA2A8431C9B727002025
:102C500003C947056314090003C909009307000D60
:102C60001EA0AD473CA093856900130534001946AA
:102C700097D0FA1FE780206E93F71400858085882F
:102C80005CA444B423154401A2856244F240D244BA
:102C9000B249224A4A85424905616FD04FB9F24094
:102CA0006244D2444249B249224A056182800111FC
:102CB0004EC652C456C206CE22CC26CA4AC8AA8ADA
:102CC0002E8AB28997E0FA1FE780C0AD3DC92A89F4
:102CD0001305C002EFD08FB12A8425C5B727002085
:102CE00083C4470599E0834409009307000D1EA0A3
:102CF000E9473CA09305690013053400194697D0B5
:102D0000FA1FE7804065D285231554011305C400DE
:102D1000414697D0FA1FE7800064CE851305C401B1
:102D2000414697D0FA1FE7800063A2856244F240D3
:102D30004249B249224A924A2685D24405616FD05F
:102D40000FAFF2406244D2444249B249224A924A09
:102D500005618280411122C437240020130484DEDF
:102D6000084006C619C597D0FA1FE780E03823202F
:102D70000400B240224441018280011106CE22CCDF
:102D800026CA4AC82EC697E0FA1FE780A0A121CD27
:102D9000B245B727002003C947050CD5AA846314A0
:102DA0000900034905004145EFD04FA42A8405CD11
:102DB0009307000D1EA1A5473CA1DC30938564005C
:102DC0001105A30FF5FE194697D0FA1FE780A0580A
:102DD0009C54A285F2405CC46244D2444A85424974
:102DE00005616FD0CFA4F2406244D24442490561EC
:102DF00082801D71A2CC86CE2A842EC697E0FA1F4F
:102E0000E780409A15C954251147AA87494563911F
:102E1000E6029C5FB24591C3EC2BB7D605002308B0
:102E2000B1009386A6FE100889452285EF80101E0A
:102E3000F6406644256182805145DDBFB7270020FA
:102E400083C707150547FD1793F7F70F637AF70454
:102E5000894721CA411122C426C24AC006C6B2848B
:102E60002E8997E0FA1FE780E0932A84D14715C1A5
:102E7000630609005C2193E727005CA14146A68513
:102E80001305840197D0FA1FE780E04C9C481CD4BE
:102E90008147B2402244924402493E8541018280EA
:102EA000C9473E858280797122D406D62A842EC6EF
:102EB00097E0FA1FE780008F01CDB2452285230EEF
:102EC000B1006C08EF80101AB25022544561828024
:102ED0005145DDBF6F802025C1671387E7FF6395EC
:102EE000E502B727002083A747DF91EB49458280A1
:102EF0004945B2402244924402494101828003A3E1
:102F00000700E30503FE0283411122C426C24AC022
:102F100006C6FD172A892E84B284639AF502B72764
:102F2000002083A747DF91CF9C4381CF829711E98F
:102F3000B7270020238427E1B7270020A38497E048
:102F40004DBFA6854A85EFE09FDD45F5D5B72E85B7
:102F500097E0FA1FE780008541DD1C210D45E39ACB
:102F600027F922852244B2400249A68592444101B4
:102F70006FB0D05C9307F00363E1A7064111C1670E
:102F800022C406C626C2FD172A8409456381F502BC
:102F9000C547AE846312F4022E85EFB0B0613725C9
:102FA00000201305450206042A9406A00145B240FC
:102FB00022449244410182809307A0036316F400E7
:102FC0002E85EFB07058E1BF9307B003E319F4FC0E
:102FD00013F5F50FEFB09057D9B70945828001116D
:102FE00006CE2AC6EFE0BFD5EF208048EF10B00034
:102FF000EF906174B727002093874700130700F014
:10300000BAA323820700B727002032451387C714CD
:10301000FD5634A3F2402386A714954505616F60E1
:10302000D039597193970501CAD086D6A2D4A6D2B9
:10303000CECED2CCD6CADAC8DEC6E2C4E6C2EAC078
:103040006EDEC1872E8963DB074EB724002003C5DF
:10305000C414B7290020372B002097D0FA1FE7802F
:10306000801A2A8426CEB72A0020372C0020938489
:103070004900B72C00201DE021653345A900B6505A
:10308000265496540659F649664AD64A464BB64BDC
:10309000264C964C064DF25D656182801C2013071C
:1030A000200A639BE70003CA34002A20C1652286F8
:1030B000FD15EFF0AF97A1AA72471307C714034A93
:1030C000270013071009639FE7141C30154763910D
:1030D000E7022285EFF04F9A2285EFC07FEEF2479C
:1030E00003C5C71497D0FA1FE780E0112A8461B79F
:1030F00039476391E7164A208567A5076315F504EC
:103100000C4483CB0500639D0B00850591C93725D1
:10311000002019461305C50197D0FA1FE780A023A8
:1031200003C749008547631FF70E63880B0023829E
:1031300009005E85EFF0AFC645B789472382F900E5
:10314000EFB0904251BF8967138727006318E504E9
:10315000832B840063880B0C83C70B0099EB83C718
:103160002B0003C71B00A207D98F9EA483C73B0077
:103170009CB003C7490089476316F70A83C70B0051
:1031800091C72382090003C50B006DB78C308A24D8
:103190008D472382F900EF601025F5B79507631777
:1031A000F5001C448823EFF00FE63DB7F97713874D
:1031B000A7FF2A9742074183914663F1E60493876C
:1031C000A7FCAA97C207C18371476371F702896799
:1031D0001387B7006310E50483A70ADFE38E07EEC9
:1031E0009C43A285E38A07EE829715A03707001853
:1031F0001307F770B357F700858BB9C783278BDFA9
:10320000E38C07EC9C43E38907EC22858297E31566
:1032100005EC09A81387C700631FE5001C449C2325
:10322000E38C07EA9307F00FE308FAEAA2855285D8
:10323000EFC0FFDF6DB5B9076318F50083A74CDF5A
:10324000E38C07E8DC4371BF896793871704E305C4
:10325000F5F8C9BF3D476397E7044A20896713879C
:10326000D700E30DE5FC13879701E309E5FCCD07E3
:10327000E31AF5FAFA20C167FD17631DF70083A76B
:103280004CDFE38B07E4DC43E38807E40965A285B0
:103290004D0599BFB727002083A7C7DFE38E07E25C
:1032A0009C43DDB71307E003E39EE7F63C200547A8
:1032B000639AE70C7C2037270020930D87DEDDE73B
:1032C00083A70D00CDC383CB0700214A6830130DBF
:1032D0008400EA85EFE0DFE75C2868B083580401EA
:1032E0000358E4005A202A8628303EC23E28EA8647
:1032F000DE853EC0D287EFF0CFC03C3095E3DD479E
:10330000835804010358E40074304E203EC23E2826
:103310003EC06A87D28705465E85EF80C00228B02E
:1033200083A70D0081C71145EFF0DFA2930B8CE05E
:1033300003C50B00E30205DAB727002083C597E039
:10334000EFE0FF9DE30A05D834309307100363894B
:10335000F600522083C50B0052873685EFE09FB2FE
:1033600023040CE095BB83CB340085B783278BDF28
:1033700083CB3400114AB9DBDC43A9DB814501452D
:103380008297A9B729476396E7087C203727002052
:10339000930D87DEBDE383A70D00A9CF83CB070084
:1033A000214A6830130D84009377250013761500A9
:1033B00089E7EA85EFE0DFD92A868347040270B007
:1033C0008358C4010358A4015A2028303EC27E2CE1
:1033D000EA86DE853EC0D287EFF0AFB23C30A9F37B
:1033E000DD478358C4010358A40174304E203EC207
:1033F0007E2C39BF83CB340065B783278BDF83CB2B
:103400003400114AD9DFDC43C9DF81450145829789
:1034100049BF0947639CE70083A70ADFE38E07CA19
:10342000DC43E38B07CA228582977DB12D476398E1
:10343000E70083A70ADFE38107CA9C47DDB70D4792
:103440006396E70022868D454A20A5B11947639C03
:10345000E7049305610213051031EF9021362C101B
:1034600013052031EF9081357220835781024A2065
:1034700063E7C70016240357610263F7E60093056C
:103480000002EFB0301289B96373E6007AA063F3EB
:10349000D7001EA45A24362412246E2001488147E6
:1034A000EFB0101015B91D47E38EE7D6314763958D
:1034B000E7002286B14549BF35476398E70083A7F7
:1034C0000ADFE38B07C0DC47A9BF39476396E700F3
:1034D0002285EF00207909B13D476398E70083A773
:1034E0000ADFE38B07BE9C4B2DBF41476396E70085
:1034F0002285EF005000CDB645476396E7000145B1
:10350000EF00F00ED1BE4947639DE70083278BDFB4
:10351000E38A07D0DC43E38707D0814505458297DE
:1035200011B34D47E390E7D083278BDFE38C07CEC1
:10353000DC43E38907CEA2850945D5B793F715008B
:1035400089CFB727002083A707DF89C7DC4399C34A
:1035500001458297134519001DB693F7250091CFB9
:10356000B727002083A787DF91C7DC4381C7814548
:10357000054582971345290019B693F74500014583
:10358000E38F07AEB727002083A7C7DE37240020CC
:103590001304440089CF85475CA0B727002083A788
:1035A00087DF91C7DC4381C7814505458297484441
:1035B0002C10EF8090132810EFF00FA0B7270020F9
:1035C00083D7670481CF130600643386C702B72709
:1035D000002003C5C7149145EFC09FD31345490090
:1035E00079BC011122CC2A84554506CE26CAEFF0BB
:1035F0008FC2AA8413054002EFF0EFC12AC613055B
:103600005002EFF04FC1AA86228562443246F24052
:10361000B3359000D24405616FB0E07E797122D459
:1036200006D68D472E84631AF500BA259625F22119
:103630002830CE21EFE0BFFD01A889671387D700AE
:10364000631EE502A82119E58547B25022543E8544
:1036500045618280B727002083A687DEF5D6B03289
:103660008C22814802C202C001488147014791066D
:10367000EFF02F890545EFF0EFEDF9B71387E7007D
:10368000E304E5FC138737016319E500A8214DDD4C
:10369000014781460146814571BFE507E306F5FA1A
:1036A000B1476319F500B727002003C57700EFF095
:1036B0000F8159BF41677D178147E318E5F8D8317D
:1036C000C947E313F7F8F625D2250A24AE25EFB053
:1036D00040752DC15D45EFF00FB43335A000E8848F
:1036E0004C202A203008EF701002BC84B1FF6C0817
:1036F00013051031EF90810C9305E1011305203182
:10370000EF90C10BBC861A246373F7001EA4BC871C
:103710003A2463F3E7003EA40E243E2463F3B7008B
:103720002EA47A24562432242A2001488147EFB05F
:10373000206519BF8547FC8465B7B727002013872C
:10374000C71474331307F00F638DE6063DC94111AA
:1037500022C426C24AC006C6AA8428251389C714D3
:103760004105EFC0BF882A8439C59307000D1EA10B
:10377000D9473CA1DE205EA1FC207CA1FC307CB1BD
:103780009C241CA59C341CB5B02430A515C2CC4487
:10379000410548C497D0FA1FE780E0BBA2852244C8
:1037A00003457900B2409244024941016FC03F880D
:1037B00023260500E5B7B240224492440249410164
:1037C00082808280C1671387E7FF639DE500B7278A
:1037D000002083A787DE95C39C230D47639DA70028
:1037E0006FB04059FD1749476397F500B727002090
:1037F00083A787DEF5F73A8582804947EDBF3971A7
:1038000022DC06DE26DA4AD84ED652D456D25AD018
:103810005ECE62CC182185472A846309F7041025FF
:10382000930695009305E1000545EFE0EFF681472B
:1038300011C11C21142011476382E60437270020A0
:103840000327C7E08D461833630AD70285CB1DC70F
:103850000DE10145F2506254D2544259B259225AF4
:10386000925A025BF24B624C216182808147014592
:10387000D1B78546631ED7088D8BE1DF0830130A68
:103880002400D285EFE0DF8C3729002008B08327A1
:1038900009E12A8B130909E18149C1C3B72A002034
:1038A0009304F00F83C7AAE0138CAAE063FAF9022D
:1038B00003250900939B49005E951C2163819706AF
:1038C0001C31639E67051946D285090597D0FA1FFA
:1038D000E78000B129C5832409001820DE94B1E4F3
:1038E00014209147E387F6F683270900BDD30346EA
:1038F0000C0001479305F00FE30DE6F4BE84C10709
:1039000003C507FF6301B50C05071377F70FEDB784
:103910008946E310D7F4858B8DB7054525BF85090A
:1039200093F9F90F41B788C4C9A891476312F70604
:10393000C8440DC11C241021630EF60418209147C1
:103940006318F706C84419C597C0FA1FE780C07A04
:1039500023A60400082491659385E571050597C0A9
:10396000FA1FE780206E0DC118209147631BF704F2
:10397000C8C41C24930594000505A30FF5FE10246C
:1039800097D0FA1FE780209D08243335A000D9B5D1
:10399000884445B793059400050597D0FA1FE78042
:1039A00020A48547E31CF5F85545EFF0CF86ADA080
:1039B00088444DD197C0FA1FE780007423A4040007
:1039C00051BF88C47DB794A01C30D28513852400D4
:1039D0009CB0194697D0FA1FE780E09708249165BC
:1039E0009385F571050597C0FA1FE780A0650DC1A5
:1039F00018209147E319F7F2C8C41C2493059400DA
:103A00000505A30FF5FE102497D0FA1FE780A094B8
:103A10001C2481F708207D151335150025BD39714B
:103A200022DC26DA4ED652D406DE4AD856D25AD0F6
:103A30005ECE2A84930925000831CE85B724002064
:103A4000EFE00FF108B09384C4E09C400D472A8A50
:103A50009C336390E70437290020832709E1814ADA
:103A6000130909E163810714B72B002003C7ABE0FA
:103A700093970A01C18303250900138BABE063E030
:103A8000E70C83460B000327090081471306F00F5C
:103A9000BDAAF1D3144C70389305E1000545EFE061
:103AA000AFCF15C9984085461C2118336310D70243
:103AB0008D8BD5F30145F2506254D2544259B2591C
:103AC000225A925A025BF24B216182808946858B91
